{
  "contractName": "FederatedModel",
  "abi": [
    {
      "inputs": [
        {
          "internalType": "uint256",
          "name": "id",
          "type": "uint256"
        },
        {
          "internalType": "uint256",
          "name": "od",
          "type": "uint256"
        },
        {
          "internalType": "int256",
          "name": "learning_rate_",
          "type": "int256"
        },
        {
          "internalType": "int256",
          "name": "precision_",
          "type": "int256"
        },
        {
          "internalType": "uint256",
          "name": "batchSize_",
          "type": "uint256"
        },
        {
          "internalType": "uint256",
          "name": "updateInterval_",
          "type": "uint256"
        }
      ],
      "stateMutability": "nonpayable",
      "type": "constructor"
    },
    {
      "inputs": [],
      "name": "administrator",
      "outputs": [
        {
          "internalType": "address",
          "name": "",
          "type": "address"
        }
      ],
      "stateMutability": "view",
      "type": "function"
    },
    {
      "inputs": [
        {
          "internalType": "uint256",
          "name": "accountNR",
          "type": "uint256"
        },
        {
          "internalType": "address",
          "name": "verifier_address",
          "type": "address"
        }
      ],
      "name": "updateVerifier",
      "outputs": [],
      "stateMutability": "nonpayable",
      "type": "function"
    },
    {
      "inputs": [
        {
          "internalType": "int256[][]",
          "name": "local_weights",
          "type": "int256[][]"
        },
        {
          "internalType": "int256[]",
          "name": "local_bias",
          "type": "int256[]"
        }
      ],
      "name": "initModel",
      "outputs": [],
      "stateMutability": "nonpayable",
      "type": "function"
    },
    {
      "inputs": [],
      "name": "map_temp_to_global",
      "outputs": [],
      "stateMutability": "nonpayable",
      "type": "function"
    },
    {
      "inputs": [],
      "name": "get_global_weights",
      "outputs": [
        {
          "internalType": "int256[][]",
          "name": "",
          "type": "int256[][]"
        }
      ],
      "stateMutability": "view",
      "type": "function"
    },
    {
      "inputs": [],
      "name": "get_global_bias",
      "outputs": [
        {
          "internalType": "int256[]",
          "name": "",
          "type": "int256[]"
        }
      ],
      "stateMutability": "view",
      "type": "function"
    },
    {
      "inputs": [],
      "name": "time_until_next_update_round",
      "outputs": [
        {
          "internalType": "int256",
          "name": "",
          "type": "int256"
        }
      ],
      "stateMutability": "nonpayable",
      "type": "function"
    },
    {
      "inputs": [],
      "name": "end_update_round",
      "outputs": [],
      "stateMutability": "nonpayable",
      "type": "function"
    },
    {
      "inputs": [],
      "name": "is_Training",
      "outputs": [
        {
          "internalType": "bool",
          "name": "",
          "type": "bool"
        }
      ],
      "stateMutability": "nonpayable",
      "type": "function"
    },
    {
      "inputs": [],
      "name": "roundUpdateOutstanding",
      "outputs": [
        {
          "internalType": "bool",
          "name": "",
          "type": "bool"
        }
      ],
      "stateMutability": "nonpayable",
      "type": "function"
    },
    {
      "inputs": [
        {
          "internalType": "uint256",
          "name": "accountNR",
          "type": "uint256"
        },
        {
          "internalType": "int256[][]",
          "name": "local_weights",
          "type": "int256[][]"
        },
        {
          "internalType": "int256[]",
          "name": "local_bias",
          "type": "int256[]"
        },
        {
          "internalType": "uint256[2]",
          "name": "a",
          "type": "uint256[2]"
        },
        {
          "internalType": "uint256[2][2]",
          "name": "b",
          "type": "uint256[2][2]"
        },
        {
          "internalType": "uint256[2]",
          "name": "c",
          "type": "uint256[2]"
        },
        {
          "internalType": "uint256[209]",
          "name": "input",
          "type": "uint256[209]"
        }
      ],
      "name": "update_with_proof",
      "outputs": [],
      "stateMutability": "nonpayable",
      "type": "function"
    },
    {
      "inputs": [
        {
          "internalType": "int256[][]",
          "name": "local_weights",
          "type": "int256[][]"
        },
        {
          "internalType": "int256[]",
          "name": "local_bias",
          "type": "int256[]"
        }
      ],
      "name": "update_without_proof",
      "outputs": [],
      "stateMutability": "nonpayable",
      "type": "function"
    },
    {
      "inputs": [],
      "name": "participantsCount",
      "outputs": [
        {
          "internalType": "uint256",
          "name": "",
          "type": "uint256"
        }
      ],
      "stateMutability": "view",
      "type": "function"
    },
    {
      "inputs": [
        {
          "internalType": "int256[][]",
          "name": "new_weights",
          "type": "int256[][]"
        }
      ],
      "name": "movingAverageWeights",
      "outputs": [],
      "stateMutability": "nonpayable",
      "type": "function"
    },
    {
      "inputs": [
        {
          "internalType": "int256[]",
          "name": "new_bias",
          "type": "int256[]"
        }
      ],
      "name": "movingAverageBias",
      "outputs": [],
      "stateMutability": "nonpayable",
      "type": "function"
    },
    {
      "inputs": [
        {
          "internalType": "int256",
          "name": "newLearnignRate",
          "type": "int256"
        }
      ],
      "name": "changeLearningRate",
      "outputs": [],
      "stateMutability": "nonpayable",
      "type": "function"
    },
    {
      "inputs": [],
      "name": "getLearningRate",
      "outputs": [
        {
          "internalType": "int256",
          "name": "",
          "type": "int256"
        }
      ],
      "stateMutability": "nonpayable",
      "type": "function"
    },
    {
      "inputs": [],
      "name": "getBatchSize",
      "outputs": [
        {
          "internalType": "uint256",
          "name": "",
          "type": "uint256"
        }
      ],
      "stateMutability": "nonpayable",
      "type": "function"
    },
    {
      "inputs": [],
      "name": "getRoundNumber",
      "outputs": [
        {
          "internalType": "uint256",
          "name": "",
          "type": "uint256"
        }
      ],
      "stateMutability": "nonpayable",
      "type": "function"
    },
    {
      "inputs": [],
      "name": "getInputDimension",
      "outputs": [
        {
          "internalType": "uint256",
          "name": "",
          "type": "uint256"
        }
      ],
      "stateMutability": "nonpayable",
      "type": "function"
    },
    {
      "inputs": [],
      "name": "getOutputDimension",
      "outputs": [
        {
          "internalType": "uint256",
          "name": "",
          "type": "uint256"
        }
      ],
      "stateMutability": "nonpayable",
      "type": "function"
    },
    {
      "inputs": [],
      "name": "getPrecision",
      "outputs": [
        {
          "internalType": "int256",
          "name": "",
          "type": "int256"
        }
      ],
      "stateMutability": "nonpayable",
      "type": "function"
    },
    {
      "inputs": [
        {
          "internalType": "int256",
          "name": "newPrecision",
          "type": "int256"
        }
      ],
      "name": "changePrecision",
      "outputs": [],
      "stateMutability": "nonpayable",
      "type": "function"
    },
    {
      "inputs": [
        {
          "internalType": "uint256",
          "name": "accountNR",
          "type": "uint256"
        },
        {
          "internalType": "uint256[2]",
          "name": "a",
          "type": "uint256[2]"
        },
        {
          "internalType": "uint256[2][2]",
          "name": "b",
          "type": "uint256[2][2]"
        },
        {
          "internalType": "uint256[2]",
          "name": "c",
          "type": "uint256[2]"
        },
        {
          "internalType": "uint256[209]",
          "name": "input",
          "type": "uint256[209]"
        }
      ],
      "name": "checkZKP",
      "outputs": [
        {
          "internalType": "bool",
          "name": "",
          "type": "bool"
        }
      ],
      "stateMutability": "nonpayable",
      "type": "function"
    },
    {
      "inputs": [],
      "name": "stopTraining",
      "outputs": [],
      "stateMutability": "nonpayable",
      "type": "function"
    },
    {
      "inputs": [],
      "name": "startTraining",
      "outputs": [],
      "stateMutability": "nonpayable",
      "type": "function"
    }
  ],
  "bytecode": "0x6080604052600a805460ff199081166001179091556013805490911690553480156200002a57600080fd5b506040516200271b3803806200271b8339810160408190526200004d916200009b565b6007849055600080546001600160a01b0319163217905560088590556009869055600e8290556005839055620000848142620000e5565b600c55600d5550506001600655506200010a915050565b60008060008060008060c08789031215620000b4578182fd5b865195506020870151945060408701519350606087015192506080870151915060a087015190509295509295509295565b600082198211156200010557634e487b7160e01b81526011600452602481fd5b500190565b612601806200011a6000396000f3fe608060405234801561001057600080fd5b506004361061018e5760003560e01c80639978c700116100de578063d41998cc11610097578063dbe0cd7711610071578063dbe0cd77146102cf578063dd60c898146102e2578063f53d0a8e146102ea578063ff08cde1146102ff5761018e565b8063d41998cc146102ac578063d5d1c6ee146102bf578063d661016a146102c75761018e565b80639978c7001461026457806399b16c5c14610277578063a011a5b71461028c578063a25f55d414610294578063a74c900e1461029c578063c3cd313b146102a45761018e565b8063518cae2a1161014b5780636d05533b116101255780636d05533b1461022c5780637c1cc4d21461023457806395c9290a146102495780639670c0bc1461025c5761018e565b8063518cae2a146101fe578063580431411461020657806364ace1ee146102195761018e565b806308db892014610193578063091bf334146101a85780630cde0456146101b0578063211b1e22146101ce578063293de354146101d657806349cd87c4146101e9575b600080fd5b6101a66101a1366004611fb3565b610312565b005b6101a6610758565b6101b861096f565b6040516101c59190612337565b60405180910390f35b6101b8610976565b6101a66101e4366004611f79565b61097c565b6101f16109c1565b6040516101c59190612319565b6101a6610a19565b6101a6610214366004611f49565b610a3c565b6101a6610227366004611e7b565b610a58565b6101b8610c34565b61023c610c49565b6040516101c5919061232c565b6101a6610257366004611f49565b610c52565b6101b8610c6e565b61023c61027236600461207d565b610c74565b61027f610d79565b6040516101c5919061229d565b6101b8610e12565b6101b8610e18565b61023c610e1e565b6101b8610f13565b6101a66102ba366004611eba565b610f19565b6101a661113e565b6101a6611164565b6101a66102dd366004611eba565b61137a565b6101b86116c4565b6102f26116ca565b6040516101c591906121f2565b6101a661030d366004611e7b565b6116d9565b600a5460ff1661032157600080fd5b610329611c65565b60005b60d181101561039157828160d1811061035557634e487b7160e01b600052603260045260246000fd5b6020020135828260d1811061037a57634e487b7160e01b600052603260045260246000fd5b60200201528061038981612564565b91505061032c565b50604051629978c760e81b81523090639978c700906103bc908d90899089908990889060040161239a565b602060405180830381600087803b1580156103d657600080fd5b505af11580156103ea573d6000803e3d6000fd5b505050506040513d601f19601f8201168201806040525081019061040e9190611f22565b61041757600080fd5b6000600190506000329050306001600160a01b031663dd60c8986040518163ffffffff1660e01b815260040160206040518083038186803b15801561045b57600080fd5b505afa15801561046f573d6000803e3d6000fd5b505050506040513d601f19601f820116820180604052508101906104939190611f61565b61058657600b80546001810182556000919091526000805160206125ac8339815191520180546001600160a01b0319166001600160a01b038316179055604051600162f7321f60e01b03198152309063ff08cde1906104f8908e908e90600401612206565b600060405180830381600087803b15801561051257600080fd5b505af1158015610526573d6000803e3d6000fd5b505060405163325670f760e11b81523092506364ace1ee915061054f908c908c906004016122fd565b600060405180830381600087803b15801561056957600080fd5b505af115801561057d573d6000803e3d6000fd5b5050505061074a565b60005b306001600160a01b031663dd60c8986040518163ffffffff1660e01b815260040160206040518083038186803b1580156105c257600080fd5b505afa1580156105d6573d6000803e3d6000fd5b505050506040513d601f19601f820116820180604052508101906105fa9190611f61565b81101561065857600b818154811061062257634e487b7160e01b600052603260045260246000fd5b6000918252602090912001546001600160a01b038381169116141561064657600092505b8061065081612564565b915050610589565b50811561074a57600b80546001810182556000919091526000805160206125ac8339815191520180546001600160a01b0319166001600160a01b038316179055604051600162f7321f60e01b03198152309063ff08cde1906106c0908e908e90600401612206565b600060405180830381600087803b1580156106da57600080fd5b505af11580156106ee573d6000803e3d6000fd5b505060405163325670f760e11b81523092506364ace1ee9150610717908c908c906004016122fd565b600060405180830381600087803b15801561073157600080fd5b505af1158015610745573d6000803e3d6000fd5b505050505b505050505050505050505050565b6000546001600160a01b0316321461076f57600080fd5b61077b60046000611c84565b61078760036000611ca2565b60005b6001548110156108ec576000600182815481106107b757634e487b7160e01b600052603260045260246000fd5b6000918252602090912001546001600160401b038111156107e857634e487b7160e01b600052604160045260246000fd5b604051908082528060200260200182016040528015610811578160200160208202803683370190505b5090506001828154811061083557634e487b7160e01b600052603260045260246000fd5b9060005260206000200180548060200260200160405190810160405280929190818152602001828054801561088957602002820191906000526020600020905b815481526020019060010190808311610875575b50506003805460018101825560009190915284519495506108d7947fc2575a0e9e593c00f959f8c92f12db2869c3395a3b0502d05e2516446f71f85b90910193506020860192509050611cc0565b505080806108e490612564565b91505061078a565b5060005b60025481101561096c5760006002828154811061091d57634e487b7160e01b600052603260045260246000fd5b60009182526020822001546004805460018101825592527f8a35acfbc15ff81a39ae7d344fd709f28e8600b4aa8c65c6b64bfe7fe36bd19b90910155508061096481612564565b9150506108f0565b50565b6006545b90565b60085490565b80600f836004811061099e57634e487b7160e01b600052603260045260246000fd5b0180546001600160a01b0319166001600160a01b03929092169190911790555050565b60606004805480602002602001604051908101604052809291908181526020018280548015610a0f57602002820191906000526020600020905b8154815260200190600101908083116109fb575b5050505050905090565b6000546001600160a01b03163214610a3057600080fd5b600a805460ff19169055565b6000546001600160a01b03163214610a5357600080fd5b600555565b6000306001600160a01b031663dd60c8986040518163ffffffff1660e01b815260040160206040518083038186803b158015610a9357600080fd5b505afa158015610aa7573d6000803e3d6000fd5b505050506040513d601f19601f82011682018060405250810190610acb9190611f61565b90506000811315610c2f578060011415610b5c5760005b82811015610b56576000848483818110610b0c57634e487b7160e01b600052603260045260246000fd5b9050602002013590508060028381548110610b3757634e487b7160e01b600052603260045260246000fd5b6000918252602090912001555080610b4e81612564565b915050610ae2565b50610c2f565b60005b82811015610c2d57600060028281548110610b8a57634e487b7160e01b600052603260045260246000fd5b906000526020600020015490506000858584818110610bb957634e487b7160e01b600052603260045260246000fd5b9050602002013590506000848383610bd19190612525565b610bdb91906124eb565b610be59084612492565b90508060028581548110610c0957634e487b7160e01b600052603260045260246000fd5b90600052602060002001819055505050508080610c2590612564565b915050610b5f565b505b505050565b600042600c54610c449190612525565b905090565b600a5460ff1690565b6000546001600160a01b03163214610c6957600080fd5b600755565b60055490565b6040805160a081018252855160608201908152602080880151608084015290825282518084018452865181528682015181830152818301528251808401845285518152858201519181019190915291810191909152600090600f8760048110610ced57634e487b7160e01b600052603260045260246000fd5b015460405163f993983d60e01b81526001600160a01b039091169063f993983d90610d1e9084908790600401612340565b60206040518083038186803b158015610d3657600080fd5b505afa158015610d4a573d6000803e3d6000fd5b505050506040513d601f19601f82011682018060405250810190610d6e9190611f22565b979650505050505050565b60606003805480602002602001604051908101604052809291908181526020016000905b82821015610e0957600084815260209081902083018054604080518285028101850190915281815292830182828015610df557602002820191906000526020600020905b815481526020019060010190808311610de1575b505050505081526020019060010190610d9d565b50505050905090565b60095490565b600e5490565b60135460009060ff1615610f0b5732600160005b306001600160a01b031663dd60c8986040518163ffffffff1660e01b815260040160206040518083038186803b158015610e6b57600080fd5b505afa158015610e7f573d6000803e3d6000fd5b505050506040513d601f19601f82011682018060405250810190610ea39190611f61565b811015610f0157600b8181548110610ecb57634e487b7160e01b600052603260045260246000fd5b6000918252602090912001546001600160a01b0384811691161415610eef57600091505b80610ef981612564565b915050610e32565b5091506109739050565b506000610973565b60075490565b610f2560016000611ca2565b610f3160026000611c84565b6008546001600160401b03811115610f5957634e487b7160e01b600052604160045260246000fd5b604051908082528060200260200182016040528015610f82578160200160208202803683370190505b508051610f9791600291602090910190611cc0565b5060005b60085481101561100b57828282818110610fc557634e487b7160e01b600052603260045260246000fd5b9050602002013560028281548110610fed57634e487b7160e01b600052603260045260246000fd5b6000918252602090912001558061100381612564565b915050610f9b565b5060005b60085481101561112a5760006009546001600160401b0381111561104357634e487b7160e01b600052604160045260246000fd5b60405190808252806020026020018201604052801561106c578160200160208202803683370190505b50905085858381811061108f57634e487b7160e01b600052603260045260246000fd5b90506020028101906110a19190612403565b80806020026020016040519081016040528093929190818152602001838360200280828437600092018290525060018054808201825591528451949550611115947fb10e2d527612073b26eecdfd717e6a320cf44b4afac2b0732d9fcbe2b7fa0cf690910193506020860192509050611cc0565b5050808061112290612564565b91505061100f565b50506013805460ff19166001179055505050565b6000546001600160a01b0316321461115557600080fd5b600a805460ff19166001179055565b600c5442106113785760005b6001548110156112ca5760006001828154811061119d57634e487b7160e01b600052603260045260246000fd5b6000918252602090912001546001600160401b038111156111ce57634e487b7160e01b600052604160045260246000fd5b6040519080825280602002602001820160405280156111f7578160200160208202803683370190505b5090506001828154811061121b57634e487b7160e01b600052603260045260246000fd5b9060005260206000200180548060200260200160405190810160405280929190818152602001828054801561126f57602002820191906000526020600020905b81548152602001906001019080831161125b575b50505050509050806003838154811061129857634e487b7160e01b600052603260045260246000fd5b9060005260206000200190805190602001906112b5929190611cc0565b505080806112c290612564565b915050611170565b5060005b600254811015611349576000600282815481106112fb57634e487b7160e01b600052603260045260246000fd5b90600052602060002001549050806004838154811061132a57634e487b7160e01b600052603260045260246000fd5b600091825260209091200155508061134181612564565b9150506112ce565b50600d5461135790426124d3565b600c55611366600b6000611c84565b6006546113749060016124d3565b6006555b565b600a5460ff1661138957600080fd5b6000600190506000329050306001600160a01b031663dd60c8986040518163ffffffff1660e01b815260040160206040518083038186803b1580156113cd57600080fd5b505afa1580156113e1573d6000803e3d6000fd5b505050506040513d601f19601f820116820180604052508101906114059190611f61565b6114f857600b80546001810182556000919091526000805160206125ac8339815191520180546001600160a01b0319166001600160a01b038316179055604051600162f7321f60e01b03198152309063ff08cde19061146a9089908990600401612206565b600060405180830381600087803b15801561148457600080fd5b505af1158015611498573d6000803e3d6000fd5b505060405163325670f760e11b81523092506364ace1ee91506114c190879087906004016122fd565b600060405180830381600087803b1580156114db57600080fd5b505af11580156114ef573d6000803e3d6000fd5b505050506116bc565b60005b306001600160a01b031663dd60c8986040518163ffffffff1660e01b815260040160206040518083038186803b15801561153457600080fd5b505afa158015611548573d6000803e3d6000fd5b505050506040513d601f19601f8201168201806040525081019061156c9190611f61565b8110156115ca57600b818154811061159457634e487b7160e01b600052603260045260246000fd5b6000918252602090912001546001600160a01b03838116911614156115b857600092505b806115c281612564565b9150506114fb565b5081156116bc57600b80546001810182556000919091526000805160206125ac8339815191520180546001600160a01b0319166001600160a01b038316179055604051600162f7321f60e01b03198152309063ff08cde1906116329089908990600401612206565b600060405180830381600087803b15801561164c57600080fd5b505af1158015611660573d6000803e3d6000fd5b505060405163325670f760e11b81523092506364ace1ee915061168990879087906004016122fd565b600060405180830381600087803b1580156116a357600080fd5b505af11580156116b7573d6000803e3d6000fd5b505050505b505050505050565b600b5490565b6000546001600160a01b031681565b6000306001600160a01b031663dd60c8986040518163ffffffff1660e01b815260040160206040518083038186803b15801561171457600080fd5b505afa158015611728573d6000803e3d6000fd5b505050506040513d601f19601f8201168201806040525081019061174c9190611f61565b90506000811315610c2f5780600114156118b05760005b82811015610b5657600084848381811061178d57634e487b7160e01b600052603260045260246000fd5b905060200281019061179f9190612403565b90506001600160401b038111156117c657634e487b7160e01b600052604160045260246000fd5b6040519080825280602002602001820160405280156117ef578160200160208202803683370190505b50905084848381811061181257634e487b7160e01b600052603260045260246000fd5b90506020028101906118249190612403565b8080602002602001604051908101604052809392919081815260200183836020028082843760009201919091525050600180549394508493909250859150811061187e57634e487b7160e01b600052603260045260246000fd5b90600052602060002001908051906020019061189b929190611cc0565b505080806118a890612564565b915050611763565b60005b82811015610c2d5760008484838181106118dd57634e487b7160e01b600052603260045260246000fd5b90506020028101906118ef9190612403565b90506001600160401b0381111561191657634e487b7160e01b600052604160045260246000fd5b60405190808252806020026020018201604052801561193f578160200160208202803683370190505b509050600085858481811061196457634e487b7160e01b600052603260045260246000fd5b90506020028101906119769190612403565b90506001600160401b0381111561199d57634e487b7160e01b600052604160045260246000fd5b6040519080825280602002602001820160405280156119c6578160200160208202803683370190505b5090508585848181106119e957634e487b7160e01b600052603260045260246000fd5b90506020028101906119fb9190612403565b80806020026020016040519081016040528093929190818152602001838360200280828437600092018290525060018054959650909490935087925082109050611a5557634e487b7160e01b600052603260045260246000fd5b6000918252602090912001546001600160401b03811115611a8657634e487b7160e01b600052604160045260246000fd5b604051908082528060200260200182016040528015611aaf578160200160208202803683370190505b50905060018481548110611ad357634e487b7160e01b600052603260045260246000fd5b90600052602060002001805480602002602001604051908101604052809291908181526020018280548015611b2757602002820191906000526020600020905b815481526020019060010190808311611b13575b5050505050905060005b8151811015611c0e5785828281518110611b5b57634e487b7160e01b600052603260045260246000fd5b6020026020010151848381518110611b8357634e487b7160e01b600052603260045260246000fd5b6020026020010151611b959190612525565b611b9f91906124eb565b828281518110611bbf57634e487b7160e01b600052603260045260246000fd5b6020026020010151611bd19190612492565b848281518110611bf157634e487b7160e01b600052603260045260246000fd5b602090810291909101015280611c0681612564565b915050611b31565b508260018581548110611c3157634e487b7160e01b600052603260045260246000fd5b906000526020600020019080519060200190611c4e929190611cc0565b505050508080611c5d90612564565b9150506118b3565b60405180611a20016040528060d1906020820280368337509192915050565b508054600082559060005260206000209081019061096c9190611d0b565b508054600082559060005260206000209081019061096c9190611d20565b828054828255906000526020600020908101928215611cfb579160200282015b82811115611cfb578251825591602001919060010190611ce0565b50611d07929150611d0b565b5090565b5b80821115611d075760008155600101611d0c565b80821115611d07576000611d348282611c84565b50600101611d20565b60008083601f840112611d4e578182fd5b5081356001600160401b03811115611d64578182fd5b6020830191508360208083028501011115611d7e57600080fd5b9250929050565b600082601f830112611d95578081fd5b604051611a208082018281106001600160401b0382111715611db957611db9612595565b6040528184828101871015611dcc578485fd5b8492505b60d1831015611df057803582526001929092019160209182019101611dd0565b509195945050505050565b8060408101831015611e0c57600080fd5b92915050565b600082601f830112611e22578081fd5b604051604081018181106001600160401b0382111715611e4457611e44612595565b8060405250808385604086011115611e5a578384fd5b835b6002811015611df0578135835260209283019290910190600101611e5c565b60008060208385031215611e8d578182fd5b82356001600160401b03811115611ea2578283fd5b611eae85828601611d3d565b90969095509350505050565b60008060008060408587031215611ecf578182fd5b84356001600160401b0380821115611ee5578384fd5b611ef188838901611d3d565b90965094506020870135915080821115611f09578384fd5b50611f1687828801611d3d565b95989497509550505050565b600060208284031215611f33578081fd5b81518015158114611f42578182fd5b9392505050565b600060208284031215611f5a578081fd5b5035919050565b600060208284031215611f72578081fd5b5051919050565b60008060408385031215611f8b578182fd5b8235915060208301356001600160a01b0381168114611fa8578182fd5b809150509250929050565b6000806000806000806000806000611b80808b8d031215611fd2578586fd5b8a35995060208b01356001600160401b0380821115611fef578788fd5b611ffb8e838f01611d3d565b909b50995060408d0135915080821115612013578788fd5b506120208d828e01611d3d565b909850965061203490508c60608d01611dfb565b94506101208b018c811115612047578485fd5b60a08c0194506120578d82611dfb565b9350508b818c011115612068578182fd5b506101608a0190509295985092959850929598565b6000806000806000611b408688031215612095578283fd5b8535945060206120a788828901611e12565b945087607f8801126120b7578384fd5b60026120ca6120c582612472565b612449565b8060608a0160e08b018c8111156120df578889fd5b885b85811015612108576120f38e84611e12565b855293860193604092909201916001016120e1565b508298506121168d82611e12565b975050505050505061212c876101208801611d85565b90509295509295909350565b60008284526020808501945082825b8581101561216357813587529582019590820190600101612147565b509495945050505050565b6000815180845260208085019450808401835b8381101561216357815187529582019590820190600101612181565b8060005b60d1811015610c2d5781518452602093840193909101906001016121a1565b8060005b6002811015610c2d5781518452602093840193909101906001016121c4565b80518252602090810151910152565b6001600160a01b0391909116815260200190565b602080825281810183905260009060408482028401810190840186845b8781101561229057868403603f190183528135368a9003601e19018112612248578687fd5b890180356001600160401b0381111561225f578788fd5b86810236038b131561226f578788fd5b61227c8682898501612138565b955050509184019190840190600101612223565b5091979650505050505050565b6000602080830181845280855180835260408601915060408482028701019250838701855b828110156122f057603f198886030184526122de85835161216e565b945092850192908501906001016122c2565b5092979650505050505050565b600060208252612311602083018486612138565b949350505050565b600060208252611f42602083018461216e565b901515815260200190565b90815260200190565b6000611b20820190506123548285516121e3565b60208401516123676040840182516121c0565b6020015161237860808401826121c0565b50604084015161238b60c08401826121e3565b50611f4261010083018461219d565b858152611b408101604080876020850137600060608401818152879190815b60028110156123d9578484833790840182815292840192906001016123b9565b5050828760e08701376101208501925080835250506123f8818561219d565b509695505050505050565b6000808335601e19843603018112612419578283fd5b8301803591506001600160401b03821115612432578283fd5b6020908101925081023603821315611d7e57600080fd5b6040518181016001600160401b038111828210171561246a5761246a612595565b604052919050565b60006001600160401b0382111561248b5761248b612595565b5060200290565b600080821280156001600160ff1b03849003851316156124b4576124b461257f565b600160ff1b83900384128116156124cd576124cd61257f565b50500190565b600082198211156124e6576124e661257f565b500190565b60008261250657634e487b7160e01b81526012600452602481fd5b600160ff1b8214600019841416156125205761252061257f565b500590565b60008083128015600160ff1b8501841216156125435761254361257f565b6001600160ff1b038401831381161561255e5761255e61257f565b50500390565b60006000198214156125785761257861257f565b5060010190565b634e487b7160e01b600052601160045260246000fd5b634e487b7160e01b600052604160045260246000fdfe0175b7a638427703f0dbe7bb9bbf987a2551717b34e79f33b5b1008d1fa01db9a2646970667358221220eea943001b0b93057e75ffcfe85401f5c8358f7ec725cc858cd52721a2eee79f64736f6c63430008000033",
  "immutableReferences": {},
  "source": "//SPDX-License-Identifier: UNLICENSED\npragma solidity ^0.8.0;\n\nimport \"./verifier.sol\";\npragma experimental ABIEncoderV2;\n\ncontract FederatedModel{\n    address public administrator;\n\n    //  int256[] private global_weights;\n    //  int256 private global_bias;\n    //    int256 private precision=10000;\n    //   int256 learning_rate;\n    //  uint256 private dimension;\n    //    bool public isTraining=true;\n    //   address[] private participating_devices;\n    //  mapping(address => int256[]) private localWeightsMappings;\n    //    mapping(address => int256) private localBiasMappings;\n\n    int256[][] private temp_global_weights;\n    int256[] private temp_global_bias;\n    int256[][] private global_weights;\n    int256[] private global_bias;\n    int256 private precision;\n    uint256 private round_Number;\n    int256 private learning_rate;\n    uint256 private outputDimension;\n    uint256 private inputDimension;\n    bool private isTraining=true;\n    address[] private participating_devices;\n    uint256 private intervalEnd;\n    uint256 private updateInterval;\n    uint256 private batchSize;\n    //Modi\n    //Verifier private verifier;\n    Verifier[4] private verifier;\n    bool private initialized = false;\n    //uint256 [][] private publicKey;\n    mapping (uint => uint256[]) private publicKey;\n\n\n    constructor(uint256 id,uint256 od,int256 learning_rate_,int256 precision_,uint256 batchSize_,uint256 updateInterval_)public{\n        learning_rate=learning_rate_;\n        administrator=tx.origin;\n        outputDimension =od;\n        inputDimension =id;\n        batchSize=batchSize_;\n        precision=precision_;\n        intervalEnd = block.timestamp + updateInterval_;\n        updateInterval=updateInterval_;\n        round_Number=1;\n    }\n\n\n    //function updateVerifier(address verifier_address) external {\n    //    verifier = Verifier(verifier_address);\n    //}\n\n    function updateVerifier(uint256 accountNR, address verifier_address) external {\n        verifier[accountNR] = Verifier(verifier_address);\n    }\n\n    function initModel(int256[][] calldata local_weights, int256[] calldata local_bias)external{\n        delete temp_global_weights;\n        delete temp_global_bias;\n        temp_global_bias =new int256[](outputDimension);\n        for(uint256 i=0;i< outputDimension;i++){\n            temp_global_bias[i]=local_bias[i];\n        }\n        for(uint256 i=0;i< outputDimension;i++){\n            int256[] memory temp_row=new int256[](inputDimension);\n            temp_row=local_weights[i];\n            temp_global_weights.push(temp_row);\n        }\n        initialized=true;\n    }\n\n//    function resetModel() external {\n//        delete temp_global_weights;\n//        delete temp_global_bias;\n//        temp_global_bias =new int256[](outputDimension);\n//        for(uint256 i=0;i< outputDimension;i++){\n//            int randomNumber=int(random(i)% outputDimension);\n//            if(randomNumber==0) {\n//                randomNumber=1*precision;\n//            }\n//            if(randomNumber%2==0){\n//                temp_global_bias[i]=randomNumber*precision;\n//            }\n//            else{\n//                temp_global_bias[i]=-randomNumber*precision;\n//            }\n//        }\n//        for(uint256 i=0;i< outputDimension;i++){\n//            int256[] memory temp_row=new int256[](inputDimension);\n//            for(uint256 j=0;j< inputDimension;j++){\n//                int randomNumber=int(random(j)% inputDimension);\n//                if(randomNumber==0) {\n//                    randomNumber=1*precision;\n//                }\n//                if(randomNumber%2==0){\n//                    temp_row[j]=randomNumber*precision;\n//                }\n//                else{\n//                    temp_row[j]=-randomNumber*precision;\n//                }\n//            }\n//            temp_global_weights.push(temp_row);\n//        }\n//    }\n\n    function map_temp_to_global() external onlyAdmin{\n        delete global_bias;\n        delete global_weights;\n\n           for(uint256 i=0;i<temp_global_weights.length;i++){\n                    int256[] memory temp= new int256[](temp_global_weights[i].length);\n                    temp=temp_global_weights[i];\n                    global_weights.push(temp);\n                }\n            for(uint256 i=0;i<temp_global_bias.length;i++){\n                    int256 temp=temp_global_bias[i];\n                    global_bias.push(temp);\n                }\n    }\n\n    function get_global_weights() view external returns(int256[][] memory){\n        return global_weights;\n    }\n\n    function get_global_bias() view external returns(int256[] memory){\n        return global_bias;\n    }\n\n    function time_until_next_update_round() external returns(int256){\n        return int(intervalEnd)-int(block.timestamp);\n    }\n    //\n    function end_update_round() external{\n        if(block.timestamp>=intervalEnd){\n            for(uint256 i=0;i<temp_global_weights.length;i++){\n                    int256[] memory temp= new int256[](temp_global_weights[i].length);\n                    temp=temp_global_weights[i];\n                    global_weights[i]=temp;\n                }\n            for(uint256 i=0;i<temp_global_bias.length;i++){\n                    int256 temp=temp_global_bias[i];\n                    global_bias[i]=temp;\n                }\n            intervalEnd=block.timestamp+updateInterval;\n            delete participating_devices;\n            round_Number=round_Number+1;\n        }\n\n    }\n\n    function is_Training() external returns (bool) {\n        return isTraining;\n    }\n\n    function roundUpdateOutstanding() external returns (bool) {\n        if(initialized){\n        address  user = tx.origin;\n        bool new_user=true;\n        for(uint256 i=0;i<this.participantsCount();i++){\n            if(user==participating_devices[i]){\n                new_user=false;\n            }\n        }\n        return new_user;}\n        else{\n            return false;\n        }\n    }\n    //\n    //\n    //Modi\n    //function update_with_proof(int256[][] calldata local_weights, int256[] calldata local_bias,uint[2] calldata a,uint[2][2] calldata b, uint[2] calldata c, uint[209] calldata input) external TrainingMode {\n    function update_with_proof(uint256 accountNR, int256[][] calldata local_weights, int256[] calldata local_bias,uint[2] calldata a,uint[2][2] calldata b, uint[2] calldata c, uint[209] calldata input) external TrainingMode {\n        uint[209] memory new_input;\n        for(uint256 i=0; i < 209; i++){\n            new_input[i] = input[i];\n        }\n        //Modi\n        require(this.checkZKP(accountNR, a,b,c,new_input));\n        bool newUser=true;\n        //bool firstUser=true;\n        address user=tx.origin;\n        if(this.participantsCount()==0){\n            participating_devices.push(user);\n            this.movingAverageWeights(local_weights);\n            this.movingAverageBias(local_bias);\n        }\n        else{\n            for(uint256 i=0;i<this.participantsCount();i++){\n                if(user==participating_devices[i]){\n                    newUser=false;\n                }\n            }\n            if(newUser){\n                participating_devices.push(user);\n                this.movingAverageWeights(local_weights);\n                this.movingAverageBias(local_bias);\n            }\n        }\n\n\n    }\n\nfunction update_without_proof(int256[][] calldata local_weights, int256[] calldata local_bias) external TrainingMode {\n        bool newUser=true;\n       // bool firstUser=true;\n        address user=tx.origin;\n        if(this.participantsCount()==0){\n            participating_devices.push(user);\n            this.movingAverageWeights(local_weights);\n            this.movingAverageBias(local_bias);\n        }\n        else{\n            for(uint256 i=0;i<this.participantsCount();i++){\n                if(user==participating_devices[i]){\n                    newUser=false;\n                }\n            }\n            if(newUser){\n                participating_devices.push(user);\n                this.movingAverageWeights(local_weights);\n                this.movingAverageBias(local_bias);\n            }\n        }\n\n\n    }\n\n\n\n\n    function participantsCount(\n    ) external view returns(uint)  {\n        uint x = participating_devices.length;\n        return x;\n    }\n    //\n    //\n    function movingAverageWeights(int256[][] calldata new_weights) external {\n        int256 k = int256(this.participantsCount());\n        if(k>0){\n            if(k==1){\n                for(uint256 i=0;i<new_weights.length;i++){\n                    int256[] memory temp= new int256[](new_weights[i].length);\n                    temp=new_weights[i];\n                    temp_global_weights[i]=temp;\n                }\n            }\n            else{\n                for(uint256 i=0;i<new_weights.length;i++){\n                    int256[] memory res= new int256[](new_weights[i].length);\n                    int256[] memory row_new= new int256[](new_weights[i].length);\n                    row_new=new_weights[i];\n                    int256[] memory row_old= new int256[](temp_global_weights[i].length);\n                    row_old=temp_global_weights[i];\n                    for(uint256 j=0;j<row_old.length;j++){\n                        res[j]=row_old[j]+(row_new[j]-row_old[j])/k;\n                    }\n                    temp_global_weights[i]=res;\n                }\n            }\n\n        }\n\n    }\n    //\n    function movingAverageBias(int256[] calldata new_bias) external {\n        int256 k = int256(this.participantsCount());\n        if(k>0){\n            if(k==1){\n                for(uint256 i=0;i<new_bias.length;i++){\n                    int256 temp=new_bias[i];\n                    temp_global_bias[i]=temp;\n                }\n            }\n            else{\n                for(uint256 i=0;i<new_bias.length;i++){\n                    int256 old_bias_i=temp_global_bias[i];\n                    int256 new_bias_i=new_bias[i];\n                    int256 res=old_bias_i+(new_bias_i-old_bias_i)/k;\n                    temp_global_bias[i]=res;\n                }\n            }\n\n        }\n    }\n\n    function changeLearningRate(int256 newLearnignRate) external onlyAdmin{\n        learning_rate=newLearnignRate;\n    }\n\n\n    function getLearningRate()external returns(int256){\n        return learning_rate;\n    }\n\n\n        function getBatchSize()external returns(uint256){\n        return batchSize;\n    }\n    function getRoundNumber()external returns(uint256){\n        return round_Number;\n    }\n\n    function getInputDimension()external returns(uint256){\n        return inputDimension;\n    }\n\n    function getOutputDimension()external returns(uint256){\n        return outputDimension;\n    }\n\n    function getPrecision()external returns(int256){\n        return precision;\n    }\n\n    function changePrecision(int256 newPrecision) external onlyAdmin{\n        precision=newPrecision;\n    }\n\n    //Modi\n    function checkZKP(uint256 accountNR, uint[2] memory a,uint[2][2] memory b, uint[2] memory c, uint[209] memory input) public returns(bool) {\n        Verifier.Proof memory proof = Verifier.Proof(Pairing.G1Point(a[0],a[1]),Pairing.G2Point(b[0],b[1]),Pairing.G1Point(c[0],c[1]));\n        return verifier[accountNR].verifyTx(proof,input);\n    }\n\n    function stopTraining() external onlyAdmin{\n        isTraining=false;\n    }\n    function startTraining() external onlyAdmin{\n        isTraining=true;\n    }\n\n    //\n    function random(uint256 seed) private view returns (uint256) {\n        return uint256(keccak256(abi.encodePacked(block.difficulty, block.timestamp, seed)));\n        return uint256(keccak256(abi.encodePacked(block.difficulty, block.timestamp, seed)));\n\n    }\n    //\n    modifier onlyAdmin {\n        require(tx.origin == administrator);\n        _;\n    }\n\n    modifier TrainingMode {\n        require(isTraining);\n        _;\n    }\n    modifier RoundFinished {\n        require(int(intervalEnd)-int(block.timestamp)<=0);\n        _;\n    }\n\n\n}\n",
  "sourcePath": "/home/block/thesis_CHLEE/End-to-End-Verifiable-Decentralized-Federated-Learning/Blockchain/Truffle/contracts/FederatedModel.sol",
  "compiler": {
    "name": "solc",
    "version": "0.8.0+commit.c7dfd78e.Emscripten.clang"
  },
  "schemaVersion": "3.4.16",
  "updatedAt": "2024-10-02T01:39:16.474Z",
  "networkType": "ethereum",
  "devdoc": {
    "kind": "dev",
    "methods": {},
    "version": 1
  },
  "userdoc": {
    "kind": "user",
    "methods": {},
    "version": 1
  }
}