{
  "contractName": "FederatedModel",
  "abi": [
    {
      "inputs": [
        {
          "internalType": "uint256",
          "name": "id",
          "type": "uint256"
        },
        {
          "internalType": "uint256",
          "name": "od",
          "type": "uint256"
        },
        {
          "internalType": "int256",
          "name": "learning_rate_",
          "type": "int256"
        },
        {
          "internalType": "int256",
          "name": "precision_",
          "type": "int256"
        },
        {
          "internalType": "uint256",
          "name": "batchSize_",
          "type": "uint256"
        },
        {
          "internalType": "uint256",
          "name": "updateInterval_",
          "type": "uint256"
        }
      ],
      "stateMutability": "nonpayable",
      "type": "constructor"
    },
    {
      "inputs": [],
      "name": "administrator",
      "outputs": [
        {
          "internalType": "address",
          "name": "",
          "type": "address"
        }
      ],
      "stateMutability": "view",
      "type": "function",
      "constant": true
    },
    {
      "inputs": [
        {
          "internalType": "address",
          "name": "verifier_address",
          "type": "address"
        }
      ],
      "name": "updateVerifier",
      "outputs": [],
      "stateMutability": "nonpayable",
      "type": "function"
    },
    {
      "inputs": [
        {
          "internalType": "int256[][]",
          "name": "local_weights",
          "type": "int256[][]"
        },
        {
          "internalType": "int256[]",
          "name": "local_bias",
          "type": "int256[]"
        }
      ],
      "name": "initModel",
      "outputs": [],
      "stateMutability": "nonpayable",
      "type": "function"
    },
    {
      "inputs": [],
      "name": "map_temp_to_global",
      "outputs": [],
      "stateMutability": "nonpayable",
      "type": "function"
    },
    {
      "inputs": [],
      "name": "get_global_weights",
      "outputs": [
        {
          "internalType": "int256[][]",
          "name": "",
          "type": "int256[][]"
        }
      ],
      "stateMutability": "view",
      "type": "function",
      "constant": true
    },
    {
      "inputs": [],
      "name": "get_global_bias",
      "outputs": [
        {
          "internalType": "int256[]",
          "name": "",
          "type": "int256[]"
        }
      ],
      "stateMutability": "view",
      "type": "function",
      "constant": true
    },
    {
      "inputs": [],
      "name": "time_until_next_update_round",
      "outputs": [
        {
          "internalType": "int256",
          "name": "",
          "type": "int256"
        }
      ],
      "stateMutability": "nonpayable",
      "type": "function"
    },
    {
      "inputs": [],
      "name": "end_update_round",
      "outputs": [],
      "stateMutability": "nonpayable",
      "type": "function"
    },
    {
      "inputs": [],
      "name": "is_Training",
      "outputs": [
        {
          "internalType": "bool",
          "name": "",
          "type": "bool"
        }
      ],
      "stateMutability": "nonpayable",
      "type": "function"
    },
    {
      "inputs": [],
      "name": "roundUpdateOutstanding",
      "outputs": [
        {
          "internalType": "bool",
          "name": "",
          "type": "bool"
        }
      ],
      "stateMutability": "nonpayable",
      "type": "function"
    },
    {
      "inputs": [
        {
          "internalType": "int256[][]",
          "name": "local_weights",
          "type": "int256[][]"
        },
        {
          "internalType": "int256[]",
          "name": "local_bias",
          "type": "int256[]"
        },
        {
          "internalType": "uint256[2]",
          "name": "a",
          "type": "uint256[2]"
        },
        {
          "internalType": "uint256[2][2]",
          "name": "b",
          "type": "uint256[2][2]"
        },
        {
          "internalType": "uint256[2]",
          "name": "c",
          "type": "uint256[2]"
        },
        {
          "internalType": "uint256[209]",
          "name": "input",
          "type": "uint256[209]"
        }
      ],
      "name": "update_with_proof",
      "outputs": [],
      "stateMutability": "nonpayable",
      "type": "function"
    },
    {
      "inputs": [
        {
          "internalType": "int256[][]",
          "name": "local_weights",
          "type": "int256[][]"
        },
        {
          "internalType": "int256[]",
          "name": "local_bias",
          "type": "int256[]"
        }
      ],
      "name": "update_without_proof",
      "outputs": [],
      "stateMutability": "nonpayable",
      "type": "function"
    },
    {
      "inputs": [],
      "name": "participantsCount",
      "outputs": [
        {
          "internalType": "uint256",
          "name": "",
          "type": "uint256"
        }
      ],
      "stateMutability": "view",
      "type": "function",
      "constant": true
    },
    {
      "inputs": [
        {
          "internalType": "int256[][]",
          "name": "new_weights",
          "type": "int256[][]"
        }
      ],
      "name": "movingAverageWeights",
      "outputs": [],
      "stateMutability": "nonpayable",
      "type": "function"
    },
    {
      "inputs": [
        {
          "internalType": "int256[]",
          "name": "new_bias",
          "type": "int256[]"
        }
      ],
      "name": "movingAverageBias",
      "outputs": [],
      "stateMutability": "nonpayable",
      "type": "function"
    },
    {
      "inputs": [
        {
          "internalType": "int256",
          "name": "newLearnignRate",
          "type": "int256"
        }
      ],
      "name": "changeLearningRate",
      "outputs": [],
      "stateMutability": "nonpayable",
      "type": "function"
    },
    {
      "inputs": [],
      "name": "getLearningRate",
      "outputs": [
        {
          "internalType": "int256",
          "name": "",
          "type": "int256"
        }
      ],
      "stateMutability": "nonpayable",
      "type": "function"
    },
    {
      "inputs": [],
      "name": "getBatchSize",
      "outputs": [
        {
          "internalType": "uint256",
          "name": "",
          "type": "uint256"
        }
      ],
      "stateMutability": "nonpayable",
      "type": "function"
    },
    {
      "inputs": [],
      "name": "getRoundNumber",
      "outputs": [
        {
          "internalType": "uint256",
          "name": "",
          "type": "uint256"
        }
      ],
      "stateMutability": "nonpayable",
      "type": "function"
    },
    {
      "inputs": [],
      "name": "getInputDimension",
      "outputs": [
        {
          "internalType": "uint256",
          "name": "",
          "type": "uint256"
        }
      ],
      "stateMutability": "nonpayable",
      "type": "function"
    },
    {
      "inputs": [],
      "name": "getOutputDimension",
      "outputs": [
        {
          "internalType": "uint256",
          "name": "",
          "type": "uint256"
        }
      ],
      "stateMutability": "nonpayable",
      "type": "function"
    },
    {
      "inputs": [],
      "name": "getPrecision",
      "outputs": [
        {
          "internalType": "int256",
          "name": "",
          "type": "int256"
        }
      ],
      "stateMutability": "nonpayable",
      "type": "function"
    },
    {
      "inputs": [
        {
          "internalType": "int256",
          "name": "newPrecision",
          "type": "int256"
        }
      ],
      "name": "changePrecision",
      "outputs": [],
      "stateMutability": "nonpayable",
      "type": "function"
    },
    {
      "inputs": [
        {
          "internalType": "uint256[2]",
          "name": "a",
          "type": "uint256[2]"
        },
        {
          "internalType": "uint256[2][2]",
          "name": "b",
          "type": "uint256[2][2]"
        },
        {
          "internalType": "uint256[2]",
          "name": "c",
          "type": "uint256[2]"
        },
        {
          "internalType": "uint256[209]",
          "name": "input",
          "type": "uint256[209]"
        }
      ],
      "name": "checkZKP",
      "outputs": [
        {
          "internalType": "bool",
          "name": "",
          "type": "bool"
        }
      ],
      "stateMutability": "nonpayable",
      "type": "function"
    },
    {
      "inputs": [],
      "name": "stopTraining",
      "outputs": [],
      "stateMutability": "nonpayable",
      "type": "function"
    },
    {
      "inputs": [],
      "name": "startTraining",
      "outputs": [],
      "stateMutability": "nonpayable",
      "type": "function"
    }
  ],
  "bytecode": "0x6080604052600a805460ff19166001179055600f805460ff60a01b191690553480156200002b57600080fd5b50604051620026d5380380620026d58339810160408190526200004e916200009c565b6007849055600080546001600160a01b0319163217905560088590556009869055600e8290556005839055620000858142620000e6565b600c55600d5550506001600655506200010b915050565b60008060008060008060c08789031215620000b5578182fd5b865195506020870151945060408701519350606087015192506080870151915060a087015190509295509295509295565b600082198211156200010657634e487b7160e01b81526011600452602481fd5b500190565b6125ba806200011b6000396000f3fe608060405234801561001057600080fd5b506004361061018e5760003560e01c8063a011a5b7116100de578063d661016a11610097578063ebf523b811610071578063ebf523b8146102c4578063f53d0a8e146102d7578063f9016fc3146102ec578063ff08cde1146102ff5761018e565b8063d661016a146102a1578063dbe0cd77146102a9578063dd60c898146102bc5761018e565b8063a011a5b714610266578063a25f55d41461026e578063a74c900e14610276578063c3cd313b1461027e578063d41998cc14610286578063d5d1c6ee146102995761018e565b806364ace1ee1161014b57806395c9290a1161012557806395c9290a146102235780639670c0bc1461023657806397fc007c1461023e57806399b16c5c146102515761018e565b806364ace1ee146101f35780636d05533b146102065780637c1cc4d21461020e5761018e565b8063091bf334146101935780630cde04561461019d578063211b1e22146101bb57806349cd87c4146101c3578063518cae2a146101d857806358043141146101e0575b600080fd5b61019b610312565b005b6101a5610529565b6040516101b29190612359565b60405180910390f35b6101a5610530565b6101cb610536565b6040516101b291906122da565b61019b61058e565b61019b6101ee3660046120c9565b6105b1565b61019b610201366004611fd2565b6105cd565b6101a56107a9565b6102166107be565b6040516101b2919061234e565b61019b6102313660046120c9565b6107c7565b6101a56107e3565b61019b61024c366004611e3c565b6107e9565b61025961080b565b6040516101b2919061225e565b6101a56108a4565b6101a56108aa565b6102166108b0565b6101a56109ac565b61019b610294366004611ea9565b6109b2565b61019b610bdd565b61019b610c03565b61019b6102b7366004611ea9565b610e19565b6101a5611163565b6102166102d2366004611ff9565b611169565b6102df611247565b6040516101b291906121b3565b61019b6102fa366004611f11565b611256565b61019b61030d366004611e6a565b61169a565b6000546001600160a01b0316321461032957600080fd5b61033560046000611c26565b61034160036000611c44565b60005b6001548110156104a65760006001828154811061037157634e487b7160e01b600052603260045260246000fd5b6000918252602090912001546001600160401b038111156103a257634e487b7160e01b600052604160045260246000fd5b6040519080825280602002602001820160405280156103cb578160200160208202803683370190505b509050600182815481106103ef57634e487b7160e01b600052603260045260246000fd5b9060005260206000200180548060200260200160405190810160405280929190818152602001828054801561044357602002820191906000526020600020905b81548152602001906001019080831161042f575b5050600380546001810182556000919091528451949550610491947fc2575a0e9e593c00f959f8c92f12db2869c3395a3b0502d05e2516446f71f85b90910193506020860192509050611c62565b5050808061049e9061251d565b915050610344565b5060005b600254811015610526576000600282815481106104d757634e487b7160e01b600052603260045260246000fd5b60009182526020822001546004805460018101825592527f8a35acfbc15ff81a39ae7d344fd709f28e8600b4aa8c65c6b64bfe7fe36bd19b90910155508061051e8161251d565b9150506104aa565b50565b6006545b90565b60085490565b6060600480548060200260200160405190810160405280929190818152602001828054801561058457602002820191906000526020600020905b815481526020019060010190808311610570575b5050505050905090565b6000546001600160a01b031632146105a557600080fd5b600a805460ff19169055565b6000546001600160a01b031632146105c857600080fd5b600555565b6000306001600160a01b031663dd60c8986040518163ffffffff1660e01b815260040160206040518083038186803b15801561060857600080fd5b505afa15801561061c573d6000803e3d6000fd5b505050506040513d601f19601f8201168201806040525081019061064091906120e1565b905060008113156107a45780600114156106d15760005b828110156106cb57600084848381811061068157634e487b7160e01b600052603260045260246000fd5b90506020020135905080600283815481106106ac57634e487b7160e01b600052603260045260246000fd5b60009182526020909120015550806106c38161251d565b915050610657565b506107a4565b60005b828110156107a2576000600282815481106106ff57634e487b7160e01b600052603260045260246000fd5b90600052602060002001549050600085858481811061072e57634e487b7160e01b600052603260045260246000fd5b905060200201359050600084838361074691906124de565b61075091906124a4565b61075a908461244b565b9050806002858154811061077e57634e487b7160e01b600052603260045260246000fd5b9060005260206000200181905550505050808061079a9061251d565b9150506106d4565b505b505050565b600042600c546107b991906124de565b905090565b600a5460ff1690565b6000546001600160a01b031632146107de57600080fd5b600755565b60055490565b600f80546001600160a01b0319166001600160a01b0392909216919091179055565b60606003805480602002602001604051908101604052809291908181526020016000905b8282101561089b5760008481526020908190208301805460408051828502810185019091528181529283018282801561088757602002820191906000526020600020905b815481526020019060010190808311610873575b50505050508152602001906001019061082f565b50505050905090565b60095490565b600e5490565b600f54600090600160a01b900460ff16156109a45732600160005b306001600160a01b031663dd60c8986040518163ffffffff1660e01b815260040160206040518083038186803b15801561090457600080fd5b505afa158015610918573d6000803e3d6000fd5b505050506040513d601f19601f8201168201806040525081019061093c91906120e1565b81101561099a57600b818154811061096457634e487b7160e01b600052603260045260246000fd5b6000918252602090912001546001600160a01b038481169116141561098857600091505b806109928161251d565b9150506108cb565b50915061052d9050565b50600061052d565b60075490565b6109be60016000611c44565b6109ca60026000611c26565b6008546001600160401b038111156109f257634e487b7160e01b600052604160045260246000fd5b604051908082528060200260200182016040528015610a1b578160200160208202803683370190505b508051610a3091600291602090910190611c62565b5060005b600854811015610aa457828282818110610a5e57634e487b7160e01b600052603260045260246000fd5b9050602002013560028281548110610a8657634e487b7160e01b600052603260045260246000fd5b60009182526020909120015580610a9c8161251d565b915050610a34565b5060005b600854811015610bc35760006009546001600160401b03811115610adc57634e487b7160e01b600052604160045260246000fd5b604051908082528060200260200182016040528015610b05578160200160208202803683370190505b509050858583818110610b2857634e487b7160e01b600052603260045260246000fd5b9050602002810190610b3a91906123bc565b80806020026020016040519081016040528093929190818152602001838360200280828437600092018290525060018054808201825591528451949550610bae947fb10e2d527612073b26eecdfd717e6a320cf44b4afac2b0732d9fcbe2b7fa0cf690910193506020860192509050611c62565b50508080610bbb9061251d565b915050610aa8565b5050600f805460ff60a01b1916600160a01b179055505050565b6000546001600160a01b03163214610bf457600080fd5b600a805460ff19166001179055565b600c544210610e175760005b600154811015610d6957600060018281548110610c3c57634e487b7160e01b600052603260045260246000fd5b6000918252602090912001546001600160401b03811115610c6d57634e487b7160e01b600052604160045260246000fd5b604051908082528060200260200182016040528015610c96578160200160208202803683370190505b50905060018281548110610cba57634e487b7160e01b600052603260045260246000fd5b90600052602060002001805480602002602001604051908101604052809291908181526020018280548015610d0e57602002820191906000526020600020905b815481526020019060010190808311610cfa575b505050505090508060038381548110610d3757634e487b7160e01b600052603260045260246000fd5b906000526020600020019080519060200190610d54929190611c62565b50508080610d619061251d565b915050610c0f565b5060005b600254811015610de857600060028281548110610d9a57634e487b7160e01b600052603260045260246000fd5b906000526020600020015490508060048381548110610dc957634e487b7160e01b600052603260045260246000fd5b6000918252602090912001555080610de08161251d565b915050610d6d565b50600d54610df6904261248c565b600c55610e05600b6000611c26565b600654610e1390600161248c565b6006555b565b600a5460ff16610e2857600080fd5b6000600190506000329050306001600160a01b031663dd60c8986040518163ffffffff1660e01b815260040160206040518083038186803b158015610e6c57600080fd5b505afa158015610e80573d6000803e3d6000fd5b505050506040513d601f19601f82011682018060405250810190610ea491906120e1565b610f9757600b80546001810182556000919091526000805160206125658339815191520180546001600160a01b0319166001600160a01b038316179055604051600162f7321f60e01b03198152309063ff08cde190610f0990899089906004016121c7565b600060405180830381600087803b158015610f2357600080fd5b505af1158015610f37573d6000803e3d6000fd5b505060405163325670f760e11b81523092506364ace1ee9150610f6090879087906004016122be565b600060405180830381600087803b158015610f7a57600080fd5b505af1158015610f8e573d6000803e3d6000fd5b5050505061115b565b60005b306001600160a01b031663dd60c8986040518163ffffffff1660e01b815260040160206040518083038186803b158015610fd357600080fd5b505afa158015610fe7573d6000803e3d6000fd5b505050506040513d601f19601f8201168201806040525081019061100b91906120e1565b81101561106957600b818154811061103357634e487b7160e01b600052603260045260246000fd5b6000918252602090912001546001600160a01b038381169116141561105757600092505b806110618161251d565b915050610f9a565b50811561115b57600b80546001810182556000919091526000805160206125658339815191520180546001600160a01b0319166001600160a01b038316179055604051600162f7321f60e01b03198152309063ff08cde1906110d190899089906004016121c7565b600060405180830381600087803b1580156110eb57600080fd5b505af11580156110ff573d6000803e3d6000fd5b505060405163325670f760e11b81523092506364ace1ee915061112890879087906004016122be565b600060405180830381600087803b15801561114257600080fd5b505af1158015611156573d6000803e3d6000fd5b505050505b505050505050565b600b5490565b6040805160a081018252855160608201908152602080880151608084015290825282518084018452865181528682015181830152818301528251808401845285518152858201519181019190915281830152600f54915163f993983d60e01b81526000926001600160a01b03169063f993983d906111ed9084908790600401612362565b60206040518083038186803b15801561120557600080fd5b505afa158015611219573d6000803e3d6000fd5b505050506040513d601f19601f8201168201806040525081019061123d91906120a9565b9695505050505050565b6000546001600160a01b031681565b600a5460ff1661126557600080fd5b61126d611cad565b60005b60d18110156112d557828160d1811061129957634e487b7160e01b600052603260045260246000fd5b6020020135828260d181106112be57634e487b7160e01b600052603260045260246000fd5b6020020152806112cd8161251d565b915050611270565b50604051631d7ea47760e31b8152309063ebf523b8906112ff9088908890889087906004016122ed565b602060405180830381600087803b15801561131957600080fd5b505af115801561132d573d6000803e3d6000fd5b505050506040513d601f19601f8201168201806040525081019061135191906120a9565b61135a57600080fd5b6000600190506000329050306001600160a01b031663dd60c8986040518163ffffffff1660e01b815260040160206040518083038186803b15801561139e57600080fd5b505afa1580156113b2573d6000803e3d6000fd5b505050506040513d601f19601f820116820180604052508101906113d691906120e1565b6114c957600b80546001810182556000919091526000805160206125658339815191520180546001600160a01b0319166001600160a01b038316179055604051600162f7321f60e01b03198152309063ff08cde19061143b908e908e906004016121c7565b600060405180830381600087803b15801561145557600080fd5b505af1158015611469573d6000803e3d6000fd5b505060405163325670f760e11b81523092506364ace1ee9150611492908c908c906004016122be565b600060405180830381600087803b1580156114ac57600080fd5b505af11580156114c0573d6000803e3d6000fd5b5050505061168d565b60005b306001600160a01b031663dd60c8986040518163ffffffff1660e01b815260040160206040518083038186803b15801561150557600080fd5b505afa158015611519573d6000803e3d6000fd5b505050506040513d601f19601f8201168201806040525081019061153d91906120e1565b81101561159b57600b818154811061156557634e487b7160e01b600052603260045260246000fd5b6000918252602090912001546001600160a01b038381169116141561158957600092505b806115938161251d565b9150506114cc565b50811561168d57600b80546001810182556000919091526000805160206125658339815191520180546001600160a01b0319166001600160a01b038316179055604051600162f7321f60e01b03198152309063ff08cde190611603908e908e906004016121c7565b600060405180830381600087803b15801561161d57600080fd5b505af1158015611631573d6000803e3d6000fd5b505060405163325670f760e11b81523092506364ace1ee915061165a908c908c906004016122be565b600060405180830381600087803b15801561167457600080fd5b505af1158015611688573d6000803e3d6000fd5b505050505b5050505050505050505050565b6000306001600160a01b031663dd60c8986040518163ffffffff1660e01b815260040160206040518083038186803b1580156116d557600080fd5b505afa1580156116e9573d6000803e3d6000fd5b505050506040513d601f19601f8201168201806040525081019061170d91906120e1565b905060008113156107a45780600114156118715760005b828110156106cb57600084848381811061174e57634e487b7160e01b600052603260045260246000fd5b905060200281019061176091906123bc565b90506001600160401b0381111561178757634e487b7160e01b600052604160045260246000fd5b6040519080825280602002602001820160405280156117b0578160200160208202803683370190505b5090508484838181106117d357634e487b7160e01b600052603260045260246000fd5b90506020028101906117e591906123bc565b8080602002602001604051908101604052809392919081815260200183836020028082843760009201919091525050600180549394508493909250859150811061183f57634e487b7160e01b600052603260045260246000fd5b90600052602060002001908051906020019061185c929190611c62565b505080806118699061251d565b915050611724565b60005b828110156107a257600084848381811061189e57634e487b7160e01b600052603260045260246000fd5b90506020028101906118b091906123bc565b90506001600160401b038111156118d757634e487b7160e01b600052604160045260246000fd5b604051908082528060200260200182016040528015611900578160200160208202803683370190505b509050600085858481811061192557634e487b7160e01b600052603260045260246000fd5b905060200281019061193791906123bc565b90506001600160401b0381111561195e57634e487b7160e01b600052604160045260246000fd5b604051908082528060200260200182016040528015611987578160200160208202803683370190505b5090508585848181106119aa57634e487b7160e01b600052603260045260246000fd5b90506020028101906119bc91906123bc565b80806020026020016040519081016040528093929190818152602001838360200280828437600092018290525060018054959650909490935087925082109050611a1657634e487b7160e01b600052603260045260246000fd5b6000918252602090912001546001600160401b03811115611a4757634e487b7160e01b600052604160045260246000fd5b604051908082528060200260200182016040528015611a70578160200160208202803683370190505b50905060018481548110611a9457634e487b7160e01b600052603260045260246000fd5b90600052602060002001805480602002602001604051908101604052809291908181526020018280548015611ae857602002820191906000526020600020905b815481526020019060010190808311611ad4575b5050505050905060005b8151811015611bcf5785828281518110611b1c57634e487b7160e01b600052603260045260246000fd5b6020026020010151848381518110611b4457634e487b7160e01b600052603260045260246000fd5b6020026020010151611b5691906124de565b611b6091906124a4565b828281518110611b8057634e487b7160e01b600052603260045260246000fd5b6020026020010151611b92919061244b565b848281518110611bb257634e487b7160e01b600052603260045260246000fd5b602090810291909101015280611bc78161251d565b915050611af2565b508260018581548110611bf257634e487b7160e01b600052603260045260246000fd5b906000526020600020019080519060200190611c0f929190611c62565b505050508080611c1e9061251d565b915050611874565b50805460008255906000526020600020908101906105269190611ccc565b50805460008255906000526020600020908101906105269190611ce1565b828054828255906000526020600020908101928215611c9d579160200282015b82811115611c9d578251825591602001919060010190611c82565b50611ca9929150611ccc565b5090565b60405180611a20016040528060d1906020820280368337509192915050565b5b80821115611ca95760008155600101611ccd565b80821115611ca9576000611cf58282611c26565b50600101611ce1565b60008083601f840112611d0f578182fd5b5081356001600160401b03811115611d25578182fd5b6020830191508360208083028501011115611d3f57600080fd5b9250929050565b600082601f830112611d56578081fd5b604051611a208082018281106001600160401b0382111715611d7a57611d7a61254e565b6040528184828101871015611d8d578485fd5b8492505b60d1831015611db157803582526001929092019160209182019101611d91565b509195945050505050565b8060408101831015611dcd57600080fd5b92915050565b600082601f830112611de3578081fd5b604051604081018181106001600160401b0382111715611e0557611e0561254e565b8060405250808385604086011115611e1b578384fd5b835b6002811015611db1578135835260209283019290910190600101611e1d565b600060208284031215611e4d578081fd5b81356001600160a01b0381168114611e63578182fd5b9392505050565b60008060208385031215611e7c578081fd5b82356001600160401b03811115611e91578182fd5b611e9d85828601611cfe565b90969095509350505050565b60008060008060408587031215611ebe578182fd5b84356001600160401b0380821115611ed4578384fd5b611ee088838901611cfe565b90965094506020870135915080821115611ef8578384fd5b50611f0587828801611cfe565b95989497509550505050565b600080600080600080600080611b60808a8c031215611f2e578485fd5b89356001600160401b0380821115611f44578687fd5b611f508d838e01611cfe565b909b50995060208c0135915080821115611f68578687fd5b50611f758c828d01611cfe565b9098509650611f8990508b60408c01611dbc565b94506101008a018b811115611f9c578485fd5b60808b019450611fac8c82611dbc565b9350508a818b011115611fbd578182fd5b50610140890190509295985092959890939650565b60008060208385031215611fe4578182fd5b82356001600160401b03811115611e91578283fd5b600080600080611b20858703121561200f578384fd5b6120198686611dd3565b9350604086605f87011261202b578384fd5b600261203e6120398261242b565b612402565b8083890160c08a018b811115612052578889fd5b885b8581101561207a576120668d84611dd3565b855260209094019391860191600101612054565b508298506120888c82611dd3565b975050505050505061209e866101008701611d46565b905092959194509250565b6000602082840312156120ba578081fd5b81518015158114611e63578182fd5b6000602082840312156120da578081fd5b5035919050565b6000602082840312156120f2578081fd5b5051919050565b60008284526020808501945082825b8581101561212457813587529582019590820190600101612108565b509495945050505050565b6000815180845260208085019450808401835b8381101561212457815187529582019590820190600101612142565b8060005b60d18110156107a2578151845260209384019390910190600101612162565b8060005b60028110156107a2578151845260209384019390910190600101612185565b80518252602090810151910152565b6001600160a01b0391909116815260200190565b602080825281810183905260009060408482028401810190840186845b8781101561225157868403603f190183528135368a9003601e19018112612209578687fd5b890180356001600160401b03811115612220578788fd5b86810236038b1315612230578788fd5b61223d86828985016120f9565b9550505091840191908401906001016121e4565b5091979650505050505050565b6000602080830181845280855180835260408601915060408482028701019250838701855b828110156122b157603f1988860301845261229f85835161212f565b94509285019290850190600101612283565b5092979650505050505050565b6000602082526122d26020830184866120f9565b949350505050565b600060208252611e63602083018461212f565b611b2081016040808784376000838201818152879190815b600281101561232557848483379084018281529284019290600101612305565b5050828760c0870137610100850192508083525050612344818561215e565b5095945050505050565b901515815260200190565b90815260200190565b6000611b20820190506123768285516121a4565b6020840151612389604084018251612181565b6020015161239a6080840182612181565b5060408401516123ad60c08401826121a4565b50611e6361010083018461215e565b6000808335601e198436030181126123d2578283fd5b8301803591506001600160401b038211156123eb578283fd5b6020908101925081023603821315611d3f57600080fd5b6040518181016001600160401b03811182821017156124235761242361254e565b604052919050565b60006001600160401b038211156124445761244461254e565b5060200290565b600080821280156001600160ff1b038490038513161561246d5761246d612538565b600160ff1b839003841281161561248657612486612538565b50500190565b6000821982111561249f5761249f612538565b500190565b6000826124bf57634e487b7160e01b81526012600452602481fd5b600160ff1b8214600019841416156124d9576124d9612538565b500590565b60008083128015600160ff1b8501841216156124fc576124fc612538565b6001600160ff1b038401831381161561251757612517612538565b50500390565b600060001982141561253157612531612538565b5060010190565b634e487b7160e01b600052601160045260246000fd5b634e487b7160e01b600052604160045260246000fdfe0175b7a638427703f0dbe7bb9bbf987a2551717b34e79f33b5b1008d1fa01db9a2646970667358221220167666565b96275cb0a3497083dfcb69b58936eef128acabf6446e71e8f4e27764736f6c63430008000033",
  "immutableReferences": {},
  "source": "//SPDX-License-Identifier: UNLICENSED\npragma solidity ^0.8.0;\n\nimport \"./verifier.sol\";\npragma experimental ABIEncoderV2;\n\ncontract FederatedModel{\n    address public administrator;\n\n    //  int256[] private global_weights;\n    //  int256 private global_bias;\n    //    int256 private precision=10000;\n    //   int256 learning_rate;\n    //  uint256 private dimension;\n    //    bool public isTraining=true;\n    //   address[] private participating_devices;\n    //  mapping(address => int256[]) private localWeightsMappings;\n    //    mapping(address => int256) private localBiasMappings;\n\n    int256[][] private temp_global_weights;\n    int256[] private temp_global_bias;\n    int256[][] private global_weights;\n    int256[] private global_bias;\n    int256 private precision;\n    uint256 private round_Number;\n    int256 private learning_rate;\n    uint256 private outputDimension;\n    uint256 private inputDimension;\n    bool private isTraining=true;\n    address[] private participating_devices;\n    uint256 private intervalEnd;\n    uint256 private updateInterval;\n    uint256 private batchSize;\n    Verifier private verifier;\n    bool private initialized = false;\n    //uint256 [][] private publicKey;\n    mapping (uint => uint256[]) private publicKey;\n\n\n    constructor(uint256 id,uint256 od,int256 learning_rate_,int256 precision_,uint256 batchSize_,uint256 updateInterval_)public{\n        learning_rate=learning_rate_;\n        administrator=tx.origin;\n        outputDimension =od;\n        inputDimension =id;\n        batchSize=batchSize_;\n        precision=precision_;\n        intervalEnd = block.timestamp + updateInterval_;\n        updateInterval=updateInterval_;\n        round_Number=1;\n    }\n\n\n    function updateVerifier(address verifier_address) external {\n        verifier=Verifier(verifier_address);\n    }\n\n    function initModel(int256[][] calldata local_weights, int256[] calldata local_bias)external{\n        delete temp_global_weights;\n        delete temp_global_bias;\n        temp_global_bias =new int256[](outputDimension);\n        for(uint256 i=0;i< outputDimension;i++){\n            temp_global_bias[i]=local_bias[i];\n        }\n        for(uint256 i=0;i< outputDimension;i++){\n            int256[] memory temp_row=new int256[](inputDimension);\n            temp_row=local_weights[i];\n            temp_global_weights.push(temp_row);\n        }\n        initialized=true;\n    }\n\n//    function resetModel() external {\n//        delete temp_global_weights;\n//        delete temp_global_bias;\n//        temp_global_bias =new int256[](outputDimension);\n//        for(uint256 i=0;i< outputDimension;i++){\n//            int randomNumber=int(random(i)% outputDimension);\n//            if(randomNumber==0) {\n//                randomNumber=1*precision;\n//            }\n//            if(randomNumber%2==0){\n//                temp_global_bias[i]=randomNumber*precision;\n//            }\n//            else{\n//                temp_global_bias[i]=-randomNumber*precision;\n//            }\n//        }\n//        for(uint256 i=0;i< outputDimension;i++){\n//            int256[] memory temp_row=new int256[](inputDimension);\n//            for(uint256 j=0;j< inputDimension;j++){\n//                int randomNumber=int(random(j)% inputDimension);\n//                if(randomNumber==0) {\n//                    randomNumber=1*precision;\n//                }\n//                if(randomNumber%2==0){\n//                    temp_row[j]=randomNumber*precision;\n//                }\n//                else{\n//                    temp_row[j]=-randomNumber*precision;\n//                }\n//            }\n//            temp_global_weights.push(temp_row);\n//        }\n//    }\n\n    function map_temp_to_global() external onlyAdmin{\n        delete global_bias;\n        delete global_weights;\n\n           for(uint256 i=0;i<temp_global_weights.length;i++){\n                    int256[] memory temp= new int256[](temp_global_weights[i].length);\n                    temp=temp_global_weights[i];\n                    global_weights.push(temp);\n                }\n            for(uint256 i=0;i<temp_global_bias.length;i++){\n                    int256 temp=temp_global_bias[i];\n                    global_bias.push(temp);\n                }\n    }\n\n    function get_global_weights() view external returns(int256[][] memory){\n        return global_weights;\n    }\n\n    function get_global_bias() view external returns(int256[] memory){\n        return global_bias;\n    }\n\n    function time_until_next_update_round() external returns(int256){\n        return int(intervalEnd)-int(block.timestamp);\n    }\n    //\n    function end_update_round() external{\n        if(block.timestamp>=intervalEnd){\n            for(uint256 i=0;i<temp_global_weights.length;i++){\n                    int256[] memory temp= new int256[](temp_global_weights[i].length);\n                    temp=temp_global_weights[i];\n                    global_weights[i]=temp;\n                }\n            for(uint256 i=0;i<temp_global_bias.length;i++){\n                    int256 temp=temp_global_bias[i];\n                    global_bias[i]=temp;\n                }\n            intervalEnd=block.timestamp+updateInterval;\n            delete participating_devices;\n            round_Number=round_Number+1;\n        }\n\n    }\n\n    function is_Training() external returns (bool) {\n        return isTraining;\n    }\n\n    function roundUpdateOutstanding() external returns (bool) {\n        if(initialized){\n        address  user = tx.origin;\n        bool new_user=true;\n        for(uint256 i=0;i<this.participantsCount();i++){\n            if(user==participating_devices[i]){\n                new_user=false;\n            }\n        }\n        return new_user;}\n        else{\n            return false;\n        }\n    }\n    //\n    //\n   function update_with_proof(int256[][] calldata local_weights, int256[] calldata local_bias,uint[2] calldata a,uint[2][2] calldata b, uint[2] calldata c, uint[209] calldata input) external TrainingMode {\n        uint[209] memory new_input;\n        for(uint256 i=0; i < 209; i++){\n            new_input[i] = input[i];\n        }\n        require(this.checkZKP(a,b,c,new_input));\n        bool newUser=true;\n        //bool firstUser=true;\n        address user=tx.origin;\n        if(this.participantsCount()==0){\n            participating_devices.push(user);\n            this.movingAverageWeights(local_weights);\n            this.movingAverageBias(local_bias);\n        }\n        else{\n            for(uint256 i=0;i<this.participantsCount();i++){\n                if(user==participating_devices[i]){\n                    newUser=false;\n                }\n            }\n            if(newUser){\n                participating_devices.push(user);\n                this.movingAverageWeights(local_weights);\n                this.movingAverageBias(local_bias);\n            }\n        }\n\n\n    }\n\nfunction update_without_proof(int256[][] calldata local_weights, int256[] calldata local_bias) external TrainingMode {\n        bool newUser=true;\n       // bool firstUser=true;\n        address user=tx.origin;\n        if(this.participantsCount()==0){\n            participating_devices.push(user);\n            this.movingAverageWeights(local_weights);\n            this.movingAverageBias(local_bias);\n        }\n        else{\n            for(uint256 i=0;i<this.participantsCount();i++){\n                if(user==participating_devices[i]){\n                    newUser=false;\n                }\n            }\n            if(newUser){\n                participating_devices.push(user);\n                this.movingAverageWeights(local_weights);\n                this.movingAverageBias(local_bias);\n            }\n        }\n\n\n    }\n\n\n\n\n    function participantsCount(\n    ) external view returns(uint)  {\n        uint x = participating_devices.length;\n        return x;\n    }\n    //\n    //\n    function movingAverageWeights(int256[][] calldata new_weights) external {\n        int256 k = int256(this.participantsCount());\n        if(k>0){\n            if(k==1){\n                for(uint256 i=0;i<new_weights.length;i++){\n                    int256[] memory temp= new int256[](new_weights[i].length);\n                    temp=new_weights[i];\n                    temp_global_weights[i]=temp;\n                }\n            }\n            else{\n                for(uint256 i=0;i<new_weights.length;i++){\n                    int256[] memory res= new int256[](new_weights[i].length);\n                    int256[] memory row_new= new int256[](new_weights[i].length);\n                    row_new=new_weights[i];\n                    int256[] memory row_old= new int256[](temp_global_weights[i].length);\n                    row_old=temp_global_weights[i];\n                    for(uint256 j=0;j<row_old.length;j++){\n                        res[j]=row_old[j]+(row_new[j]-row_old[j])/k;\n                    }\n                    temp_global_weights[i]=res;\n                }\n            }\n\n        }\n\n    }\n    //\n    function movingAverageBias(int256[] calldata new_bias) external {\n        int256 k = int256(this.participantsCount());\n        if(k>0){\n            if(k==1){\n                for(uint256 i=0;i<new_bias.length;i++){\n                    int256 temp=new_bias[i];\n                    temp_global_bias[i]=temp;\n                }\n            }\n            else{\n                for(uint256 i=0;i<new_bias.length;i++){\n                    int256 old_bias_i=temp_global_bias[i];\n                    int256 new_bias_i=new_bias[i];\n                    int256 res=old_bias_i+(new_bias_i-old_bias_i)/k;\n                    temp_global_bias[i]=res;\n                }\n            }\n\n        }\n    }\n\n    function changeLearningRate(int256 newLearnignRate) external onlyAdmin{\n        learning_rate=newLearnignRate;\n    }\n\n\n    function getLearningRate()external returns(int256){\n        return learning_rate;\n    }\n\n\n        function getBatchSize()external returns(uint256){\n        return batchSize;\n    }\n    function getRoundNumber()external returns(uint256){\n        return round_Number;\n    }\n\n    function getInputDimension()external returns(uint256){\n        return inputDimension;\n    }\n\n    function getOutputDimension()external returns(uint256){\n        return outputDimension;\n    }\n\n    function getPrecision()external returns(int256){\n        return precision;\n    }\n\n    function changePrecision(int256 newPrecision) external onlyAdmin{\n        precision=newPrecision;\n    }\n\n\n    function checkZKP(uint[2] memory a,uint[2][2] memory b, uint[2] memory c, uint[209] memory input) public returns(bool) {\n        Verifier.Proof memory proof = Verifier.Proof(Pairing.G1Point(a[0],a[1]),Pairing.G2Point(b[0],b[1]),Pairing.G1Point(c[0],c[1]));\n        return verifier.verifyTx(proof,input);\n    }\n\n    function stopTraining() external onlyAdmin{\n        isTraining=false;\n    }\n    function startTraining() external onlyAdmin{\n        isTraining=true;\n    }\n\n    //\n    function random(uint256 seed) private view returns (uint256) {\n        return uint256(keccak256(abi.encodePacked(block.difficulty, block.timestamp, seed)));\n        return uint256(keccak256(abi.encodePacked(block.difficulty, block.timestamp, seed)));\n\n    }\n    //\n    modifier onlyAdmin {\n        require(tx.origin == administrator);\n        _;\n    }\n\n    modifier TrainingMode {\n        require(isTraining);\n        _;\n    }\n    modifier RoundFinished {\n        require(int(intervalEnd)-int(block.timestamp)<=0);\n        _;\n    }\n\n\n}\n",
  "sourcePath": "/Users/chaehyeon/Documents/DPNM/2023/TUB/Advancing-Blockchain-Based-Federated-Learning-Through-Verifiable-Off-Chain-Computations/Blockchain/Truffle/contracts/FederatedModel.sol",
  "compiler": {
    "name": "solc",
    "version": "0.8.0+commit.c7dfd78e.Emscripten.clang"
  },
  "schemaVersion": "3.4.16",
  "updatedAt": "2023-11-29T14:41:52.852Z",
  "networkType": "ethereum",
  "devdoc": {
    "kind": "dev",
    "methods": {},
    "version": 1
  },
  "userdoc": {
    "kind": "user",
    "methods": {},
    "version": 1
  }
}