{
  "contractName": "FederatedModel",
  "abi": [
    {
      "inputs": [
        {
          "internalType": "uint256",
          "name": "id",
          "type": "uint256"
        },
        {
          "internalType": "uint256",
          "name": "od",
          "type": "uint256"
        },
        {
          "internalType": "int256",
          "name": "learning_rate_",
          "type": "int256"
        },
        {
          "internalType": "int256",
          "name": "precision_",
          "type": "int256"
        },
        {
          "internalType": "uint256",
          "name": "batchSize_",
          "type": "uint256"
        },
        {
          "internalType": "uint256",
          "name": "updateInterval_",
          "type": "uint256"
        }
      ],
      "stateMutability": "nonpayable",
      "type": "constructor"
    },
    {
      "inputs": [],
      "name": "administrator",
      "outputs": [
        {
          "internalType": "address",
          "name": "",
          "type": "address"
        }
      ],
      "stateMutability": "view",
      "type": "function",
      "constant": true
    },
    {
      "inputs": [
        {
          "internalType": "address",
          "name": "verifier_address",
          "type": "address"
        }
      ],
      "name": "updateVerifier",
      "outputs": [],
      "stateMutability": "nonpayable",
      "type": "function"
    },
    {
      "inputs": [
        {
          "internalType": "int256[][]",
          "name": "local_weights",
          "type": "int256[][]"
        },
        {
          "internalType": "int256[]",
          "name": "local_bias",
          "type": "int256[]"
        }
      ],
      "name": "initModel",
      "outputs": [],
      "stateMutability": "nonpayable",
      "type": "function"
    },
    {
      "inputs": [],
      "name": "map_temp_to_global",
      "outputs": [],
      "stateMutability": "nonpayable",
      "type": "function"
    },
    {
      "inputs": [],
      "name": "get_global_weights",
      "outputs": [
        {
          "internalType": "int256[][]",
          "name": "",
          "type": "int256[][]"
        }
      ],
      "stateMutability": "view",
      "type": "function",
      "constant": true
    },
    {
      "inputs": [],
      "name": "get_global_bias",
      "outputs": [
        {
          "internalType": "int256[]",
          "name": "",
          "type": "int256[]"
        }
      ],
      "stateMutability": "view",
      "type": "function",
      "constant": true
    },
    {
      "inputs": [],
      "name": "time_until_next_update_round",
      "outputs": [
        {
          "internalType": "int256",
          "name": "",
          "type": "int256"
        }
      ],
      "stateMutability": "nonpayable",
      "type": "function"
    },
    {
      "inputs": [],
      "name": "end_update_round",
      "outputs": [],
      "stateMutability": "nonpayable",
      "type": "function"
    },
    {
      "inputs": [],
      "name": "is_Training",
      "outputs": [
        {
          "internalType": "bool",
          "name": "",
          "type": "bool"
        }
      ],
      "stateMutability": "nonpayable",
      "type": "function"
    },
    {
      "inputs": [],
      "name": "roundUpdateOutstanding",
      "outputs": [
        {
          "internalType": "bool",
          "name": "",
          "type": "bool"
        }
      ],
      "stateMutability": "nonpayable",
      "type": "function"
    },
    {
      "inputs": [
        {
          "internalType": "int256[][]",
          "name": "local_weights",
          "type": "int256[][]"
        },
        {
          "internalType": "int256[]",
          "name": "local_bias",
          "type": "int256[]"
        },
        {
          "internalType": "uint256[2]",
          "name": "a",
          "type": "uint256[2]"
        },
        {
          "internalType": "uint256[2][2]",
          "name": "b",
          "type": "uint256[2][2]"
        },
        {
          "internalType": "uint256[2]",
          "name": "c",
          "type": "uint256[2]"
        },
        {
          "internalType": "uint256[201]",
          "name": "input",
          "type": "uint256[201]"
        }
      ],
      "name": "update_with_proof",
      "outputs": [],
      "stateMutability": "nonpayable",
      "type": "function"
    },
    {
      "inputs": [
        {
          "internalType": "int256[][]",
          "name": "local_weights",
          "type": "int256[][]"
        },
        {
          "internalType": "int256[]",
          "name": "local_bias",
          "type": "int256[]"
        }
      ],
      "name": "update_without_proof",
      "outputs": [],
      "stateMutability": "nonpayable",
      "type": "function"
    },
    {
      "inputs": [],
      "name": "participantsCount",
      "outputs": [
        {
          "internalType": "uint256",
          "name": "",
          "type": "uint256"
        }
      ],
      "stateMutability": "view",
      "type": "function",
      "constant": true
    },
    {
      "inputs": [
        {
          "internalType": "int256[][]",
          "name": "new_weights",
          "type": "int256[][]"
        }
      ],
      "name": "movingAverageWeights",
      "outputs": [],
      "stateMutability": "nonpayable",
      "type": "function"
    },
    {
      "inputs": [
        {
          "internalType": "int256[]",
          "name": "new_bias",
          "type": "int256[]"
        }
      ],
      "name": "movingAverageBias",
      "outputs": [],
      "stateMutability": "nonpayable",
      "type": "function"
    },
    {
      "inputs": [
        {
          "internalType": "int256",
          "name": "newLearnignRate",
          "type": "int256"
        }
      ],
      "name": "changeLearningRate",
      "outputs": [],
      "stateMutability": "nonpayable",
      "type": "function"
    },
    {
      "inputs": [
        {
          "internalType": "uint256",
          "name": "accountNR",
          "type": "uint256"
        },
        {
          "internalType": "uint256[]",
          "name": "key",
          "type": "uint256[]"
        }
      ],
      "name": "setPublicKey",
      "outputs": [],
      "stateMutability": "nonpayable",
      "type": "function"
    },
    {
      "inputs": [
        {
          "internalType": "uint256",
          "name": "accountNR",
          "type": "uint256"
        }
      ],
      "name": "getPublicKey",
      "outputs": [
        {
          "internalType": "uint256[]",
          "name": "",
          "type": "uint256[]"
        }
      ],
      "stateMutability": "view",
      "type": "function",
      "constant": true
    },
    {
      "inputs": [],
      "name": "getLearningRate",
      "outputs": [
        {
          "internalType": "int256",
          "name": "",
          "type": "int256"
        }
      ],
      "stateMutability": "nonpayable",
      "type": "function"
    },
    {
      "inputs": [],
      "name": "getBatchSize",
      "outputs": [
        {
          "internalType": "uint256",
          "name": "",
          "type": "uint256"
        }
      ],
      "stateMutability": "nonpayable",
      "type": "function"
    },
    {
      "inputs": [],
      "name": "getRoundNumber",
      "outputs": [
        {
          "internalType": "uint256",
          "name": "",
          "type": "uint256"
        }
      ],
      "stateMutability": "nonpayable",
      "type": "function"
    },
    {
      "inputs": [],
      "name": "getInputDimension",
      "outputs": [
        {
          "internalType": "uint256",
          "name": "",
          "type": "uint256"
        }
      ],
      "stateMutability": "nonpayable",
      "type": "function"
    },
    {
      "inputs": [],
      "name": "getOutputDimension",
      "outputs": [
        {
          "internalType": "uint256",
          "name": "",
          "type": "uint256"
        }
      ],
      "stateMutability": "nonpayable",
      "type": "function"
    },
    {
      "inputs": [],
      "name": "getPrecision",
      "outputs": [
        {
          "internalType": "int256",
          "name": "",
          "type": "int256"
        }
      ],
      "stateMutability": "nonpayable",
      "type": "function"
    },
    {
      "inputs": [
        {
          "internalType": "int256",
          "name": "newPrecision",
          "type": "int256"
        }
      ],
      "name": "changePrecision",
      "outputs": [],
      "stateMutability": "nonpayable",
      "type": "function"
    },
    {
      "inputs": [
        {
          "internalType": "uint256[2]",
          "name": "a",
          "type": "uint256[2]"
        },
        {
          "internalType": "uint256[2][2]",
          "name": "b",
          "type": "uint256[2][2]"
        },
        {
          "internalType": "uint256[2]",
          "name": "c",
          "type": "uint256[2]"
        },
        {
          "internalType": "uint256[201]",
          "name": "input",
          "type": "uint256[201]"
        }
      ],
      "name": "checkZKP",
      "outputs": [
        {
          "internalType": "bool",
          "name": "",
          "type": "bool"
        }
      ],
      "stateMutability": "nonpayable",
      "type": "function"
    },
    {
      "inputs": [],
      "name": "stopTraining",
      "outputs": [],
      "stateMutability": "nonpayable",
      "type": "function"
    },
    {
      "inputs": [],
      "name": "startTraining",
      "outputs": [],
      "stateMutability": "nonpayable",
      "type": "function"
    }
  ],
  "bytecode": "0x6080604052600a805460ff19166001179055600f805460ff60a01b191690553480156200002b57600080fd5b5060405162002885380380620028858339810160408190526200004e916200009c565b6007849055600080546001600160a01b0319163217905560088590556009869055600e8290556005839055620000858142620000e6565b600c55600d5550506001600655506200010b915050565b60008060008060008060c08789031215620000b5578182fd5b865195506020870151945060408701519350606087015192506080870151915060a087015190509295509295509295565b600082198211156200010657634e487b7160e01b81526011600452602481fd5b500190565b61276a806200011b6000396000f3fe608060405234801561001057600080fd5b50600436106101c45760003560e01c806397fc007c116100f9578063d5d1c6ee11610097578063dd60c89811610071578063dd60c89814610338578063ecbbf9c114610340578063f53d0a8e14610353578063ff08cde114610368576101c4565b8063d5d1c6ee14610315578063d661016a1461031d578063dbe0cd7714610325576101c4565b8063a25f55d4116100d3578063a25f55d4146102ea578063a74c900e146102f2578063c3cd313b146102fa578063d41998cc14610302576101c4565b806397fc007c146102ba57806399b16c5c146102cd578063a011a5b7146102e2576101c4565b806364ace1ee116101665780637877fc3a116101405780637877fc3a146102775780637c1cc4d21461028a57806395c9290a1461029f5780639670c0bc146102b2576101c4565b806364ace1ee1461023c5780636d05533b1461024f57806375d2c1ce14610257576101c4565b80633e4f56bf116101a25780633e4f56bf146101f957806349cd87c41461020c578063518cae2a146102215780635804314114610229576101c4565b8063091bf334146101c95780630cde0456146101d3578063211b1e22146101f1575b600080fd5b6101d161037b565b005b6101db610592565b6040516101e89190612509565b60405180910390f35b6101db610599565b6101d161020736600461221c565b61059f565b6102146105be565b6040516101e89190612446565b6101d1610616565b6101d16102373660046121ec565b610639565b6101d161024a3660046120f5565b610655565b6101db61082f565b61026a6102653660046121ec565b610844565b6040516101e891906124ba565b6101d1610285366004612034565b6108a6565b610292610cea565b6040516101e891906124fe565b6101d16102ad3660046121ec565b610cf3565b6101db610d0f565b6101d16102c8366004611f5f565b610d15565b6102d5610d37565b6040516101e891906123ca565b6101db610dd0565b6101db610dd6565b610292610ddc565b6101db610ed8565b6101d1610310366004611fcc565b610ede565b6101d1611109565b6101d161112f565b6101d1610333366004611fcc565b611345565b6101db61168f565b61029261034e36600461211c565b611695565b61035b611773565b6040516101e8919061231f565b6101d1610376366004611f8d565b611782565b6000546001600160a01b0316321461039257600080fd5b61039e60046000611d0e565b6103aa60036000611d2c565b60005b60015481101561050f576000600182815481106103da57634e487b7160e01b600052603260045260246000fd5b6000918252602090912001546001600160401b0381111561040b57634e487b7160e01b600052604160045260246000fd5b604051908082528060200260200182016040528015610434578160200160208202803683370190505b5090506001828154811061045857634e487b7160e01b600052603260045260246000fd5b906000526020600020018054806020026020016040519081016040528092919081815260200182805480156104ac57602002820191906000526020600020905b815481526020019060010190808311610498575b50506003805460018101825560009190915284519495506104fa947fc2575a0e9e593c00f959f8c92f12db2869c3395a3b0502d05e2516446f71f85b90910193506020860192509050611d4a565b50508080610507906126cd565b9150506103ad565b5060005b60025481101561058f5760006002828154811061054057634e487b7160e01b600052603260045260246000fd5b60009182526020822001546004805460018101825592527f8a35acfbc15ff81a39ae7d344fd709f28e8600b4aa8c65c6b64bfe7fe36bd19b909101555080610587816126cd565b915050610513565b50565b6006545b90565b60085490565b60008381526010602052604090206105b8908383611d95565b50505050565b6060600480548060200260200160405190810160405280929190818152602001828054801561060c57602002820191906000526020600020905b8154815260200190600101908083116105f8575b5050505050905090565b6000546001600160a01b0316321461062d57600080fd5b600a805460ff19169055565b6000546001600160a01b0316321461065057600080fd5b600555565b6000306001600160a01b031663dd60c8986040518163ffffffff1660e01b815260040160206040518083038186803b15801561069057600080fd5b505afa1580156106a4573d6000803e3d6000fd5b505050506040513d601f19601f820116820180604052508101906106c89190612204565b9050600081131561082a5780600114156107595760005b8281101561075357600084848381811061070957634e487b7160e01b600052603260045260246000fd5b905060200201359050806002838154811061073457634e487b7160e01b600052603260045260246000fd5b600091825260209091200155508061074b816126cd565b9150506106df565b5061082a565b60005b828110156105b85760006002828154811061078757634e487b7160e01b600052603260045260246000fd5b9060005260206000200154905060008585848181106107b657634e487b7160e01b600052603260045260246000fd5b90506020020135905060008483836107ce919061268e565b6107d89190612654565b6107e290846125fb565b9050806002858154811061080657634e487b7160e01b600052603260045260246000fd5b90600052602060002001819055505050508080610822906126cd565b91505061075c565b505050565b600042600c5461083f919061268e565b905090565b60008181526010602090815260409182902080548351818402810184019094528084526060939283018282801561089a57602002820191906000526020600020905b815481526020019060010190808311610886575b50505050509050919050565b600a5460ff166108b557600080fd5b6108bd611dd0565b60005b60c981101561092557828160c981106108e957634e487b7160e01b600052603260045260246000fd5b6020020135828260c9811061090e57634e487b7160e01b600052603260045260246000fd5b60200201528061091d816126cd565b9150506108c0565b5060405163ecbbf9c160e01b8152309063ecbbf9c19061094f908890889088908790600401612459565b602060405180830381600087803b15801561096957600080fd5b505af115801561097d573d6000803e3d6000fd5b505050506040513d601f19601f820116820180604052508101906109a191906121cc565b6109aa57600080fd5b6000600190506000329050306001600160a01b031663dd60c8986040518163ffffffff1660e01b815260040160206040518083038186803b1580156109ee57600080fd5b505afa158015610a02573d6000803e3d6000fd5b505050506040513d601f19601f82011682018060405250810190610a269190612204565b610b1957600b80546001810182556000919091526000805160206127158339815191520180546001600160a01b0319166001600160a01b038316179055604051600162f7321f60e01b03198152309063ff08cde190610a8b908e908e90600401612333565b600060405180830381600087803b158015610aa557600080fd5b505af1158015610ab9573d6000803e3d6000fd5b505060405163325670f760e11b81523092506364ace1ee9150610ae2908c908c9060040161242a565b600060405180830381600087803b158015610afc57600080fd5b505af1158015610b10573d6000803e3d6000fd5b50505050610cdd565b60005b306001600160a01b031663dd60c8986040518163ffffffff1660e01b815260040160206040518083038186803b158015610b5557600080fd5b505afa158015610b69573d6000803e3d6000fd5b505050506040513d601f19601f82011682018060405250810190610b8d9190612204565b811015610beb57600b8181548110610bb557634e487b7160e01b600052603260045260246000fd5b6000918252602090912001546001600160a01b0383811691161415610bd957600092505b80610be3816126cd565b915050610b1c565b508115610cdd57600b80546001810182556000919091526000805160206127158339815191520180546001600160a01b0319166001600160a01b038316179055604051600162f7321f60e01b03198152309063ff08cde190610c53908e908e90600401612333565b600060405180830381600087803b158015610c6d57600080fd5b505af1158015610c81573d6000803e3d6000fd5b505060405163325670f760e11b81523092506364ace1ee9150610caa908c908c9060040161242a565b600060405180830381600087803b158015610cc457600080fd5b505af1158015610cd8573d6000803e3d6000fd5b505050505b5050505050505050505050565b600a5460ff1690565b6000546001600160a01b03163214610d0a57600080fd5b600755565b60055490565b600f80546001600160a01b0319166001600160a01b0392909216919091179055565b60606003805480602002602001604051908101604052809291908181526020016000905b82821015610dc757600084815260209081902083018054604080518285028101850190915281815292830182828015610db357602002820191906000526020600020905b815481526020019060010190808311610d9f575b505050505081526020019060010190610d5b565b50505050905090565b60095490565b600e5490565b600f54600090600160a01b900460ff1615610ed05732600160005b306001600160a01b031663dd60c8986040518163ffffffff1660e01b815260040160206040518083038186803b158015610e3057600080fd5b505afa158015610e44573d6000803e3d6000fd5b505050506040513d601f19601f82011682018060405250810190610e689190612204565b811015610ec657600b8181548110610e9057634e487b7160e01b600052603260045260246000fd5b6000918252602090912001546001600160a01b0384811691161415610eb457600091505b80610ebe816126cd565b915050610df7565b5091506105969050565b506000610596565b60075490565b610eea60016000611d2c565b610ef660026000611d0e565b6008546001600160401b03811115610f1e57634e487b7160e01b600052604160045260246000fd5b604051908082528060200260200182016040528015610f47578160200160208202803683370190505b508051610f5c91600291602090910190611d4a565b5060005b600854811015610fd057828282818110610f8a57634e487b7160e01b600052603260045260246000fd5b9050602002013560028281548110610fb257634e487b7160e01b600052603260045260246000fd5b60009182526020909120015580610fc8816126cd565b915050610f60565b5060005b6008548110156110ef5760006009546001600160401b0381111561100857634e487b7160e01b600052604160045260246000fd5b604051908082528060200260200182016040528015611031578160200160208202803683370190505b50905085858381811061105457634e487b7160e01b600052603260045260246000fd5b9050602002810190611066919061256c565b808060200260200160405190810160405280939291908181526020018383602002808284376000920182905250600180548082018255915284519495506110da947fb10e2d527612073b26eecdfd717e6a320cf44b4afac2b0732d9fcbe2b7fa0cf690910193506020860192509050611d4a565b505080806110e7906126cd565b915050610fd4565b5050600f805460ff60a01b1916600160a01b179055505050565b6000546001600160a01b0316321461112057600080fd5b600a805460ff19166001179055565b600c5442106113435760005b6001548110156112955760006001828154811061116857634e487b7160e01b600052603260045260246000fd5b6000918252602090912001546001600160401b0381111561119957634e487b7160e01b600052604160045260246000fd5b6040519080825280602002602001820160405280156111c2578160200160208202803683370190505b509050600182815481106111e657634e487b7160e01b600052603260045260246000fd5b9060005260206000200180548060200260200160405190810160405280929190818152602001828054801561123a57602002820191906000526020600020905b815481526020019060010190808311611226575b50505050509050806003838154811061126357634e487b7160e01b600052603260045260246000fd5b906000526020600020019080519060200190611280929190611d4a565b5050808061128d906126cd565b91505061113b565b5060005b600254811015611314576000600282815481106112c657634e487b7160e01b600052603260045260246000fd5b9060005260206000200154905080600483815481106112f557634e487b7160e01b600052603260045260246000fd5b600091825260209091200155508061130c816126cd565b915050611299565b50600d54611322904261263c565b600c55611331600b6000611d0e565b60065461133f90600161263c565b6006555b565b600a5460ff1661135457600080fd5b6000600190506000329050306001600160a01b031663dd60c8986040518163ffffffff1660e01b815260040160206040518083038186803b15801561139857600080fd5b505afa1580156113ac573d6000803e3d6000fd5b505050506040513d601f19601f820116820180604052508101906113d09190612204565b6114c357600b80546001810182556000919091526000805160206127158339815191520180546001600160a01b0319166001600160a01b038316179055604051600162f7321f60e01b03198152309063ff08cde1906114359089908990600401612333565b600060405180830381600087803b15801561144f57600080fd5b505af1158015611463573d6000803e3d6000fd5b505060405163325670f760e11b81523092506364ace1ee915061148c908790879060040161242a565b600060405180830381600087803b1580156114a657600080fd5b505af11580156114ba573d6000803e3d6000fd5b50505050611687565b60005b306001600160a01b031663dd60c8986040518163ffffffff1660e01b815260040160206040518083038186803b1580156114ff57600080fd5b505afa158015611513573d6000803e3d6000fd5b505050506040513d601f19601f820116820180604052508101906115379190612204565b81101561159557600b818154811061155f57634e487b7160e01b600052603260045260246000fd5b6000918252602090912001546001600160a01b038381169116141561158357600092505b8061158d816126cd565b9150506114c6565b50811561168757600b80546001810182556000919091526000805160206127158339815191520180546001600160a01b0319166001600160a01b038316179055604051600162f7321f60e01b03198152309063ff08cde1906115fd9089908990600401612333565b600060405180830381600087803b15801561161757600080fd5b505af115801561162b573d6000803e3d6000fd5b505060405163325670f760e11b81523092506364ace1ee9150611654908790879060040161242a565b600060405180830381600087803b15801561166e57600080fd5b505af1158015611682573d6000803e3d6000fd5b505050505b505050505050565b600b5490565b6040805160a081018252855160608201908152602080880151608084015290825282518084018452865181528682015181830152818301528251808401845285518152858201519181019190915281830152600f54915163197ae65360e01b81526000926001600160a01b03169063197ae653906117199084908790600401612512565b60206040518083038186803b15801561173157600080fd5b505afa158015611745573d6000803e3d6000fd5b505050506040513d601f19601f8201168201806040525081019061176991906121cc565b9695505050505050565b6000546001600160a01b031681565b6000306001600160a01b031663dd60c8986040518163ffffffff1660e01b815260040160206040518083038186803b1580156117bd57600080fd5b505afa1580156117d1573d6000803e3d6000fd5b505050506040513d601f19601f820116820180604052508101906117f59190612204565b9050600081131561082a5780600114156119595760005b8281101561075357600084848381811061183657634e487b7160e01b600052603260045260246000fd5b9050602002810190611848919061256c565b90506001600160401b0381111561186f57634e487b7160e01b600052604160045260246000fd5b604051908082528060200260200182016040528015611898578160200160208202803683370190505b5090508484838181106118bb57634e487b7160e01b600052603260045260246000fd5b90506020028101906118cd919061256c565b8080602002602001604051908101604052809392919081815260200183836020028082843760009201919091525050600180549394508493909250859150811061192757634e487b7160e01b600052603260045260246000fd5b906000526020600020019080519060200190611944929190611d4a565b50508080611951906126cd565b91505061180c565b60005b828110156105b857600084848381811061198657634e487b7160e01b600052603260045260246000fd5b9050602002810190611998919061256c565b90506001600160401b038111156119bf57634e487b7160e01b600052604160045260246000fd5b6040519080825280602002602001820160405280156119e8578160200160208202803683370190505b5090506000858584818110611a0d57634e487b7160e01b600052603260045260246000fd5b9050602002810190611a1f919061256c565b90506001600160401b03811115611a4657634e487b7160e01b600052604160045260246000fd5b604051908082528060200260200182016040528015611a6f578160200160208202803683370190505b509050858584818110611a9257634e487b7160e01b600052603260045260246000fd5b9050602002810190611aa4919061256c565b80806020026020016040519081016040528093929190818152602001838360200280828437600092018290525060018054959650909490935087925082109050611afe57634e487b7160e01b600052603260045260246000fd5b6000918252602090912001546001600160401b03811115611b2f57634e487b7160e01b600052604160045260246000fd5b604051908082528060200260200182016040528015611b58578160200160208202803683370190505b50905060018481548110611b7c57634e487b7160e01b600052603260045260246000fd5b90600052602060002001805480602002602001604051908101604052809291908181526020018280548015611bd057602002820191906000526020600020905b815481526020019060010190808311611bbc575b5050505050905060005b8151811015611cb75785828281518110611c0457634e487b7160e01b600052603260045260246000fd5b6020026020010151848381518110611c2c57634e487b7160e01b600052603260045260246000fd5b6020026020010151611c3e919061268e565b611c489190612654565b828281518110611c6857634e487b7160e01b600052603260045260246000fd5b6020026020010151611c7a91906125fb565b848281518110611c9a57634e487b7160e01b600052603260045260246000fd5b602090810291909101015280611caf816126cd565b915050611bda565b508260018581548110611cda57634e487b7160e01b600052603260045260246000fd5b906000526020600020019080519060200190611cf7929190611d4a565b505050508080611d06906126cd565b91505061195c565b508054600082559060005260206000209081019061058f9190611def565b508054600082559060005260206000209081019061058f9190611e04565b828054828255906000526020600020908101928215611d85579160200282015b82811115611d85578251825591602001919060010190611d6a565b50611d91929150611def565b5090565b828054828255906000526020600020908101928215611d85579160200282015b82811115611d85578235825591602001919060010190611db5565b60405180611920016040528060c9906020820280368337509192915050565b5b80821115611d915760008155600101611df0565b80821115611d91576000611e188282611d0e565b50600101611e04565b60008083601f840112611e32578182fd5b5081356001600160401b03811115611e48578182fd5b6020830191508360208083028501011115611e6257600080fd5b9250929050565b600082601f830112611e79578081fd5b6040516119208082018281106001600160401b0382111715611e9d57611e9d6126fe565b6040528184828101871015611eb0578485fd5b8492505b60c9831015611ed457803582526001929092019160209182019101611eb4565b509195945050505050565b8060408101831015611ef057600080fd5b92915050565b600082601f830112611f06578081fd5b604051604081018181106001600160401b0382111715611f2857611f286126fe565b8060405250808385604086011115611f3e578384fd5b835b6002811015611ed4578135835260209283019290910190600101611f40565b600060208284031215611f70578081fd5b81356001600160a01b0381168114611f86578182fd5b9392505050565b60008060208385031215611f9f578081fd5b82356001600160401b03811115611fb4578182fd5b611fc085828601611e21565b90969095509350505050565b60008060008060408587031215611fe1578182fd5b84356001600160401b0380821115611ff7578384fd5b61200388838901611e21565b9096509450602087013591508082111561201b578384fd5b5061202887828801611e21565b95989497509550505050565b600080600080600080600080611a60808a8c031215612051578485fd5b89356001600160401b0380821115612067578687fd5b6120738d838e01611e21565b909b50995060208c013591508082111561208b578687fd5b506120988c828d01611e21565b90985096506120ac90508b60408c01611edf565b94506101008a018b8111156120bf578485fd5b60808b0194506120cf8c82611edf565b9350508a818b0111156120e0578182fd5b50610140890190509295985092959890939650565b60008060208385031215612107578182fd5b82356001600160401b03811115611fb4578283fd5b600080600080611a208587031215612132578384fd5b61213c8686611ef6565b9350604086605f87011261214e578384fd5b600261216161215c826125db565b6125b2565b8083890160c08a018b811115612175578889fd5b885b8581101561219d576121898d84611ef6565b855260209094019391860191600101612177565b508298506121ab8c82611ef6565b97505050505050506121c1866101008701611e69565b905092959194509250565b6000602082840312156121dd578081fd5b81518015158114611f86578182fd5b6000602082840312156121fd578081fd5b5035919050565b600060208284031215612215578081fd5b5051919050565b600080600060408486031215612230578081fd5b8335925060208401356001600160401b0381111561224c578182fd5b61225886828701611e21565b9497909650939450505050565b60008284526020808501945082825b8581101561229057813587529582019590820190600101612274565b509495945050505050565b6000815180845260208085019450808401835b83811015612290578151875295820195908201906001016122ae565b8060005b60c98110156105b85781518452602093840193909101906001016122ce565b8060005b60028110156105b85781518452602093840193909101906001016122f1565b80518252602090810151910152565b6001600160a01b0391909116815260200190565b602080825281810183905260009060408482028401810190840186845b878110156123bd57868403603f190183528135368a9003601e19018112612375578687fd5b890180356001600160401b0381111561238c578788fd5b86810236038b131561239c578788fd5b6123a98682898501612265565b955050509184019190840190600101612350565b5091979650505050505050565b6000602080830181845280855180835260408601915060408482028701019250838701855b8281101561241d57603f1988860301845261240b85835161229b565b945092850192908501906001016123ef565b5092979650505050505050565b60006020825261243e602083018486612265565b949350505050565b600060208252611f86602083018461229b565b611a2081016040808784376000838201818152879190815b600281101561249157848483379084018281529284019290600101612471565b5050828760c08701376101008501925080835250506124b081856122ca565b5095945050505050565b6020808252825182820181905260009190848201906040850190845b818110156124f2578351835292840192918401916001016124d6565b50909695505050505050565b901515815260200190565b90815260200190565b6000611a2082019050612526828551612310565b60208401516125396040840182516122ed565b6020015161254a60808401826122ed565b50604084015161255d60c0840182612310565b50611f866101008301846122ca565b6000808335601e19843603018112612582578283fd5b8301803591506001600160401b0382111561259b578283fd5b6020908101925081023603821315611e6257600080fd5b6040518181016001600160401b03811182821017156125d3576125d36126fe565b604052919050565b60006001600160401b038211156125f4576125f46126fe565b5060200290565b600080821280156001600160ff1b038490038513161561261d5761261d6126e8565b600160ff1b8390038412811615612636576126366126e8565b50500190565b6000821982111561264f5761264f6126e8565b500190565b60008261266f57634e487b7160e01b81526012600452602481fd5b600160ff1b821460001984141615612689576126896126e8565b500590565b60008083128015600160ff1b8501841216156126ac576126ac6126e8565b6001600160ff1b03840183138116156126c7576126c76126e8565b50500390565b60006000198214156126e1576126e16126e8565b5060010190565b634e487b7160e01b600052601160045260246000fd5b634e487b7160e01b600052604160045260246000fdfe0175b7a638427703f0dbe7bb9bbf987a2551717b34e79f33b5b1008d1fa01db9a2646970667358221220aa00ec041a97938eb817df0d0d8630aa11a2777873ff3d0eb27e31766c6f884464736f6c63430008000033",
  "immutableReferences": {},
  "source": "//SPDX-License-Identifier: UNLICENSED\npragma solidity ^0.8.0;\n\nimport \"./verifier.sol\";\npragma experimental ABIEncoderV2;\n\ncontract FederatedModel{\n    address public administrator;\n\n    //  int256[] private global_weights;\n    //  int256 private global_bias;\n    //    int256 private precision=10000;\n    //   int256 learning_rate;\n    //  uint256 private dimension;\n    //    bool public isTraining=true;\n    //   address[] private participating_devices;\n    //  mapping(address => int256[]) private localWeightsMappings;\n    //    mapping(address => int256) private localBiasMappings;\n\n    int256[][] private temp_global_weights;\n    int256[] private temp_global_bias;\n    int256[][] private global_weights;\n    int256[] private global_bias;\n    int256 private precision;\n    uint256 private round_Number;\n    int256 private learning_rate;\n    uint256 private outputDimension;\n    uint256 private inputDimension;\n    bool private isTraining=true;\n    address[] private participating_devices;\n    uint256 private intervalEnd;\n    uint256 private updateInterval;\n    uint256 private batchSize;\n    Verifier private verifier;\n    bool private initialized = false;\n    //uint256 [][] private publicKey;\n    mapping (uint => uint256[]) private publicKey;\n\n\n    constructor(uint256 id,uint256 od,int256 learning_rate_,int256 precision_,uint256 batchSize_,uint256 updateInterval_)public{\n        learning_rate=learning_rate_;\n        administrator=tx.origin;\n        outputDimension =od;\n        inputDimension =id;\n        batchSize=batchSize_;\n        precision=precision_;\n        intervalEnd = block.timestamp + updateInterval_;\n        updateInterval=updateInterval_;\n        round_Number=1;\n    }\n\n\n    function updateVerifier(address verifier_address) external {\n        verifier=Verifier(verifier_address);\n    }\n\n    function initModel(int256[][] calldata local_weights, int256[] calldata local_bias)external{\n        delete temp_global_weights;\n        delete temp_global_bias;\n        temp_global_bias =new int256[](outputDimension);\n        for(uint256 i=0;i< outputDimension;i++){\n            temp_global_bias[i]=local_bias[i];\n        }\n        for(uint256 i=0;i< outputDimension;i++){\n            int256[] memory temp_row=new int256[](inputDimension);\n            temp_row=local_weights[i];\n            temp_global_weights.push(temp_row);\n        }\n        initialized=true;\n    }\n\n//    function resetModel() external {\n//        delete temp_global_weights;\n//        delete temp_global_bias;\n//        temp_global_bias =new int256[](outputDimension);\n//        for(uint256 i=0;i< outputDimension;i++){\n//            int randomNumber=int(random(i)% outputDimension);\n//            if(randomNumber==0) {\n//                randomNumber=1*precision;\n//            }\n//            if(randomNumber%2==0){\n//                temp_global_bias[i]=randomNumber*precision;\n//            }\n//            else{\n//                temp_global_bias[i]=-randomNumber*precision;\n//            }\n//        }\n//        for(uint256 i=0;i< outputDimension;i++){\n//            int256[] memory temp_row=new int256[](inputDimension);\n//            for(uint256 j=0;j< inputDimension;j++){\n//                int randomNumber=int(random(j)% inputDimension);\n//                if(randomNumber==0) {\n//                    randomNumber=1*precision;\n//                }\n//                if(randomNumber%2==0){\n//                    temp_row[j]=randomNumber*precision;\n//                }\n//                else{\n//                    temp_row[j]=-randomNumber*precision;\n//                }\n//            }\n//            temp_global_weights.push(temp_row);\n//        }\n//    }\n\n    function map_temp_to_global() external onlyAdmin{\n        delete global_bias;\n        delete global_weights;\n\n           for(uint256 i=0;i<temp_global_weights.length;i++){\n                    int256[] memory temp= new int256[](temp_global_weights[i].length);\n                    temp=temp_global_weights[i];\n                    global_weights.push(temp);\n                }\n            for(uint256 i=0;i<temp_global_bias.length;i++){\n                    int256 temp=temp_global_bias[i];\n                    global_bias.push(temp);\n                }\n    }\n\n    function get_global_weights() view external returns(int256[][] memory){\n        return global_weights;\n    }\n\n    function get_global_bias() view external returns(int256[] memory){\n        return global_bias;\n    }\n\n    function time_until_next_update_round() external returns(int256){\n        return int(intervalEnd)-int(block.timestamp);\n    }\n    //\n    function end_update_round() external{\n        if(block.timestamp>=intervalEnd){\n            for(uint256 i=0;i<temp_global_weights.length;i++){\n                    int256[] memory temp= new int256[](temp_global_weights[i].length);\n                    temp=temp_global_weights[i];\n                    global_weights[i]=temp;\n                }\n            for(uint256 i=0;i<temp_global_bias.length;i++){\n                    int256 temp=temp_global_bias[i];\n                    global_bias[i]=temp;\n                }\n            intervalEnd=block.timestamp+updateInterval;\n            delete participating_devices;\n            round_Number=round_Number+1;\n        }\n\n    }\n\n    function is_Training() external returns (bool) {\n        return isTraining;\n    }\n\n    function roundUpdateOutstanding() external returns (bool) {\n        if(initialized){\n        address  user = tx.origin;\n        bool new_user=true;\n        for(uint256 i=0;i<this.participantsCount();i++){\n            if(user==participating_devices[i]){\n                new_user=false;\n            }\n        }\n        return new_user;}\n        else{\n            return false;\n        }\n    }\n    //\n    //\n   function update_with_proof(int256[][] calldata local_weights, int256[] calldata local_bias,uint[2] calldata a,uint[2][2] calldata b, uint[2] calldata c, uint[201] calldata input) external TrainingMode {\n        uint[201] memory new_input;\n        for(uint256 i=0; i < 201; i++){\n            new_input[i] = input[i];\n        }\n        require(this.checkZKP(a,b,c,new_input));\n        bool newUser=true;\n        //bool firstUser=true;\n        address user=tx.origin;\n        if(this.participantsCount()==0){\n            participating_devices.push(user);\n            this.movingAverageWeights(local_weights);\n            this.movingAverageBias(local_bias);\n        }\n        else{\n            for(uint256 i=0;i<this.participantsCount();i++){\n                if(user==participating_devices[i]){\n                    newUser=false;\n                }\n            }\n            if(newUser){\n                participating_devices.push(user);\n                this.movingAverageWeights(local_weights);\n                this.movingAverageBias(local_bias);\n            }\n        }\n\n\n    }\n\nfunction update_without_proof(int256[][] calldata local_weights, int256[] calldata local_bias) external TrainingMode {\n        bool newUser=true;\n       // bool firstUser=true;\n        address user=tx.origin;\n        if(this.participantsCount()==0){\n            participating_devices.push(user);\n            this.movingAverageWeights(local_weights);\n            this.movingAverageBias(local_bias);\n        }\n        else{\n            for(uint256 i=0;i<this.participantsCount();i++){\n                if(user==participating_devices[i]){\n                    newUser=false;\n                }\n            }\n            if(newUser){\n                participating_devices.push(user);\n                this.movingAverageWeights(local_weights);\n                this.movingAverageBias(local_bias);\n            }\n        }\n\n\n    }\n\n\n\n\n    function participantsCount(\n    ) external view returns(uint)  {\n        uint x = participating_devices.length;\n        return x;\n    }\n    //\n    //\n    function movingAverageWeights(int256[][] calldata new_weights) external {\n        int256 k = int256(this.participantsCount());\n        if(k>0){\n            if(k==1){\n                for(uint256 i=0;i<new_weights.length;i++){\n                    int256[] memory temp= new int256[](new_weights[i].length);\n                    temp=new_weights[i];\n                    temp_global_weights[i]=temp;\n                }\n            }\n            else{\n                for(uint256 i=0;i<new_weights.length;i++){\n                    int256[] memory res= new int256[](new_weights[i].length);\n                    int256[] memory row_new= new int256[](new_weights[i].length);\n                    row_new=new_weights[i];\n                    int256[] memory row_old= new int256[](temp_global_weights[i].length);\n                    row_old=temp_global_weights[i];\n                    for(uint256 j=0;j<row_old.length;j++){\n                        res[j]=row_old[j]+(row_new[j]-row_old[j])/k;\n                    }\n                    temp_global_weights[i]=res;\n                }\n            }\n\n        }\n\n    }\n    //\n    function movingAverageBias(int256[] calldata new_bias) external {\n        int256 k = int256(this.participantsCount());\n        if(k>0){\n            if(k==1){\n                for(uint256 i=0;i<new_bias.length;i++){\n                    int256 temp=new_bias[i];\n                    temp_global_bias[i]=temp;\n                }\n            }\n            else{\n                for(uint256 i=0;i<new_bias.length;i++){\n                    int256 old_bias_i=temp_global_bias[i];\n                    int256 new_bias_i=new_bias[i];\n                    int256 res=old_bias_i+(new_bias_i-old_bias_i)/k;\n                    temp_global_bias[i]=res;\n                }\n            }\n\n        }\n    }\n\n    function changeLearningRate(int256 newLearnignRate) external onlyAdmin{\n        learning_rate=newLearnignRate;\n    }\n\n    function setPublicKey(uint256 accountNR, uint256[] calldata key)external{\n        publicKey[accountNR] = key;\n    }\n\n    function getPublicKey(uint256 accountNR)external view returns(uint256[] memory){\n        return publicKey[accountNR];\n    }\n\n    function getLearningRate()external returns(int256){\n        return learning_rate;\n    }\n\n\n        function getBatchSize()external returns(uint256){\n        return batchSize;\n    }\n    function getRoundNumber()external returns(uint256){\n        return round_Number;\n    }\n\n    function getInputDimension()external returns(uint256){\n        return inputDimension;\n    }\n\n    function getOutputDimension()external returns(uint256){\n        return outputDimension;\n    }\n\n    function getPrecision()external returns(int256){\n        return precision;\n    }\n\n    function changePrecision(int256 newPrecision) external onlyAdmin{\n        precision=newPrecision;\n    }\n\n\n    function checkZKP(uint[2] memory a,uint[2][2] memory b, uint[2] memory c, uint[201] memory input) public returns(bool) {\n        Verifier.Proof memory proof = Verifier.Proof(Pairing.G1Point(a[0],a[1]),Pairing.G2Point(b[0],b[1]),Pairing.G1Point(c[0],c[1]));\n        return verifier.verifyTx(proof,input);\n    }\n\n    function stopTraining() external onlyAdmin{\n        isTraining=false;\n    }\n    function startTraining() external onlyAdmin{\n        isTraining=true;\n    }\n\n    //\n    function random(uint256 seed) private view returns (uint256) {\n        return uint256(keccak256(abi.encodePacked(block.difficulty, block.timestamp, seed)));\n        return uint256(keccak256(abi.encodePacked(block.difficulty, block.timestamp, seed)));\n\n    }\n    //\n    modifier onlyAdmin {\n        require(tx.origin == administrator);\n        _;\n    }\n\n    modifier TrainingMode {\n        require(isTraining);\n        _;\n    }\n    modifier RoundFinished {\n        require(int(intervalEnd)-int(block.timestamp)<=0);\n        _;\n    }\n\n\n}\n",
  "sourcePath": "/Users/chaehyeon/Documents/DPNM/2023/TUB/Advancing-Blockchain-Based-Federated-Learning-Through-Verifiable-Off-Chain-Computations/Blockchain/Truffle/contracts/FederatedModel.sol",
  "compiler": {
    "name": "solc",
    "version": "0.8.0+commit.c7dfd78e.Emscripten.clang"
  },
  "schemaVersion": "3.4.16",
  "updatedAt": "2023-11-24T02:08:42.388Z",
  "networkType": "ethereum",
  "devdoc": {
    "kind": "dev",
    "methods": {},
    "version": 1
  },
  "userdoc": {
    "kind": "user",
    "methods": {},
    "version": 1
  }
}