{
  "contractName": "FederatedModel",
  "abi": [
    {
      "inputs": [
        {
          "internalType": "uint256",
          "name": "id",
          "type": "uint256"
        },
        {
          "internalType": "uint256",
          "name": "od",
          "type": "uint256"
        },
        {
          "internalType": "int256",
          "name": "learning_rate_",
          "type": "int256"
        },
        {
          "internalType": "int256",
          "name": "precision_",
          "type": "int256"
        },
        {
          "internalType": "uint256",
          "name": "batchSize_",
          "type": "uint256"
        },
        {
          "internalType": "uint256",
          "name": "updateInterval_",
          "type": "uint256"
        }
      ],
      "stateMutability": "nonpayable",
      "type": "constructor"
    },
    {
      "inputs": [],
      "name": "administrator",
      "outputs": [
        {
          "internalType": "address",
          "name": "",
          "type": "address"
        }
      ],
      "stateMutability": "view",
      "type": "function",
      "constant": true
    },
    {
      "inputs": [
        {
          "internalType": "address",
          "name": "verifier_address",
          "type": "address"
        }
      ],
      "name": "updateVerifier",
      "outputs": [],
      "stateMutability": "nonpayable",
      "type": "function"
    },
    {
      "inputs": [
        {
          "internalType": "int256[][]",
          "name": "local_weights",
          "type": "int256[][]"
        },
        {
          "internalType": "int256[]",
          "name": "local_bias",
          "type": "int256[]"
        }
      ],
      "name": "initModel",
      "outputs": [],
      "stateMutability": "nonpayable",
      "type": "function"
    },
    {
      "inputs": [],
      "name": "map_temp_to_global",
      "outputs": [],
      "stateMutability": "nonpayable",
      "type": "function"
    },
    {
      "inputs": [],
      "name": "get_global_weights",
      "outputs": [
        {
          "internalType": "int256[][]",
          "name": "",
          "type": "int256[][]"
        }
      ],
      "stateMutability": "view",
      "type": "function",
      "constant": true
    },
    {
      "inputs": [],
      "name": "get_global_bias",
      "outputs": [
        {
          "internalType": "int256[]",
          "name": "",
          "type": "int256[]"
        }
      ],
      "stateMutability": "view",
      "type": "function",
      "constant": true
    },
    {
      "inputs": [],
      "name": "time_until_next_update_round",
      "outputs": [
        {
          "internalType": "int256",
          "name": "",
          "type": "int256"
        }
      ],
      "stateMutability": "nonpayable",
      "type": "function"
    },
    {
      "inputs": [],
      "name": "end_update_round",
      "outputs": [],
      "stateMutability": "nonpayable",
      "type": "function"
    },
    {
      "inputs": [],
      "name": "is_Training",
      "outputs": [
        {
          "internalType": "bool",
          "name": "",
          "type": "bool"
        }
      ],
      "stateMutability": "nonpayable",
      "type": "function"
    },
    {
      "inputs": [],
      "name": "roundUpdateOutstanding",
      "outputs": [
        {
          "internalType": "bool",
          "name": "",
          "type": "bool"
        }
      ],
      "stateMutability": "nonpayable",
      "type": "function"
    },
    {
      "inputs": [
        {
          "internalType": "int256[][]",
          "name": "local_weights",
          "type": "int256[][]"
        },
        {
          "internalType": "int256[]",
          "name": "local_bias",
          "type": "int256[]"
        },
        {
          "internalType": "uint256[2]",
          "name": "a",
          "type": "uint256[2]"
        },
        {
          "internalType": "uint256[2][2]",
          "name": "b",
          "type": "uint256[2][2]"
        },
        {
          "internalType": "uint256[2]",
          "name": "c",
          "type": "uint256[2]"
        },
        {
          "internalType": "uint256[201]",
          "name": "input",
          "type": "uint256[201]"
        }
      ],
      "name": "update_with_proof",
      "outputs": [],
      "stateMutability": "nonpayable",
      "type": "function"
    },
    {
      "inputs": [
        {
          "internalType": "int256[][]",
          "name": "local_weights",
          "type": "int256[][]"
        },
        {
          "internalType": "int256[]",
          "name": "local_bias",
          "type": "int256[]"
        }
      ],
      "name": "update_without_proof",
      "outputs": [],
      "stateMutability": "nonpayable",
      "type": "function"
    },
    {
      "inputs": [],
      "name": "participantsCount",
      "outputs": [
        {
          "internalType": "uint256",
          "name": "",
          "type": "uint256"
        }
      ],
      "stateMutability": "view",
      "type": "function",
      "constant": true
    },
    {
      "inputs": [
        {
          "internalType": "int256[][]",
          "name": "new_weights",
          "type": "int256[][]"
        }
      ],
      "name": "movingAverageWeights",
      "outputs": [],
      "stateMutability": "nonpayable",
      "type": "function"
    },
    {
      "inputs": [
        {
          "internalType": "int256[]",
          "name": "new_bias",
          "type": "int256[]"
        }
      ],
      "name": "movingAverageBias",
      "outputs": [],
      "stateMutability": "nonpayable",
      "type": "function"
    },
    {
      "inputs": [
        {
          "internalType": "int256",
          "name": "newLearnignRate",
          "type": "int256"
        }
      ],
      "name": "changeLearningRate",
      "outputs": [],
      "stateMutability": "nonpayable",
      "type": "function"
    },
    {
      "inputs": [],
      "name": "getLearningRate",
      "outputs": [
        {
          "internalType": "int256",
          "name": "",
          "type": "int256"
        }
      ],
      "stateMutability": "nonpayable",
      "type": "function"
    },
    {
      "inputs": [],
      "name": "getBatchSize",
      "outputs": [
        {
          "internalType": "uint256",
          "name": "",
          "type": "uint256"
        }
      ],
      "stateMutability": "nonpayable",
      "type": "function"
    },
    {
      "inputs": [],
      "name": "getRoundNumber",
      "outputs": [
        {
          "internalType": "uint256",
          "name": "",
          "type": "uint256"
        }
      ],
      "stateMutability": "nonpayable",
      "type": "function"
    },
    {
      "inputs": [],
      "name": "getInputDimension",
      "outputs": [
        {
          "internalType": "uint256",
          "name": "",
          "type": "uint256"
        }
      ],
      "stateMutability": "nonpayable",
      "type": "function"
    },
    {
      "inputs": [],
      "name": "getOutputDimension",
      "outputs": [
        {
          "internalType": "uint256",
          "name": "",
          "type": "uint256"
        }
      ],
      "stateMutability": "nonpayable",
      "type": "function"
    },
    {
      "inputs": [],
      "name": "getPrecision",
      "outputs": [
        {
          "internalType": "int256",
          "name": "",
          "type": "int256"
        }
      ],
      "stateMutability": "nonpayable",
      "type": "function"
    },
    {
      "inputs": [
        {
          "internalType": "int256",
          "name": "newPrecision",
          "type": "int256"
        }
      ],
      "name": "changePrecision",
      "outputs": [],
      "stateMutability": "nonpayable",
      "type": "function"
    },
    {
      "inputs": [
        {
          "internalType": "uint256[2]",
          "name": "a",
          "type": "uint256[2]"
        },
        {
          "internalType": "uint256[2][2]",
          "name": "b",
          "type": "uint256[2][2]"
        },
        {
          "internalType": "uint256[2]",
          "name": "c",
          "type": "uint256[2]"
        },
        {
          "internalType": "uint256[183]",
          "name": "input",
          "type": "uint256[183]"
        }
      ],
      "name": "checkZKP",
      "outputs": [
        {
          "internalType": "bool",
          "name": "",
          "type": "bool"
        }
      ],
      "stateMutability": "nonpayable",
      "type": "function"
    },
    {
      "inputs": [],
      "name": "stopTraining",
      "outputs": [],
      "stateMutability": "nonpayable",
      "type": "function"
    },
    {
      "inputs": [],
      "name": "startTraining",
      "outputs": [],
      "stateMutability": "nonpayable",
      "type": "function"
    }
  ],
  "bytecode": "0x6080604052600a805460ff19166001179055600f805460ff60a01b191690553480156200002b57600080fd5b50604051620026cd380380620026cd8339810160408190526200004e916200009c565b6007849055600080546001600160a01b0319163217905560088590556009869055600e8290556005839055620000858142620000e6565b600c55600d5550506001600655506200010b915050565b60008060008060008060c08789031215620000b5578182fd5b865195506020870151945060408701519350606087015192506080870151915060a087015190509295509295509295565b600082198211156200010657634e487b7160e01b81526011600452602481fd5b500190565b6125b2806200011b6000396000f3fe608060405234801561001057600080fd5b506004361061018e5760003560e01c806399b16c5c116100de578063d5d1c6ee11610097578063dd60c89811610071578063dd60c898146102cf578063f53d0a8e146102d7578063fb4e20ea146102ec578063ff08cde1146102ff5761018e565b8063d5d1c6ee146102ac578063d661016a146102b4578063dbe0cd77146102bc5761018e565b806399b16c5c14610264578063a011a5b714610279578063a25f55d414610281578063a74c900e14610289578063c3cd313b14610291578063d41998cc146102995761018e565b806364ace1ee1161014b5780637c1cc4d2116101255780637c1cc4d21461022157806395c9290a146102365780639670c0bc1461024957806397fc007c146102515761018e565b806364ace1ee146101f35780636d05533b146102065780637877fc3a1461020e5761018e565b8063091bf334146101935780630cde04561461019d578063211b1e22146101bb57806349cd87c4146101c3578063518cae2a146101d857806358043141146101e0575b600080fd5b61019b610312565b005b6101a5610529565b6040516101b29190612351565b60405180910390f35b6101a5610530565b6101cb610536565b6040516101b291906122d2565b61019b61058e565b61019b6101ee3660046120c1565b6105b1565b61019b610201366004611fca565b6105cd565b6101a56107a9565b61019b61021c366004611f09565b6107be565b610229610bfe565b6040516101b29190612346565b61019b6102443660046120c1565b610c07565b6101a5610c23565b61019b61025f366004611e34565b610c29565b61026c610c4b565b6040516101b29190612256565b6101a5610ce4565b6101a5610cea565b610229610cf0565b6101a5610dec565b61019b6102a7366004611ea1565b610df2565b61019b61101d565b61019b611043565b61019b6102ca366004611ea1565b611259565b6101a561159f565b6102df6115a5565b6040516101b291906121ab565b6102296102fa366004611ff1565b6115b4565b61019b61030d366004611e62565b611692565b6000546001600160a01b0316321461032957600080fd5b61033560046000611c1e565b61034160036000611c3c565b60005b6001548110156104a65760006001828154811061037157634e487b7160e01b600052603260045260246000fd5b6000918252602090912001546001600160401b038111156103a257634e487b7160e01b600052604160045260246000fd5b6040519080825280602002602001820160405280156103cb578160200160208202803683370190505b509050600182815481106103ef57634e487b7160e01b600052603260045260246000fd5b9060005260206000200180548060200260200160405190810160405280929190818152602001828054801561044357602002820191906000526020600020905b81548152602001906001019080831161042f575b5050600380546001810182556000919091528451949550610491947fc2575a0e9e593c00f959f8c92f12db2869c3395a3b0502d05e2516446f71f85b90910193506020860192509050611c5a565b5050808061049e90612515565b915050610344565b5060005b600254811015610526576000600282815481106104d757634e487b7160e01b600052603260045260246000fd5b60009182526020822001546004805460018101825592527f8a35acfbc15ff81a39ae7d344fd709f28e8600b4aa8c65c6b64bfe7fe36bd19b90910155508061051e81612515565b9150506104aa565b50565b6006545b90565b60085490565b6060600480548060200260200160405190810160405280929190818152602001828054801561058457602002820191906000526020600020905b815481526020019060010190808311610570575b5050505050905090565b6000546001600160a01b031632146105a557600080fd5b600a805460ff19169055565b6000546001600160a01b031632146105c857600080fd5b600555565b6000306001600160a01b031663dd60c8986040518163ffffffff1660e01b815260040160206040518083038186803b15801561060857600080fd5b505afa15801561061c573d6000803e3d6000fd5b505050506040513d601f19601f8201168201806040525081019061064091906120d9565b905060008113156107a45780600114156106d15760005b828110156106cb57600084848381811061068157634e487b7160e01b600052603260045260246000fd5b90506020020135905080600283815481106106ac57634e487b7160e01b600052603260045260246000fd5b60009182526020909120015550806106c381612515565b915050610657565b506107a4565b60005b828110156107a2576000600282815481106106ff57634e487b7160e01b600052603260045260246000fd5b90600052602060002001549050600085858481811061072e57634e487b7160e01b600052603260045260246000fd5b905060200201359050600084838361074691906124d6565b610750919061249c565b61075a9084612443565b9050806002858154811061077e57634e487b7160e01b600052603260045260246000fd5b9060005260206000200181905550505050808061079a90612515565b9150506106d4565b505b505050565b600042600c546107b991906124d6565b905090565b600a5460ff166107cd57600080fd5b6107d5611ca5565b60005b60b781101561083d57828160c9811061080157634e487b7160e01b600052603260045260246000fd5b6020020135828260b7811061082657634e487b7160e01b600052603260045260246000fd5b60200201528061083581612515565b9150506107d8565b50604051637da7107560e11b8152309063fb4e20ea906108679088908890889087906004016122e5565b602060405180830381600087803b15801561088157600080fd5b505af1158015610895573d6000803e3d6000fd5b505050506040513d601f19601f820116820180604052508101906108b991906120a1565b6108c257600080fd5b60408051631bac191360e31b8152905160019182913291309163dd60c89891600480820192602092909190829003018186803b15801561090157600080fd5b505afa158015610915573d6000803e3d6000fd5b505050506040513d601f19601f8201168201806040525081019061093991906120d9565b610a2c57600b805460018101825560009190915260008051602061255d8339815191520180546001600160a01b0319166001600160a01b038316179055604051600162f7321f60e01b03198152309063ff08cde19061099e908f908f906004016121bf565b600060405180830381600087803b1580156109b857600080fd5b505af11580156109cc573d6000803e3d6000fd5b505060405163325670f760e11b81523092506364ace1ee91506109f5908d908d906004016122b6565b600060405180830381600087803b158015610a0f57600080fd5b505af1158015610a23573d6000803e3d6000fd5b50505050610bf0565b60005b306001600160a01b031663dd60c8986040518163ffffffff1660e01b815260040160206040518083038186803b158015610a6857600080fd5b505afa158015610a7c573d6000803e3d6000fd5b505050506040513d601f19601f82011682018060405250810190610aa091906120d9565b811015610afe57600b8181548110610ac857634e487b7160e01b600052603260045260246000fd5b6000918252602090912001546001600160a01b0383811691161415610aec57600093505b80610af681612515565b915050610a2f565b508215610bf057600b805460018101825560009190915260008051602061255d8339815191520180546001600160a01b0319166001600160a01b038316179055604051600162f7321f60e01b03198152309063ff08cde190610b66908f908f906004016121bf565b600060405180830381600087803b158015610b8057600080fd5b505af1158015610b94573d6000803e3d6000fd5b505060405163325670f760e11b81523092506364ace1ee9150610bbd908d908d906004016122b6565b600060405180830381600087803b158015610bd757600080fd5b505af1158015610beb573d6000803e3d6000fd5b505050505b505050505050505050505050565b600a5460ff1690565b6000546001600160a01b03163214610c1e57600080fd5b600755565b60055490565b600f80546001600160a01b0319166001600160a01b0392909216919091179055565b60606003805480602002602001604051908101604052809291908181526020016000905b82821015610cdb57600084815260209081902083018054604080518285028101850190915281815292830182828015610cc757602002820191906000526020600020905b815481526020019060010190808311610cb3575b505050505081526020019060010190610c6f565b50505050905090565b60095490565b600e5490565b600f54600090600160a01b900460ff1615610de45732600160005b306001600160a01b031663dd60c8986040518163ffffffff1660e01b815260040160206040518083038186803b158015610d4457600080fd5b505afa158015610d58573d6000803e3d6000fd5b505050506040513d601f19601f82011682018060405250810190610d7c91906120d9565b811015610dda57600b8181548110610da457634e487b7160e01b600052603260045260246000fd5b6000918252602090912001546001600160a01b0384811691161415610dc857600091505b80610dd281612515565b915050610d0b565b50915061052d9050565b50600061052d565b60075490565b610dfe60016000611c3c565b610e0a60026000611c1e565b6008546001600160401b03811115610e3257634e487b7160e01b600052604160045260246000fd5b604051908082528060200260200182016040528015610e5b578160200160208202803683370190505b508051610e7091600291602090910190611c5a565b5060005b600854811015610ee457828282818110610e9e57634e487b7160e01b600052603260045260246000fd5b9050602002013560028281548110610ec657634e487b7160e01b600052603260045260246000fd5b60009182526020909120015580610edc81612515565b915050610e74565b5060005b6008548110156110035760006009546001600160401b03811115610f1c57634e487b7160e01b600052604160045260246000fd5b604051908082528060200260200182016040528015610f45578160200160208202803683370190505b509050858583818110610f6857634e487b7160e01b600052603260045260246000fd5b9050602002810190610f7a91906123b4565b80806020026020016040519081016040528093929190818152602001838360200280828437600092018290525060018054808201825591528451949550610fee947fb10e2d527612073b26eecdfd717e6a320cf44b4afac2b0732d9fcbe2b7fa0cf690910193506020860192509050611c5a565b50508080610ffb90612515565b915050610ee8565b5050600f805460ff60a01b1916600160a01b179055505050565b6000546001600160a01b0316321461103457600080fd5b600a805460ff19166001179055565b600c5442106112575760005b6001548110156111a95760006001828154811061107c57634e487b7160e01b600052603260045260246000fd5b6000918252602090912001546001600160401b038111156110ad57634e487b7160e01b600052604160045260246000fd5b6040519080825280602002602001820160405280156110d6578160200160208202803683370190505b509050600182815481106110fa57634e487b7160e01b600052603260045260246000fd5b9060005260206000200180548060200260200160405190810160405280929190818152602001828054801561114e57602002820191906000526020600020905b81548152602001906001019080831161113a575b50505050509050806003838154811061117757634e487b7160e01b600052603260045260246000fd5b906000526020600020019080519060200190611194929190611c5a565b505080806111a190612515565b91505061104f565b5060005b600254811015611228576000600282815481106111da57634e487b7160e01b600052603260045260246000fd5b90600052602060002001549050806004838154811061120957634e487b7160e01b600052603260045260246000fd5b600091825260209091200155508061122081612515565b9150506111ad565b50600d546112369042612484565b600c55611245600b6000611c1e565b600654611253906001612484565b6006555b565b600a5460ff1661126857600080fd5b60408051631bac191360e31b8152905160019182913291309163dd60c89891600480820192602092909190829003018186803b1580156112a757600080fd5b505afa1580156112bb573d6000803e3d6000fd5b505050506040513d601f19601f820116820180604052508101906112df91906120d9565b6113d257600b805460018101825560009190915260008051602061255d8339815191520180546001600160a01b0319166001600160a01b038316179055604051600162f7321f60e01b03198152309063ff08cde190611344908a908a906004016121bf565b600060405180830381600087803b15801561135e57600080fd5b505af1158015611372573d6000803e3d6000fd5b505060405163325670f760e11b81523092506364ace1ee915061139b90889088906004016122b6565b600060405180830381600087803b1580156113b557600080fd5b505af11580156113c9573d6000803e3d6000fd5b50505050611596565b60005b306001600160a01b031663dd60c8986040518163ffffffff1660e01b815260040160206040518083038186803b15801561140e57600080fd5b505afa158015611422573d6000803e3d6000fd5b505050506040513d601f19601f8201168201806040525081019061144691906120d9565b8110156114a457600b818154811061146e57634e487b7160e01b600052603260045260246000fd5b6000918252602090912001546001600160a01b038381169116141561149257600093505b8061149c81612515565b9150506113d5565b50821561159657600b805460018101825560009190915260008051602061255d8339815191520180546001600160a01b0319166001600160a01b038316179055604051600162f7321f60e01b03198152309063ff08cde19061150c908a908a906004016121bf565b600060405180830381600087803b15801561152657600080fd5b505af115801561153a573d6000803e3d6000fd5b505060405163325670f760e11b81523092506364ace1ee915061156390889088906004016122b6565b600060405180830381600087803b15801561157d57600080fd5b505af1158015611591573d6000803e3d6000fd5b505050505b50505050505050565b600b5490565b6000546001600160a01b031681565b6040805160a081018252855160608201908152602080880151608084015290825282518084018452865181528682015181830152818301528251808401845285518152858201519181019190915281830152600f549151632cd50d6f60e01b81526000926001600160a01b031690632cd50d6f90611638908490879060040161235a565b60206040518083038186803b15801561165057600080fd5b505afa158015611664573d6000803e3d6000fd5b505050506040513d601f19601f8201168201806040525081019061168891906120a1565b9695505050505050565b6000306001600160a01b031663dd60c8986040518163ffffffff1660e01b815260040160206040518083038186803b1580156116cd57600080fd5b505afa1580156116e1573d6000803e3d6000fd5b505050506040513d601f19601f8201168201806040525081019061170591906120d9565b905060008113156107a45780600114156118695760005b828110156106cb57600084848381811061174657634e487b7160e01b600052603260045260246000fd5b905060200281019061175891906123b4565b90506001600160401b0381111561177f57634e487b7160e01b600052604160045260246000fd5b6040519080825280602002602001820160405280156117a8578160200160208202803683370190505b5090508484838181106117cb57634e487b7160e01b600052603260045260246000fd5b90506020028101906117dd91906123b4565b8080602002602001604051908101604052809392919081815260200183836020028082843760009201919091525050600180549394508493909250859150811061183757634e487b7160e01b600052603260045260246000fd5b906000526020600020019080519060200190611854929190611c5a565b5050808061186190612515565b91505061171c565b60005b828110156107a257600084848381811061189657634e487b7160e01b600052603260045260246000fd5b90506020028101906118a891906123b4565b90506001600160401b038111156118cf57634e487b7160e01b600052604160045260246000fd5b6040519080825280602002602001820160405280156118f8578160200160208202803683370190505b509050600085858481811061191d57634e487b7160e01b600052603260045260246000fd5b905060200281019061192f91906123b4565b90506001600160401b0381111561195657634e487b7160e01b600052604160045260246000fd5b60405190808252806020026020018201604052801561197f578160200160208202803683370190505b5090508585848181106119a257634e487b7160e01b600052603260045260246000fd5b90506020028101906119b491906123b4565b80806020026020016040519081016040528093929190818152602001838360200280828437600092018290525060018054959650909490935087925082109050611a0e57634e487b7160e01b600052603260045260246000fd5b6000918252602090912001546001600160401b03811115611a3f57634e487b7160e01b600052604160045260246000fd5b604051908082528060200260200182016040528015611a68578160200160208202803683370190505b50905060018481548110611a8c57634e487b7160e01b600052603260045260246000fd5b90600052602060002001805480602002602001604051908101604052809291908181526020018280548015611ae057602002820191906000526020600020905b815481526020019060010190808311611acc575b5050505050905060005b8151811015611bc75785828281518110611b1457634e487b7160e01b600052603260045260246000fd5b6020026020010151848381518110611b3c57634e487b7160e01b600052603260045260246000fd5b6020026020010151611b4e91906124d6565b611b58919061249c565b828281518110611b7857634e487b7160e01b600052603260045260246000fd5b6020026020010151611b8a9190612443565b848281518110611baa57634e487b7160e01b600052603260045260246000fd5b602090810291909101015280611bbf81612515565b915050611aea565b508260018581548110611bea57634e487b7160e01b600052603260045260246000fd5b906000526020600020019080519060200190611c07929190611c5a565b505050508080611c1690612515565b91505061186c565b50805460008255906000526020600020908101906105269190611cc4565b50805460008255906000526020600020908101906105269190611cd9565b828054828255906000526020600020908101928215611c95579160200282015b82811115611c95578251825591602001919060010190611c7a565b50611ca1929150611cc4565b5090565b604051806116e0016040528060b7906020820280368337509192915050565b5b80821115611ca15760008155600101611cc5565b80821115611ca1576000611ced8282611c1e565b50600101611cd9565b60008083601f840112611d07578182fd5b5081356001600160401b03811115611d1d578182fd5b6020830191508360208083028501011115611d3757600080fd5b9250929050565b600082601f830112611d4e578081fd5b6040516116e08082018281106001600160401b0382111715611d7257611d72612546565b6040528184828101871015611d85578485fd5b8492505b60b7831015611da957803582526001929092019160209182019101611d89565b509195945050505050565b8060408101831015611dc557600080fd5b92915050565b600082601f830112611ddb578081fd5b604051604081018181106001600160401b0382111715611dfd57611dfd612546565b8060405250808385604086011115611e13578384fd5b835b6002811015611da9578135835260209283019290910190600101611e15565b600060208284031215611e45578081fd5b81356001600160a01b0381168114611e5b578182fd5b9392505050565b60008060208385031215611e74578081fd5b82356001600160401b03811115611e89578182fd5b611e9585828601611cf6565b90969095509350505050565b60008060008060408587031215611eb6578182fd5b84356001600160401b0380821115611ecc578384fd5b611ed888838901611cf6565b90965094506020870135915080821115611ef0578384fd5b50611efd87828801611cf6565b95989497509550505050565b600080600080600080600080611a60808a8c031215611f26578485fd5b89356001600160401b0380821115611f3c578687fd5b611f488d838e01611cf6565b909b50995060208c0135915080821115611f60578687fd5b50611f6d8c828d01611cf6565b9098509650611f8190508b60408c01611db4565b94506101008a018b811115611f94578485fd5b60808b019450611fa48c82611db4565b9350508a818b011115611fb5578182fd5b50610140890190509295985092959890939650565b60008060208385031215611fdc578182fd5b82356001600160401b03811115611e89578283fd5b6000806000806117e08587031215612007578384fd5b6120118686611dcb565b9350604086605f870112612023578384fd5b600261203661203182612423565b6123fa565b8083890160c08a018b81111561204a578889fd5b885b858110156120725761205e8d84611dcb565b85526020909401939186019160010161204c565b508298506120808c82611dcb565b9750505050505050612096866101008701611d3e565b905092959194509250565b6000602082840312156120b2578081fd5b81518015158114611e5b578182fd5b6000602082840312156120d2578081fd5b5035919050565b6000602082840312156120ea578081fd5b5051919050565b60008284526020808501945082825b8581101561211c57813587529582019590820190600101612100565b509495945050505050565b6000815180845260208085019450808401835b8381101561211c5781518752958201959082019060010161213a565b8060005b60b78110156107a257815184526020938401939091019060010161215a565b8060005b60028110156107a257815184526020938401939091019060010161217d565b80518252602090810151910152565b6001600160a01b0391909116815260200190565b602080825281810183905260009060408482028401810190840186845b8781101561224957868403603f190183528135368a9003601e19018112612201578687fd5b890180356001600160401b03811115612218578788fd5b86810236038b1315612228578788fd5b61223586828985016120f1565b9550505091840191908401906001016121dc565b5091979650505050505050565b6000602080830181845280855180835260408601915060408482028701019250838701855b828110156122a957603f19888603018452612297858351612127565b9450928501929085019060010161227b565b5092979650505050505050565b6000602082526122ca6020830184866120f1565b949350505050565b600060208252611e5b6020830184612127565b6117e081016040808784376000838201818152879190815b600281101561231d578484833790840182815292840192906001016122fd565b5050828760c087013761010085019250808352505061233c8185612156565b5095945050505050565b901515815260200190565b90815260200190565b60006117e08201905061236e82855161219c565b6020840151612381604084018251612179565b602001516123926080840182612179565b5060408401516123a560c084018261219c565b50611e5b610100830184612156565b6000808335601e198436030181126123ca578283fd5b8301803591506001600160401b038211156123e3578283fd5b6020908101925081023603821315611d3757600080fd5b6040518181016001600160401b038111828210171561241b5761241b612546565b604052919050565b60006001600160401b0382111561243c5761243c612546565b5060200290565b600080821280156001600160ff1b038490038513161561246557612465612530565b600160ff1b839003841281161561247e5761247e612530565b50500190565b6000821982111561249757612497612530565b500190565b6000826124b757634e487b7160e01b81526012600452602481fd5b600160ff1b8214600019841416156124d1576124d1612530565b500590565b60008083128015600160ff1b8501841216156124f4576124f4612530565b6001600160ff1b038401831381161561250f5761250f612530565b50500390565b600060001982141561252957612529612530565b5060010190565b634e487b7160e01b600052601160045260246000fd5b634e487b7160e01b600052604160045260246000fdfe0175b7a638427703f0dbe7bb9bbf987a2551717b34e79f33b5b1008d1fa01db9a2646970667358221220ad8afe0d24c29f2854573ad6764f8b8c98f3ba6503fdc044c8f172ca8d3ff3cc64736f6c63430008000033",
  "immutableReferences": {},
  "source": "pragma solidity ^0.8.0;\n\nimport \"./verifier.sol\";\npragma experimental ABIEncoderV2;\n\ncontract FederatedModel{\n    address public administrator;\n\n    //  int256[] private global_weights;\n    //  int256 private global_bias;\n    //    int256 private precision=10000;\n    //   int256 learning_rate;\n    //  uint256 private dimension;\n    //    bool public isTraining=true;\n    //   address[] private participating_devices;\n    //  mapping(address => int256[]) private localWeightsMappings;\n    //    mapping(address => int256) private localBiasMappings;\n\n    int256[][] private temp_global_weights;\n    int256[] private temp_global_bias;\n    int256[][] private global_weights;\n    int256[] private global_bias;\n    int256 private precision;\n    uint256 private round_Number;\n    int256 private learning_rate;\n    uint256 private outputDimension;\n    uint256 private inputDimension;\n    bool private isTraining=true;\n    address[] private participating_devices;\n    uint256 private intervalEnd;\n    uint256 private updateInterval;\n    uint256 private batchSize;\n    Verifier private verifier;\n    bool private initialized = false;\n\n\n    constructor(uint256 id,uint256 od,int256 learning_rate_,int256 precision_,uint256 batchSize_,uint256 updateInterval_)public{\n        learning_rate=learning_rate_;\n        administrator=tx.origin;\n        outputDimension =od;\n        inputDimension =id;\n        batchSize=batchSize_;\n        precision=precision_;\n        intervalEnd = block.timestamp + updateInterval_;\n        updateInterval=updateInterval_;\n        round_Number=1;\n    }\n\n\n    function updateVerifier(address verifier_address) external {\n        verifier=Verifier(verifier_address);\n    }\n\n    function initModel(int256[][] calldata local_weights, int256[] calldata local_bias)external{\n        delete temp_global_weights;\n        delete temp_global_bias;\n        temp_global_bias =new int256[](outputDimension);\n        for(uint256 i=0;i< outputDimension;i++){\n            temp_global_bias[i]=local_bias[i];\n        }\n        for(uint256 i=0;i< outputDimension;i++){\n            int256[] memory temp_row=new int256[](inputDimension);\n            temp_row=local_weights[i];\n            temp_global_weights.push(temp_row);\n        }\n        initialized=true;\n    }\n\n//    function resetModel() external {\n//        delete temp_global_weights;\n//        delete temp_global_bias;\n//        temp_global_bias =new int256[](outputDimension);\n//        for(uint256 i=0;i< outputDimension;i++){\n//            int randomNumber=int(random(i)% outputDimension);\n//            if(randomNumber==0) {\n//                randomNumber=1*precision;\n//            }\n//            if(randomNumber%2==0){\n//                temp_global_bias[i]=randomNumber*precision;\n//            }\n//            else{\n//                temp_global_bias[i]=-randomNumber*precision;\n//            }\n//        }\n//        for(uint256 i=0;i< outputDimension;i++){\n//            int256[] memory temp_row=new int256[](inputDimension);\n//            for(uint256 j=0;j< inputDimension;j++){\n//                int randomNumber=int(random(j)% inputDimension);\n//                if(randomNumber==0) {\n//                    randomNumber=1*precision;\n//                }\n//                if(randomNumber%2==0){\n//                    temp_row[j]=randomNumber*precision;\n//                }\n//                else{\n//                    temp_row[j]=-randomNumber*precision;\n//                }\n//            }\n//            temp_global_weights.push(temp_row);\n//        }\n//    }\n\n    function map_temp_to_global() external onlyAdmin{\n        delete global_bias;\n        delete global_weights;\n\n           for(uint256 i=0;i<temp_global_weights.length;i++){\n                    int256[] memory temp= new int256[](temp_global_weights[i].length);\n                    temp=temp_global_weights[i];\n                    global_weights.push(temp);\n                }\n            for(uint256 i=0;i<temp_global_bias.length;i++){\n                    int256 temp=temp_global_bias[i];\n                    global_bias.push(temp);\n                }\n    }\n\n    function get_global_weights() view external returns(int256[][] memory){\n        return global_weights;\n    }\n\n    function get_global_bias() view external returns(int256[] memory){\n        return global_bias;\n    }\n\n    function time_until_next_update_round() external returns(int256){\n        return int(intervalEnd)-int(block.timestamp);\n    }\n    //\n    function end_update_round() external{\n        if(block.timestamp>=intervalEnd){\n            for(uint256 i=0;i<temp_global_weights.length;i++){\n                    int256[] memory temp= new int256[](temp_global_weights[i].length);\n                    temp=temp_global_weights[i];\n                    global_weights[i]=temp;\n                }\n            for(uint256 i=0;i<temp_global_bias.length;i++){\n                    int256 temp=temp_global_bias[i];\n                    global_bias[i]=temp;\n                }\n            intervalEnd=block.timestamp+updateInterval;\n            delete participating_devices;\n            round_Number=round_Number+1;\n        }\n\n    }\n\n    function is_Training() external returns (bool) {\n        return isTraining;\n    }\n\n    function roundUpdateOutstanding() external returns (bool) {\n        if(initialized){\n        address  user = tx.origin;\n        bool new_user=true;\n        for(uint256 i=0;i<this.participantsCount();i++){\n            if(user==participating_devices[i]){\n                new_user=false;\n            }\n        }\n        return new_user;}\n        else{\n            return false;\n        }\n    }\n    //\n    //\n   function update_with_proof(int256[][] calldata local_weights, int256[] calldata local_bias,uint[2] calldata a,uint[2][2] calldata b, uint[2] calldata c, uint[201] calldata input) external TrainingMode {\n        uint[183] memory new_input;\n        for(uint256 i=0; i < 183; i++){\n            new_input[i] = input[i];\n        }\n        require(this.checkZKP(a,b,c,new_input));\n        bool newUser=true;\n        bool firstUser=true;\n        address user=tx.origin;\n        if(this.participantsCount()==0){\n            participating_devices.push(user);\n            this.movingAverageWeights(local_weights);\n            this.movingAverageBias(local_bias);\n        }\n        else{\n            for(uint256 i=0;i<this.participantsCount();i++){\n                if(user==participating_devices[i]){\n                    newUser=false;\n                }\n            }\n            if(newUser){\n                participating_devices.push(user);\n                this.movingAverageWeights(local_weights);\n                this.movingAverageBias(local_bias);\n            }\n        }\n\n\n    }\n\nfunction update_without_proof(int256[][] calldata local_weights, int256[] calldata local_bias) external TrainingMode {\n        bool newUser=true;\n        bool firstUser=true;\n        address user=tx.origin;\n        if(this.participantsCount()==0){\n            participating_devices.push(user);\n            this.movingAverageWeights(local_weights);\n            this.movingAverageBias(local_bias);\n        }\n        else{\n            for(uint256 i=0;i<this.participantsCount();i++){\n                if(user==participating_devices[i]){\n                    newUser=false;\n                }\n            }\n            if(newUser){\n                participating_devices.push(user);\n                this.movingAverageWeights(local_weights);\n                this.movingAverageBias(local_bias);\n            }\n        }\n\n\n    }\n\n\n\n\n    function participantsCount(\n    ) external view returns(uint)  {\n        uint x = participating_devices.length;\n        return x;\n    }\n    //\n    //\n    function movingAverageWeights(int256[][] calldata new_weights) external {\n        int256 k = int256(this.participantsCount());\n        if(k>0){\n            if(k==1){\n                for(uint256 i=0;i<new_weights.length;i++){\n                    int256[] memory temp= new int256[](new_weights[i].length);\n                    temp=new_weights[i];\n                    temp_global_weights[i]=temp;\n                }\n            }\n            else{\n                for(uint256 i=0;i<new_weights.length;i++){\n                    int256[] memory res= new int256[](new_weights[i].length);\n                    int256[] memory row_new= new int256[](new_weights[i].length);\n                    row_new=new_weights[i];\n                    int256[] memory row_old= new int256[](temp_global_weights[i].length);\n                    row_old=temp_global_weights[i];\n                    for(uint256 j=0;j<row_old.length;j++){\n                        res[j]=row_old[j]+(row_new[j]-row_old[j])/k;\n                    }\n                    temp_global_weights[i]=res;\n                }\n            }\n\n        }\n\n    }\n    //\n    function movingAverageBias(int256[] calldata new_bias) external {\n        int256 k = int256(this.participantsCount());\n        if(k>0){\n            if(k==1){\n                for(uint256 i=0;i<new_bias.length;i++){\n                    int256 temp=new_bias[i];\n                    temp_global_bias[i]=temp;\n                }\n            }\n            else{\n                for(uint256 i=0;i<new_bias.length;i++){\n                    int256 old_bias_i=temp_global_bias[i];\n                    int256 new_bias_i=new_bias[i];\n                    int256 res=old_bias_i+(new_bias_i-old_bias_i)/k;\n                    temp_global_bias[i]=res;\n                }\n            }\n\n        }\n    }\n\n    function changeLearningRate(int256 newLearnignRate) external onlyAdmin{\n        learning_rate=newLearnignRate;\n    }\n\n    function getLearningRate()external returns(int256){\n        return learning_rate;\n    }\n\n\n        function getBatchSize()external returns(uint256){\n        return batchSize;\n    }\n    function getRoundNumber()external returns(uint256){\n        return round_Number;\n    }\n\n    function getInputDimension()external returns(uint256){\n        return inputDimension;\n    }\n\n    function getOutputDimension()external returns(uint256){\n        return outputDimension;\n    }\n\n    function getPrecision()external returns(int256){\n        return precision;\n    }\n\n    function changePrecision(int256 newPrecision) external onlyAdmin{\n        precision=newPrecision;\n    }\n\n\n    function checkZKP(uint[2] memory a,uint[2][2] memory b, uint[2] memory c, uint[183] memory input) public returns(bool) {\n        Verifier.Proof memory proof = Verifier.Proof(Pairing.G1Point(a[0],a[1]),Pairing.G2Point(b[0],b[1]),Pairing.G1Point(c[0],c[1]));\n        return verifier.verifyTx(proof,input);\n    }\n\n    function stopTraining() external onlyAdmin{\n        isTraining=false;\n    }\n    function startTraining() external onlyAdmin{\n        isTraining=true;\n    }\n\n    //\n    function random(uint256 seed) private view returns (uint256) {\n        return uint256(keccak256(abi.encodePacked(block.difficulty, block.timestamp, seed)));\n\n    }\n    //\n    modifier onlyAdmin {\n        require(tx.origin == administrator);\n        _;\n    }\n\n    modifier TrainingMode {\n        require(isTraining);\n        _;\n    }\n    modifier RoundFinished {\n        require(int(intervalEnd)-int(block.timestamp)<=0);\n        _;\n    }\n\n\n}\n",
  "sourcePath": "/Users/chaehyeon/Documents/DPNM/2023/TUB/Advancing-Blockchain-Based-Federated-Learning-Through-Verifiable-Off-Chain-Computations/Blockchain/Truffle/contracts/FederatedModel.sol",
  "compiler": {
    "name": "solc",
    "version": "0.8.0+commit.c7dfd78e.Emscripten.clang"
  },
  "schemaVersion": "3.4.16",
  "updatedAt": "2023-11-02T12:41:01.659Z",
  "networkType": "ethereum",
  "devdoc": {
    "kind": "dev",
    "methods": {},
    "version": 1
  },
  "userdoc": {
    "kind": "user",
    "methods": {},
    "version": 1
  }
}