{
  "contractName": "Registration",
  "abi": [
    {
      "inputs": [],
      "name": "administrator",
      "outputs": [
        {
          "internalType": "address",
          "name": "",
          "type": "address"
        }
      ],
      "stateMutability": "view",
      "type": "function",
      "constant": true
    },
    {
      "inputs": [
        {
          "internalType": "address",
          "name": "verifier_address",
          "type": "address"
        }
      ],
      "name": "updateVerifier",
      "outputs": [],
      "stateMutability": "nonpayable",
      "type": "function"
    },
    {
      "inputs": [
        {
          "internalType": "uint256",
          "name": "accountNR",
          "type": "uint256"
        },
        {
          "internalType": "string",
          "name": "dc",
          "type": "string"
        },
        {
          "internalType": "uint256[2]",
          "name": "a",
          "type": "uint256[2]"
        },
        {
          "internalType": "uint256[2][2]",
          "name": "b",
          "type": "uint256[2][2]"
        },
        {
          "internalType": "uint256[2]",
          "name": "c",
          "type": "uint256[2]"
        },
        {
          "internalType": "uint256[26]",
          "name": "input",
          "type": "uint256[26]"
        }
      ],
      "name": "verification",
      "outputs": [],
      "stateMutability": "nonpayable",
      "type": "function"
    },
    {
      "inputs": [
        {
          "internalType": "uint256[2]",
          "name": "a",
          "type": "uint256[2]"
        },
        {
          "internalType": "uint256[2][2]",
          "name": "b",
          "type": "uint256[2][2]"
        },
        {
          "internalType": "uint256[2]",
          "name": "c",
          "type": "uint256[2]"
        },
        {
          "internalType": "uint256[26]",
          "name": "input",
          "type": "uint256[26]"
        }
      ],
      "name": "checkZKP",
      "outputs": [
        {
          "internalType": "bool",
          "name": "",
          "type": "bool"
        }
      ],
      "stateMutability": "nonpayable",
      "type": "function"
    },
    {
      "inputs": [
        {
          "internalType": "uint256",
          "name": "accountNR",
          "type": "uint256"
        },
        {
          "internalType": "string",
          "name": "dc",
          "type": "string"
        }
      ],
      "name": "setCommitment",
      "outputs": [],
      "stateMutability": "nonpayable",
      "type": "function"
    },
    {
      "inputs": [
        {
          "internalType": "uint256",
          "name": "accountNR",
          "type": "uint256"
        }
      ],
      "name": "getCommitment",
      "outputs": [
        {
          "internalType": "string",
          "name": "",
          "type": "string"
        }
      ],
      "stateMutability": "view",
      "type": "function",
      "constant": true
    }
  ],
  "bytecode": "0x608060405234801561001057600080fd5b50610ae6806100206000396000f3fe608060405234801561001057600080fd5b50600436106100625760003560e01c80630dc274551461006757806369bcdb7d1461007c57806370273a46146100a557806397fc007c146100c5578063e1ffb3c5146100d8578063f53d0a8e146100eb575b600080fd5b61007a61007536600461075b565b610100565b005b61008f61008a366004610743565b610124565b60405161009c919061095f565b60405180910390f35b6100b86100b3366004610673565b6101c6565b60405161009c9190610954565b61007a6100d3366004610645565b6102a4565b61007a6100e63660046107a0565b6102c6565b6100f361041b565b60405161009c91906108df565b6000828152600160209081526040909120825161011f9284019061042a565b505050565b600081815260016020526040902080546060919061014190610a38565b80601f016020809104026020016040519081016040528092919081815260200182805461016d90610a38565b80156101ba5780601f1061018f576101008083540402835291602001916101ba565b820191906000526020600020905b81548152906001019060200180831161019d57829003601f168201915b50505050509050919050565b6040805160a0810182528551606082019081526020808801516080840152908252825180840184528651815286820151818301528183015282518084018452855181528582015191810191909152818301526002549151632310e0cf60e21b81526000926001600160a01b031690638c43833c9061024a9084908790600401610972565b60206040518083038186803b15801561026257600080fd5b505afa158015610276573d6000803e3d6000fd5b505050506040513d601f19601f8201168201806040525081019061029a9190610723565b9695505050505050565b600280546001600160a01b0319166001600160a01b0392909216919091179055565b6102ce6104ae565b60005b601a811015610336578281601a81106102fa57634e487b7160e01b600052603260045260246000fd5b60200201358282601a811061031f57634e487b7160e01b600052603260045260246000fd5b60200201528061032e81610a73565b9150506102d1565b506040516338139d2360e11b815230906370273a46906103609088908890889087906004016108f3565b602060405180830381600087803b15801561037a57600080fd5b505af115801561038e573d6000803e3d6000fd5b505050506040513d601f19601f820116820180604052508101906103b29190610723565b6103bb57600080fd5b604051630dc2745560e01b81523090630dc27455906103e0908a908a906004016109cc565b600060405180830381600087803b1580156103fa57600080fd5b505af115801561040e573d6000803e3d6000fd5b5050505050505050505050565b6000546001600160a01b031681565b82805461043690610a38565b90600052602060002090601f016020900481019282610458576000855561049e565b82601f1061047157805160ff191683800117855561049e565b8280016001018555821561049e579182015b8281111561049e578251825591602001919060010190610483565b506104aa9291506104cd565b5090565b604051806103400160405280601a906020820280368337509192915050565b5b808211156104aa57600081556001016104ce565b600082601f8301126104f2578081fd5b60405161034080820182811067ffffffffffffffff8211171561051757610517610a9a565b604052818482810187101561052a578485fd5b8492505b601a83101561054e5780358252600192909201916020918201910161052e565b509195945050505050565b806040810183101561056a57600080fd5b92915050565b600082601f830112610580578081fd5b6040516040810181811067ffffffffffffffff821117156105a3576105a3610a9a565b80604052508083856040860111156105b9578384fd5b835b600281101561054e5781358352602092830192909101906001016105bb565b600082601f8301126105ea578081fd5b813567ffffffffffffffff81111561060457610604610a9a565b610617601f8201601f19166020016109ed565b81815284602083860101111561062b578283fd5b816020850160208301379081016020019190915292915050565b600060208284031215610656578081fd5b81356001600160a01b038116811461066c578182fd5b9392505050565b6000806000806104408587031215610689578283fd5b6106938686610570565b9350604086605f8701126106a5578384fd5b60026106b86106b382610a17565b6109ed565b8083890160c08a018b8111156106cc578889fd5b885b858110156106f4576106e08d84610570565b8552602090940193918601916001016106ce565b508298506107028c82610570565b97505050505050506107188661010087016104e2565b905092959194509250565b600060208284031215610734578081fd5b8151801515811461066c578182fd5b600060208284031215610754578081fd5b5035919050565b6000806040838503121561076d578182fd5b82359150602083013567ffffffffffffffff81111561078a578182fd5b610796858286016105da565b9150509250929050565b60008060008060008061048080888a0312156107ba578283fd5b87359650602088013567ffffffffffffffff8111156107d7578384fd5b6107e38a828b016105da565b9650506107f38960408a01610559565b9450610100880189811115610806578384fd5b6080890194506108168a82610559565b935050888189011115610827578182fd5b50610140870190509295509295509295565b8060005b601a81101561085c57815184526020938401939091019060010161083d565b50505050565b8060005b600281101561085c578151845260209384019390910190600101610866565b60008151808452815b818110156108aa5760208185018101518683018201520161088e565b818111156108bb5782602083870101525b50601f01601f19169290920160200192915050565b80518252602090810151910152565b6001600160a01b0391909116815260200190565b61044081016040808784376000838201818152879190815b600281101561092b5784848337908401828152928401929060010161090b565b5050828760c087013761010085019250808352505061094a8185610839565b5095945050505050565b901515815260200190565b60006020825261066c6020830184610885565b6000610440820190506109868285516108d0565b6020840151610999604084018251610862565b602001516109aa6080840182610862565b5060408401516109bd60c08401826108d0565b5061066c610100830184610839565b6000838252604060208301526109e56040830184610885565b949350505050565b60405181810167ffffffffffffffff81118282101715610a0f57610a0f610a9a565b604052919050565b600067ffffffffffffffff821115610a3157610a31610a9a565b5060200290565b600281046001821680610a4c57607f821691505b60208210811415610a6d57634e487b7160e01b600052602260045260246000fd5b50919050565b6000600019821415610a9357634e487b7160e01b81526011600452602481fd5b5060010190565b634e487b7160e01b600052604160045260246000fdfea2646970667358221220e98ee4799b1300ff8de94feca10c56bdd03a6d47dc89688e97bc181b34a7393564736f6c63430008000033",
  "immutableReferences": {},
  "source": "//SPDX-License-Identifier: UNLICENSED\npragma solidity ^0.8.0;\n\nimport \"./RegistrationVerifier.sol\";\npragma experimental ABIEncoderV2;\n\ncontract Registration{\n    address public administrator;\n    mapping (uint => string) private Commitment;\n    RegistrationVerifier private verifier;\n\n    function updateVerifier(address verifier_address) external {\n        verifier=RegistrationVerifier(verifier_address);\n    }\n\n    function verification(uint256 accountNR, string memory dc, uint[2] calldata a, uint[2][2] calldata b, uint[2] calldata c, uint[26] calldata input) external {\n        uint[26] memory new_input;\n        for(uint256 i=0; i < 26; i++){\n            new_input[i] = input[i];\n        }\n\n        require(this.checkZKP(a, b, c, new_input));\n        this.setCommitment(accountNR, dc);\n    }\n\n    function checkZKP(uint[2] memory a,uint[2][2] memory b, uint[2] memory c, uint[26] memory input) public returns(bool) {\n        RegistrationVerifier.Proof memory proof = RegistrationVerifier.Proof(Pairing.G1Point(a[0],a[1]),Pairing.G2Point(b[0],b[1]),Pairing.G1Point(c[0],c[1]));\n        return verifier.verifyTx(proof,input);\n    }\n\n    function setCommitment(uint256 accountNR, string memory dc) external{\n        Commitment[accountNR] = dc;\n    }\n\n    function getCommitment(uint256 accountNR)external view returns (string memory){\n        return Commitment[accountNR];\n    }\n\n}\n",
  "sourcePath": "/home/Advancing-Blockchain-Based-Federated-Learning-Through-Verifiable-Off-Chain-Computations/Blockchain/Truffle/contracts/Registration.sol",
  "compiler": {
    "name": "solc",
    "version": "0.8.0+commit.c7dfd78e.Emscripten.clang"
  },
  "schemaVersion": "3.4.16",
  "updatedAt": "2023-12-12T08:33:12.190Z",
  "networkType": "ethereum",
  "devdoc": {
    "kind": "dev",
    "methods": {},
    "version": 1
  },
  "userdoc": {
    "kind": "user",
    "methods": {},
    "version": 1
  }
}