{
  "contractName": "Registration",
  "abi": [
    {
      "inputs": [],
      "name": "administrator",
      "outputs": [
        {
          "internalType": "address",
          "name": "",
          "type": "address"
        }
      ],
      "stateMutability": "view",
      "type": "function"
    },
    {
      "inputs": [
        {
          "internalType": "uint256",
          "name": "accountNR",
          "type": "uint256"
        },
        {
          "internalType": "address",
          "name": "verifier_address",
          "type": "address"
        }
      ],
      "name": "updateVerifier",
      "outputs": [],
      "stateMutability": "nonpayable",
      "type": "function"
    },
    {
      "inputs": [
        {
          "internalType": "uint256",
          "name": "accountNR",
          "type": "uint256"
        },
        {
          "internalType": "string",
          "name": "dc",
          "type": "string"
        },
        {
          "internalType": "uint256[2]",
          "name": "a",
          "type": "uint256[2]"
        },
        {
          "internalType": "uint256[2][2]",
          "name": "b",
          "type": "uint256[2][2]"
        },
        {
          "internalType": "uint256[2]",
          "name": "c",
          "type": "uint256[2]"
        },
        {
          "internalType": "uint256[26]",
          "name": "input",
          "type": "uint256[26]"
        }
      ],
      "name": "verification",
      "outputs": [],
      "stateMutability": "nonpayable",
      "type": "function"
    },
    {
      "inputs": [
        {
          "internalType": "uint256",
          "name": "accountNR",
          "type": "uint256"
        },
        {
          "internalType": "uint256[2]",
          "name": "a",
          "type": "uint256[2]"
        },
        {
          "internalType": "uint256[2][2]",
          "name": "b",
          "type": "uint256[2][2]"
        },
        {
          "internalType": "uint256[2]",
          "name": "c",
          "type": "uint256[2]"
        },
        {
          "internalType": "uint256[26]",
          "name": "input",
          "type": "uint256[26]"
        }
      ],
      "name": "checkZKP",
      "outputs": [
        {
          "internalType": "bool",
          "name": "",
          "type": "bool"
        }
      ],
      "stateMutability": "nonpayable",
      "type": "function"
    },
    {
      "inputs": [
        {
          "internalType": "uint256",
          "name": "accountNR",
          "type": "uint256"
        },
        {
          "internalType": "string",
          "name": "dc",
          "type": "string"
        }
      ],
      "name": "setCommitment",
      "outputs": [],
      "stateMutability": "nonpayable",
      "type": "function"
    },
    {
      "inputs": [
        {
          "internalType": "uint256",
          "name": "accountNR",
          "type": "uint256"
        }
      ],
      "name": "getCommitment",
      "outputs": [
        {
          "internalType": "string",
          "name": "",
          "type": "string"
        }
      ],
      "stateMutability": "view",
      "type": "function"
    }
  ],
  "bytecode": "0x608060405234801561001057600080fd5b50610b57806100206000396000f3fe608060405234801561001057600080fd5b50600436106100625760003560e01c80630dc2745514610067578063293de3541461007c57806369bcdb7d1461008f5780639fc1c600146100b8578063e1ffb3c5146100d8578063f53d0a8e146100eb575b600080fd5b61007a6100753660046107c4565b610100565b005b61007a61008a3660046106cf565b610124565b6100a261009d3660046106b7565b610169565b6040516100af9190610967565b60405180910390f35b6100cb6100c6366004610709565b61020b565b6040516100af919061095c565b61007a6100e6366004610809565b610310565b6100f3610466565b6040516100af9190610948565b6000828152600160209081526040909120825161011f92840190610475565b505050565b806002836004811061014657634e487b7160e01b600052603260045260246000fd5b0180546001600160a01b0319166001600160a01b03929092169190911790555050565b600081815260016020526040902080546060919061018690610aa9565b80601f01602080910402602001604051908101604052809291908181526020018280546101b290610aa9565b80156101ff5780601f106101d4576101008083540402835291602001916101ff565b820191906000526020600020905b8154815290600101906020018083116101e257829003601f168201915b50505050509050919050565b6040805160a0810182528551606082019081526020808801516080840152908252825180840184528651815286820151818301528183015282518084018452855181528582015191810191909152918101919091526000906002876004811061028457634e487b7160e01b600052603260045260246000fd5b0154604051632310e0cf60e21b81526001600160a01b0390911690638c43833c906102b5908490879060040161097a565b60206040518083038186803b1580156102cd57600080fd5b505afa1580156102e1573d6000803e3d6000fd5b505050506040513d601f19601f820116820180604052508101906103059190610690565b979650505050505050565b6103186104f9565b60005b601a811015610380578281601a811061034457634e487b7160e01b600052603260045260246000fd5b60200201358282601a811061036957634e487b7160e01b600052603260045260246000fd5b60200201528061037881610ae4565b91505061031b565b50604051624fe0e360e91b81523090639fc1c600906103ab908a9089908990899088906004016109d4565b602060405180830381600087803b1580156103c557600080fd5b505af11580156103d9573d6000803e3d6000fd5b505050506040513d601f19601f820116820180604052508101906103fd9190610690565b61040657600080fd5b604051630dc2745560e01b81523090630dc274559061042b908a908a90600401610a3d565b600060405180830381600087803b15801561044557600080fd5b505af1158015610459573d6000803e3d6000fd5b5050505050505050505050565b6000546001600160a01b031681565b82805461048190610aa9565b90600052602060002090601f0160209004810192826104a357600085556104e9565b82601f106104bc57805160ff19168380011785556104e9565b828001600101855582156104e9579182015b828111156104e95782518255916020019190600101906104ce565b506104f5929150610518565b5090565b604051806103400160405280601a906020820280368337509192915050565b5b808211156104f55760008155600101610519565b600082601f83011261053d578081fd5b60405161034080820182811067ffffffffffffffff8211171561056257610562610b0b565b6040528184828101871015610575578485fd5b8492505b601a83101561059957803582526001929092019160209182019101610579565b509195945050505050565b80604081018310156105b557600080fd5b92915050565b600082601f8301126105cb578081fd5b6040516040810181811067ffffffffffffffff821117156105ee576105ee610b0b565b8060405250808385604086011115610604578384fd5b835b6002811015610599578135835260209283019290910190600101610606565b600082601f830112610635578081fd5b813567ffffffffffffffff81111561064f5761064f610b0b565b610662601f8201601f1916602001610a5e565b818152846020838601011115610676578283fd5b816020850160208301379081016020019190915292915050565b6000602082840312156106a1578081fd5b815180151581146106b0578182fd5b9392505050565b6000602082840312156106c8578081fd5b5035919050565b600080604083850312156106e1578081fd5b8235915060208301356001600160a01b03811681146106fe578182fd5b809150509250929050565b60008060008060006104608688031215610721578081fd5b853594506020610733888289016105bb565b945087607f880112610743578182fd5b600261075661075182610a88565b610a5e565b8060608a0160e08b018c81111561076b578687fd5b865b858110156107945761077f8e846105bb565b8552938601936040929092019160010161076d565b508298506107a28d826105bb565b97505050505050506107b887610120880161052d565b90509295509295909350565b600080604083850312156107d6578182fd5b82359150602083013567ffffffffffffffff8111156107f3578182fd5b6107ff85828601610625565b9150509250929050565b60008060008060008061048080888a031215610823578182fd5b87359650602088013567ffffffffffffffff811115610840578283fd5b61084c8a828b01610625565b96505061085c8960408a016105a4565b945061010088018981111561086f578283fd5b60808901945061087f8a826105a4565b935050888189011115610890578182fd5b50610140870190509295509295509295565b8060005b601a8110156108c55781518452602093840193909101906001016108a6565b50505050565b8060005b60028110156108c55781518452602093840193909101906001016108cf565b60008151808452815b81811015610913576020818501810151868301820152016108f7565b818111156109245782602083870101525b50601f01601f19169290920160200192915050565b80518252602090810151910152565b6001600160a01b0391909116815260200190565b901515815260200190565b6000602082526106b060208301846108ee565b60006104408201905061098e828551610939565b60208401516109a16040840182516108cb565b602001516109b260808401826108cb565b5060408401516109c560c0840182610939565b506106b06101008301846108a2565b8581526104608101604080876020850137600060608401818152879190815b6002811015610a13578484833790840182815292840192906001016109f3565b5050828760e0870137610120850192508083525050610a3281856108a2565b509695505050505050565b600083825260406020830152610a5660408301846108ee565b949350505050565b60405181810167ffffffffffffffff81118282101715610a8057610a80610b0b565b604052919050565b600067ffffffffffffffff821115610aa257610aa2610b0b565b5060200290565b600281046001821680610abd57607f821691505b60208210811415610ade57634e487b7160e01b600052602260045260246000fd5b50919050565b6000600019821415610b0457634e487b7160e01b81526011600452602481fd5b5060010190565b634e487b7160e01b600052604160045260246000fdfea26469706673582212203a5e077295203b1f412bf38c830c2859df4a7832f1e8b6700939641335525a8764736f6c63430008000033",
  "immutableReferences": {},
  "source": "//SPDX-License-Identifier: UNLICENSED\npragma solidity ^0.8.0;\n\nimport \"./RegistrationVerifier.sol\";\npragma experimental ABIEncoderV2;\n\ncontract Registration{\n    address public administrator;\n    mapping (uint => string) private Commitment;\n    RegistrationVerifier[4] private verifier;\n\n    //Modi\n    //function updateVerifier(address verifier_address) external {\n    //    verifier=RegistrationVerifier(verifier_address);\n    //}\n\n    function updateVerifier(uint256 accountNR, address verifier_address) external {\n        verifier[accountNR]=RegistrationVerifier(verifier_address);\n    }\n\n    function verification(uint256 accountNR, string memory dc, uint[2] calldata a, uint[2][2] calldata b, uint[2] calldata c, uint[26] calldata input) external {\n        uint[26] memory new_input;\n        for(uint256 i=0; i < 26; i++){\n            new_input[i] = input[i];\n        }\n\n        //Modi accountNR\n        require(this.checkZKP(accountNR, a, b, c, new_input));\n        this.setCommitment(accountNR, dc);\n    }\n\n    //Modi\n    //function checkZKP(uint256 accountNR, uint[2] memory a,uint[2][2] memory b, uint[2] memory c, uint[26] memory input) public returns(bool) {\n    //    RegistrationVerifier.Proof memory proof = RegistrationVerifier.Proof(Pairing.G1Point(a[0],a[1]),Pairing.G2Point(b[0],b[1]),Pairing.G1Point(c[0],c[1]));\n    //    return verifier[accountNR].verifyTx(proof,input);\n    //}\n    \n    function checkZKP(uint accountNR, uint[2] memory a,uint[2][2] memory b, uint[2] memory c, uint[26] memory input) public returns(bool) {\n        RegistrationVerifier.Proof memory proof = RegistrationVerifier.Proof(Pairing.G1Point(a[0],a[1]),Pairing.G2Point(b[0],b[1]),Pairing.G1Point(c[0],c[1]));\n        return verifier[accountNR].verifyTx(proof,input);\n    }\n\n    function setCommitment(uint256 accountNR, string memory dc) external{\n        Commitment[accountNR] = dc;\n    }\n\n    function getCommitment(uint256 accountNR)external view returns (string memory){\n        return Commitment[accountNR];\n    }\n\n}\n",
  "sourcePath": "/home/block/thesis_CHLEE/End-to-End-Verifiable-Decentralized-Federated-Learning/Blockchain/Truffle/contracts/R_back.sol",
  "compiler": {
    "name": "solc",
    "version": "0.8.0+commit.c7dfd78e.Emscripten.clang"
  },
  "schemaVersion": "3.4.16",
  "updatedAt": "2024-10-02T01:39:16.569Z",
  "networkType": "ethereum",
  "devdoc": {
    "kind": "dev",
    "methods": {},
    "version": 1
  },
  "userdoc": {
    "kind": "user",
    "methods": {},
    "version": 1
  }
}