{
  "contractName": "Verifier",
  "abi": [
    {
      "inputs": [
        {
          "components": [
            {
              "components": [
                {
                  "internalType": "uint256",
                  "name": "X",
                  "type": "uint256"
                },
                {
                  "internalType": "uint256",
                  "name": "Y",
                  "type": "uint256"
                }
              ],
              "internalType": "struct Pairing.G1Point",
              "name": "a",
              "type": "tuple"
            },
            {
              "components": [
                {
                  "internalType": "uint256[2]",
                  "name": "X",
                  "type": "uint256[2]"
                },
                {
                  "internalType": "uint256[2]",
                  "name": "Y",
                  "type": "uint256[2]"
                }
              ],
              "internalType": "struct Pairing.G2Point",
              "name": "b",
              "type": "tuple"
            },
            {
              "components": [
                {
                  "internalType": "uint256",
                  "name": "X",
                  "type": "uint256"
                },
                {
                  "internalType": "uint256",
                  "name": "Y",
                  "type": "uint256"
                }
              ],
              "internalType": "struct Pairing.G1Point",
              "name": "c",
              "type": "tuple"
            }
          ],
          "internalType": "struct Verifier.Proof",
          "name": "proof",
          "type": "tuple"
        },
        {
          "internalType": "uint256[201]",
          "name": "input",
          "type": "uint256[201]"
        }
      ],
      "name": "verifyTx",
      "outputs": [
        {
          "internalType": "bool",
          "name": "r",
          "type": "bool"
        }
      ],
      "stateMutability": "view",
      "type": "function",
      "constant": true
    }
  ],
  "bytecode": "0x608060405234801561001057600080fd5b5061793580620000216000396000f3fe608060405234801561001057600080fd5b506004361061002b5760003560e01c8063197ae65314610030575b600080fd5b61004361003e366004617764565b610059565b604051610050919061783f565b60405180910390f35b6040805160c98082526119408201909252600091829190602082016119208036833701905050905060005b60c98110156100ef57838160c981106100ad57634e487b7160e01b600052603260045260246000fd5b60200201518282815181106100d257634e487b7160e01b600052603260045260246000fd5b6020908102919091010152806100e781617898565b915050610084565b506100fa8185610114565b61010857600191505061010e565b60009150505b92915050565b60007f30644e72e131a029b85045b68181585d2833e84879b9709143e1f593f0000001816101406102cf565b905080608001515185516001610156919061784a565b1461016057600080fd5b604080518082019091526000808252602082018190525b865181101561023857838782815181106101a157634e487b7160e01b600052603260045260246000fd5b6020026020010151106101b357600080fd5b6102248261021f85608001518460016101cc919061784a565b815181106101ea57634e487b7160e01b600052603260045260246000fd5b60200260200101518a858151811061021257634e487b7160e01b600052603260045260246000fd5b6020026020010151616e5b565b616eb3565b91508061023081617898565b915050610177565b5061026f81836080015160008151811061026257634e487b7160e01b600052603260045260246000fd5b6020026020010151616eb3565b90506102b38560000151866020015161028784616f01565b85604001516102998a60400151616f01565b606088015188516102a990616f01565b8960200151616f96565b6102c3576001935050505061010e565b50600095945050505050565b6102d7617537565b6040805180820182527f2abe75ae64f790cf09eb8e0558dee6cf979031b6b4869f4593db9116b4897f2d81527f25d45743a624164dc5fd917acc616dbb399b1fefb8402518c9b09a325aa046826020808301919091529083528151608080820184527f079074587365453f6366f2ed8313d9d7ef5f8c3c07b406f05510f6dcb0e130f88285019081527f13212d2a13dc764ef52432ba592e302bdf1e1eff60e80e8aa9740ac511e13edc606080850191909152908352845180860186527f1a96aa235d584be69cd04805a926d554f17a933092d37669374cad9c6280fecb81527f070f2369e9076021a87cca3d0df8ff1150c1d6b87b3239b3042fd7d2984ea66e818601528385015285840192909252835180820185527f092a35d7c6aec30ffe60158fc8ee0db77f89e3cfde40c0e44c25235a005934078186019081527f2ca52416f2f8c47761adabaf624c154e1d1ea397a026a70bca69e5b21048b78c828501528152845180860186527f072ba5ee7385b55ec4044d442316e2c769f5b3a3e5bd75b8148a516dabed49b681527f01ef126bb2648ef866bdcc99d69e7ee18d345d9eefd1bae569197fa6eb45706c818601528185015285850152835190810184527f1f900da8112e85c7fdb8edf6c33062144420fa8ff1b7a5f9bbfc1777e24db8198185019081527f07c4b5139957ab89b813f42290d2e22fac599dfc8f11251fe648e2dd87ae5d84828401528152835180850185527f02dc2cc260d50a0a7ed638bca106e975f6fe6d66384ae2e29e8c5f5ca0b1d02081527f13f872fe811381992de9d56b806bffb986ba86ce3f95f0b69f5585871605bcc7818501528184015290840152815160ca8082526119608201909352919082015b61055b61757e565b81526020019060019003908161055357505060808201908152604080518082019091527f072fd4221a1cca90ce96ed573f92f36fd75373acc70124fdd96cac010c4472aa81527f297558b8eb39eee965f6dfebe8a18597b5b0e4fe6401141d4e7672b7f4202b5e6020820152905180516000906105e857634e487b7160e01b600052603260045260246000fd5b602002602001018190525060405180604001604052807f1f28a88a33e033e966fbbfcf44932aa0e741c8e058093edabcd61683c1dc8c1c81526020017f1aed5d748c42df1f34ae26eb20747125b0d1a86b2fc493f483d72297a076df8a815250816080015160018151811061066d57634e487b7160e01b600052603260045260246000fd5b602002602001018190525060405180604001604052807f123aff2e4301f318d8da09de5fc443fd492333c5dd2e4d5f9067deb92d5991ac81526020017f266507248f0982e601e6aeea5072a846dcd0c75a46122f2ff2d27dd147da67aa81525081608001516002815181106106f257634e487b7160e01b600052603260045260246000fd5b602002602001018190525060405180604001604052807f17dfab993d98e78390774df9c6bdbdc0e135b599e8b4be91c8b77c60bad7b01c81526020017f07e5f6b50f16ffb15ce082bd6bcc549a20416feabb3d333cf59a7459c7176605815250816080015160038151811061077757634e487b7160e01b600052603260045260246000fd5b602002602001018190525060405180604001604052807f2c15fe76882b8b9be532fa40737e352bc97ec496068fa027c7f8f316811f454681526020017f29206c520954bc2dac7db974773b7b5ba08f9c94a92fea159310ef7c49a3bfec81525081608001516004815181106107fc57634e487b7160e01b600052603260045260246000fd5b602002602001018190525060405180604001604052807f2f7e8407376270e39c2fee0420c158f15b44b3471e1af3c4f87d01422447f40c81526020017f1c0f605ad5bf1f48b294c0ff517ff0adb9f85bcb823618fd60aa5d76fa903adb815250816080015160058151811061088157634e487b7160e01b600052603260045260246000fd5b602002602001018190525060405180604001604052807f30250c3448418d66c9b208e0491af5026b7d28447c6e6d997576c048382a6bb581526020017f0633910e39e6c3a492c10be3ba1579605f0c99e060b1ef25a695606503e46ffb815250816080015160068151811061090657634e487b7160e01b600052603260045260246000fd5b602002602001018190525060405180604001604052807f2005492f3c68dad7503185bcf3e93861e5e81558a96144ac922ab12dae51c63a81526020017f2c0719af688c0780fc73ea04d243a7492475350ca01d174ea48fb462ee0f9cfa815250816080015160078151811061098b57634e487b7160e01b600052603260045260246000fd5b602002602001018190525060405180604001604052807f0c72e5167986c80cad332f1fc3e2cea451a2e3ece73101220533895b3be35ef381526020017f0617f585ad1304d04166bc89c77cad08f2afdf14f73b10f99e02645db812cd2d8152508160800151600881518110610a1057634e487b7160e01b600052603260045260246000fd5b602002602001018190525060405180604001604052807f1e2f9b4d400953b09e8cb781e2a265b459ddd240511619a230c16bef53169ef081526020017f028c111daaddd06dba6503ee3e9422809b6007e66bcc83658894c41923fadbb48152508160800151600981518110610a9557634e487b7160e01b600052603260045260246000fd5b602002602001018190525060405180604001604052807f15364da5e10d6e84733c3acebd2acb53b485b6188de81a61f6af99ec38eff23981526020017f1092727e6cb632de9e65992ce7df26610444cbcec947c8cf98ee75b444f3e63c8152508160800151600a81518110610b1a57634e487b7160e01b600052603260045260246000fd5b602002602001018190525060405180604001604052807f2278756a12f3383ac1bf3a18119cc03ca638658d7faded3fdf8053dea2af96fc81526020017f18cc5acd275cc800bce293a8d11c1b681388534a574bcbcfb6242f55bf67ebfb8152508160800151600b81518110610b9f57634e487b7160e01b600052603260045260246000fd5b602002602001018190525060405180604001604052807f280b2de6dac12b4372232f9546cf3547ebbd6fabb60fffecd81120b000d4ea7981526020017f207f59e67e5c3098225647fa90d7d5e493245acf0269eb9824f3ec26abf4d0c38152508160800151600c81518110610c2457634e487b7160e01b600052603260045260246000fd5b602002602001018190525060405180604001604052807f0843425e174a13a6e58168f7fdec0067882ead38a12886be133e35832aafe3df81526020017f252c8400e4efb13d1b2351a0859add5699921b03c3cf928f97ccc456159925cf8152508160800151600d81518110610ca957634e487b7160e01b600052603260045260246000fd5b602002602001018190525060405180604001604052807f13175a913acd0006e36e6076deea7fec78a79c3844225e838c8b1caa699cbcbc81526020017f0b17084e8122daca10a1c327c8bf4669aa46889b08af0a2155cee1c42d3b48f68152508160800151600e81518110610d2e57634e487b7160e01b600052603260045260246000fd5b602002602001018190525060405180604001604052807f1550caf7c59bc3c4e366e7d16d8e4787ea234e7333b31e3304188b90ecb5239c81526020017f1dc4b3636f1be9acea55e3804e0815ea4b598faedf1f6f8908e45e1946d98f898152508160800151600f81518110610db357634e487b7160e01b600052603260045260246000fd5b602002602001018190525060405180604001604052807f1d0ae7cea2ca64c1e6de016d823a1292f59d0122a381805a066ad8b34ceac7cf81526020017f15881d25fdf6fc5352b1891561f71a881edd716b5ba3cfc7f97d5b4005dd70198152508160800151601081518110610e3857634e487b7160e01b600052603260045260246000fd5b602002602001018190525060405180604001604052807f0f7d9b753030290ad792a3b188c1db8c7115d6edb1f1db1032ac7cd9e3d72f4a81526020017f2d5a9b8bc42ed61d5c7b2b743be1b916a42b634bd60bdde24602cde298bc47e28152508160800151601181518110610ebd57634e487b7160e01b600052603260045260246000fd5b602002602001018190525060405180604001604052807f22eb7653916373ff4844b96da4e41025ebbce45114c04fb29dba57e00d3999d781526020017f0900dfd24803cfce986c4fd591981d047106a7665eea56c1b624e973889b7da88152508160800151601281518110610f4257634e487b7160e01b600052603260045260246000fd5b602002602001018190525060405180604001604052807f1f198d1c2e100c1d49c919e7876d11ce733e65eb194aae8026a175600175dbd281526020017f03c34aa13fc3e0ebc6f8cf3222a9204709ab31524e47d6a850acf009e2f329ad8152508160800151601381518110610fc757634e487b7160e01b600052603260045260246000fd5b602002602001018190525060405180604001604052807f2d2f05808aba96d31d7f0cc7d27f8c0e7528756f7dce8b83b160e4d0b99f055a81526020017f20004e6929e67e6e5b02f086ae1dbc5a47991efd2469345925051d7c8f29691c815250816080015160148151811061104c57634e487b7160e01b600052603260045260246000fd5b602002602001018190525060405180604001604052807f0b75debd3740659501243992d52fb54e4cf4da14af3a878b5c60bef9e4d02e5481526020017f2ad7c028a408a9c1ac2ee1ed4c686f0526161b53838c9513497a7944118328fd81525081608001516015815181106110d157634e487b7160e01b600052603260045260246000fd5b602002602001018190525060405180604001604052807f12cd03f602f5308cb9271d8337a316e0d1722fb3a248f8c9934ffb434c537def81526020017f141a33eaac5c74857d26a70a94fc50ccb599fe1ccfffd8ebd9ff7def4b8d7cab815250816080015160168151811061115657634e487b7160e01b600052603260045260246000fd5b602002602001018190525060405180604001604052807f260ea2d5d8e7edd2f564888994db0e70079980937dd750cad99de451f1c9882581526020017f1745f82336fe23b38888e5a107bd35d33bebe9b556d16c355fe41b3b8aab855081525081608001516017815181106111db57634e487b7160e01b600052603260045260246000fd5b602002602001018190525060405180604001604052807f0901f1b23ae63614cb3ced428442e4562d4e67d53d0c9654255fd170fd1cfecd81526020017f10c86161a573ba39229c1a0e8ae34a536f482c23407ea0773ce8b8851bf01da1815250816080015160188151811061126057634e487b7160e01b600052603260045260246000fd5b602002602001018190525060405180604001604052807f2c750d04f24b699cd377a8ff06e36540110a70c2202cd644ba36104f6a904ea881526020017f0964878390513499cbc7f7424b4320f6e8e23d2f496efe9a5b9cee0ca2cb511b81525081608001516019815181106112e557634e487b7160e01b600052603260045260246000fd5b602002602001018190525060405180604001604052807f1faa8945efcce9d4a82619da3b858a2c5325436fdfad97df0331c2a50c60fb2481526020017f2cdac92a660f6a51b29bc2de3985292788a633ca9bcd15aa69342c6d265221448152508160800151601a8151811061136a57634e487b7160e01b600052603260045260246000fd5b602002602001018190525060405180604001604052807ec56ee5d4b1096eda09ac30becb7993503f6ddc32e236e6f2f89b83daa4919281526020017f1d71ee25e3eb9080171c5a57778cf580deba90fd658f84bd42c5888a783892fb8152508160800151601b815181106113ee57634e487b7160e01b600052603260045260246000fd5b602002602001018190525060405180604001604052807f2fd185ae23fe42aa8452ef6e083d1af64cb9c444b87a8fab6b8574cbe370bb6181526020017f20f4a0e3d63e5447cb303d4e3acd3d0f50c0a3443e387ecd2c5c70226a2ce8268152508160800151601c8151811061147357634e487b7160e01b600052603260045260246000fd5b602002602001018190525060405180604001604052807f1023ed44327b13a885de491383c72f0cb4ff5efed352f724f1f2f12c373a075b81526020017f1ec811c051c9e256ab07053b690b1274d73432d93e1b81667298fb685f7881f88152508160800151601d815181106114f857634e487b7160e01b600052603260045260246000fd5b602002602001018190525060405180604001604052807f2dedf5429aaa23543b510dc3b97a6618bb0304387707297c49627902514588fd81526020017f023d52476b47ef39ab8b0f16e32785daa6d980227a65a5657b92966a89cc0e7d8152508160800151601e8151811061157d57634e487b7160e01b600052603260045260246000fd5b602002602001018190525060405180604001604052807f22d5fd61284c66c013f4ccc711c34ba4fea76437da148a308200779c1b2f7da681526020017f2d70a22069290e39ff34d2b4576994da7d71de9b9bbba7024a1dc052c3346b968152508160800151601f8151811061160257634e487b7160e01b600052603260045260246000fd5b602002602001018190525060405180604001604052807f1e35349cb2f7d10947025c75144de9d149868eb17cce4a21b94d6183101af7a881526020017f2a92ea2cd8f77cdc6e8c894bcc544cd820dfe582c754966f1225f096b38c2194815250816080015160208151811061168757634e487b7160e01b600052603260045260246000fd5b602002602001018190525060405180604001604052807f0cdc53f695f43f506aa1f4dcedcecc1761ecb3f4768670767be56d3ae31c5c9281526020017f2d5ad08752ea2f437686e0d4381cb7730a9477d854655bb96aa330dbf7080229815250816080015160218151811061170c57634e487b7160e01b600052603260045260246000fd5b602002602001018190525060405180604001604052807f037b878e7ab32a1a32158797618ee03b5e3f45a1a3cb7657844017cee9eb2d4481526020017f03e6bc8ab2ad691ec41c0cd2facdc8f54f68deaea8250a99248c4c05ae0897ab815250816080015160228151811061179157634e487b7160e01b600052603260045260246000fd5b602002602001018190525060405180604001604052807f14b27d4816e2dc3dd5bef824d404f6b1832fecbdd1f5ad67d483d5e548989fa181526020017f166bde5cbaba4312200730cd1c7d753b2479e9df4583b5f81f548b6dad4f8688815250816080015160238151811061181657634e487b7160e01b600052603260045260246000fd5b602002602001018190525060405180604001604052807f04850641fb90487f4863bccf60498802c59df0ad1577f28b9720a45e0d07347481526020017f24c40a6ec3ce7eb5af4df0d0a6d249b5089304475f756c313365fd183ab1f1b8815250816080015160248151811061189b57634e487b7160e01b600052603260045260246000fd5b602002602001018190525060405180604001604052807f182ba20716f1216d5458798383ee351a544adf85dc55099a4addafdccd4f9c2081526020017f0b5da0bec0310a92ba787fb36ec91d236b22eab2b6c202b25f62871aa12da448815250816080015160258151811061192057634e487b7160e01b600052603260045260246000fd5b602002602001018190525060405180604001604052807f25b249c5a022b1c5d3d906961ac32d30a86e53761b1ad4e6479993fff1d6211881526020017f1eb2a8f9b8c58825580d807ef0bdd77669fbd0c6bdda32026d8220c75105536681525081608001516026815181106119a557634e487b7160e01b600052603260045260246000fd5b602002602001018190525060405180604001604052807f2d85b2b488cc4e8623cd01ef71bef014fb1d582e86cb396ee7d61ace04ecaff781526020017f24f5de7f2dcbe26d808cc0479cb581de06cca83cf634043f11b73614c80b1c848152508160800151602781518110611a2a57634e487b7160e01b600052603260045260246000fd5b602002602001018190525060405180604001604052807f269b817afa8eb6db5357c13496576c12cdfb1b91e715ab18715f8d6c9262f93c81526020017f20b0bf6142692460c7f1e57c6f768587595c13421be199cbdb18c845e9757d968152508160800151602881518110611aaf57634e487b7160e01b600052603260045260246000fd5b602002602001018190525060405180604001604052807f0ac259d8118cd1a89fc9dd72459d55275b5771ff37f2f2bf1e379fdc6eda43cd81526020017f0f7a284e10f5edd364375ff503f13453e48ff6ebc6aabcd0c9c5560d9d5981058152508160800151602981518110611b3457634e487b7160e01b600052603260045260246000fd5b602002602001018190525060405180604001604052807f1824feaddac46db87fbc7e4a08d4a0bf5b74331e2a5e30dc1defc858d967340f81526020017f1c23ad7f26c808d0569e07ec8d8a3c30fc845e319b842d7c4d52bb03baf910fa8152508160800151602a81518110611bb957634e487b7160e01b600052603260045260246000fd5b602002602001018190525060405180604001604052807f0b7f5f05f8009ab03f2a9df95925edfa6454418c7149be8cb080dbfabf8e486981526020017f1fae39d6ac1f4923ff250e5c44b63546471169f216071e58f3ba57787c60dec98152508160800151602b81518110611c3e57634e487b7160e01b600052603260045260246000fd5b602002602001018190525060405180604001604052807f185785bab27020de086550a05baf4bd5f05f459209904f9bfbe736eff2900ece81526020017f0852d8d3eaa6ddca083c3bb499077e2988494d49400ceffead4455a480f277908152508160800151602c81518110611cc357634e487b7160e01b600052603260045260246000fd5b602002602001018190525060405180604001604052807f2bdcfc0a9403be527a818786e0dd55669bb4533332c71cd111c70741cca8e3b381526020017f2f05976811c5d9f63bb2a375b88e645eeb4b5d1c01e89556806632e986089d848152508160800151602d81518110611d4857634e487b7160e01b600052603260045260246000fd5b602002602001018190525060405180604001604052807f0b39f57cf9e222d76cf78fbeac78e02f96f1d4d0feec29c2cb9e457d346a7d1881526020017f107f3dd3d0465e1660830e1412eb5ca25eae10471e4917214e217c340b6bbd2d8152508160800151602e81518110611dcd57634e487b7160e01b600052603260045260246000fd5b602002602001018190525060405180604001604052807f1f529985934c07977ca9527149eac75b6eea4e7f9de40666eccad9398a5bf7aa81526020017f2d86ada4b1122ac88987255802f0a8d22d5e66ad77a02a4c432a1529d650453c8152508160800151602f81518110611e5257634e487b7160e01b600052603260045260246000fd5b602002602001018190525060405180604001604052807f07a40de29226a1f54bcdb283aa2d287c1c2363505b3100c6b3b7d7fabcdc0cb081526020017f059ac82eb9b687d474adc07fdebcd32abc3e8bdee9403ba7c830ff622b54c2648152508160800151603081518110611ed757634e487b7160e01b600052603260045260246000fd5b602002602001018190525060405180604001604052807f1d6ba061a2b41eb09a680f4618a4b14a54251db480cd7aa46becd26497660f0981526020017f225b338cfe502a8d8d6764097102bc789696cccff9a6dce649a8975aa50d42078152508160800151603181518110611f5c57634e487b7160e01b600052603260045260246000fd5b602002602001018190525060405180604001604052807f2ce8707bfb675c9af4a42419c11736d70adaea0c98ded18d01b32d5cef44640781526020017f1f937b8a232c2be61e48204283bd9660a6102a570ff0cd583bd12a77c1c45d7a8152508160800151603281518110611fe157634e487b7160e01b600052603260045260246000fd5b602002602001018190525060405180604001604052807f21b2bda62b0325b156a4930c98b5876c87bd938745745aae81e3f56f1f7192e181526020017f0bea57172d2f0b7d404a1e05cf7c1ad2cfb746932dc9976767fc33a67f956315815250816080015160338151811061206657634e487b7160e01b600052603260045260246000fd5b602002602001018190525060405180604001604052807f15497147cb8057ef18e89267df8a35fdd4ca34e08e1e6253d64e991606e2ca8b81526020017f0999477cccfc4c02f469e30dfa9eb421bfce0fc21239149cecf31a46cdd8ffb481525081608001516034815181106120eb57634e487b7160e01b600052603260045260246000fd5b602002602001018190525060405180604001604052807f1f98502fc11912cb94a8f098537c6dc6f94880e1ed2083257d55f1e57579bd1b81526020017f0251fa60d4b3fb838da22ae1ea1b99b41bb114c18c8a767016d9fa5d5bfefe16815250816080015160358151811061217057634e487b7160e01b600052603260045260246000fd5b602002602001018190525060405180604001604052807f286dfa7a9f20457ba474281cbc6df47adbddcdb24b082d214e2feb8eb9dc763b81526020017f1b9c0d28fdd1ca92de9a656592669909bc30096232ea86b2cee38f5949e7a8b881525081608001516036815181106121f557634e487b7160e01b600052603260045260246000fd5b602002602001018190525060405180604001604052807f091e68e559bba4e2833dc5615dcc8767eff3af0674832b0c3bc71ec821e24d1e81526020017f20fe4096f40ab81c51b16bda935400ff62db5504ad1de261d0f070a106767801815250816080015160378151811061227a57634e487b7160e01b600052603260045260246000fd5b602002602001018190525060405180604001604052807f13def61e9d59bafecb1a6e529502172068cbfa45845d521c4c3c00cc1cd501a981526020017f1a5839e7ba074b308bd69a460b67fca3081284db7aabd43566c228294d56bd0b81525081608001516038815181106122ff57634e487b7160e01b600052603260045260246000fd5b602002602001018190525060405180604001604052807f1936214954bf0d7beb744910822059b05235ea17e24e22501da1eaedfabb1a4981526020017f117194b28adef16be9debdc3fa5d1b9d5e88ca894ce026760a6cf5fabe9cfab5815250816080015160398151811061238457634e487b7160e01b600052603260045260246000fd5b602002602001018190525060405180604001604052807f02855c550d56e5286deca7a875e457d7004675a54479c3ba8576236bf7b4f59781526020017f14b0734b37799431340bbbcafe543be036e58488e38b1e6432466310091259b88152508160800151603a8151811061240957634e487b7160e01b600052603260045260246000fd5b602002602001018190525060405180604001604052807f0652dc05fe41da8570a76a37c01a091566da434d730c0e5a38b444f8944d6c7581526020017f161266d41727814550a58809da4a9f5194aa4c95324a9c3057f5e03f9eaf14228152508160800151603b8151811061248e57634e487b7160e01b600052603260045260246000fd5b602002602001018190525060405180604001604052807f10dac1f0aa7088c2254e097a38c094547b5840da81e0d3e6e30be7d025a67d5381526020017f145b625487aeafde4585f3438d210dc6b696192e85837c5bfa7dabe4eca08df98152508160800151603c8151811061251357634e487b7160e01b600052603260045260246000fd5b602002602001018190525060405180604001604052807f257787e80caa4f18a17690f4a015c44d2923803707ee1168daf9673a5eae964881526020017f14f24a1f0411486c33f884ff40b4512e48c521ae3630db713c74f17beeda23078152508160800151603d8151811061259857634e487b7160e01b600052603260045260246000fd5b602002602001018190525060405180604001604052807f2f54ee6171f6965bc3a462f74ee91ff7dae918cb6bdae507bfdfc1e225354ed581526020017f1b66afffca499fe5fb4fae0f2f2cd227b79e07b836aec774d8a96a10d5be21218152508160800151603e8151811061261d57634e487b7160e01b600052603260045260246000fd5b602002602001018190525060405180604001604052807f24e665a3cdf5453a34ae3860921875bdb9020617e32729193c042d713dd3668e81526020017f2ebdf0f7a1391a2be622304659f14d4c525f1063aeb0afc7329a006d52fc76d18152508160800151603f815181106126a257634e487b7160e01b600052603260045260246000fd5b602002602001018190525060405180604001604052807f0fe685d7dd31d878c6e8bec5c59cb2fa56d6fd4dd7c90872b1e569d0c63db12081526020017f044cba65751b32abfecf0bb6f3b977d2ee76e9c7670fb2a6f5abff5c15aa9d45815250816080015160408151811061272757634e487b7160e01b600052603260045260246000fd5b602002602001018190525060405180604001604052807f2041a8115ce90687d9b037a98c476215366af7d6f1a84eb263f02c11139cca0f81526020017f2126b2e3218b0c2caaa6c51e1b0a71d16fea019af0d9b4ae70453dfc03db632781525081608001516041815181106127ac57634e487b7160e01b600052603260045260246000fd5b602002602001018190525060405180604001604052807f0bde1d2fc7a9de47fb0cfe05e263760f88cc90a165499391e4d4e109e64d830781526020017f0d6afa0820c495904d05ff476766776d96886817c1d8e74c25f4b7039df53818815250816080015160428151811061283157634e487b7160e01b600052603260045260246000fd5b602002602001018190525060405180604001604052807f1b4c5faffde90d30b939921a90e4fffa40e41e0904433a03e69ad9c7f1cde69881526020017f297740ed59525d6ee34a93a2517fd570ba6017f4eaa055c531c3a547774e138281525081608001516043815181106128b657634e487b7160e01b600052603260045260246000fd5b602002602001018190525060405180604001604052807f2c058b9303baa6cc1b08ab38fdf6bc3eeb0eee77bb7f426d6ed77cb69f56a9e481526020017f279379c2ef4fae51c8d4cec674fb95fb05ecbbdbdb77627f879f6ac25cb34ee3815250816080015160448151811061293b57634e487b7160e01b600052603260045260246000fd5b602002602001018190525060405180604001604052807f0d5958757597890ffb02d840f2a8b65ce534ec769372dc2984098c971bd3b90781526020017f2797f8b9dc5baf26739b2a84342d4e289c3668e34d15a5409995ee80c942fdd981525081608001516045815181106129c057634e487b7160e01b600052603260045260246000fd5b602002602001018190525060405180604001604052807f1e567f5dc8094d7c2ff4cc5da3a9350a4d266a6d9cddbfbbe068a3a0fc0d8c6a81526020017f212c51b12b7bd8bf17262b0f47df61b520819eb22f658439f00ca27a79d1879c8152508160800151604681518110612a4557634e487b7160e01b600052603260045260246000fd5b602002602001018190525060405180604001604052807f16acd144e0c4426c2c7a2f5b8ade14177bc9396a35b3e676fc81bf54d824398681526020017f1e4e6c472f58dd392e7ea75a3574b5db080e996638db1daec8d839b2cde0809b8152508160800151604781518110612aca57634e487b7160e01b600052603260045260246000fd5b602002602001018190525060405180604001604052807f0de7811cde363c7673e1c3e0fbead1b5c945598feb7333d0082dad91946a66f881526020017f0e2e7490c37aa15e123391caeb37f291b6f2d6adf444cfab893ceb5dfea92c428152508160800151604881518110612b4f57634e487b7160e01b600052603260045260246000fd5b602002602001018190525060405180604001604052807f1f029dbde19401ea30a1094296fbec2d428cfd53ea706637eafc4cbc190e9eb181526020017f1457830d4acdc5b6a5f747e518f5c9f3f1bcb7e14aea3e22ede9377d5e9e51238152508160800151604981518110612bd457634e487b7160e01b600052603260045260246000fd5b602002602001018190525060405180604001604052807f09b4c659bf0fdba2522dde85eb577396ffce6782fe3625efa53a05a0175f869881526020017f027b926003fd7e74ea40e385aaa36d40c3374bcecc549639d5237c48b74550468152508160800151604a81518110612c5957634e487b7160e01b600052603260045260246000fd5b602002602001018190525060405180604001604052807f10cba92c306cd37294bd46b6e9f16b0b4f793f5441c6db9027100efefe829a7881526020017f0eb5fa212792ca09a3e7e6d05ec6eee5564697e970c389abb1eaceb7bc8800498152508160800151604b81518110612cde57634e487b7160e01b600052603260045260246000fd5b602002602001018190525060405180604001604052807f25216ab5e7ee8d7039d012e06560b93b90f68aff6a02e4a32e49cbdfa561c4bb81526020017f09d5df952d3847c45727ef15622aa128c35b5280c06193177369d04531b018f28152508160800151604c81518110612d6357634e487b7160e01b600052603260045260246000fd5b602002602001018190525060405180604001604052807f0fb9164a77f0cfbde9da363f0d5b563830a9c498ba8e0e0ee300ae91ea28558381526020017f2e2abf5c8666f32a980f5b55bd61dd7836ab17d4859db611fc6eb721dbc7f0f68152508160800151604d81518110612de857634e487b7160e01b600052603260045260246000fd5b602002602001018190525060405180604001604052807f090a0a6239652aa0f7a4ef0ec79636a33b83777333c4965fe65307848d27f0a681526020017f29ce9abdf0ce052668db50f7ef21ccb0c79068e2aea88849c1a1fc44a94bad6c8152508160800151604e81518110612e6d57634e487b7160e01b600052603260045260246000fd5b602002602001018190525060405180604001604052807f02a01efc2ca0726392e9801c4c5e94b2239eb55098dc3719e247a595f273f12d81526020017f265e17bbd862a8bb1617d27e67f70e7bf7accb0e9b560558eb0a4a62e633cdc18152508160800151604f81518110612ef257634e487b7160e01b600052603260045260246000fd5b602002602001018190525060405180604001604052807f18709f10d66f9eabf909a0c8172e3b92110d431261fd748005d812fbab84e1d181526020017f203e2744e58b0db88a8ba696b60c8cf3aa69413fd3dac9bc91398f41949198d98152508160800151605081518110612f7757634e487b7160e01b600052603260045260246000fd5b602002602001018190525060405180604001604052807f09ad94f224a1910153dc6f4939e0e3d51fd6d9d532a321a7b26d0cc21ee1e38081526020017f0945b2d21788596195454a4a652d97080c58a9713b5358bc453564a64e8c88a68152508160800151605181518110612ffc57634e487b7160e01b600052603260045260246000fd5b602002602001018190525060405180604001604052807e1f177ae45139bb866f477a75b0b7f11d0e7052f2fa69bda846abadc2336b0681526020017f2cf365d154972cd4b866925eec90da5c8663db27f8eb665f54f95e411eb1e1fa815250816080015160528151811061308057634e487b7160e01b600052603260045260246000fd5b602002602001018190525060405180604001604052807f19191f9f832bede5c13c4cff14cc7dea48492dca8c5d1541b0dac323bba6b04b81526020017f0550aba8b5940d132395f53636e30870faf322678b463d49bbd3abd433b395f0815250816080015160538151811061310557634e487b7160e01b600052603260045260246000fd5b602002602001018190525060405180604001604052807f2674c78888dedf62b0a06309ce695e519362fddbe6b83ecec0f627931e12321981526020017f0e0a0b232d4b63c5a2a09c61486137a159858b8af379a45950c8ee6f5c424536815250816080015160548151811061318a57634e487b7160e01b600052603260045260246000fd5b602002602001018190525060405180604001604052807f1c2cbaeb30bd19bb95effcbd012f91e74a34e0d016f92a8f9fb89c992f04453481526020017f02a9ab710d8173bd4cf81d244b6cbdac2538f5a4307c61eed1554fdaafea85a1815250816080015160558151811061320f57634e487b7160e01b600052603260045260246000fd5b602002602001018190525060405180604001604052807f268bb12acf0b59b535d08a7f513e2d6684b79a7c589a743473d485649252b20c81526020017f129829207120af0302a9f54c0f2b86c8471c6ca530edeee5cda54cabe040a23f815250816080015160568151811061329457634e487b7160e01b600052603260045260246000fd5b602002602001018190525060405180604001604052807f0be5692507135f891a8ef7d2b5500f76e24668324e3e004bc617460ff30d401081526020017f2d64dc262139896379ea4c27197db41caacb3bb4868204791ef13c0ad3902f1a815250816080015160578151811061331957634e487b7160e01b600052603260045260246000fd5b602002602001018190525060405180604001604052807f1b0b7889d36e71e16ee9c8d4653436468a4c57b1ace7dc4a4800517461a7cfbd81526020017f1bb5814b89cd10fbb88c5c204af69d90dd4c6b52d08a59baaa5682f995fbcc03815250816080015160588151811061339e57634e487b7160e01b600052603260045260246000fd5b602002602001018190525060405180604001604052807f131e55c571135d2c57f751ddb7c81ee0af18cec19ff7c3c32ebe7a0adf2775ac81526020017f17d3208c28ac9fe7c102504a43227dd35af67c412cf94d3bee5138d977fe0490815250816080015160598151811061342357634e487b7160e01b600052603260045260246000fd5b602002602001018190525060405180604001604052807f1183fef1980f80693a2606c4678402de0e4cf9eea95bec67bc2d58607203adeb81526020017f167ec13b2a7756542077dcec2353b99ff5733b5f2d8a66bbba5de51ffe5aee788152508160800151605a815181106134a857634e487b7160e01b600052603260045260246000fd5b602002602001018190525060405180604001604052807f1a80666e3ae37bfdc234ec37d68a19624e9e55614c26ebebf0ef3db8dda1bdfc81526020017f2ab4eb1c17bc147a13c2283553a0da63a870936d297c09681fe80f76475a28508152508160800151605b8151811061352d57634e487b7160e01b600052603260045260246000fd5b602002602001018190525060405180604001604052807ebb1b17ccd9335e9e262f848912c71dba0c07ce48c26c1c4b4c57df7682527181526020017f1566b8750b7408275ef8c526074563205b3654e1c7570745b3b4ce8b12522e3b8152508160800151605c815181106135b157634e487b7160e01b600052603260045260246000fd5b602002602001018190525060405180604001604052807f2499c3f4def0176c2a7bf45ffc33e066da4e427fc797ca75ac1b8b64146e2e3581526020017f2156c9e136b749c3f62478a0ef602a4f6195a83e000ccee44f0498626745f8b78152508160800151605d8151811061363657634e487b7160e01b600052603260045260246000fd5b602002602001018190525060405180604001604052807f24ed2fbe1e5b1642beeec53c1d4d73c0c283c2af714fb9922124912316e4c8f181526020017f2ac92ed2f6a4724fa7e90a2eeba00761a467a7b576356b01717ee0e82ecd0f468152508160800151605e815181106136bb57634e487b7160e01b600052603260045260246000fd5b602002602001018190525060405180604001604052807f2f193097d1cd6bf64f737e152fc229a41e5b94ed44f4141769e29401a044f31f81526020017f104b425d2650d8a4d60cf294af683d6e538e2a33601ee1824b8c6afa8ca402cd8152508160800151605f8151811061374057634e487b7160e01b600052603260045260246000fd5b602002602001018190525060405180604001604052807f064b71ed0f31382f9985cf5350abf116a08eac67598cd506e20bb8a5dea2a51181526020017f24c83f0af26edaa6043bcb114fe84f251de03b7deecea3f23e0cd37d9702751181525081608001516060815181106137c557634e487b7160e01b600052603260045260246000fd5b602002602001018190525060405180604001604052807f15205b59fac5c4259215c7ff8ab0d5ee660ab7d33861edbe5247e3dda1f1d88781526020017f1c91c6baea177b3c7baa730a81819a3602ce7458560aa2a6a62c9e2927d37b75815250816080015160618151811061384a57634e487b7160e01b600052603260045260246000fd5b602002602001018190525060405180604001604052807f281513f590a12b62a1bc9de0815146daa6f2b7c0b73ae41d409c6c1f34c8b37181526020017f23bc71f21a20e00eac5b9e4fcd6a1b1ac0029229bc5e715d43cd511e40f2e8d681525081608001516062815181106138cf57634e487b7160e01b600052603260045260246000fd5b602002602001018190525060405180604001604052807f034fb1398da7d4f777acd778dcf421ad8da928fb58839e4c8ec5eb6032072a9081526020017f1e234f0f8a4d1fc3fa3dc135d871c1d02520bc1a0509ff4600e82645852d0ee8815250816080015160638151811061395457634e487b7160e01b600052603260045260246000fd5b602002602001018190525060405180604001604052807f0f10d9b4b0bea41a91bf5499592a4e51130afdacc52d94846681304f1d3d437381526020017f1c039b76f16641286250f7822147583b653d505cf094cee2ca74f315f0a1edbf81525081608001516064815181106139d957634e487b7160e01b600052603260045260246000fd5b602002602001018190525060405180604001604052807f250db6ddb534993a75e132b115e00ecf24419e4b75745ace791dd3bb95902b6d81526020017f2553786bda3bfb48685c5ec67313376798b9bbf0479a540fbe73a919f229f1338152508160800151606581518110613a5e57634e487b7160e01b600052603260045260246000fd5b602002602001018190525060405180604001604052807f07c0e1f817b47e6715b44ab5e51a9aa3d585b49c98ed6a282b70d473a4103c7c81526020017f290027c867f150638a82a7e2d27949603b1436e569d464f9c95882a651d36a168152508160800151606681518110613ae357634e487b7160e01b600052603260045260246000fd5b602002602001018190525060405180604001604052807f0f7a5011b08ea0dce86f87c185e01c98b5e2a281fecafbca0860eb82437b99dd81526020017f0900e0487129290f4da947d13ace773c4bd9c637a0095dd7c919588e8f7a9e138152508160800151606781518110613b6857634e487b7160e01b600052603260045260246000fd5b602002602001018190525060405180604001604052807f1428d8a18ce889031fbf16fd6076377a8081eeac5be5efc71d63197b4d263ed481526020017f0323ff93351b3c805f5a64bbca794445387b125e278a7d32b09a91ca6eb753ea8152508160800151606881518110613bed57634e487b7160e01b600052603260045260246000fd5b602002602001018190525060405180604001604052807f1b503385db77edbd3e701b819aedc35018df441b31a16982f8e93517b82bb8be81526020017f0324edd697079784a611cd285093da1fa04d89f0f62134f5d8d32399125c40748152508160800151606981518110613c7257634e487b7160e01b600052603260045260246000fd5b602002602001018190525060405180604001604052807f2e50ac1eb0534dc6722f3f38ceb5fb4b05022db5200fde0320a3e7f214b9b8b981526020017f2ab2b8f917d9baebc14e00c97b888ec4b69ee48684b5ca3963ca19edf0a290a58152508160800151606a81518110613cf757634e487b7160e01b600052603260045260246000fd5b602002602001018190525060405180604001604052807f0f62e376b90d160af565d5b85de1de7a06f686fb8887b058ca44a159a9f0a29981526020017e1a2f08fc13a623b60426a5899a249b2e3d912f7879db27c51c9f42af19e38b8152508160800151606b81518110613d7b57634e487b7160e01b600052603260045260246000fd5b602002602001018190525060405180604001604052807f2e59df752cf12c3ce79b34dfc19be98ebe088f7d03966757f22b8dd6bb04e3fb81526020017f267778b5019a2393344c72979bfdb5d53d362120d8c032b419df9628fffd0b2d8152508160800151606c81518110613e0057634e487b7160e01b600052603260045260246000fd5b602002602001018190525060405180604001604052807f1012a8ed071f1723fa37d79329b577306fbbaddbaf9dd1992842b798bf1c5b9681526020017f06a8bc99722922dcb6e18ebf8d177b59c2f85074b27664b001efb4f902e9c7c58152508160800151606d81518110613e8557634e487b7160e01b600052603260045260246000fd5b602002602001018190525060405180604001604052807f1a9466525002296e2b64591c16b689f4e861feba5ceed3bf892a150dddc6413981526020017f2c3b37ba63dabea6c31432646db41d8a95dded6be9c58d59bed94ba75414dc908152508160800151606e81518110613f0a57634e487b7160e01b600052603260045260246000fd5b602002602001018190525060405180604001604052807f1bfb155c04c896dce17e96126ca80e415d0e59245ee67d124db23535ce02fc9c81526020017f2b9888760e48368a343ba31109ddd45df5f864bd713bdb4f43b5e17f1626f9858152508160800151606f81518110613f8f57634e487b7160e01b600052603260045260246000fd5b602002602001018190525060405180604001604052807f0c880f7f8bdbec57fb4c74fd3f158ca6bfeb952afca5704596246b8ac3bb35c381526020017f08c9257289d95401ff0602f404025106f0a946b7143d91343767ac47c259a31e815250816080015160708151811061401457634e487b7160e01b600052603260045260246000fd5b602002602001018190525060405180604001604052807f15cd515a6aeaded199e0bc006de5b66605e323358b71355a6c61b6dd747eddf581526020017f2d5e1e5a17fad3c6939b099991584d99b913fe2299871211bc7a9c527e3ee4be815250816080015160718151811061409957634e487b7160e01b600052603260045260246000fd5b602002602001018190525060405180604001604052807f0db7f930f0f8d30bf3ff125e8635fe78484cb1ef67f356b873043744f25ba84d81526020017f13318ba85de5268954478c1d94321caf43a5a1daab7c50b79ec69595726e1f31815250816080015160728151811061411e57634e487b7160e01b600052603260045260246000fd5b602002602001018190525060405180604001604052807f1b4c07e7fab0bfdf5f69d78c531caf1d1649d624372a0dfe689b14c6bc5e9e0881526020017f096835510488a7be72ad23c519dff76a8be77c596fdd3eca27a78409590e60bf81525081608001516073815181106141a357634e487b7160e01b600052603260045260246000fd5b602002602001018190525060405180604001604052807f230faed41eaaf5a953bf42c9ba08d26e83c14b2d2c5fcdab2a3bc27b12d7ed7d81526020017f266ed4287272f917d39e770335f4bd4aabc34e1a8d2ebaefff2ad212a233d9d0815250816080015160748151811061422857634e487b7160e01b600052603260045260246000fd5b602002602001018190525060405180604001604052807f0f80550d54e62a86f152ec81925eb9f8d897830963756e0ed08700993e3dc99381526020017f016cd91adeeacc52faf60c7ec445c316af4d3ae7f5b985a7fecb8503e5b6ed1681525081608001516075815181106142ad57634e487b7160e01b600052603260045260246000fd5b602002602001018190525060405180604001604052807f1284d4c3256f3b37c0ef567c9b6441ac7b635f7e368cee5e5fd22c643ec9954781526020017f183173bf8bc2ba951dfd301b3c06fcae449273360fda6bb628e340c82d138bc8815250816080015160768151811061433257634e487b7160e01b600052603260045260246000fd5b602002602001018190525060405180604001604052807f1dfca92b631f945696516b409b22045e170b469f4b3c3b89d3601473d6c1ccf981526020017e025ba2855e71a9bc12c5335cfa552f27e56c1901ef2076118a2ae3498679d381525081608001516077815181106143b657634e487b7160e01b600052603260045260246000fd5b602002602001018190525060405180604001604052807f01c0ef7e1e55ad5486483be27fe49a845166f68fbe94c4af803f1c59068c4c0281526020017f1d8990c63a420a60c8df36090840b8bc844c70159efcee2091f0a6b9a4b90928815250816080015160788151811061443b57634e487b7160e01b600052603260045260246000fd5b602002602001018190525060405180604001604052807f19acec3d674ea75ba507264ee1f9c36240c23e2099801b8154fb63f352991cc581526020017f0e24a4ed5c4120cfac930a88887dec641ae0cf75e57c43d98bc135659adcc1ab81525081608001516079815181106144c057634e487b7160e01b600052603260045260246000fd5b602002602001018190525060405180604001604052807f0741680527a54acbdbc66a3e9a372a9a3a677f5c162e3e797486dadcd343bbf081526020017f0395ca5f0ecc7a066ffff134ef7a76809e7bdc3064798c2485256655965ec0e78152508160800151607a8151811061454557634e487b7160e01b600052603260045260246000fd5b602002602001018190525060405180604001604052807f090014c8900ad8bbc502cf3b48246fa37908fbc1b075161d026233dd69a36b7381526020017f276f16cfb47235f2d347cab79b6e63cfb658fa8d89947a10d86a4bfbf01398218152508160800151607b815181106145ca57634e487b7160e01b600052603260045260246000fd5b602002602001018190525060405180604001604052807f2d80ad97a49ef182577bb722c34111cc09b704a8f2494cd7408b100ebf48a48b81526020017f2ff1224b42f511a31621927eb5ab1b3dda04b9ab9f434ce78af75c2538873d958152508160800151607c8151811061464f57634e487b7160e01b600052603260045260246000fd5b602002602001018190525060405180604001604052807f18be0b6fcdd9f238c8592e91f4e4a5392cf6d48306b3b43539e0dec4d9a2c2ea81526020017f07ec1e2361165c66d0db1983c35cba7faf6e027bc3ed3dd81beefdacce09ebc88152508160800151607d815181106146d457634e487b7160e01b600052603260045260246000fd5b602002602001018190525060405180604001604052807f2264432cabc69d1666aa397c753d3215fa45486fc6966444f746770eaa2c5cfd81526020017f246ddb8764da81db6f56e3c49f127c601e1eba7962ba764c8e583cccda80c9de8152508160800151607e8151811061475957634e487b7160e01b600052603260045260246000fd5b602002602001018190525060405180604001604052807f2296147f5c3e6cc007e476ba2ac5d8e8115e85d5e9a69d3a67aad5767e5ae9fa81526020017f241a00769b173e04320d938f7ed9c19e96fb83f3b6bef5b713354c2cd9ac42038152508160800151607f815181106147de57634e487b7160e01b600052603260045260246000fd5b602002602001018190525060405180604001604052807f167214b20cb1a11d901a93bbe15cdcb2af54eb858f4e62393f7d11f65cff75cb81526020017f1ad14533e1ba5461b7f5147487d7af706722d8127716cebdcc97243b6e88b182815250816080015160808151811061486357634e487b7160e01b600052603260045260246000fd5b602002602001018190525060405180604001604052807f05e4a92997430942d7f73b5035b81f79de27ffc2742394ab8db5cad7d133b73a81526020017f021f800dff6351a20046cdb3b6d499e0c5202cb47c3e3a3740bd94a4aed3fa7081525081608001516081815181106148e857634e487b7160e01b600052603260045260246000fd5b602002602001018190525060405180604001604052807f2c99c470e3fb30def4fec178707169e1177e0a9d9584208c3d293e6311be728e81526020017f18761fcdca52102cdc520a2e786ed5d48242536019ec1eb289d5200e985a6384815250816080015160828151811061496d57634e487b7160e01b600052603260045260246000fd5b602002602001018190525060405180604001604052807f0c7f6e5aa74a530e510992972f05effaacae428221d101dc3fc1d72ee4027f8e81526020017f291924f23c999a06cf310b2c0ae437fcdd106fed386fb6c6cdab7753aad2119d81525081608001516083815181106149f257634e487b7160e01b600052603260045260246000fd5b602002602001018190525060405180604001604052807f22281a8fd998fd47679bef6f46154e902b810f3f1479ca41898854643acc633181526020017f23d266dfaf48de2c8d1bae1c59b4234fc15e3b46473ccf513d9129cff199a8418152508160800151608481518110614a7757634e487b7160e01b600052603260045260246000fd5b602002602001018190525060405180604001604052807f0631f733ad60d7e42c8b2e6ea5c171f104d37b630413566740e0f4b839151b7b81526020017f12a328c2f3d7dafb478fa2ed43639e015afb43e3c77e16bb6f055cbd0289c4948152508160800151608581518110614afc57634e487b7160e01b600052603260045260246000fd5b602002602001018190525060405180604001604052807f295676d53bc4dd98b4bc49ac126f01348da9012e888bb9e72be5384936fc179d81526020017f1d116446f178846e49cc6ea40e48f21bb09c3351256c20ec38c10d361b62a70e8152508160800151608681518110614b8157634e487b7160e01b600052603260045260246000fd5b602002602001018190525060405180604001604052807f090a1bb3a4e78bb535b4892492f77f5ce400070767af98049604c1e574364d6b81526020017f2a09b332e9d97dfbe687792ae185f450ddc2e9f2f047ea0bf1a27f34cbfe06308152508160800151608781518110614c0657634e487b7160e01b600052603260045260246000fd5b602002602001018190525060405180604001604052807f1b1ed78001fcf47e9eae08f7030d4a27d6f9c3f92a350af8924b6b1d71247d7b81526020017f257e83b9b2c6b1f0722b28c4b98977cea690b5bb4437e50a42dc7bba4852a0a98152508160800151608881518110614c8b57634e487b7160e01b600052603260045260246000fd5b602002602001018190525060405180604001604052807f0c00c644d530a0601a35112fc47f5b94aaed557d0533b2bf2fb8748ff252b9f681526020017f25f59ad8fa8c8aaa0dcf52af0d50cfced5dfafdd9a142135d7cb28475d51d8bc8152508160800151608981518110614d1057634e487b7160e01b600052603260045260246000fd5b602002602001018190525060405180604001604052807f2de1a7fd51e20d267d040ed3d5e664db948b4512bf7ae5a05a101890636f164f81526020017f1b453ba3ccb06581dece377066e3c5443213485accc567c1a4bfc82f56b2a5da8152508160800151608a81518110614d9557634e487b7160e01b600052603260045260246000fd5b602002602001018190525060405180604001604052807f2f6fc6e5917e4104b51d5c82746b68794677a0ba5d93c32726d2f2f6ef0112e981526020017f157ae6c35589bf3f7151a197485129d555e38349363e777133d2ed29e75e16068152508160800151608b81518110614e1a57634e487b7160e01b600052603260045260246000fd5b602002602001018190525060405180604001604052807f174e1072f17cacc1f95c59999a343aaaa2b65f28428304e5b25b19b32309ae1c81526020017f222bcf954c3c6c37de33a5539ae9480a5e40de4c15a639dd037ab36cefff3e0b8152508160800151608c81518110614e9f57634e487b7160e01b600052603260045260246000fd5b602002602001018190525060405180604001604052807f08c4c613fc4105892a5823c555b379b72cb14103db62caef49efecb029a2155b81526020017f0a4604a5aa8d38f59b01ccfc74916a47d88d13dd85346bef520d92ac4eb99dc18152508160800151608d81518110614f2457634e487b7160e01b600052603260045260246000fd5b602002602001018190525060405180604001604052807f219a8d307a9ee3cb5b516024a567508bd9544c6c7fea806037b77e913ad5a2e281526020017f07631765970e907213d040b2b2bfcaa538fb5798349aa1a24a80ac96c247fb968152508160800151608e81518110614fa957634e487b7160e01b600052603260045260246000fd5b602002602001018190525060405180604001604052807f08df5b40f357a425921bfd8ccb1df78d0c14d4128c4393481bdec16283af205981526020017f05abbe578d83644c43e74992479e09f1d84e1cd83154846092955b29ab825cab8152508160800151608f8151811061502e57634e487b7160e01b600052603260045260246000fd5b602002602001018190525060405180604001604052807f133a25dedd71f1e7edd722e49cf64a8a1b0c7f5d97d2eeb4db7a1670049e93dc81526020017f1ac3c3ba6e6d36b93e120e0c4264231919ccaf0b69bdfc81e68d15922aacf76681525081608001516090815181106150b357634e487b7160e01b600052603260045260246000fd5b602002602001018190525060405180604001604052807f2a99ee5cfde9ed08a471da348776de49bf284b2fa6a5d3ac5884d30dc47158ad81526020017f1fbb6f78ac839a1aa9b1f43c98437c435f7f4c613e6d27f92a982ebfa7319054815250816080015160918151811061513857634e487b7160e01b600052603260045260246000fd5b602002602001018190525060405180604001604052807f2f6338070f8c6b1a3d7c8f52fd5cd581e7cf4d021455f11bed74c565ac2bbf2a81526020017f266988d12ecefd4887ed472db97795238de87aef6bf7c1f0d54f397a08496e8c81525081608001516092815181106151bd57634e487b7160e01b600052603260045260246000fd5b602002602001018190525060405180604001604052807f1f63b341869d4fa13e70f9710886094daed77086359124e3e82333c67363eaf281526020017f180a9f11d742c19639f11df1a5aeb7ff55b5b4acdabbdf8ea07687d68195e3e1815250816080015160938151811061524257634e487b7160e01b600052603260045260246000fd5b602002602001018190525060405180604001604052807f01fdfff16998e14037a31c28cd622498d6b94e9d24ab279a24e8918202beff1481526020017f0f15843884940e15b2616fb3277102fbf34395c5469afa780cabb14cd30bec5d81525081608001516094815181106152c757634e487b7160e01b600052603260045260246000fd5b602002602001018190525060405180604001604052807f03b5bba84d1f37c1b4192350b4673b82f741eb6eeeaa87168ccb67f48d61164981526020017f14f68ca4d19b45e1ce3a5354cb47a5e47eb65f2d5158c8a1a1bad8d2b9877e7c815250816080015160958151811061534c57634e487b7160e01b600052603260045260246000fd5b602002602001018190525060405180604001604052807f10921bcb889ab9f6c26a528fb1f36f288b8d1ce92d1149457b697d03b882914781526020017f01b0e0f44292e47cbd2387fcbdc2fb5bc4180c8b4558289a8447c57114cfb0a781525081608001516096815181106153d157634e487b7160e01b600052603260045260246000fd5b602002602001018190525060405180604001604052807f1e178ff55de3ccc7d387fdaa4a69537768ad724a1a57ffe1f77977c65464cf5f81526020017f0c6fde2d3b002ffff0ac2ab0327e17eab188d36aea85b2f3eab25b484a694a9b815250816080015160978151811061545657634e487b7160e01b600052603260045260246000fd5b602002602001018190525060405180604001604052807f148e80319b48b52e40f5d6e5a430bce8728b24eac147db68663b4a768a98b19181526020017f2aaa546eadb2acd0fd8e720c2e5a853d17eaf6401139b619c88c0b9f5101e43a81525081608001516098815181106154db57634e487b7160e01b600052603260045260246000fd5b602002602001018190525060405180604001604052807f10306c2e43e86aed5a08555817b67c2c7e887238a6b1e53001cd4f72c159525181526020017f02695ae08f5a55735ab0078072af9e008660440256d11735e157bd3b3df6c1b7815250816080015160998151811061556057634e487b7160e01b600052603260045260246000fd5b602002602001018190525060405180604001604052807f281ad530e0adeb4b5b8172987a72932e741d3a7f3b56919d3b814b406adefad881526020017f2ce1656fde7b8806ed35426657dcb14a93121bec62d558a04b3029b8d231a04c8152508160800151609a815181106155e557634e487b7160e01b600052603260045260246000fd5b602002602001018190525060405180604001604052807f041d5ed83fe34b5eef7937c861ff8c4efb31adfb242d69c27e3be9d265ad66a581526020017f19962e23483027e8a629c1dc250f7210a545eed5e00e451b86b1e83e4d43159b8152508160800151609b8151811061566a57634e487b7160e01b600052603260045260246000fd5b602002602001018190525060405180604001604052807f245e57862741a93f106b9267cc24f909e027dc26e3c37cc858abd0d1be628a0081526020017e2249e57864081ff1ab29aff2cb7d52eb9d32642e2f4f47480b2bcdd2d13a268152508160800151609c815181106156ee57634e487b7160e01b600052603260045260246000fd5b602002602001018190525060405180604001604052807f2ae4b3f63980f4d542fc260ee0c7b3e37f44899fff1e633944f0eb095bf8a6b181526020017f1af21289917cb300f2021371d6bbd84f19de188876e42bfd91388f2f52a8ea2c8152508160800151609d8151811061577357634e487b7160e01b600052603260045260246000fd5b602002602001018190525060405180604001604052807f11606a9ad1aec93802d38e4ff8f8319c6354cce68f1fadda2430b43ab4f028fc81526020017f2900e8d8b07c70e6af7e1ffa286284b38050b57d63c5b40a107ec45b94422d718152508160800151609e815181106157f857634e487b7160e01b600052603260045260246000fd5b602002602001018190525060405180604001604052807f04ccc0da1d81c1ea927a3236c7debaba7c20b986172d9772056370b7a18cde7581526020017f22dc2ef75f644092042719c730f37a66ac1e45b6ec85a9c6d1f18ef5cff8afae8152508160800151609f8151811061587d57634e487b7160e01b600052603260045260246000fd5b602002602001018190525060405180604001604052807f26dc9a405d3299c767b73262f7ba47296b34e1851f56313cc6530af3a155fa2f81526020017f0ab45bb7ce4751ddc42ca9f9b753cee828a4c9d0b978f80e8a0a5ad229f5a0fd815250816080015160a08151811061590257634e487b7160e01b600052603260045260246000fd5b602002602001018190525060405180604001604052807f28e07d5c8f1088c2131209efa3100bca6fc270e8a6e3ae937b9f74e43fd3c9c681526020017f1b3191e9683e5f4340e4fee744637c58057fc8d4f5d125345cc54320e022fb65815250816080015160a18151811061598757634e487b7160e01b600052603260045260246000fd5b602002602001018190525060405180604001604052807f12dde6ed24b1740c3a368b6737344f3c38ae3d86ccd44886f6e67240bc8541ee81526020017f1f3f29bfd6efa18d21e4c59b90a5a45c98fd0f43469fce0b3a9d8de3edf919de815250816080015160a281518110615a0c57634e487b7160e01b600052603260045260246000fd5b602002602001018190525060405180604001604052807f222b92ff34642a83c73ed2ac2391f61bdfd4c06c8390e9fb99f7f940cae3c32181526020017f06358c544acb257209d99a8b601cbdd91fa27af70f8855d06ce378c2dc22ff05815250816080015160a381518110615a9157634e487b7160e01b600052603260045260246000fd5b602002602001018190525060405180604001604052807f28f48d0f015aa1939bcc5c7fa9434b8929dab4e14d54753e93e8f276eededec181526020017f1a923804f40281336d987acf430fbd7873260969ef634ea3d0232027bdd46dc6815250816080015160a481518110615b1657634e487b7160e01b600052603260045260246000fd5b602002602001018190525060405180604001604052807f141a28d2064961cea7d8c9777a96df929b7aeb175f2ac1d240c40d276f41b9a681526020017f15673d910586dd2b46caab148a3d14698477902fe04b92298fd2c9c375dacb92815250816080015160a581518110615b9b57634e487b7160e01b600052603260045260246000fd5b602002602001018190525060405180604001604052807f0b028630952ecdc69ff625c2436b612cabc71aa7914bd1c6e6585e88da5d517281526020017f0e37a3364e14511c76311e991c7c216333438a0aecac9bdf6d02f6d2016994ca815250816080015160a681518110615c2057634e487b7160e01b600052603260045260246000fd5b602002602001018190525060405180604001604052807f112bd703ecbe9b931a7333930cc6b86cb62797b069c5e415025cc90f8f148fa081526020017f2147bdd0336a33aed6991af04616ebc07cf27a8f94a8c8d2be6f5ec8afee0f7e815250816080015160a781518110615ca557634e487b7160e01b600052603260045260246000fd5b602002602001018190525060405180604001604052807f192e8b6c757f8b8b003bd8f8790a134eaff90424d3330bb61f78af59776ae91881526020017f24434aade35dccf87569caa76cd39f0e01d5958d72a156c6bc7f1287a9d85f22815250816080015160a881518110615d2a57634e487b7160e01b600052603260045260246000fd5b602002602001018190525060405180604001604052807ea4a3747b0376c64e661ea1cf97b3b7ac336a338955619297852cdc3d67119b81526020017f0be5a4cd54b6ea7b0599a50fa9bbc73940591316cad76a9b1852f9a2d054d26c815250816080015160a981518110615dae57634e487b7160e01b600052603260045260246000fd5b602002602001018190525060405180604001604052807f0d1edaff53fbfa1f1e41cbe0cf42263f99a5e96b1ae4d4c903fea636004a7a6e81526020017f28d000a40409411fd45584019ae9d3275f3aa17cea86b17aad35bc26268b793f815250816080015160aa81518110615e3357634e487b7160e01b600052603260045260246000fd5b602002602001018190525060405180604001604052807f19de9f45f08024b38a0ff7b0ab88ec4562389746f3f4ac4c3bf3f69268d5ee0181526020017f2912a78cf79792ad340ecbf574eab8c347eacf1e3014774d1f7314fa83218a4e815250816080015160ab81518110615eb857634e487b7160e01b600052603260045260246000fd5b602002602001018190525060405180604001604052807f11030dbdb0718b46f9262194850e015c6f93b1786992d517874dac27da176d2e81526020017f2565bcae9ace45f3798627ca3f4ed7bf731c2918ca681e6817082b8668fbbd8e815250816080015160ac81518110615f3d57634e487b7160e01b600052603260045260246000fd5b602002602001018190525060405180604001604052807f0635fb7d72f8110b368a12024403e09c6b1da954a87cfa2de431ffc1294b295681526020017f08bb3551f2f1ad4c451ce42fc4c0d9299849fffc10d4dff34a50eb2317419017815250816080015160ad81518110615fc257634e487b7160e01b600052603260045260246000fd5b602002602001018190525060405180604001604052807f02b6ba5494fa6c82af6d9406a6c639c9b9c30fab4dac52fdb8da6f8138b1455681526020017f1dc9bace51abcc2733d21fb2eb7923d45596a9960dbdb7bcdd18f5ed7db84623815250816080015160ae8151811061604757634e487b7160e01b600052603260045260246000fd5b602002602001018190525060405180604001604052807f184501da456dbfe67727715bf29f730355ef549f1cc5de2db2b66d8647cb3d6281526020017f081b91e2044422e79fbd1282bfce289320d4f2ae929320eba10a9d57b26d616f815250816080015160af815181106160cc57634e487b7160e01b600052603260045260246000fd5b602002602001018190525060405180604001604052807f10f77ecdf16503ed563e054ac3f751338526088d758a96b7e527b977b817340781526020017f0cf1bdfa98d98ee51c4284a70b18ec2a4a431dc3624613f2b168f7fde412c270815250816080015160b08151811061615157634e487b7160e01b600052603260045260246000fd5b602002602001018190525060405180604001604052807f1ba0eef5384e0549265202da0ffb3802173541cdb621b88f0cd100bd95aa7d5281526020017f2ff9ad5dea7685298907fe64735eb5dbfaf95d4e0b4f1bf57e61ef3d05039759815250816080015160b1815181106161d657634e487b7160e01b600052603260045260246000fd5b602002602001018190525060405180604001604052807f1d2644fde6b58d264cdaacd45b5e6c7c325206610e8541ce37af92bc1d3e14ac81526020017f20b51ec4ad54353b3764d3d6a00953e9c095f47c9b86f9ed5516b4d6990ab07f815250816080015160b28151811061625b57634e487b7160e01b600052603260045260246000fd5b602002602001018190525060405180604001604052807f0e5e4ff61b0ab7a04663107c448cfb55ae795f1b3d1ecaf717f5ae7b466d151b81526020017f1345f621a3671b3f8a29dddbb4a59721c14eed8c327e0636ed2f3e583e1b035f815250816080015160b3815181106162e057634e487b7160e01b600052603260045260246000fd5b602002602001018190525060405180604001604052807f0fbd2e2c4b5019b5eff746704025750cb83a168512b88d793ac1f2044bd8b09c81526020017f1edb440b40df424fc6b0172007115b6550c8424439d4cb387461ab8717c3f430815250816080015160b48151811061636557634e487b7160e01b600052603260045260246000fd5b602002602001018190525060405180604001604052807f11a556dd1b39743d7d36ff050c04a95cabbdbb9a38e4cb31c6703e8ff8124b6481526020017f0842b9c941657357e3cc5fc0e622f9d54e23c1bf3ce3260866d3359dbf94ba94815250816080015160b5815181106163ea57634e487b7160e01b600052603260045260246000fd5b602002602001018190525060405180604001604052807f290b32d2352379f4501874ae458435eafee70eaf991fc46d705ce3bbd23c3eb681526020017f2bf6787f2257f3bcc41d259f4453c1a4024ecbde86b9dedc90d87a76f8fe5924815250816080015160b68151811061646f57634e487b7160e01b600052603260045260246000fd5b602002602001018190525060405180604001604052807f0bdfccdb4ce82b2faf51890fda850fac41ae97b46a3293be2179de8bc505fcee81526020017f0f085a6d66917e52600e1ad3fe34624012beb58ad5d68a6c57cfdfa3f5d0238f815250816080015160b7815181106164f457634e487b7160e01b600052603260045260246000fd5b602002602001018190525060405180604001604052807f2ef7fb2eb8d3895630f65e3ad931b4f27edc8304a688c2a7c6466fead3e257fe81526020017f220104121d46c29a62df1b4bd5bf4473c70957b3c9291dc3784c6377784b0d22815250816080015160b88151811061657957634e487b7160e01b600052603260045260246000fd5b602002602001018190525060405180604001604052807f247dce7509f2672b800f77a3d404a87386f69a1ad3afbfe5e1abe276aa771f6b81526020017f16abd8e191d2765954dfad445a956878de7c2629819cfa308dec27b06eb0372b815250816080015160b9815181106165fe57634e487b7160e01b600052603260045260246000fd5b602002602001018190525060405180604001604052807f19278743f633abd667698662c345483daf8cd58e83a7227d46e6522f5f8fa62b81526020017f17c3e893bd1d55748104135fcdfc3206e79ef32c4326277391ca1dd040065a04815250816080015160ba8151811061668357634e487b7160e01b600052603260045260246000fd5b602002602001018190525060405180604001604052807f28066c6152ea89db4c4d97676aad04549195175e93195609dac92fb682b1f85c81526020017f04bedac958a1c62f46439dee09b765125dba171c3e60361e6f59277b89feca8c815250816080015160bb8151811061670857634e487b7160e01b600052603260045260246000fd5b602002602001018190525060405180604001604052807f14dcf80638e33103c273094958c0dde555fcb24856ab9320dedc00a22d380ac581526020017f22e2598bbd7962afb65b3240f499684b273da750fa48ae20054e2ea625fc4bda815250816080015160bc8151811061678d57634e487b7160e01b600052603260045260246000fd5b602002602001018190525060405180604001604052807f149cfeff8b604fe455175b9a9613d2bdb24a4bfe5b54e2d6a4aed8131bcf029381526020017f2c6ff74b7899045b025f5a7e9d6340e57f428d4fdfb8ecc4f03b792165473cf2815250816080015160bd8151811061681257634e487b7160e01b600052603260045260246000fd5b602002602001018190525060405180604001604052807f16d8bca35c77e7aff62781dead2d9dbd0a0667d718d1db15a7043cb2160cbda081526020017f270cbdf3fcd873dbb63e098ed4ceb1091a839a85bbb84658bcd49f7a147315b2815250816080015160be8151811061689757634e487b7160e01b600052603260045260246000fd5b602002602001018190525060405180604001604052807f06c7b3af65efd57945003ecc7c219680b83e93866dfb438bab6b3140edc966f281526020017f2c324ebd7b0863d3bd0f20b902614bd34509e98f59c3443ef0c9225f508ebdeb815250816080015160bf8151811061691c57634e487b7160e01b600052603260045260246000fd5b602002602001018190525060405180604001604052807f27dc0fb2affdcf892188846bfab52e4c8a284d76480c58795acdd06771389c1b81526020017f29a55f26f3f69a48c6281f25de653bc3cd884b02fe726f40961fe7b6b08c23f6815250816080015160c0815181106169a157634e487b7160e01b600052603260045260246000fd5b602002602001018190525060405180604001604052807e22855728b98826294374350bd4baf2f27bb2e4fd2de590b903ced45515468681526020017f146490ea64e8fddada057eb1ee49dae944e0be385dfc88ac26dfc0b696db1ff9815250816080015160c181518110616a2557634e487b7160e01b600052603260045260246000fd5b602002602001018190525060405180604001604052807f01ee13cd45cc8f944002053ed83b9008811d9985b16429f40c103df5da0dcd3481526020017f0ed2e806d89bd80367b46cd433c74d621d698526ef398c5f6a0dae7548aa6473815250816080015160c281518110616aaa57634e487b7160e01b600052603260045260246000fd5b602002602001018190525060405180604001604052807f1c3938403f5ae607198f8f601caaae7fdebaafe4995888d14689469aa601013981526020017f2b84eb825afbeac850dd778780a97249106f686b2eb70fd34790725ba2f2645b815250816080015160c381518110616b2f57634e487b7160e01b600052603260045260246000fd5b602002602001018190525060405180604001604052807f2198cb7106126c671c733cbb106c5805400a661fbd42d4b750f22ace1b7ebff281526020017f10b8bbd7c01af84e489cbdd4f9669c30a1053e49d990505606072366c34a7542815250816080015160c481518110616bb457634e487b7160e01b600052603260045260246000fd5b602002602001018190525060405180604001604052807f1eea770e3a581d9c9b91f95c0b35c336b5b3c09ca5eb3d9fb9c5ecc925a02ce081526020017f0af34d0425368e7895e695419e99e880a5edf88a0810e97add341a55f201ada6815250816080015160c581518110616c3957634e487b7160e01b600052603260045260246000fd5b602002602001018190525060405180604001604052807f0d89dd2cd39d99dc662e8cbb782a2402f29a96648f955a6a5d98f0dd7d33abe381526020017f2e35cd3878f5c8180d1adf79bde4e6b11ed1c1917f817f1b766e24acafb0aa3a815250816080015160c681518110616cbe57634e487b7160e01b600052603260045260246000fd5b602002602001018190525060405180604001604052807f0c6032feec0bdb1fea79cca77edf1842983b8392c660008d52ac576718caf27881526020017f0e1a3e3da2c72bb0799890d6ff277e169985e038ba6d1c91c2f004ed470c43ff815250816080015160c781518110616d4357634e487b7160e01b600052603260045260246000fd5b602002602001018190525060405180604001604052807f0540653d758f8ab41472513ace8e50489406a3d89131084371e7bbbbb2c2949481526020017f0707984710e2f9ef9bc7e1d78c1bc1d97dc4dd90c64fffa3605b6cd2c71b8542815250816080015160c881518110616dc857634e487b7160e01b600052603260045260246000fd5b602002602001018190525060405180604001604052807f304e404ff68d8990413a1f5978b3353ad0fda2f75fecd9f710675c4b249036a681526020017f0d87f12707c6244e22370334dc72e662bd8b5785ccd020861bf04c76b79fa25b815250816080015160c981518110616e4d57634e487b7160e01b600052603260045260246000fd5b602002602001018190525090565b616e6361757e565b616e6b617598565b835181526020808501519082015260408101839052600060608360808460076107d05a03fa9050808015616e9e57616ea0565bfe5b5080616eab57600080fd5b505092915050565b616ebb61757e565b616ec36175b6565b8351815260208085015181830152835160408301528301516060808301919091526000908360c08460066107d05a03fa9050808015616e9e57616ea0565b616f0961757e565b81517f30644e72e131a029b85045b68181585d97816a916871ca8d3c208c16d87cfd4790158015616f3c57506020830151155b15616f5c5750506040805180820190915260008082526020820152616f91565b604051806040016040528084600001518152602001828560200151616f8191906178b3565b616f8b9084617881565b90529150505b919050565b60408051600480825260a08201909252600091829190816020015b616fb961757e565b815260200190600190039081616fb157505060408051600480825260a0820190925291925060009190602082015b616fef6175d4565b815260200190600190039081616fe75790505090508a8260008151811061702657634e487b7160e01b600052603260045260246000fd5b6020026020010181905250888260018151811061705357634e487b7160e01b600052603260045260246000fd5b6020026020010181905250868260028151811061708057634e487b7160e01b600052603260045260246000fd5b602002602001018190525084826003815181106170ad57634e487b7160e01b600052603260045260246000fd5b602002602001018190525089816000815181106170da57634e487b7160e01b600052603260045260246000fd5b6020026020010181905250878160018151811061710757634e487b7160e01b600052603260045260246000fd5b6020026020010181905250858160028151811061713457634e487b7160e01b600052603260045260246000fd5b6020026020010181905250838160038151811061716157634e487b7160e01b600052603260045260246000fd5b60200260200101819052506171768282617185565b9b9a5050505050505050505050565b6000815183511461719557600080fd5b825160006171a4826006617862565b905060008167ffffffffffffffff8111156171cf57634e487b7160e01b600052604160045260246000fd5b6040519080825280602002602001820160405280156171f8578160200160208202803683370190505b50905060005b838110156174f75786818151811061722657634e487b7160e01b600052603260045260246000fd5b602002602001015160000151828260066172409190617862565b61724b90600061784a565b8151811061726957634e487b7160e01b600052603260045260246000fd5b60200260200101818152505086818151811061729557634e487b7160e01b600052603260045260246000fd5b602002602001015160200151828260066172af9190617862565b6172ba90600161784a565b815181106172d857634e487b7160e01b600052603260045260246000fd5b60200260200101818152505085818151811061730457634e487b7160e01b600052603260045260246000fd5b6020908102919091018101515101518261731f836006617862565b61732a90600261784a565b8151811061734857634e487b7160e01b600052603260045260246000fd5b60200260200101818152505085818151811061737457634e487b7160e01b600052603260045260246000fd5b602090810291909101015151518261738d836006617862565b61739890600361784a565b815181106173b657634e487b7160e01b600052603260045260246000fd5b6020026020010181815250508581815181106173e257634e487b7160e01b600052603260045260246000fd5b60200260200101516020015160016002811061740e57634e487b7160e01b600052603260045260246000fd5b60200201518261741f836006617862565b61742a90600461784a565b8151811061744857634e487b7160e01b600052603260045260246000fd5b60200260200101818152505085818151811061747457634e487b7160e01b600052603260045260246000fd5b6020026020010151602001516000600281106174a057634e487b7160e01b600052603260045260246000fd5b6020020151826174b1836006617862565b6174bc90600561784a565b815181106174da57634e487b7160e01b600052603260045260246000fd5b6020908102919091010152806174ef81617898565b9150506171fe565b506175006175f9565b6000602082602086026020860160086107d05a03fa9050808015616e9e57508061752957600080fd5b505115159695505050505050565b6040518060a0016040528061754a61757e565b81526020016175576175d4565b81526020016175646175d4565b81526020016175716175d4565b8152602001606081525090565b604051806040016040528060008152602001600081525090565b60405180606001604052806003906020820280368337509192915050565b60405180608001604052806004906020820280368337509192915050565b60405180604001604052806175e7617617565b81526020016175f4617617565b905290565b60405180602001604052806001906020820280368337509192915050565b60405180604001604052806002906020820280368337509192915050565b600082601f830112617645578081fd5b60405161192080820182811067ffffffffffffffff8211171561766a5761766a6178e9565b604052818482810187101561767d578485fd5b8492505b60c98310156176a157803582526001929092019160209182019101617681565b509195945050505050565b600082601f8301126176bc578081fd5b6040516040810181811067ffffffffffffffff821117156176df576176df6178e9565b80604052508083856040860111156176f5578384fd5b835b60028110156176a15781358352602092830192909101906001016176f7565b600060408284031215617727578081fd5b6040516040810181811067ffffffffffffffff8211171561774a5761774a6178e9565b604052823581526020928301359281019290925250919050565b600080828403611a20811215617778578283fd5b61010080821215617787578384fd5b604080516060810167ffffffffffffffff82821081831117156177ac576177ac6178e9565b8184526177b98a8a617716565b83526080603f19870112156177cc578788fd5b83519550838601915085821081831117156177e9576177e96178e9565b5082526177f8888884016176ac565b845261780788608089016176ac565b602085015283602082015261781f8860c08901617716565b82820152809550505061783486828701617635565b925050509250929050565b901515815260200190565b6000821982111561785d5761785d6178d3565b500190565b600081600019048311821515161561787c5761787c6178d3565b500290565b600082821015617893576178936178d3565b500390565b60006000198214156178ac576178ac6178d3565b5060010190565b6000826178ce57634e487b7160e01b81526012600452602481fd5b500690565b634e487b7160e01b600052601160045260246000fd5b634e487b7160e01b600052604160045260246000fdfea2646970667358221220a188da5642bae2f2af9f8949e262d81fecf2830f161ebb5a989448df47c33cdf64736f6c63430008000033",
  "immutableReferences": {},
  "source": "// This file is MIT Licensed.\n//\n// Copyright 2017 Christian Reitwiessner\n// Permission is hereby granted, free of charge, to any person obtaining a copy of this software and associated documentation files (the \"Software\"), to deal in the Software without restriction, including without limitation the rights to use, copy, modify, merge, publish, distribute, sublicense, and/or sell copies of the Software, and to permit persons to whom the Software is furnished to do so, subject to the following conditions:\n// The above copyright notice and this permission notice shall be included in all copies or substantial portions of the Software.\n// THE SOFTWARE IS PROVIDED \"AS IS\", WITHOUT WARRANTY OF ANY KIND, EXPRESS OR IMPLIED, INCLUDING BUT NOT LIMITED TO THE WARRANTIES OF MERCHANTABILITY, FITNESS FOR A PARTICULAR PURPOSE AND NONINFRINGEMENT. IN NO EVENT SHALL THE AUTHORS OR COPYRIGHT HOLDERS BE LIABLE FOR ANY CLAIM, DAMAGES OR OTHER LIABILITY, WHETHER IN AN ACTION OF CONTRACT, TORT OR OTHERWISE, ARISING FROM, OUT OF OR IN CONNECTION WITH THE SOFTWARE OR THE USE OR OTHER DEALINGS IN THE SOFTWARE.\npragma solidity ^0.8.0;\nlibrary Pairing {\n    struct G1Point {\n        uint X;\n        uint Y;\n    }\n    // Encoding of field elements is: X[0] * z + X[1]\n    struct G2Point {\n        uint[2] X;\n        uint[2] Y;\n    }\n    /// @return the generator of G1\n    function P1() pure internal returns (G1Point memory) {\n        return G1Point(1, 2);\n    }\n    /// @return the generator of G2\n    function P2() pure internal returns (G2Point memory) {\n        return G2Point(\n            [10857046999023057135944570762232829481370756359578518086990519993285655852781,\n             11559732032986387107991004021392285783925812861821192530917403151452391805634],\n            [8495653923123431417604973247489272438418190587263600148770280649306958101930,\n             4082367875863433681332203403145435568316851327593401208105741076214120093531]\n        );\n    }\n    /// @return the negation of p, i.e. p.addition(p.negate()) should be zero.\n    function negate(G1Point memory p) pure internal returns (G1Point memory) {\n        // The prime q in the base field F_q for G1\n        uint q = 21888242871839275222246405745257275088696311157297823662689037894645226208583;\n        if (p.X == 0 && p.Y == 0)\n            return G1Point(0, 0);\n        return G1Point(p.X, q - (p.Y % q));\n    }\n    /// @return r the sum of two points of G1\n    function addition(G1Point memory p1, G1Point memory p2) internal view returns (G1Point memory r) {\n        uint[4] memory input;\n        input[0] = p1.X;\n        input[1] = p1.Y;\n        input[2] = p2.X;\n        input[3] = p2.Y;\n        bool success;\n        assembly {\n            success := staticcall(sub(gas(), 2000), 6, input, 0xc0, r, 0x60)\n            // Use \"invalid\" to make gas estimation work\n            switch success case 0 { invalid() }\n        }\n        require(success);\n    }\n\n\n    /// @return r the product of a point on G1 and a scalar, i.e.\n    /// p == p.scalar_mul(1) and p.addition(p) == p.scalar_mul(2) for all points p.\n    function scalar_mul(G1Point memory p, uint s) internal view returns (G1Point memory r) {\n        uint[3] memory input;\n        input[0] = p.X;\n        input[1] = p.Y;\n        input[2] = s;\n        bool success;\n        assembly {\n            success := staticcall(sub(gas(), 2000), 7, input, 0x80, r, 0x60)\n            // Use \"invalid\" to make gas estimation work\n            switch success case 0 { invalid() }\n        }\n        require (success);\n    }\n    /// @return the result of computing the pairing check\n    /// e(p1[0], p2[0]) *  .... * e(p1[n], p2[n]) == 1\n    /// For example pairing([P1(), P1().negate()], [P2(), P2()]) should\n    /// return true.\n    function pairing(G1Point[] memory p1, G2Point[] memory p2) internal view returns (bool) {\n        require(p1.length == p2.length);\n        uint elements = p1.length;\n        uint inputSize = elements * 6;\n        uint[] memory input = new uint[](inputSize);\n        for (uint i = 0; i < elements; i++)\n        {\n            input[i * 6 + 0] = p1[i].X;\n            input[i * 6 + 1] = p1[i].Y;\n            input[i * 6 + 2] = p2[i].X[1];\n            input[i * 6 + 3] = p2[i].X[0];\n            input[i * 6 + 4] = p2[i].Y[1];\n            input[i * 6 + 5] = p2[i].Y[0];\n        }\n        uint[1] memory out;\n        bool success;\n        assembly {\n            success := staticcall(sub(gas(), 2000), 8, add(input, 0x20), mul(inputSize, 0x20), out, 0x20)\n            // Use \"invalid\" to make gas estimation work\n            switch success case 0 { invalid() }\n        }\n        require(success);\n        return out[0] != 0;\n    }\n    /// Convenience method for a pairing check for two pairs.\n    function pairingProd2(G1Point memory a1, G2Point memory a2, G1Point memory b1, G2Point memory b2) internal view returns (bool) {\n        G1Point[] memory p1 = new G1Point[](2);\n        G2Point[] memory p2 = new G2Point[](2);\n        p1[0] = a1;\n        p1[1] = b1;\n        p2[0] = a2;\n        p2[1] = b2;\n        return pairing(p1, p2);\n    }\n    /// Convenience method for a pairing check for three pairs.\n    function pairingProd3(\n            G1Point memory a1, G2Point memory a2,\n            G1Point memory b1, G2Point memory b2,\n            G1Point memory c1, G2Point memory c2\n    ) internal view returns (bool) {\n        G1Point[] memory p1 = new G1Point[](3);\n        G2Point[] memory p2 = new G2Point[](3);\n        p1[0] = a1;\n        p1[1] = b1;\n        p1[2] = c1;\n        p2[0] = a2;\n        p2[1] = b2;\n        p2[2] = c2;\n        return pairing(p1, p2);\n    }\n    /// Convenience method for a pairing check for four pairs.\n    function pairingProd4(\n            G1Point memory a1, G2Point memory a2,\n            G1Point memory b1, G2Point memory b2,\n            G1Point memory c1, G2Point memory c2,\n            G1Point memory d1, G2Point memory d2\n    ) internal view returns (bool) {\n        G1Point[] memory p1 = new G1Point[](4);\n        G2Point[] memory p2 = new G2Point[](4);\n        p1[0] = a1;\n        p1[1] = b1;\n        p1[2] = c1;\n        p1[3] = d1;\n        p2[0] = a2;\n        p2[1] = b2;\n        p2[2] = c2;\n        p2[3] = d2;\n        return pairing(p1, p2);\n    }\n}\n\ncontract Verifier {\n    using Pairing for *;\n    struct VerifyingKey {\n        Pairing.G1Point alpha;\n        Pairing.G2Point beta;\n        Pairing.G2Point gamma;\n        Pairing.G2Point delta;\n        Pairing.G1Point[] gamma_abc;\n    }\n    struct Proof {\n        Pairing.G1Point a;\n        Pairing.G2Point b;\n        Pairing.G1Point c;\n    }\n    function verifyingKey() pure internal returns (VerifyingKey memory vk) {\n        vk.alpha = Pairing.G1Point(uint256(0x2abe75ae64f790cf09eb8e0558dee6cf979031b6b4869f4593db9116b4897f2d), uint256(0x25d45743a624164dc5fd917acc616dbb399b1fefb8402518c9b09a325aa04682));\n        vk.beta = Pairing.G2Point([uint256(0x079074587365453f6366f2ed8313d9d7ef5f8c3c07b406f05510f6dcb0e130f8), uint256(0x13212d2a13dc764ef52432ba592e302bdf1e1eff60e80e8aa9740ac511e13edc)], [uint256(0x1a96aa235d584be69cd04805a926d554f17a933092d37669374cad9c6280fecb), uint256(0x070f2369e9076021a87cca3d0df8ff1150c1d6b87b3239b3042fd7d2984ea66e)]);\n        vk.gamma = Pairing.G2Point([uint256(0x092a35d7c6aec30ffe60158fc8ee0db77f89e3cfde40c0e44c25235a00593407), uint256(0x2ca52416f2f8c47761adabaf624c154e1d1ea397a026a70bca69e5b21048b78c)], [uint256(0x072ba5ee7385b55ec4044d442316e2c769f5b3a3e5bd75b8148a516dabed49b6), uint256(0x01ef126bb2648ef866bdcc99d69e7ee18d345d9eefd1bae569197fa6eb45706c)]);\n        vk.delta = Pairing.G2Point([uint256(0x1f900da8112e85c7fdb8edf6c33062144420fa8ff1b7a5f9bbfc1777e24db819), uint256(0x07c4b5139957ab89b813f42290d2e22fac599dfc8f11251fe648e2dd87ae5d84)], [uint256(0x02dc2cc260d50a0a7ed638bca106e975f6fe6d66384ae2e29e8c5f5ca0b1d020), uint256(0x13f872fe811381992de9d56b806bffb986ba86ce3f95f0b69f5585871605bcc7)]);\n        vk.gamma_abc = new Pairing.G1Point[](202);\n        vk.gamma_abc[0] = Pairing.G1Point(uint256(0x072fd4221a1cca90ce96ed573f92f36fd75373acc70124fdd96cac010c4472aa), uint256(0x297558b8eb39eee965f6dfebe8a18597b5b0e4fe6401141d4e7672b7f4202b5e));\n        vk.gamma_abc[1] = Pairing.G1Point(uint256(0x1f28a88a33e033e966fbbfcf44932aa0e741c8e058093edabcd61683c1dc8c1c), uint256(0x1aed5d748c42df1f34ae26eb20747125b0d1a86b2fc493f483d72297a076df8a));\n        vk.gamma_abc[2] = Pairing.G1Point(uint256(0x123aff2e4301f318d8da09de5fc443fd492333c5dd2e4d5f9067deb92d5991ac), uint256(0x266507248f0982e601e6aeea5072a846dcd0c75a46122f2ff2d27dd147da67aa));\n        vk.gamma_abc[3] = Pairing.G1Point(uint256(0x17dfab993d98e78390774df9c6bdbdc0e135b599e8b4be91c8b77c60bad7b01c), uint256(0x07e5f6b50f16ffb15ce082bd6bcc549a20416feabb3d333cf59a7459c7176605));\n        vk.gamma_abc[4] = Pairing.G1Point(uint256(0x2c15fe76882b8b9be532fa40737e352bc97ec496068fa027c7f8f316811f4546), uint256(0x29206c520954bc2dac7db974773b7b5ba08f9c94a92fea159310ef7c49a3bfec));\n        vk.gamma_abc[5] = Pairing.G1Point(uint256(0x2f7e8407376270e39c2fee0420c158f15b44b3471e1af3c4f87d01422447f40c), uint256(0x1c0f605ad5bf1f48b294c0ff517ff0adb9f85bcb823618fd60aa5d76fa903adb));\n        vk.gamma_abc[6] = Pairing.G1Point(uint256(0x30250c3448418d66c9b208e0491af5026b7d28447c6e6d997576c048382a6bb5), uint256(0x0633910e39e6c3a492c10be3ba1579605f0c99e060b1ef25a695606503e46ffb));\n        vk.gamma_abc[7] = Pairing.G1Point(uint256(0x2005492f3c68dad7503185bcf3e93861e5e81558a96144ac922ab12dae51c63a), uint256(0x2c0719af688c0780fc73ea04d243a7492475350ca01d174ea48fb462ee0f9cfa));\n        vk.gamma_abc[8] = Pairing.G1Point(uint256(0x0c72e5167986c80cad332f1fc3e2cea451a2e3ece73101220533895b3be35ef3), uint256(0x0617f585ad1304d04166bc89c77cad08f2afdf14f73b10f99e02645db812cd2d));\n        vk.gamma_abc[9] = Pairing.G1Point(uint256(0x1e2f9b4d400953b09e8cb781e2a265b459ddd240511619a230c16bef53169ef0), uint256(0x028c111daaddd06dba6503ee3e9422809b6007e66bcc83658894c41923fadbb4));\n        vk.gamma_abc[10] = Pairing.G1Point(uint256(0x15364da5e10d6e84733c3acebd2acb53b485b6188de81a61f6af99ec38eff239), uint256(0x1092727e6cb632de9e65992ce7df26610444cbcec947c8cf98ee75b444f3e63c));\n        vk.gamma_abc[11] = Pairing.G1Point(uint256(0x2278756a12f3383ac1bf3a18119cc03ca638658d7faded3fdf8053dea2af96fc), uint256(0x18cc5acd275cc800bce293a8d11c1b681388534a574bcbcfb6242f55bf67ebfb));\n        vk.gamma_abc[12] = Pairing.G1Point(uint256(0x280b2de6dac12b4372232f9546cf3547ebbd6fabb60fffecd81120b000d4ea79), uint256(0x207f59e67e5c3098225647fa90d7d5e493245acf0269eb9824f3ec26abf4d0c3));\n        vk.gamma_abc[13] = Pairing.G1Point(uint256(0x0843425e174a13a6e58168f7fdec0067882ead38a12886be133e35832aafe3df), uint256(0x252c8400e4efb13d1b2351a0859add5699921b03c3cf928f97ccc456159925cf));\n        vk.gamma_abc[14] = Pairing.G1Point(uint256(0x13175a913acd0006e36e6076deea7fec78a79c3844225e838c8b1caa699cbcbc), uint256(0x0b17084e8122daca10a1c327c8bf4669aa46889b08af0a2155cee1c42d3b48f6));\n        vk.gamma_abc[15] = Pairing.G1Point(uint256(0x1550caf7c59bc3c4e366e7d16d8e4787ea234e7333b31e3304188b90ecb5239c), uint256(0x1dc4b3636f1be9acea55e3804e0815ea4b598faedf1f6f8908e45e1946d98f89));\n        vk.gamma_abc[16] = Pairing.G1Point(uint256(0x1d0ae7cea2ca64c1e6de016d823a1292f59d0122a381805a066ad8b34ceac7cf), uint256(0x15881d25fdf6fc5352b1891561f71a881edd716b5ba3cfc7f97d5b4005dd7019));\n        vk.gamma_abc[17] = Pairing.G1Point(uint256(0x0f7d9b753030290ad792a3b188c1db8c7115d6edb1f1db1032ac7cd9e3d72f4a), uint256(0x2d5a9b8bc42ed61d5c7b2b743be1b916a42b634bd60bdde24602cde298bc47e2));\n        vk.gamma_abc[18] = Pairing.G1Point(uint256(0x22eb7653916373ff4844b96da4e41025ebbce45114c04fb29dba57e00d3999d7), uint256(0x0900dfd24803cfce986c4fd591981d047106a7665eea56c1b624e973889b7da8));\n        vk.gamma_abc[19] = Pairing.G1Point(uint256(0x1f198d1c2e100c1d49c919e7876d11ce733e65eb194aae8026a175600175dbd2), uint256(0x03c34aa13fc3e0ebc6f8cf3222a9204709ab31524e47d6a850acf009e2f329ad));\n        vk.gamma_abc[20] = Pairing.G1Point(uint256(0x2d2f05808aba96d31d7f0cc7d27f8c0e7528756f7dce8b83b160e4d0b99f055a), uint256(0x20004e6929e67e6e5b02f086ae1dbc5a47991efd2469345925051d7c8f29691c));\n        vk.gamma_abc[21] = Pairing.G1Point(uint256(0x0b75debd3740659501243992d52fb54e4cf4da14af3a878b5c60bef9e4d02e54), uint256(0x2ad7c028a408a9c1ac2ee1ed4c686f0526161b53838c9513497a7944118328fd));\n        vk.gamma_abc[22] = Pairing.G1Point(uint256(0x12cd03f602f5308cb9271d8337a316e0d1722fb3a248f8c9934ffb434c537def), uint256(0x141a33eaac5c74857d26a70a94fc50ccb599fe1ccfffd8ebd9ff7def4b8d7cab));\n        vk.gamma_abc[23] = Pairing.G1Point(uint256(0x260ea2d5d8e7edd2f564888994db0e70079980937dd750cad99de451f1c98825), uint256(0x1745f82336fe23b38888e5a107bd35d33bebe9b556d16c355fe41b3b8aab8550));\n        vk.gamma_abc[24] = Pairing.G1Point(uint256(0x0901f1b23ae63614cb3ced428442e4562d4e67d53d0c9654255fd170fd1cfecd), uint256(0x10c86161a573ba39229c1a0e8ae34a536f482c23407ea0773ce8b8851bf01da1));\n        vk.gamma_abc[25] = Pairing.G1Point(uint256(0x2c750d04f24b699cd377a8ff06e36540110a70c2202cd644ba36104f6a904ea8), uint256(0x0964878390513499cbc7f7424b4320f6e8e23d2f496efe9a5b9cee0ca2cb511b));\n        vk.gamma_abc[26] = Pairing.G1Point(uint256(0x1faa8945efcce9d4a82619da3b858a2c5325436fdfad97df0331c2a50c60fb24), uint256(0x2cdac92a660f6a51b29bc2de3985292788a633ca9bcd15aa69342c6d26522144));\n        vk.gamma_abc[27] = Pairing.G1Point(uint256(0x00c56ee5d4b1096eda09ac30becb7993503f6ddc32e236e6f2f89b83daa49192), uint256(0x1d71ee25e3eb9080171c5a57778cf580deba90fd658f84bd42c5888a783892fb));\n        vk.gamma_abc[28] = Pairing.G1Point(uint256(0x2fd185ae23fe42aa8452ef6e083d1af64cb9c444b87a8fab6b8574cbe370bb61), uint256(0x20f4a0e3d63e5447cb303d4e3acd3d0f50c0a3443e387ecd2c5c70226a2ce826));\n        vk.gamma_abc[29] = Pairing.G1Point(uint256(0x1023ed44327b13a885de491383c72f0cb4ff5efed352f724f1f2f12c373a075b), uint256(0x1ec811c051c9e256ab07053b690b1274d73432d93e1b81667298fb685f7881f8));\n        vk.gamma_abc[30] = Pairing.G1Point(uint256(0x2dedf5429aaa23543b510dc3b97a6618bb0304387707297c49627902514588fd), uint256(0x023d52476b47ef39ab8b0f16e32785daa6d980227a65a5657b92966a89cc0e7d));\n        vk.gamma_abc[31] = Pairing.G1Point(uint256(0x22d5fd61284c66c013f4ccc711c34ba4fea76437da148a308200779c1b2f7da6), uint256(0x2d70a22069290e39ff34d2b4576994da7d71de9b9bbba7024a1dc052c3346b96));\n        vk.gamma_abc[32] = Pairing.G1Point(uint256(0x1e35349cb2f7d10947025c75144de9d149868eb17cce4a21b94d6183101af7a8), uint256(0x2a92ea2cd8f77cdc6e8c894bcc544cd820dfe582c754966f1225f096b38c2194));\n        vk.gamma_abc[33] = Pairing.G1Point(uint256(0x0cdc53f695f43f506aa1f4dcedcecc1761ecb3f4768670767be56d3ae31c5c92), uint256(0x2d5ad08752ea2f437686e0d4381cb7730a9477d854655bb96aa330dbf7080229));\n        vk.gamma_abc[34] = Pairing.G1Point(uint256(0x037b878e7ab32a1a32158797618ee03b5e3f45a1a3cb7657844017cee9eb2d44), uint256(0x03e6bc8ab2ad691ec41c0cd2facdc8f54f68deaea8250a99248c4c05ae0897ab));\n        vk.gamma_abc[35] = Pairing.G1Point(uint256(0x14b27d4816e2dc3dd5bef824d404f6b1832fecbdd1f5ad67d483d5e548989fa1), uint256(0x166bde5cbaba4312200730cd1c7d753b2479e9df4583b5f81f548b6dad4f8688));\n        vk.gamma_abc[36] = Pairing.G1Point(uint256(0x04850641fb90487f4863bccf60498802c59df0ad1577f28b9720a45e0d073474), uint256(0x24c40a6ec3ce7eb5af4df0d0a6d249b5089304475f756c313365fd183ab1f1b8));\n        vk.gamma_abc[37] = Pairing.G1Point(uint256(0x182ba20716f1216d5458798383ee351a544adf85dc55099a4addafdccd4f9c20), uint256(0x0b5da0bec0310a92ba787fb36ec91d236b22eab2b6c202b25f62871aa12da448));\n        vk.gamma_abc[38] = Pairing.G1Point(uint256(0x25b249c5a022b1c5d3d906961ac32d30a86e53761b1ad4e6479993fff1d62118), uint256(0x1eb2a8f9b8c58825580d807ef0bdd77669fbd0c6bdda32026d8220c751055366));\n        vk.gamma_abc[39] = Pairing.G1Point(uint256(0x2d85b2b488cc4e8623cd01ef71bef014fb1d582e86cb396ee7d61ace04ecaff7), uint256(0x24f5de7f2dcbe26d808cc0479cb581de06cca83cf634043f11b73614c80b1c84));\n        vk.gamma_abc[40] = Pairing.G1Point(uint256(0x269b817afa8eb6db5357c13496576c12cdfb1b91e715ab18715f8d6c9262f93c), uint256(0x20b0bf6142692460c7f1e57c6f768587595c13421be199cbdb18c845e9757d96));\n        vk.gamma_abc[41] = Pairing.G1Point(uint256(0x0ac259d8118cd1a89fc9dd72459d55275b5771ff37f2f2bf1e379fdc6eda43cd), uint256(0x0f7a284e10f5edd364375ff503f13453e48ff6ebc6aabcd0c9c5560d9d598105));\n        vk.gamma_abc[42] = Pairing.G1Point(uint256(0x1824feaddac46db87fbc7e4a08d4a0bf5b74331e2a5e30dc1defc858d967340f), uint256(0x1c23ad7f26c808d0569e07ec8d8a3c30fc845e319b842d7c4d52bb03baf910fa));\n        vk.gamma_abc[43] = Pairing.G1Point(uint256(0x0b7f5f05f8009ab03f2a9df95925edfa6454418c7149be8cb080dbfabf8e4869), uint256(0x1fae39d6ac1f4923ff250e5c44b63546471169f216071e58f3ba57787c60dec9));\n        vk.gamma_abc[44] = Pairing.G1Point(uint256(0x185785bab27020de086550a05baf4bd5f05f459209904f9bfbe736eff2900ece), uint256(0x0852d8d3eaa6ddca083c3bb499077e2988494d49400ceffead4455a480f27790));\n        vk.gamma_abc[45] = Pairing.G1Point(uint256(0x2bdcfc0a9403be527a818786e0dd55669bb4533332c71cd111c70741cca8e3b3), uint256(0x2f05976811c5d9f63bb2a375b88e645eeb4b5d1c01e89556806632e986089d84));\n        vk.gamma_abc[46] = Pairing.G1Point(uint256(0x0b39f57cf9e222d76cf78fbeac78e02f96f1d4d0feec29c2cb9e457d346a7d18), uint256(0x107f3dd3d0465e1660830e1412eb5ca25eae10471e4917214e217c340b6bbd2d));\n        vk.gamma_abc[47] = Pairing.G1Point(uint256(0x1f529985934c07977ca9527149eac75b6eea4e7f9de40666eccad9398a5bf7aa), uint256(0x2d86ada4b1122ac88987255802f0a8d22d5e66ad77a02a4c432a1529d650453c));\n        vk.gamma_abc[48] = Pairing.G1Point(uint256(0x07a40de29226a1f54bcdb283aa2d287c1c2363505b3100c6b3b7d7fabcdc0cb0), uint256(0x059ac82eb9b687d474adc07fdebcd32abc3e8bdee9403ba7c830ff622b54c264));\n        vk.gamma_abc[49] = Pairing.G1Point(uint256(0x1d6ba061a2b41eb09a680f4618a4b14a54251db480cd7aa46becd26497660f09), uint256(0x225b338cfe502a8d8d6764097102bc789696cccff9a6dce649a8975aa50d4207));\n        vk.gamma_abc[50] = Pairing.G1Point(uint256(0x2ce8707bfb675c9af4a42419c11736d70adaea0c98ded18d01b32d5cef446407), uint256(0x1f937b8a232c2be61e48204283bd9660a6102a570ff0cd583bd12a77c1c45d7a));\n        vk.gamma_abc[51] = Pairing.G1Point(uint256(0x21b2bda62b0325b156a4930c98b5876c87bd938745745aae81e3f56f1f7192e1), uint256(0x0bea57172d2f0b7d404a1e05cf7c1ad2cfb746932dc9976767fc33a67f956315));\n        vk.gamma_abc[52] = Pairing.G1Point(uint256(0x15497147cb8057ef18e89267df8a35fdd4ca34e08e1e6253d64e991606e2ca8b), uint256(0x0999477cccfc4c02f469e30dfa9eb421bfce0fc21239149cecf31a46cdd8ffb4));\n        vk.gamma_abc[53] = Pairing.G1Point(uint256(0x1f98502fc11912cb94a8f098537c6dc6f94880e1ed2083257d55f1e57579bd1b), uint256(0x0251fa60d4b3fb838da22ae1ea1b99b41bb114c18c8a767016d9fa5d5bfefe16));\n        vk.gamma_abc[54] = Pairing.G1Point(uint256(0x286dfa7a9f20457ba474281cbc6df47adbddcdb24b082d214e2feb8eb9dc763b), uint256(0x1b9c0d28fdd1ca92de9a656592669909bc30096232ea86b2cee38f5949e7a8b8));\n        vk.gamma_abc[55] = Pairing.G1Point(uint256(0x091e68e559bba4e2833dc5615dcc8767eff3af0674832b0c3bc71ec821e24d1e), uint256(0x20fe4096f40ab81c51b16bda935400ff62db5504ad1de261d0f070a106767801));\n        vk.gamma_abc[56] = Pairing.G1Point(uint256(0x13def61e9d59bafecb1a6e529502172068cbfa45845d521c4c3c00cc1cd501a9), uint256(0x1a5839e7ba074b308bd69a460b67fca3081284db7aabd43566c228294d56bd0b));\n        vk.gamma_abc[57] = Pairing.G1Point(uint256(0x1936214954bf0d7beb744910822059b05235ea17e24e22501da1eaedfabb1a49), uint256(0x117194b28adef16be9debdc3fa5d1b9d5e88ca894ce026760a6cf5fabe9cfab5));\n        vk.gamma_abc[58] = Pairing.G1Point(uint256(0x02855c550d56e5286deca7a875e457d7004675a54479c3ba8576236bf7b4f597), uint256(0x14b0734b37799431340bbbcafe543be036e58488e38b1e6432466310091259b8));\n        vk.gamma_abc[59] = Pairing.G1Point(uint256(0x0652dc05fe41da8570a76a37c01a091566da434d730c0e5a38b444f8944d6c75), uint256(0x161266d41727814550a58809da4a9f5194aa4c95324a9c3057f5e03f9eaf1422));\n        vk.gamma_abc[60] = Pairing.G1Point(uint256(0x10dac1f0aa7088c2254e097a38c094547b5840da81e0d3e6e30be7d025a67d53), uint256(0x145b625487aeafde4585f3438d210dc6b696192e85837c5bfa7dabe4eca08df9));\n        vk.gamma_abc[61] = Pairing.G1Point(uint256(0x257787e80caa4f18a17690f4a015c44d2923803707ee1168daf9673a5eae9648), uint256(0x14f24a1f0411486c33f884ff40b4512e48c521ae3630db713c74f17beeda2307));\n        vk.gamma_abc[62] = Pairing.G1Point(uint256(0x2f54ee6171f6965bc3a462f74ee91ff7dae918cb6bdae507bfdfc1e225354ed5), uint256(0x1b66afffca499fe5fb4fae0f2f2cd227b79e07b836aec774d8a96a10d5be2121));\n        vk.gamma_abc[63] = Pairing.G1Point(uint256(0x24e665a3cdf5453a34ae3860921875bdb9020617e32729193c042d713dd3668e), uint256(0x2ebdf0f7a1391a2be622304659f14d4c525f1063aeb0afc7329a006d52fc76d1));\n        vk.gamma_abc[64] = Pairing.G1Point(uint256(0x0fe685d7dd31d878c6e8bec5c59cb2fa56d6fd4dd7c90872b1e569d0c63db120), uint256(0x044cba65751b32abfecf0bb6f3b977d2ee76e9c7670fb2a6f5abff5c15aa9d45));\n        vk.gamma_abc[65] = Pairing.G1Point(uint256(0x2041a8115ce90687d9b037a98c476215366af7d6f1a84eb263f02c11139cca0f), uint256(0x2126b2e3218b0c2caaa6c51e1b0a71d16fea019af0d9b4ae70453dfc03db6327));\n        vk.gamma_abc[66] = Pairing.G1Point(uint256(0x0bde1d2fc7a9de47fb0cfe05e263760f88cc90a165499391e4d4e109e64d8307), uint256(0x0d6afa0820c495904d05ff476766776d96886817c1d8e74c25f4b7039df53818));\n        vk.gamma_abc[67] = Pairing.G1Point(uint256(0x1b4c5faffde90d30b939921a90e4fffa40e41e0904433a03e69ad9c7f1cde698), uint256(0x297740ed59525d6ee34a93a2517fd570ba6017f4eaa055c531c3a547774e1382));\n        vk.gamma_abc[68] = Pairing.G1Point(uint256(0x2c058b9303baa6cc1b08ab38fdf6bc3eeb0eee77bb7f426d6ed77cb69f56a9e4), uint256(0x279379c2ef4fae51c8d4cec674fb95fb05ecbbdbdb77627f879f6ac25cb34ee3));\n        vk.gamma_abc[69] = Pairing.G1Point(uint256(0x0d5958757597890ffb02d840f2a8b65ce534ec769372dc2984098c971bd3b907), uint256(0x2797f8b9dc5baf26739b2a84342d4e289c3668e34d15a5409995ee80c942fdd9));\n        vk.gamma_abc[70] = Pairing.G1Point(uint256(0x1e567f5dc8094d7c2ff4cc5da3a9350a4d266a6d9cddbfbbe068a3a0fc0d8c6a), uint256(0x212c51b12b7bd8bf17262b0f47df61b520819eb22f658439f00ca27a79d1879c));\n        vk.gamma_abc[71] = Pairing.G1Point(uint256(0x16acd144e0c4426c2c7a2f5b8ade14177bc9396a35b3e676fc81bf54d8243986), uint256(0x1e4e6c472f58dd392e7ea75a3574b5db080e996638db1daec8d839b2cde0809b));\n        vk.gamma_abc[72] = Pairing.G1Point(uint256(0x0de7811cde363c7673e1c3e0fbead1b5c945598feb7333d0082dad91946a66f8), uint256(0x0e2e7490c37aa15e123391caeb37f291b6f2d6adf444cfab893ceb5dfea92c42));\n        vk.gamma_abc[73] = Pairing.G1Point(uint256(0x1f029dbde19401ea30a1094296fbec2d428cfd53ea706637eafc4cbc190e9eb1), uint256(0x1457830d4acdc5b6a5f747e518f5c9f3f1bcb7e14aea3e22ede9377d5e9e5123));\n        vk.gamma_abc[74] = Pairing.G1Point(uint256(0x09b4c659bf0fdba2522dde85eb577396ffce6782fe3625efa53a05a0175f8698), uint256(0x027b926003fd7e74ea40e385aaa36d40c3374bcecc549639d5237c48b7455046));\n        vk.gamma_abc[75] = Pairing.G1Point(uint256(0x10cba92c306cd37294bd46b6e9f16b0b4f793f5441c6db9027100efefe829a78), uint256(0x0eb5fa212792ca09a3e7e6d05ec6eee5564697e970c389abb1eaceb7bc880049));\n        vk.gamma_abc[76] = Pairing.G1Point(uint256(0x25216ab5e7ee8d7039d012e06560b93b90f68aff6a02e4a32e49cbdfa561c4bb), uint256(0x09d5df952d3847c45727ef15622aa128c35b5280c06193177369d04531b018f2));\n        vk.gamma_abc[77] = Pairing.G1Point(uint256(0x0fb9164a77f0cfbde9da363f0d5b563830a9c498ba8e0e0ee300ae91ea285583), uint256(0x2e2abf5c8666f32a980f5b55bd61dd7836ab17d4859db611fc6eb721dbc7f0f6));\n        vk.gamma_abc[78] = Pairing.G1Point(uint256(0x090a0a6239652aa0f7a4ef0ec79636a33b83777333c4965fe65307848d27f0a6), uint256(0x29ce9abdf0ce052668db50f7ef21ccb0c79068e2aea88849c1a1fc44a94bad6c));\n        vk.gamma_abc[79] = Pairing.G1Point(uint256(0x02a01efc2ca0726392e9801c4c5e94b2239eb55098dc3719e247a595f273f12d), uint256(0x265e17bbd862a8bb1617d27e67f70e7bf7accb0e9b560558eb0a4a62e633cdc1));\n        vk.gamma_abc[80] = Pairing.G1Point(uint256(0x18709f10d66f9eabf909a0c8172e3b92110d431261fd748005d812fbab84e1d1), uint256(0x203e2744e58b0db88a8ba696b60c8cf3aa69413fd3dac9bc91398f41949198d9));\n        vk.gamma_abc[81] = Pairing.G1Point(uint256(0x09ad94f224a1910153dc6f4939e0e3d51fd6d9d532a321a7b26d0cc21ee1e380), uint256(0x0945b2d21788596195454a4a652d97080c58a9713b5358bc453564a64e8c88a6));\n        vk.gamma_abc[82] = Pairing.G1Point(uint256(0x001f177ae45139bb866f477a75b0b7f11d0e7052f2fa69bda846abadc2336b06), uint256(0x2cf365d154972cd4b866925eec90da5c8663db27f8eb665f54f95e411eb1e1fa));\n        vk.gamma_abc[83] = Pairing.G1Point(uint256(0x19191f9f832bede5c13c4cff14cc7dea48492dca8c5d1541b0dac323bba6b04b), uint256(0x0550aba8b5940d132395f53636e30870faf322678b463d49bbd3abd433b395f0));\n        vk.gamma_abc[84] = Pairing.G1Point(uint256(0x2674c78888dedf62b0a06309ce695e519362fddbe6b83ecec0f627931e123219), uint256(0x0e0a0b232d4b63c5a2a09c61486137a159858b8af379a45950c8ee6f5c424536));\n        vk.gamma_abc[85] = Pairing.G1Point(uint256(0x1c2cbaeb30bd19bb95effcbd012f91e74a34e0d016f92a8f9fb89c992f044534), uint256(0x02a9ab710d8173bd4cf81d244b6cbdac2538f5a4307c61eed1554fdaafea85a1));\n        vk.gamma_abc[86] = Pairing.G1Point(uint256(0x268bb12acf0b59b535d08a7f513e2d6684b79a7c589a743473d485649252b20c), uint256(0x129829207120af0302a9f54c0f2b86c8471c6ca530edeee5cda54cabe040a23f));\n        vk.gamma_abc[87] = Pairing.G1Point(uint256(0x0be5692507135f891a8ef7d2b5500f76e24668324e3e004bc617460ff30d4010), uint256(0x2d64dc262139896379ea4c27197db41caacb3bb4868204791ef13c0ad3902f1a));\n        vk.gamma_abc[88] = Pairing.G1Point(uint256(0x1b0b7889d36e71e16ee9c8d4653436468a4c57b1ace7dc4a4800517461a7cfbd), uint256(0x1bb5814b89cd10fbb88c5c204af69d90dd4c6b52d08a59baaa5682f995fbcc03));\n        vk.gamma_abc[89] = Pairing.G1Point(uint256(0x131e55c571135d2c57f751ddb7c81ee0af18cec19ff7c3c32ebe7a0adf2775ac), uint256(0x17d3208c28ac9fe7c102504a43227dd35af67c412cf94d3bee5138d977fe0490));\n        vk.gamma_abc[90] = Pairing.G1Point(uint256(0x1183fef1980f80693a2606c4678402de0e4cf9eea95bec67bc2d58607203adeb), uint256(0x167ec13b2a7756542077dcec2353b99ff5733b5f2d8a66bbba5de51ffe5aee78));\n        vk.gamma_abc[91] = Pairing.G1Point(uint256(0x1a80666e3ae37bfdc234ec37d68a19624e9e55614c26ebebf0ef3db8dda1bdfc), uint256(0x2ab4eb1c17bc147a13c2283553a0da63a870936d297c09681fe80f76475a2850));\n        vk.gamma_abc[92] = Pairing.G1Point(uint256(0x00bb1b17ccd9335e9e262f848912c71dba0c07ce48c26c1c4b4c57df76825271), uint256(0x1566b8750b7408275ef8c526074563205b3654e1c7570745b3b4ce8b12522e3b));\n        vk.gamma_abc[93] = Pairing.G1Point(uint256(0x2499c3f4def0176c2a7bf45ffc33e066da4e427fc797ca75ac1b8b64146e2e35), uint256(0x2156c9e136b749c3f62478a0ef602a4f6195a83e000ccee44f0498626745f8b7));\n        vk.gamma_abc[94] = Pairing.G1Point(uint256(0x24ed2fbe1e5b1642beeec53c1d4d73c0c283c2af714fb9922124912316e4c8f1), uint256(0x2ac92ed2f6a4724fa7e90a2eeba00761a467a7b576356b01717ee0e82ecd0f46));\n        vk.gamma_abc[95] = Pairing.G1Point(uint256(0x2f193097d1cd6bf64f737e152fc229a41e5b94ed44f4141769e29401a044f31f), uint256(0x104b425d2650d8a4d60cf294af683d6e538e2a33601ee1824b8c6afa8ca402cd));\n        vk.gamma_abc[96] = Pairing.G1Point(uint256(0x064b71ed0f31382f9985cf5350abf116a08eac67598cd506e20bb8a5dea2a511), uint256(0x24c83f0af26edaa6043bcb114fe84f251de03b7deecea3f23e0cd37d97027511));\n        vk.gamma_abc[97] = Pairing.G1Point(uint256(0x15205b59fac5c4259215c7ff8ab0d5ee660ab7d33861edbe5247e3dda1f1d887), uint256(0x1c91c6baea177b3c7baa730a81819a3602ce7458560aa2a6a62c9e2927d37b75));\n        vk.gamma_abc[98] = Pairing.G1Point(uint256(0x281513f590a12b62a1bc9de0815146daa6f2b7c0b73ae41d409c6c1f34c8b371), uint256(0x23bc71f21a20e00eac5b9e4fcd6a1b1ac0029229bc5e715d43cd511e40f2e8d6));\n        vk.gamma_abc[99] = Pairing.G1Point(uint256(0x034fb1398da7d4f777acd778dcf421ad8da928fb58839e4c8ec5eb6032072a90), uint256(0x1e234f0f8a4d1fc3fa3dc135d871c1d02520bc1a0509ff4600e82645852d0ee8));\n        vk.gamma_abc[100] = Pairing.G1Point(uint256(0x0f10d9b4b0bea41a91bf5499592a4e51130afdacc52d94846681304f1d3d4373), uint256(0x1c039b76f16641286250f7822147583b653d505cf094cee2ca74f315f0a1edbf));\n        vk.gamma_abc[101] = Pairing.G1Point(uint256(0x250db6ddb534993a75e132b115e00ecf24419e4b75745ace791dd3bb95902b6d), uint256(0x2553786bda3bfb48685c5ec67313376798b9bbf0479a540fbe73a919f229f133));\n        vk.gamma_abc[102] = Pairing.G1Point(uint256(0x07c0e1f817b47e6715b44ab5e51a9aa3d585b49c98ed6a282b70d473a4103c7c), uint256(0x290027c867f150638a82a7e2d27949603b1436e569d464f9c95882a651d36a16));\n        vk.gamma_abc[103] = Pairing.G1Point(uint256(0x0f7a5011b08ea0dce86f87c185e01c98b5e2a281fecafbca0860eb82437b99dd), uint256(0x0900e0487129290f4da947d13ace773c4bd9c637a0095dd7c919588e8f7a9e13));\n        vk.gamma_abc[104] = Pairing.G1Point(uint256(0x1428d8a18ce889031fbf16fd6076377a8081eeac5be5efc71d63197b4d263ed4), uint256(0x0323ff93351b3c805f5a64bbca794445387b125e278a7d32b09a91ca6eb753ea));\n        vk.gamma_abc[105] = Pairing.G1Point(uint256(0x1b503385db77edbd3e701b819aedc35018df441b31a16982f8e93517b82bb8be), uint256(0x0324edd697079784a611cd285093da1fa04d89f0f62134f5d8d32399125c4074));\n        vk.gamma_abc[106] = Pairing.G1Point(uint256(0x2e50ac1eb0534dc6722f3f38ceb5fb4b05022db5200fde0320a3e7f214b9b8b9), uint256(0x2ab2b8f917d9baebc14e00c97b888ec4b69ee48684b5ca3963ca19edf0a290a5));\n        vk.gamma_abc[107] = Pairing.G1Point(uint256(0x0f62e376b90d160af565d5b85de1de7a06f686fb8887b058ca44a159a9f0a299), uint256(0x001a2f08fc13a623b60426a5899a249b2e3d912f7879db27c51c9f42af19e38b));\n        vk.gamma_abc[108] = Pairing.G1Point(uint256(0x2e59df752cf12c3ce79b34dfc19be98ebe088f7d03966757f22b8dd6bb04e3fb), uint256(0x267778b5019a2393344c72979bfdb5d53d362120d8c032b419df9628fffd0b2d));\n        vk.gamma_abc[109] = Pairing.G1Point(uint256(0x1012a8ed071f1723fa37d79329b577306fbbaddbaf9dd1992842b798bf1c5b96), uint256(0x06a8bc99722922dcb6e18ebf8d177b59c2f85074b27664b001efb4f902e9c7c5));\n        vk.gamma_abc[110] = Pairing.G1Point(uint256(0x1a9466525002296e2b64591c16b689f4e861feba5ceed3bf892a150dddc64139), uint256(0x2c3b37ba63dabea6c31432646db41d8a95dded6be9c58d59bed94ba75414dc90));\n        vk.gamma_abc[111] = Pairing.G1Point(uint256(0x1bfb155c04c896dce17e96126ca80e415d0e59245ee67d124db23535ce02fc9c), uint256(0x2b9888760e48368a343ba31109ddd45df5f864bd713bdb4f43b5e17f1626f985));\n        vk.gamma_abc[112] = Pairing.G1Point(uint256(0x0c880f7f8bdbec57fb4c74fd3f158ca6bfeb952afca5704596246b8ac3bb35c3), uint256(0x08c9257289d95401ff0602f404025106f0a946b7143d91343767ac47c259a31e));\n        vk.gamma_abc[113] = Pairing.G1Point(uint256(0x15cd515a6aeaded199e0bc006de5b66605e323358b71355a6c61b6dd747eddf5), uint256(0x2d5e1e5a17fad3c6939b099991584d99b913fe2299871211bc7a9c527e3ee4be));\n        vk.gamma_abc[114] = Pairing.G1Point(uint256(0x0db7f930f0f8d30bf3ff125e8635fe78484cb1ef67f356b873043744f25ba84d), uint256(0x13318ba85de5268954478c1d94321caf43a5a1daab7c50b79ec69595726e1f31));\n        vk.gamma_abc[115] = Pairing.G1Point(uint256(0x1b4c07e7fab0bfdf5f69d78c531caf1d1649d624372a0dfe689b14c6bc5e9e08), uint256(0x096835510488a7be72ad23c519dff76a8be77c596fdd3eca27a78409590e60bf));\n        vk.gamma_abc[116] = Pairing.G1Point(uint256(0x230faed41eaaf5a953bf42c9ba08d26e83c14b2d2c5fcdab2a3bc27b12d7ed7d), uint256(0x266ed4287272f917d39e770335f4bd4aabc34e1a8d2ebaefff2ad212a233d9d0));\n        vk.gamma_abc[117] = Pairing.G1Point(uint256(0x0f80550d54e62a86f152ec81925eb9f8d897830963756e0ed08700993e3dc993), uint256(0x016cd91adeeacc52faf60c7ec445c316af4d3ae7f5b985a7fecb8503e5b6ed16));\n        vk.gamma_abc[118] = Pairing.G1Point(uint256(0x1284d4c3256f3b37c0ef567c9b6441ac7b635f7e368cee5e5fd22c643ec99547), uint256(0x183173bf8bc2ba951dfd301b3c06fcae449273360fda6bb628e340c82d138bc8));\n        vk.gamma_abc[119] = Pairing.G1Point(uint256(0x1dfca92b631f945696516b409b22045e170b469f4b3c3b89d3601473d6c1ccf9), uint256(0x00025ba2855e71a9bc12c5335cfa552f27e56c1901ef2076118a2ae3498679d3));\n        vk.gamma_abc[120] = Pairing.G1Point(uint256(0x01c0ef7e1e55ad5486483be27fe49a845166f68fbe94c4af803f1c59068c4c02), uint256(0x1d8990c63a420a60c8df36090840b8bc844c70159efcee2091f0a6b9a4b90928));\n        vk.gamma_abc[121] = Pairing.G1Point(uint256(0x19acec3d674ea75ba507264ee1f9c36240c23e2099801b8154fb63f352991cc5), uint256(0x0e24a4ed5c4120cfac930a88887dec641ae0cf75e57c43d98bc135659adcc1ab));\n        vk.gamma_abc[122] = Pairing.G1Point(uint256(0x0741680527a54acbdbc66a3e9a372a9a3a677f5c162e3e797486dadcd343bbf0), uint256(0x0395ca5f0ecc7a066ffff134ef7a76809e7bdc3064798c2485256655965ec0e7));\n        vk.gamma_abc[123] = Pairing.G1Point(uint256(0x090014c8900ad8bbc502cf3b48246fa37908fbc1b075161d026233dd69a36b73), uint256(0x276f16cfb47235f2d347cab79b6e63cfb658fa8d89947a10d86a4bfbf0139821));\n        vk.gamma_abc[124] = Pairing.G1Point(uint256(0x2d80ad97a49ef182577bb722c34111cc09b704a8f2494cd7408b100ebf48a48b), uint256(0x2ff1224b42f511a31621927eb5ab1b3dda04b9ab9f434ce78af75c2538873d95));\n        vk.gamma_abc[125] = Pairing.G1Point(uint256(0x18be0b6fcdd9f238c8592e91f4e4a5392cf6d48306b3b43539e0dec4d9a2c2ea), uint256(0x07ec1e2361165c66d0db1983c35cba7faf6e027bc3ed3dd81beefdacce09ebc8));\n        vk.gamma_abc[126] = Pairing.G1Point(uint256(0x2264432cabc69d1666aa397c753d3215fa45486fc6966444f746770eaa2c5cfd), uint256(0x246ddb8764da81db6f56e3c49f127c601e1eba7962ba764c8e583cccda80c9de));\n        vk.gamma_abc[127] = Pairing.G1Point(uint256(0x2296147f5c3e6cc007e476ba2ac5d8e8115e85d5e9a69d3a67aad5767e5ae9fa), uint256(0x241a00769b173e04320d938f7ed9c19e96fb83f3b6bef5b713354c2cd9ac4203));\n        vk.gamma_abc[128] = Pairing.G1Point(uint256(0x167214b20cb1a11d901a93bbe15cdcb2af54eb858f4e62393f7d11f65cff75cb), uint256(0x1ad14533e1ba5461b7f5147487d7af706722d8127716cebdcc97243b6e88b182));\n        vk.gamma_abc[129] = Pairing.G1Point(uint256(0x05e4a92997430942d7f73b5035b81f79de27ffc2742394ab8db5cad7d133b73a), uint256(0x021f800dff6351a20046cdb3b6d499e0c5202cb47c3e3a3740bd94a4aed3fa70));\n        vk.gamma_abc[130] = Pairing.G1Point(uint256(0x2c99c470e3fb30def4fec178707169e1177e0a9d9584208c3d293e6311be728e), uint256(0x18761fcdca52102cdc520a2e786ed5d48242536019ec1eb289d5200e985a6384));\n        vk.gamma_abc[131] = Pairing.G1Point(uint256(0x0c7f6e5aa74a530e510992972f05effaacae428221d101dc3fc1d72ee4027f8e), uint256(0x291924f23c999a06cf310b2c0ae437fcdd106fed386fb6c6cdab7753aad2119d));\n        vk.gamma_abc[132] = Pairing.G1Point(uint256(0x22281a8fd998fd47679bef6f46154e902b810f3f1479ca41898854643acc6331), uint256(0x23d266dfaf48de2c8d1bae1c59b4234fc15e3b46473ccf513d9129cff199a841));\n        vk.gamma_abc[133] = Pairing.G1Point(uint256(0x0631f733ad60d7e42c8b2e6ea5c171f104d37b630413566740e0f4b839151b7b), uint256(0x12a328c2f3d7dafb478fa2ed43639e015afb43e3c77e16bb6f055cbd0289c494));\n        vk.gamma_abc[134] = Pairing.G1Point(uint256(0x295676d53bc4dd98b4bc49ac126f01348da9012e888bb9e72be5384936fc179d), uint256(0x1d116446f178846e49cc6ea40e48f21bb09c3351256c20ec38c10d361b62a70e));\n        vk.gamma_abc[135] = Pairing.G1Point(uint256(0x090a1bb3a4e78bb535b4892492f77f5ce400070767af98049604c1e574364d6b), uint256(0x2a09b332e9d97dfbe687792ae185f450ddc2e9f2f047ea0bf1a27f34cbfe0630));\n        vk.gamma_abc[136] = Pairing.G1Point(uint256(0x1b1ed78001fcf47e9eae08f7030d4a27d6f9c3f92a350af8924b6b1d71247d7b), uint256(0x257e83b9b2c6b1f0722b28c4b98977cea690b5bb4437e50a42dc7bba4852a0a9));\n        vk.gamma_abc[137] = Pairing.G1Point(uint256(0x0c00c644d530a0601a35112fc47f5b94aaed557d0533b2bf2fb8748ff252b9f6), uint256(0x25f59ad8fa8c8aaa0dcf52af0d50cfced5dfafdd9a142135d7cb28475d51d8bc));\n        vk.gamma_abc[138] = Pairing.G1Point(uint256(0x2de1a7fd51e20d267d040ed3d5e664db948b4512bf7ae5a05a101890636f164f), uint256(0x1b453ba3ccb06581dece377066e3c5443213485accc567c1a4bfc82f56b2a5da));\n        vk.gamma_abc[139] = Pairing.G1Point(uint256(0x2f6fc6e5917e4104b51d5c82746b68794677a0ba5d93c32726d2f2f6ef0112e9), uint256(0x157ae6c35589bf3f7151a197485129d555e38349363e777133d2ed29e75e1606));\n        vk.gamma_abc[140] = Pairing.G1Point(uint256(0x174e1072f17cacc1f95c59999a343aaaa2b65f28428304e5b25b19b32309ae1c), uint256(0x222bcf954c3c6c37de33a5539ae9480a5e40de4c15a639dd037ab36cefff3e0b));\n        vk.gamma_abc[141] = Pairing.G1Point(uint256(0x08c4c613fc4105892a5823c555b379b72cb14103db62caef49efecb029a2155b), uint256(0x0a4604a5aa8d38f59b01ccfc74916a47d88d13dd85346bef520d92ac4eb99dc1));\n        vk.gamma_abc[142] = Pairing.G1Point(uint256(0x219a8d307a9ee3cb5b516024a567508bd9544c6c7fea806037b77e913ad5a2e2), uint256(0x07631765970e907213d040b2b2bfcaa538fb5798349aa1a24a80ac96c247fb96));\n        vk.gamma_abc[143] = Pairing.G1Point(uint256(0x08df5b40f357a425921bfd8ccb1df78d0c14d4128c4393481bdec16283af2059), uint256(0x05abbe578d83644c43e74992479e09f1d84e1cd83154846092955b29ab825cab));\n        vk.gamma_abc[144] = Pairing.G1Point(uint256(0x133a25dedd71f1e7edd722e49cf64a8a1b0c7f5d97d2eeb4db7a1670049e93dc), uint256(0x1ac3c3ba6e6d36b93e120e0c4264231919ccaf0b69bdfc81e68d15922aacf766));\n        vk.gamma_abc[145] = Pairing.G1Point(uint256(0x2a99ee5cfde9ed08a471da348776de49bf284b2fa6a5d3ac5884d30dc47158ad), uint256(0x1fbb6f78ac839a1aa9b1f43c98437c435f7f4c613e6d27f92a982ebfa7319054));\n        vk.gamma_abc[146] = Pairing.G1Point(uint256(0x2f6338070f8c6b1a3d7c8f52fd5cd581e7cf4d021455f11bed74c565ac2bbf2a), uint256(0x266988d12ecefd4887ed472db97795238de87aef6bf7c1f0d54f397a08496e8c));\n        vk.gamma_abc[147] = Pairing.G1Point(uint256(0x1f63b341869d4fa13e70f9710886094daed77086359124e3e82333c67363eaf2), uint256(0x180a9f11d742c19639f11df1a5aeb7ff55b5b4acdabbdf8ea07687d68195e3e1));\n        vk.gamma_abc[148] = Pairing.G1Point(uint256(0x01fdfff16998e14037a31c28cd622498d6b94e9d24ab279a24e8918202beff14), uint256(0x0f15843884940e15b2616fb3277102fbf34395c5469afa780cabb14cd30bec5d));\n        vk.gamma_abc[149] = Pairing.G1Point(uint256(0x03b5bba84d1f37c1b4192350b4673b82f741eb6eeeaa87168ccb67f48d611649), uint256(0x14f68ca4d19b45e1ce3a5354cb47a5e47eb65f2d5158c8a1a1bad8d2b9877e7c));\n        vk.gamma_abc[150] = Pairing.G1Point(uint256(0x10921bcb889ab9f6c26a528fb1f36f288b8d1ce92d1149457b697d03b8829147), uint256(0x01b0e0f44292e47cbd2387fcbdc2fb5bc4180c8b4558289a8447c57114cfb0a7));\n        vk.gamma_abc[151] = Pairing.G1Point(uint256(0x1e178ff55de3ccc7d387fdaa4a69537768ad724a1a57ffe1f77977c65464cf5f), uint256(0x0c6fde2d3b002ffff0ac2ab0327e17eab188d36aea85b2f3eab25b484a694a9b));\n        vk.gamma_abc[152] = Pairing.G1Point(uint256(0x148e80319b48b52e40f5d6e5a430bce8728b24eac147db68663b4a768a98b191), uint256(0x2aaa546eadb2acd0fd8e720c2e5a853d17eaf6401139b619c88c0b9f5101e43a));\n        vk.gamma_abc[153] = Pairing.G1Point(uint256(0x10306c2e43e86aed5a08555817b67c2c7e887238a6b1e53001cd4f72c1595251), uint256(0x02695ae08f5a55735ab0078072af9e008660440256d11735e157bd3b3df6c1b7));\n        vk.gamma_abc[154] = Pairing.G1Point(uint256(0x281ad530e0adeb4b5b8172987a72932e741d3a7f3b56919d3b814b406adefad8), uint256(0x2ce1656fde7b8806ed35426657dcb14a93121bec62d558a04b3029b8d231a04c));\n        vk.gamma_abc[155] = Pairing.G1Point(uint256(0x041d5ed83fe34b5eef7937c861ff8c4efb31adfb242d69c27e3be9d265ad66a5), uint256(0x19962e23483027e8a629c1dc250f7210a545eed5e00e451b86b1e83e4d43159b));\n        vk.gamma_abc[156] = Pairing.G1Point(uint256(0x245e57862741a93f106b9267cc24f909e027dc26e3c37cc858abd0d1be628a00), uint256(0x002249e57864081ff1ab29aff2cb7d52eb9d32642e2f4f47480b2bcdd2d13a26));\n        vk.gamma_abc[157] = Pairing.G1Point(uint256(0x2ae4b3f63980f4d542fc260ee0c7b3e37f44899fff1e633944f0eb095bf8a6b1), uint256(0x1af21289917cb300f2021371d6bbd84f19de188876e42bfd91388f2f52a8ea2c));\n        vk.gamma_abc[158] = Pairing.G1Point(uint256(0x11606a9ad1aec93802d38e4ff8f8319c6354cce68f1fadda2430b43ab4f028fc), uint256(0x2900e8d8b07c70e6af7e1ffa286284b38050b57d63c5b40a107ec45b94422d71));\n        vk.gamma_abc[159] = Pairing.G1Point(uint256(0x04ccc0da1d81c1ea927a3236c7debaba7c20b986172d9772056370b7a18cde75), uint256(0x22dc2ef75f644092042719c730f37a66ac1e45b6ec85a9c6d1f18ef5cff8afae));\n        vk.gamma_abc[160] = Pairing.G1Point(uint256(0x26dc9a405d3299c767b73262f7ba47296b34e1851f56313cc6530af3a155fa2f), uint256(0x0ab45bb7ce4751ddc42ca9f9b753cee828a4c9d0b978f80e8a0a5ad229f5a0fd));\n        vk.gamma_abc[161] = Pairing.G1Point(uint256(0x28e07d5c8f1088c2131209efa3100bca6fc270e8a6e3ae937b9f74e43fd3c9c6), uint256(0x1b3191e9683e5f4340e4fee744637c58057fc8d4f5d125345cc54320e022fb65));\n        vk.gamma_abc[162] = Pairing.G1Point(uint256(0x12dde6ed24b1740c3a368b6737344f3c38ae3d86ccd44886f6e67240bc8541ee), uint256(0x1f3f29bfd6efa18d21e4c59b90a5a45c98fd0f43469fce0b3a9d8de3edf919de));\n        vk.gamma_abc[163] = Pairing.G1Point(uint256(0x222b92ff34642a83c73ed2ac2391f61bdfd4c06c8390e9fb99f7f940cae3c321), uint256(0x06358c544acb257209d99a8b601cbdd91fa27af70f8855d06ce378c2dc22ff05));\n        vk.gamma_abc[164] = Pairing.G1Point(uint256(0x28f48d0f015aa1939bcc5c7fa9434b8929dab4e14d54753e93e8f276eededec1), uint256(0x1a923804f40281336d987acf430fbd7873260969ef634ea3d0232027bdd46dc6));\n        vk.gamma_abc[165] = Pairing.G1Point(uint256(0x141a28d2064961cea7d8c9777a96df929b7aeb175f2ac1d240c40d276f41b9a6), uint256(0x15673d910586dd2b46caab148a3d14698477902fe04b92298fd2c9c375dacb92));\n        vk.gamma_abc[166] = Pairing.G1Point(uint256(0x0b028630952ecdc69ff625c2436b612cabc71aa7914bd1c6e6585e88da5d5172), uint256(0x0e37a3364e14511c76311e991c7c216333438a0aecac9bdf6d02f6d2016994ca));\n        vk.gamma_abc[167] = Pairing.G1Point(uint256(0x112bd703ecbe9b931a7333930cc6b86cb62797b069c5e415025cc90f8f148fa0), uint256(0x2147bdd0336a33aed6991af04616ebc07cf27a8f94a8c8d2be6f5ec8afee0f7e));\n        vk.gamma_abc[168] = Pairing.G1Point(uint256(0x192e8b6c757f8b8b003bd8f8790a134eaff90424d3330bb61f78af59776ae918), uint256(0x24434aade35dccf87569caa76cd39f0e01d5958d72a156c6bc7f1287a9d85f22));\n        vk.gamma_abc[169] = Pairing.G1Point(uint256(0x00a4a3747b0376c64e661ea1cf97b3b7ac336a338955619297852cdc3d67119b), uint256(0x0be5a4cd54b6ea7b0599a50fa9bbc73940591316cad76a9b1852f9a2d054d26c));\n        vk.gamma_abc[170] = Pairing.G1Point(uint256(0x0d1edaff53fbfa1f1e41cbe0cf42263f99a5e96b1ae4d4c903fea636004a7a6e), uint256(0x28d000a40409411fd45584019ae9d3275f3aa17cea86b17aad35bc26268b793f));\n        vk.gamma_abc[171] = Pairing.G1Point(uint256(0x19de9f45f08024b38a0ff7b0ab88ec4562389746f3f4ac4c3bf3f69268d5ee01), uint256(0x2912a78cf79792ad340ecbf574eab8c347eacf1e3014774d1f7314fa83218a4e));\n        vk.gamma_abc[172] = Pairing.G1Point(uint256(0x11030dbdb0718b46f9262194850e015c6f93b1786992d517874dac27da176d2e), uint256(0x2565bcae9ace45f3798627ca3f4ed7bf731c2918ca681e6817082b8668fbbd8e));\n        vk.gamma_abc[173] = Pairing.G1Point(uint256(0x0635fb7d72f8110b368a12024403e09c6b1da954a87cfa2de431ffc1294b2956), uint256(0x08bb3551f2f1ad4c451ce42fc4c0d9299849fffc10d4dff34a50eb2317419017));\n        vk.gamma_abc[174] = Pairing.G1Point(uint256(0x02b6ba5494fa6c82af6d9406a6c639c9b9c30fab4dac52fdb8da6f8138b14556), uint256(0x1dc9bace51abcc2733d21fb2eb7923d45596a9960dbdb7bcdd18f5ed7db84623));\n        vk.gamma_abc[175] = Pairing.G1Point(uint256(0x184501da456dbfe67727715bf29f730355ef549f1cc5de2db2b66d8647cb3d62), uint256(0x081b91e2044422e79fbd1282bfce289320d4f2ae929320eba10a9d57b26d616f));\n        vk.gamma_abc[176] = Pairing.G1Point(uint256(0x10f77ecdf16503ed563e054ac3f751338526088d758a96b7e527b977b8173407), uint256(0x0cf1bdfa98d98ee51c4284a70b18ec2a4a431dc3624613f2b168f7fde412c270));\n        vk.gamma_abc[177] = Pairing.G1Point(uint256(0x1ba0eef5384e0549265202da0ffb3802173541cdb621b88f0cd100bd95aa7d52), uint256(0x2ff9ad5dea7685298907fe64735eb5dbfaf95d4e0b4f1bf57e61ef3d05039759));\n        vk.gamma_abc[178] = Pairing.G1Point(uint256(0x1d2644fde6b58d264cdaacd45b5e6c7c325206610e8541ce37af92bc1d3e14ac), uint256(0x20b51ec4ad54353b3764d3d6a00953e9c095f47c9b86f9ed5516b4d6990ab07f));\n        vk.gamma_abc[179] = Pairing.G1Point(uint256(0x0e5e4ff61b0ab7a04663107c448cfb55ae795f1b3d1ecaf717f5ae7b466d151b), uint256(0x1345f621a3671b3f8a29dddbb4a59721c14eed8c327e0636ed2f3e583e1b035f));\n        vk.gamma_abc[180] = Pairing.G1Point(uint256(0x0fbd2e2c4b5019b5eff746704025750cb83a168512b88d793ac1f2044bd8b09c), uint256(0x1edb440b40df424fc6b0172007115b6550c8424439d4cb387461ab8717c3f430));\n        vk.gamma_abc[181] = Pairing.G1Point(uint256(0x11a556dd1b39743d7d36ff050c04a95cabbdbb9a38e4cb31c6703e8ff8124b64), uint256(0x0842b9c941657357e3cc5fc0e622f9d54e23c1bf3ce3260866d3359dbf94ba94));\n        vk.gamma_abc[182] = Pairing.G1Point(uint256(0x290b32d2352379f4501874ae458435eafee70eaf991fc46d705ce3bbd23c3eb6), uint256(0x2bf6787f2257f3bcc41d259f4453c1a4024ecbde86b9dedc90d87a76f8fe5924));\n        vk.gamma_abc[183] = Pairing.G1Point(uint256(0x0bdfccdb4ce82b2faf51890fda850fac41ae97b46a3293be2179de8bc505fcee), uint256(0x0f085a6d66917e52600e1ad3fe34624012beb58ad5d68a6c57cfdfa3f5d0238f));\n        vk.gamma_abc[184] = Pairing.G1Point(uint256(0x2ef7fb2eb8d3895630f65e3ad931b4f27edc8304a688c2a7c6466fead3e257fe), uint256(0x220104121d46c29a62df1b4bd5bf4473c70957b3c9291dc3784c6377784b0d22));\n        vk.gamma_abc[185] = Pairing.G1Point(uint256(0x247dce7509f2672b800f77a3d404a87386f69a1ad3afbfe5e1abe276aa771f6b), uint256(0x16abd8e191d2765954dfad445a956878de7c2629819cfa308dec27b06eb0372b));\n        vk.gamma_abc[186] = Pairing.G1Point(uint256(0x19278743f633abd667698662c345483daf8cd58e83a7227d46e6522f5f8fa62b), uint256(0x17c3e893bd1d55748104135fcdfc3206e79ef32c4326277391ca1dd040065a04));\n        vk.gamma_abc[187] = Pairing.G1Point(uint256(0x28066c6152ea89db4c4d97676aad04549195175e93195609dac92fb682b1f85c), uint256(0x04bedac958a1c62f46439dee09b765125dba171c3e60361e6f59277b89feca8c));\n        vk.gamma_abc[188] = Pairing.G1Point(uint256(0x14dcf80638e33103c273094958c0dde555fcb24856ab9320dedc00a22d380ac5), uint256(0x22e2598bbd7962afb65b3240f499684b273da750fa48ae20054e2ea625fc4bda));\n        vk.gamma_abc[189] = Pairing.G1Point(uint256(0x149cfeff8b604fe455175b9a9613d2bdb24a4bfe5b54e2d6a4aed8131bcf0293), uint256(0x2c6ff74b7899045b025f5a7e9d6340e57f428d4fdfb8ecc4f03b792165473cf2));\n        vk.gamma_abc[190] = Pairing.G1Point(uint256(0x16d8bca35c77e7aff62781dead2d9dbd0a0667d718d1db15a7043cb2160cbda0), uint256(0x270cbdf3fcd873dbb63e098ed4ceb1091a839a85bbb84658bcd49f7a147315b2));\n        vk.gamma_abc[191] = Pairing.G1Point(uint256(0x06c7b3af65efd57945003ecc7c219680b83e93866dfb438bab6b3140edc966f2), uint256(0x2c324ebd7b0863d3bd0f20b902614bd34509e98f59c3443ef0c9225f508ebdeb));\n        vk.gamma_abc[192] = Pairing.G1Point(uint256(0x27dc0fb2affdcf892188846bfab52e4c8a284d76480c58795acdd06771389c1b), uint256(0x29a55f26f3f69a48c6281f25de653bc3cd884b02fe726f40961fe7b6b08c23f6));\n        vk.gamma_abc[193] = Pairing.G1Point(uint256(0x0022855728b98826294374350bd4baf2f27bb2e4fd2de590b903ced455154686), uint256(0x146490ea64e8fddada057eb1ee49dae944e0be385dfc88ac26dfc0b696db1ff9));\n        vk.gamma_abc[194] = Pairing.G1Point(uint256(0x01ee13cd45cc8f944002053ed83b9008811d9985b16429f40c103df5da0dcd34), uint256(0x0ed2e806d89bd80367b46cd433c74d621d698526ef398c5f6a0dae7548aa6473));\n        vk.gamma_abc[195] = Pairing.G1Point(uint256(0x1c3938403f5ae607198f8f601caaae7fdebaafe4995888d14689469aa6010139), uint256(0x2b84eb825afbeac850dd778780a97249106f686b2eb70fd34790725ba2f2645b));\n        vk.gamma_abc[196] = Pairing.G1Point(uint256(0x2198cb7106126c671c733cbb106c5805400a661fbd42d4b750f22ace1b7ebff2), uint256(0x10b8bbd7c01af84e489cbdd4f9669c30a1053e49d990505606072366c34a7542));\n        vk.gamma_abc[197] = Pairing.G1Point(uint256(0x1eea770e3a581d9c9b91f95c0b35c336b5b3c09ca5eb3d9fb9c5ecc925a02ce0), uint256(0x0af34d0425368e7895e695419e99e880a5edf88a0810e97add341a55f201ada6));\n        vk.gamma_abc[198] = Pairing.G1Point(uint256(0x0d89dd2cd39d99dc662e8cbb782a2402f29a96648f955a6a5d98f0dd7d33abe3), uint256(0x2e35cd3878f5c8180d1adf79bde4e6b11ed1c1917f817f1b766e24acafb0aa3a));\n        vk.gamma_abc[199] = Pairing.G1Point(uint256(0x0c6032feec0bdb1fea79cca77edf1842983b8392c660008d52ac576718caf278), uint256(0x0e1a3e3da2c72bb0799890d6ff277e169985e038ba6d1c91c2f004ed470c43ff));\n        vk.gamma_abc[200] = Pairing.G1Point(uint256(0x0540653d758f8ab41472513ace8e50489406a3d89131084371e7bbbbb2c29494), uint256(0x0707984710e2f9ef9bc7e1d78c1bc1d97dc4dd90c64fffa3605b6cd2c71b8542));\n        vk.gamma_abc[201] = Pairing.G1Point(uint256(0x304e404ff68d8990413a1f5978b3353ad0fda2f75fecd9f710675c4b249036a6), uint256(0x0d87f12707c6244e22370334dc72e662bd8b5785ccd020861bf04c76b79fa25b));\n    }\n    function verify(uint[] memory input, Proof memory proof) internal view returns (uint) {\n        uint256 snark_scalar_field = 21888242871839275222246405745257275088548364400416034343698204186575808495617;\n        VerifyingKey memory vk = verifyingKey();\n        require(input.length + 1 == vk.gamma_abc.length);\n        // Compute the linear combination vk_x\n        Pairing.G1Point memory vk_x = Pairing.G1Point(0, 0);\n        for (uint i = 0; i < input.length; i++) {\n            require(input[i] < snark_scalar_field);\n            vk_x = Pairing.addition(vk_x, Pairing.scalar_mul(vk.gamma_abc[i + 1], input[i]));\n        }\n        vk_x = Pairing.addition(vk_x, vk.gamma_abc[0]);\n        if(!Pairing.pairingProd4(\n             proof.a, proof.b,\n             Pairing.negate(vk_x), vk.gamma,\n             Pairing.negate(proof.c), vk.delta,\n             Pairing.negate(vk.alpha), vk.beta)) return 1;\n        return 0;\n    }\n    function verifyTx(\n            Proof memory proof, uint[201] memory input\n        ) public view returns (bool r) {\n        uint[] memory inputValues = new uint[](201);\n        \n        for(uint i = 0; i < input.length; i++){\n            inputValues[i] = input[i];\n        }\n        if (verify(inputValues, proof) == 0) {\n            return true;\n        } else {\n            return false;\n        }\n    }\n}\n",
  "sourcePath": "/Users/chaehyeon/Documents/DPNM/2023/TUB/Advancing-Blockchain-Based-Federated-Learning-Through-Verifiable-Off-Chain-Computations/Blockchain/Truffle/contracts/verifier.sol",
  "compiler": {
    "name": "solc",
    "version": "0.8.0+commit.c7dfd78e.Emscripten.clang"
  },
  "schemaVersion": "3.4.16",
  "updatedAt": "2023-11-15T00:42:42.317Z",
  "networkType": "ethereum",
  "devdoc": {
    "kind": "dev",
    "methods": {},
    "version": 1
  },
  "userdoc": {
    "kind": "user",
    "methods": {},
    "version": 1
  }
}