{
  "contractName": "Verifier",
  "abi": [
    {
      "inputs": [
        {
          "components": [
            {
              "components": [
                {
                  "internalType": "uint256",
                  "name": "X",
                  "type": "uint256"
                },
                {
                  "internalType": "uint256",
                  "name": "Y",
                  "type": "uint256"
                }
              ],
              "internalType": "struct Pairing.G1Point",
              "name": "a",
              "type": "tuple"
            },
            {
              "components": [
                {
                  "internalType": "uint256[2]",
                  "name": "X",
                  "type": "uint256[2]"
                },
                {
                  "internalType": "uint256[2]",
                  "name": "Y",
                  "type": "uint256[2]"
                }
              ],
              "internalType": "struct Pairing.G2Point",
              "name": "b",
              "type": "tuple"
            },
            {
              "components": [
                {
                  "internalType": "uint256",
                  "name": "X",
                  "type": "uint256"
                },
                {
                  "internalType": "uint256",
                  "name": "Y",
                  "type": "uint256"
                }
              ],
              "internalType": "struct Pairing.G1Point",
              "name": "c",
              "type": "tuple"
            }
          ],
          "internalType": "struct Verifier.Proof",
          "name": "proof",
          "type": "tuple"
        },
        {
          "internalType": "uint256[201]",
          "name": "input",
          "type": "uint256[201]"
        }
      ],
      "name": "verifyTx",
      "outputs": [
        {
          "internalType": "bool",
          "name": "r",
          "type": "bool"
        }
      ],
      "stateMutability": "view",
      "type": "function",
      "constant": true
    }
  ],
  "bytecode": "0x608060405234801561001057600080fd5b5061793380620000216000396000f3fe608060405234801561001057600080fd5b506004361061002b5760003560e01c8063197ae65314610030575b600080fd5b61004361003e366004617762565b610059565b604051610050919061783d565b60405180910390f35b6040805160c98082526119408201909252600091829190602082016119208036833701905050905060005b60c98110156100ef57838160c981106100ad57634e487b7160e01b600052603260045260246000fd5b60200201518282815181106100d257634e487b7160e01b600052603260045260246000fd5b6020908102919091010152806100e781617896565b915050610084565b506100fa8185610114565b61010857600191505061010e565b60009150505b92915050565b60007f30644e72e131a029b85045b68181585d2833e84879b9709143e1f593f0000001816101406102cf565b9050806080015151855160016101569190617848565b1461016057600080fd5b604080518082019091526000808252602082018190525b865181101561023857838782815181106101a157634e487b7160e01b600052603260045260246000fd5b6020026020010151106101b357600080fd5b6102248261021f85608001518460016101cc9190617848565b815181106101ea57634e487b7160e01b600052603260045260246000fd5b60200260200101518a858151811061021257634e487b7160e01b600052603260045260246000fd5b6020026020010151616e59565b616eb1565b91508061023081617896565b915050610177565b5061026f81836080015160008151811061026257634e487b7160e01b600052603260045260246000fd5b6020026020010151616eb1565b90506102b38560000151866020015161028784616eff565b85604001516102998a60400151616eff565b606088015188516102a990616eff565b8960200151616f94565b6102c3576001935050505061010e565b50600095945050505050565b6102d7617535565b6040805180820182527f05743e7feefed4b25e38ca6e6edadf0a4c60aa9d34ce05ddd8a7754a3050ddce81527f1eec2db4babd68523b6077534b0c3e4606c00d4ac63f8b8add0ac47a58ac3c9d6020808301919091529083528151608080820184527f16d755f5b3a36fc214d934d48e8692b38ea5ff550c2ebf3ac492c36446aa20418285019081527f0285fe713fdd4fb00a18d60d34533e581ab7055762c66851221f5c2aa1e9e456606080850191909152908352845180860186527f296e6735a027e6531a0f757af792f0704c751ce7cc9b2507dad65a58d33c12de81527f2d5d19ba396b481668b1b1b29712e9e9221d1177d80b638884377dad001591bc818601528385015285840192909252835180820185527f12ba468dc330205bc15354719bc5a46257dde0e94a3b78c615125302e47837098186019081527f2efff7137b24a4924bee4e3e9aee8496b315cd1d03a1c0a1e74ad0db67c08158828501528152845180860186527e4547c6026fe280a6f7afa168c2f2394a2eb38c792cc5008cd78d323b44dc4d81527f09084a5c08659e95ea9aefc3a1b27b847f60b1fd53749a0a13d0a19d2b0160a3818601528185015285850152835190810184527f026181a75ca7b6a235f5f87a1111ef254ac558259b9d2fc2a6c9146dca2ca0028185019081527f2db77f3b4857982f6cc91245120bf651b28beba534d76f642fc99dede1ddf594828401528152835180850185527f0109069e21cc56d7ccf046f8669a4c505763fb5b20f490152f7d0f41a201bfff81527f2f8b0173b0084a8e99f71562907e9f7273fae947a479aa49e1ca5e2fc6ad6df9818501528184015290840152815160ca8082526119608201909352919082015b61055a61757c565b81526020019060019003908161055257505060808201908152604080518082019091527f1310a1b3b11cfc500b55bb6a5acf5f407c807ffbf8a49e19189e7d3e3aea30c181527f17c80691f62fa92bca93f290335bf9bcedc2308b1de882b5e99c79ee15de2b096020820152905180516000906105e757634e487b7160e01b600052603260045260246000fd5b602002602001018190525060405180604001604052807f1a395dff4f41788c2f254bd68cfa7ad9fcbd1d803d0a9e247ad53da81ffd27ec81526020017f1de9a2e5e9754a4cd839fa762781f2e21257133d82f70c332a7b3a498470c7ea815250816080015160018151811061066c57634e487b7160e01b600052603260045260246000fd5b602002602001018190525060405180604001604052807f146d351845594a3701a04866fed9264405b4b1e4fb57874748605be03e032ded81526020017f271019131a87cd3ce84b63b9870fad9b2494709b7cb99c8a83becf15af218b4f81525081608001516002815181106106f157634e487b7160e01b600052603260045260246000fd5b602002602001018190525060405180604001604052807f1e9bb68ad82a461b0d1ad37a453ff9516e50b73cf0e7b5b65e8555d691ff34eb81526020017f024a51edb9d5ae05a19f1108ee4f2d24fa1ce8af0179f349b7698cdbe1f07e7d815250816080015160038151811061077657634e487b7160e01b600052603260045260246000fd5b602002602001018190525060405180604001604052807f1a54890c81a76cdca884253be327e94a078d3eac6b30f9f55f9f0893acfdbf7881526020017f1df164efd74fdd3b80dcc613d973bf78c7acefe624da20a6e56138c2772797d181525081608001516004815181106107fb57634e487b7160e01b600052603260045260246000fd5b602002602001018190525060405180604001604052807f0ebb009e930249252b43b01840bf0a0a1d56fd64801a9bf5b15c89f8b2e1c91f81526020017f2e32c71adf2fc8783507de973ba6946b8eddbab508bb0d06f5557876c72aae36815250816080015160058151811061088057634e487b7160e01b600052603260045260246000fd5b602002602001018190525060405180604001604052807f01c8551e99254c464f8a777c97317c383f992e7d62b8b94ab4a7e4698bc1bb5581526020017f1a820836fa2a71b6d9322390e8fdfe3dc892f6d375940f0bd21bd29ab3a6f938815250816080015160068151811061090557634e487b7160e01b600052603260045260246000fd5b602002602001018190525060405180604001604052807f0e4a0a87be73c535d491350d778075c203eea9cedacb2fe12379a2254bae854d81526020017f04fa543ad20d0640b5b0ba95fa53261962758d132e6dc5dcfa6a0a168388d146815250816080015160078151811061098a57634e487b7160e01b600052603260045260246000fd5b602002602001018190525060405180604001604052807e7c6ce20a905dc50b9b04b373ff24a3c1e33a313863f8faa5b0ef256298c8b781526020017f17f537830d2ea0e275bd85eb431424e27ab1abfd0d0aad401105e03e8595718d8152508160800151600881518110610a0e57634e487b7160e01b600052603260045260246000fd5b602002602001018190525060405180604001604052807f1495ee2bb6cce793838822ff10ac5534139e04615965c4de79aa77f849bd29dc81526020017f16e13df086a6d2331f2c53c4a8d5dc653bf6e64158b28ca9a1fd52fc4cefb05f8152508160800151600981518110610a9357634e487b7160e01b600052603260045260246000fd5b602002602001018190525060405180604001604052807f2cd013deb0608035691b37be6ccce1bcbb0ba52decee0d2a90137b1ffbc0052181526020017f2c32dd2f5c1a1303d0385b2721b961ffde78bc901f5ca9cdc596babc87604feb8152508160800151600a81518110610b1857634e487b7160e01b600052603260045260246000fd5b602002602001018190525060405180604001604052807f14866ef830985d8416f1adfb3aa1f4b16dc75cff0cfcb38768a70e82870749b581526020017f26746d79a0bc01fa63a4b2a57fc60c8304d7fe3d8bfa5093cc7d6410212da2218152508160800151600b81518110610b9d57634e487b7160e01b600052603260045260246000fd5b602002602001018190525060405180604001604052807f0349d8f529587f594631ba6190205d9d28ef0a6b023dd86b303ff677b941e26f81526020017f01f620337f1c2a3e897e8af468f5a8c1586c5bc9ef887ad251005a38728a3a508152508160800151600c81518110610c2257634e487b7160e01b600052603260045260246000fd5b602002602001018190525060405180604001604052807f1dbd9f71bf696ef5d60f4b2d3ffac8e9e6d20b8dc27fd7a9501569ded1838ccb81526020017f11bead958b93665eb3fc1a6014c30fa082865ff53620641895f6ff78f80015cb8152508160800151600d81518110610ca757634e487b7160e01b600052603260045260246000fd5b602002602001018190525060405180604001604052807f2a5ea74bec80e937a021f6b0a5661eb7f646b67ab7bc63214fef79b1a88411dc81526020017f19223bd4b225eb59a9fee6425d048407b486bdecf3ad7c0a34add4a5ff3cb7948152508160800151600e81518110610d2c57634e487b7160e01b600052603260045260246000fd5b602002602001018190525060405180604001604052807f1a75c7529c880e1565622befb74e4ab16fdc6d0278d458a5088aa59a26aefb4e81526020017f2485f68c6423bee248257e992fad5d7046fd9cb909130b89ff8bfc511703ae728152508160800151600f81518110610db157634e487b7160e01b600052603260045260246000fd5b602002602001018190525060405180604001604052807f1a0e4f8dd7b02618fb60dc3ab20e97e69f1328c79917aef1b204384e8c088a4f81526020017f1b6e8156c33077d50d0890bd27ad94fb992dbce08bd44cb1334cece3889c12f08152508160800151601081518110610e3657634e487b7160e01b600052603260045260246000fd5b602002602001018190525060405180604001604052807f0695b397a99b921fbbf28643231d65891983e51d5f58d6aa8ad6a8b645af53e681526020017f18358722860e5e8f71d834975ff013f44dbf9904b04fe85c71a49b0899ede82d8152508160800151601181518110610ebb57634e487b7160e01b600052603260045260246000fd5b602002602001018190525060405180604001604052807f038d7bc5a93c8a96a156eb8380a9a3a9dda120b314284597f447e15f85c7cdf681526020017f2227b6d8237cbf324752babf286133c718b26dd5c1e05dcafe374453538ec3f78152508160800151601281518110610f4057634e487b7160e01b600052603260045260246000fd5b602002602001018190525060405180604001604052807f27b0fc5937c30babcb6c8804bf15ec1916ff1d8d65f88646d162a7dff4db435881526020017f2349afdc943715aa877535c869c5b4cf1fd5a1e2f1866ccfaf2ad13f8e5ea05b8152508160800151601381518110610fc557634e487b7160e01b600052603260045260246000fd5b602002602001018190525060405180604001604052807f13b499f0c333d70945d31aa83fa52899e9d18f1bfb4597d45bb00507cace88fd81526020017f14e7ac2d01cc77d516ba4f443d432dc059e46068531a73f6f32fa2cfc227ac24815250816080015160148151811061104a57634e487b7160e01b600052603260045260246000fd5b602002602001018190525060405180604001604052807f224682330042249f1f2e838469415fe0ab55e829e5ff6fc0d3deea4ed2118d0281526020017f2ed3aeaab5d446b46a427ef45416dabde7c782fbee73d754aa1133d19fd378db81525081608001516015815181106110cf57634e487b7160e01b600052603260045260246000fd5b602002602001018190525060405180604001604052807f1aa532403ceb3fa3431c0697583338dc338dc7318db71e6356b2a6c639d80f5f81526020017f20d6adb41fda8acd2640baefbdd15f21b8600908f8d78e82344dfd6abdb6e7e2815250816080015160168151811061115457634e487b7160e01b600052603260045260246000fd5b602002602001018190525060405180604001604052807f04fca7981e1b82a696a4004cca8eeb9023e15bccb0a58e29309ec2f86ef4ff6981526020017f0a820416bb824655ecb92567d06eee832801a52f3f795f810340aea2df658dda81525081608001516017815181106111d957634e487b7160e01b600052603260045260246000fd5b602002602001018190525060405180604001604052807f2bec61f0cee0c75f30eb94d26274c0bfd31a197467461460e8a89a455c01cfcb81526020017f234d749f829858d5936229549bbbec639bf38cf1d1866dd8d8949f3121140c44815250816080015160188151811061125e57634e487b7160e01b600052603260045260246000fd5b602002602001018190525060405180604001604052807f01df53c4cc1ab4ee0864ae47926480591e198fbb026b9971a35b8b2cb7223e1181526020017f0d8fe30d99535fa164f1720aeaabed6375e392025ccd0dbbcdbffc724c41c01b81525081608001516019815181106112e357634e487b7160e01b600052603260045260246000fd5b602002602001018190525060405180604001604052807f149a5eb0758984d921dd791895af0d9564bbc30ac893b568747d14810066d31c81526020017f01597b06ca092f26cdf607ba48e38872a77dfe8670d4e398bd86c469fd899b218152508160800151601a8151811061136857634e487b7160e01b600052603260045260246000fd5b602002602001018190525060405180604001604052807f2bf05fa7c048fdf3f9fa291b27be46457ed1d39093344e7c61deb7b63dada1e881526020017f20bffc01477f546eba1affe2e5c443b251655117fae9ad5dd75487cb15d5ec498152508160800151601b815181106113ed57634e487b7160e01b600052603260045260246000fd5b602002602001018190525060405180604001604052807f1aa4d4817586c1f7bfd54fe589b614598fc45b8048370702ddd7d62ff92347b081526020017f10f67549409576fdfd48bcc430fbff01f7f27eb2b3db45b5896ad977794dd51d8152508160800151601c8151811061147257634e487b7160e01b600052603260045260246000fd5b602002602001018190525060405180604001604052807f1f8856d8d78853384d7e6670ed5aa8107ae4d442fa3add08cb9be0e18d648ad181526020017f2119f213e699cc60b1058bc14c279bda297c3b0a531c22da2aef32c70e14f4058152508160800151601d815181106114f757634e487b7160e01b600052603260045260246000fd5b602002602001018190525060405180604001604052807f0f2001ce3247dd4442e4641e20539de2037d1d7c14a9fa5adaf4480ea667ce6181526020017f0dab389898ad92bb933cd345dd2190b549ab8ace726ca78ee36eddf6b35f01df8152508160800151601e8151811061157c57634e487b7160e01b600052603260045260246000fd5b602002602001018190525060405180604001604052807f2967c20ad765180c072ddc86848653665ac4377ff2f6ba7bb57a98bc72e9d00a81526020017f2900251390ef1326f98512b9cb2ba4e0d861fa2f0e803c1f65710d9f9de7365e8152508160800151601f8151811061160157634e487b7160e01b600052603260045260246000fd5b602002602001018190525060405180604001604052807f12a88aeaa93b1be7e2d81ce726275526401f1b164eb55ef38ab5b17f0d2f290e81526020017f119639f32c1355e06c48a39d060a0908f885b40d2b31e4e530b9931803f76486815250816080015160208151811061168657634e487b7160e01b600052603260045260246000fd5b602002602001018190525060405180604001604052807f2a091d2efb540c662d548d56ebb5899b9ba94faa49cb4f7e55abec8507a2108581526020017f214323cf8a7ad998f6bc982df15480fab86ef86ddd17a4095e9a62d8619bb9f6815250816080015160218151811061170b57634e487b7160e01b600052603260045260246000fd5b602002602001018190525060405180604001604052807e46852954cc515ba73378bf2409edf5322e8e01d28c11211202b63227c526cc81526020017f27439287d7418393f316777925af12f9bdfc4ec122e9b16cf1e6ba470f87d3db815250816080015160228151811061178f57634e487b7160e01b600052603260045260246000fd5b602002602001018190525060405180604001604052807f23674d2cec07f2afa284267b126905764508e4e7d16fa5d42aa40cd68722318b81526020017f0159dd53082875516527bfc04c6d24b3ebb445ba76f385891296a02101507839815250816080015160238151811061181457634e487b7160e01b600052603260045260246000fd5b602002602001018190525060405180604001604052807f28aab349ec928b0350f254b85514b41a74df40d0a86042cb806fb89a93d3c98881526020017f17a6c8ff0b1e59d52a667b79a280f407ae1fba573826c6c71adb6a267bb8df1d815250816080015160248151811061189957634e487b7160e01b600052603260045260246000fd5b602002602001018190525060405180604001604052807f0f367a4489fb6e8d27d23febd6da638379afae724ef0dea283071ea688a670b581526020017f2054e6083dd13bf5a5c2cf300b49ba1bc9362e540bea79fe4426ab9e31440e14815250816080015160258151811061191e57634e487b7160e01b600052603260045260246000fd5b602002602001018190525060405180604001604052807f02a28116e1f4560ede5d033152c9ad0fa06e58952fcd8387f7cea4abe103b14981526020017f213d365c02b7f8e5971969925fefa70f63a840b7f83ef8270e9be42fa7f99f8581525081608001516026815181106119a357634e487b7160e01b600052603260045260246000fd5b602002602001018190525060405180604001604052807f13246a44248bcd70b8443f0afa1f93c10d1e31f4f7ab20940604eb4365858d9d81526020017f1e6a0fe68c2d96c5e7d2ea846ad493f4376c13dd610506910561cdbeedc10f388152508160800151602781518110611a2857634e487b7160e01b600052603260045260246000fd5b602002602001018190525060405180604001604052807f2cc14f23cdd5a7847eeb78d29799d266b001f905138af41a6f9253621c60662781526020017f11774e3f4218b16b93f9cba214f94fcbd242890998f6a3ed3ec0bec467c79d0c8152508160800151602881518110611aad57634e487b7160e01b600052603260045260246000fd5b602002602001018190525060405180604001604052807f1c44b4e8526a42adf671154978c7c76f45f6047f6f2ecc8bcda5eedfd50ac3f581526020017f14de6edf5cb3bfddf4495e062715b71c2d512b33503aea75f839b9165bfc88528152508160800151602981518110611b3257634e487b7160e01b600052603260045260246000fd5b602002602001018190525060405180604001604052807f16428a066ec11f5057273faa8d9cf83f2ccdf64be82df16ffb8db10d9de7719c81526020017f1625b23782d77762be24d4c083f6bccbc412c3d0ed8cf6399df45cfdee8bd5838152508160800151602a81518110611bb757634e487b7160e01b600052603260045260246000fd5b602002602001018190525060405180604001604052807f0232de7844e05dc3300db833d45cace2af594c06ba679648040043d38c5db58d81526020017f08d1a7542ab1058d270bec660d16bec6edace00892b81e3cd5f9ee769391b3538152508160800151602b81518110611c3c57634e487b7160e01b600052603260045260246000fd5b602002602001018190525060405180604001604052807f1776d0f6f439ab245e213ecca0521b5d22ddc1a740a64b37c445bace0b0d339481526020017f215a172a02967c2b2b5c06617706c85fc72329c98d284dd39131c777f1e2c56f8152508160800151602c81518110611cc157634e487b7160e01b600052603260045260246000fd5b602002602001018190525060405180604001604052807f11355d638b27a3605076da2a29d2f9be664d85f7db4df889a40b6cd7e6b50c7881526020017f14bb546daccc7575d7c8588bed15d4bc60d299788092eb123e30baa5c9884c9b8152508160800151602d81518110611d4657634e487b7160e01b600052603260045260246000fd5b602002602001018190525060405180604001604052807f2a7cf6d04577ab16c4849535563f6682c0a0da0c88616b438e6dc9664b059ec781526020017f30051aa46636fe4f7f7091232dc8ef7dad0155eb81d721a1d2b395b64e001f148152508160800151602e81518110611dcb57634e487b7160e01b600052603260045260246000fd5b602002602001018190525060405180604001604052807f19d82a6baed268a624cb9b0eae10481783d3c07badb00295877764f5cd41d62b81526020017f0e1c22f61a878848216184eb20d2f5ed7682b1b837ada7819f2c62cb619463938152508160800151602f81518110611e5057634e487b7160e01b600052603260045260246000fd5b602002602001018190525060405180604001604052807f0ff6a6caec39fa1ebba2ec17d478f04e988da47e1e7e17aefab0d348e63558ec81526020017f1b3736f43f0c2170e5d156d519f9067f96927ed156fdca061b5ebf77b4e3412f8152508160800151603081518110611ed557634e487b7160e01b600052603260045260246000fd5b602002602001018190525060405180604001604052807f10df9c88ece30757b443e4bddc3d451eb8e909b6f770fc1c9454e3e97c72cbb781526020017f1950437242bd7dcfd031ec22a22d674ca9a3405a7386d8ed9f833563348460648152508160800151603181518110611f5a57634e487b7160e01b600052603260045260246000fd5b602002602001018190525060405180604001604052807f204fb9c139cf5869174f130a13fabdf0fcc8b1c8c5b484093e09bdb7aaadbba081526020017f0efc346b6abebd392d826eb94aba8e01916889bb2c62fe6e51a67ad8a47e0e8f8152508160800151603281518110611fdf57634e487b7160e01b600052603260045260246000fd5b602002602001018190525060405180604001604052807f27d3d02e2844765d7a74f9b96c7edef77c0c56211fe933e6bab529e97f71655581526020017f20b17f989e0d2d7948fd20a2ed8b9da6c25bbdcdb98aa0d37a71c6a9b2e79ca4815250816080015160338151811061206457634e487b7160e01b600052603260045260246000fd5b602002602001018190525060405180604001604052807f137c86dfa242b62da0edf58f6a8893c82279b6d9a308e4304a990a1ddbde7e4d81526020017f0435e152599c73165eb698c2a704ec93e66108600a451d9a80a5f6cdbee17d4781525081608001516034815181106120e957634e487b7160e01b600052603260045260246000fd5b602002602001018190525060405180604001604052807f2642f109806daa73ed7135f6860c62a23ca9c1c8011349aa94d8917ba4cd54a681526020017f2e15fc535ce28aa824806006ff3ede4915c3625ef85f99d5dd4c414ff5bc2b84815250816080015160358151811061216e57634e487b7160e01b600052603260045260246000fd5b602002602001018190525060405180604001604052807eef498b9a67463986f6c3344f69148bd42b7182a2e7c25ce5a0174c62d7cc6581526020017f2a991b4f5941eb8a1a8e6090266c439d2fa53279c2a42b7622e7a0102737ef4c81525081608001516036815181106121f257634e487b7160e01b600052603260045260246000fd5b602002602001018190525060405180604001604052807f10d456720ae9e50d152fdb28c9bd488fb83cd99207602778caca5137d921188981526020017f0cb7ee0cf0ed9ed151e1df796ba4093c33c3a0730c1ec7eb3e6d32edf139143d815250816080015160378151811061227757634e487b7160e01b600052603260045260246000fd5b602002602001018190525060405180604001604052807f2e40ed9747373af6e13a2e11d3a918234adc89dd5fff517698e628837523e3ff81526020017f256c742ea58154c39f0f6a5b44058c54020ad96713879c6ec1403393179ef8ad81525081608001516038815181106122fc57634e487b7160e01b600052603260045260246000fd5b602002602001018190525060405180604001604052807f2a3c6b5a9b575a6c4cdcc469e613b47daf20c14cbb473f26c775ab3c24320cab81526020017f2d5b4e96a7e6dd895c066136ad560649bd75343e77008f6e102b8a8701b9edd1815250816080015160398151811061238157634e487b7160e01b600052603260045260246000fd5b602002602001018190525060405180604001604052807f2d5e71adfb15d53bf6bd9e9b14f19196295ea80258116a2f90398a43953ac6e181526020017f25add021d3f382d37ee376b3c759cb45d4d42f536ca69b4ebfbba95d6b4394278152508160800151603a8151811061240657634e487b7160e01b600052603260045260246000fd5b602002602001018190525060405180604001604052807f186fc9811d4f86e20aedf91e3d869026d049ed78375c720ee672b7427971aad381526020017f045f0d5b0f6c9b4e395c4550400dfcd9e1f6db8e2b9e1f0969f9ee1fa42279d68152508160800151603b8151811061248b57634e487b7160e01b600052603260045260246000fd5b602002602001018190525060405180604001604052807f07c55c4d9d36c3f34c07faab448e1d52f670a6882e8ad22e3cc7d99d52a0cc2181526020017f29ee34bbcf51c1ae88266ad4dbbc7afed106c017eaa3a90f177ff6d4027d930b8152508160800151603c8151811061251057634e487b7160e01b600052603260045260246000fd5b602002602001018190525060405180604001604052807f09d64dbe49c1b521691780d4fb90da1769b50bef238d12886618623b3119069481526020017f1a968d51886917dbedee5df9c02f443142e38c2a1d670e0130df58cb5961bb848152508160800151603d8151811061259557634e487b7160e01b600052603260045260246000fd5b602002602001018190525060405180604001604052807f043f67bb12bfe88821351fe8a46f7e23708cc115c09552990ed455b40ac2ceba81526020017f1c7a9895b2f34384040a29078b1a774c0a44b979ae590844833b0b9fc0b8563c8152508160800151603e8151811061261a57634e487b7160e01b600052603260045260246000fd5b602002602001018190525060405180604001604052807f286b3d090d41cf3dd4e35871def18b6e56f24542801841f94bee29f983f8275081526020017f153e7a62f83c422cb9ab7a5d00381a41870ccaa71ed6986221b6da6d54abf25f8152508160800151603f8151811061269f57634e487b7160e01b600052603260045260246000fd5b602002602001018190525060405180604001604052807f03488a14006070705ef5d2581e9a323cdcc6ee5ca3010b8b04cfb90751f5cf6e81526020017f2ff921391cc02e32653d058033c9435aab5b951327e9b757b06b76c24acb37d0815250816080015160408151811061272457634e487b7160e01b600052603260045260246000fd5b602002602001018190525060405180604001604052807f2e7b390bfcbbf8a15dd6167e0a8a89b01566a3b3aa8a4e0f58a9c17c7b07559681526020017f0aeda2caab99b27e29d119f2b7f0c29c2d159e905f605951315c81105a1db10081525081608001516041815181106127a957634e487b7160e01b600052603260045260246000fd5b602002602001018190525060405180604001604052807f116e76d1a05045aa16ee79109c50cee2d5caf0fbfea61edd6bc167d7b39cb84f81526020017f20a32d87ad40d78febffc4c8d95e4b0814a1e16e39c110a2d40f87404ac8dcd4815250816080015160428151811061282e57634e487b7160e01b600052603260045260246000fd5b602002602001018190525060405180604001604052807e061f0704ffbc8a8c3e327b094e1bf0161da5d13286967556c94467eddd1f2b81526020017f1c09b1606ec03abcec84ada6445794496155d60c1f17259605bfef415bf1d02781525081608001516043815181106128b257634e487b7160e01b600052603260045260246000fd5b602002602001018190525060405180604001604052807f0e5f23377a7947e08eb3928939af03ff55ca454cc6eeb008726e008c3138ddf381526020017f1869b124c4048d80c359c6bd712c78efa5553aec5c5cf87faa415b39f6471183815250816080015160448151811061293757634e487b7160e01b600052603260045260246000fd5b602002602001018190525060405180604001604052807f1c4e978a21b865820a53360678c76f3fb428ed81e8e24b1fdd34aac737dd1d7f81526020017f14f1286677a6db4c73da7f733df2d08a3553ff0639ec301c1ec12d1634cfee6281525081608001516045815181106129bc57634e487b7160e01b600052603260045260246000fd5b602002602001018190525060405180604001604052807f03aecbc00ff412d083cb5b4e41acc45ae78080212abf95166fe94c4db0f5e68981526020017f058f6f026aadb4d2cd9fd9b48e9db07c3e9001bcff49923df4dd89733166c9e38152508160800151604681518110612a4157634e487b7160e01b600052603260045260246000fd5b602002602001018190525060405180604001604052807f23d398a68892c2badc9bd96f611dca133fafd2ab61ca1e94ef957ea9b063294381526020017f07d1e0ee95aacc666d9eb90822bf178fe4158ea24b320e9afe17028449c368b68152508160800151604781518110612ac657634e487b7160e01b600052603260045260246000fd5b602002602001018190525060405180604001604052807f075c620e54d387ddb4bf6d7e4786701a1aefa0ae83f1a2aebb68864a34ef4fa981526020017f268cda36ce5892f22ddd6e4ca913b5af052e50108330ae29f2902a32f666b7078152508160800151604881518110612b4b57634e487b7160e01b600052603260045260246000fd5b602002602001018190525060405180604001604052807f07ef2e32e8051bf4ab1edc083d84107475545aae75ef71e0584574ca41d4c65d81526020017f108c8ea877ef9c1e218df701d3b4b031aaf64acc68e26c689a241d7f848505128152508160800151604981518110612bd057634e487b7160e01b600052603260045260246000fd5b602002602001018190525060405180604001604052807f02f13fd1448ac9cee6e12f0427d99f4b5cbd73201ea87edaf1fc5a63dd5c203281526020017f20af418826b58c81648d0e5366a3c2ede647f0c922643227c2f7b5e0b35f65608152508160800151604a81518110612c5557634e487b7160e01b600052603260045260246000fd5b602002602001018190525060405180604001604052807f1083d2a6a5dc3be52da5f751431ca2e1fcc78d1b2eb5753ca5570571d456720c81526020017f1a2911809340be7a652d51c8f211ddfa3d8de4bc91550e8ccaa415987ce346318152508160800151604b81518110612cda57634e487b7160e01b600052603260045260246000fd5b602002602001018190525060405180604001604052807f081f53260b9ceb0ee42d7f48c2d5ffd8146dc05b6c584595f26a3f4a68b8b5ae81526020017f28045c98115cd3b9a05b91025d5b7c78c2e8f847d770a23bce19c2ee055026b78152508160800151604c81518110612d5f57634e487b7160e01b600052603260045260246000fd5b602002602001018190525060405180604001604052807f0cc171dec35fe0a7c484661df7eab2dd832e14bf663a002470c98ea1a718cc1381526020017f2b8c07b9e7c0e327d1a7c980e64ab5ec631af44c0921964ee45d6a00b9d712418152508160800151604d81518110612de457634e487b7160e01b600052603260045260246000fd5b602002602001018190525060405180604001604052807f13a88c735d4f52054e8c874747aacc4feb634238959cb994bb328a02510d7e5b81526020017f0a46ea0b9eab91c037fba8aac86434283549a344f45444970ad4ee3cc4aabd2f8152508160800151604e81518110612e6957634e487b7160e01b600052603260045260246000fd5b602002602001018190525060405180604001604052807f1e980033e322e6d2897a899b966b266c029c8f2d3524092f395cdc6da977709981526020017f119cec536358e90f87474a1ed1154ec367cbf2001cd305e82832e398429224c68152508160800151604f81518110612eee57634e487b7160e01b600052603260045260246000fd5b602002602001018190525060405180604001604052807f1f7a45aff9c4018b07e5d5efa32196ed469bd491100e105df889c944814940e081526020017f2b3dc5c2d8c52c67e6da05a66e2aaf2456e0197de65f3fd684307c3126f9754a8152508160800151605081518110612f7357634e487b7160e01b600052603260045260246000fd5b602002602001018190525060405180604001604052807f02dbf5573d5b1d7d9253e6a8803e2eb9d7b63e4213b96496f0d4047a4561c5ef81526020017f0c1595cb42e22f728afb7b664bb0aceab5630eb4842293e470546125efc805e28152508160800151605181518110612ff857634e487b7160e01b600052603260045260246000fd5b602002602001018190525060405180604001604052807f18865790cf52daf989d1543ffb1b4f29bd8f4beab2465139dcc7c777634ea62681526020017f0df5fd0713dfdf4066e57039fe1cd3caf70fb509db5a0167c250b988a3a98f3b815250816080015160528151811061307d57634e487b7160e01b600052603260045260246000fd5b602002602001018190525060405180604001604052807f01a20cd525b69da9369209840b10b00cd4b2f4bc34bae42d7f0ed3db432a535581526020017f27ea22023b5f42d3fac1e70afa57e6d297c30af1d23f4998a7a8ec7420a7ad9f815250816080015160538151811061310257634e487b7160e01b600052603260045260246000fd5b602002602001018190525060405180604001604052807f10e5d3d894566722ddc709c6d5cf722a5e7a1a77a5984f01f32aa9aebd42575081526020017f1b54a10d81428d7a2bd897e9003a1d52ef23746bdbca22fed6a6c8ee6b152e7a815250816080015160548151811061318757634e487b7160e01b600052603260045260246000fd5b602002602001018190525060405180604001604052807f2a51b915be61b8f932c9c5524b85f94d8e239b5288141f13a3d346e59bc965e681526020017f2379f66e7c10bf7f7dd00c93fa888eaba7905220538b9bae5d704d4d8e91a959815250816080015160558151811061320c57634e487b7160e01b600052603260045260246000fd5b602002602001018190525060405180604001604052807f0e830b66ee86e5188b7e7198735ca0e0ef0b9fdb262a2d79d57ea0b2d892f80c81526020017f241f0688cbbceb5e1b858de502fd3102ea1bc3b9f46e49dd6c8dc709a7bbd0d7815250816080015160568151811061329157634e487b7160e01b600052603260045260246000fd5b602002602001018190525060405180604001604052807f22ac1f46aa7a96d6d4382e39a02f812adc350360b02579f43948d066c5d22b5d81526020017f15c0f34a83970229c47a4444df45b196cfea3f411251ba59ace83d08c7bc758c815250816080015160578151811061331657634e487b7160e01b600052603260045260246000fd5b602002602001018190525060405180604001604052807f1340eaa3f882631c8108a1b6620b8fb757b55b78e3c8ad2d8d0cdf5884d27a4981526020017f0843cc0513fc22d49bd256de1d0cb21593459571730804230f3a4454c28e08ac815250816080015160588151811061339b57634e487b7160e01b600052603260045260246000fd5b602002602001018190525060405180604001604052807e2f4deeb0c8d695f57f1b3f830b304053524e00a29b22c3bde6f01b4b1a33ba81526020017f1f4ef96e37a00ffb6fec2670d76cdc7a5a4528f83382ebee924308f34a8c4dc0815250816080015160598151811061341f57634e487b7160e01b600052603260045260246000fd5b602002602001018190525060405180604001604052807f1648a19bf3ca1eea1b92724540f9655c9b91ce6221fc18ca221b2062a14ce4c981526020017f187b1a90c32944a1426b89071c3ba8561d0ecb6a0541efea200f13250792f29a8152508160800151605a815181106134a457634e487b7160e01b600052603260045260246000fd5b602002602001018190525060405180604001604052807f11b8cfae86e6127a68692ff8a189a9eeba6fcbfb36a09e0e8157adadaf8cfab081526020017f05bb786b6dfb8f50f60317acf4c9f57ac5739ee68ad4a0733b00dd4af8d1b8ce8152508160800151605b8151811061352957634e487b7160e01b600052603260045260246000fd5b602002602001018190525060405180604001604052807f29d07f1137152760dc3b9d8bfa8ef0e57122e20f10d9e95d0a50e41435c40a5a81526020017f1d3fef05972727ad78176a2c6796fafff5ea4488179234919056b1622f31de1d8152508160800151605c815181106135ae57634e487b7160e01b600052603260045260246000fd5b602002602001018190525060405180604001604052807f1d62934af8e9cdc3f7691d3681225f2c5ab67fcd44cb4fa51f40078620df1fc581526020017f0fa26705012642d1a3871f3212e4d811468bdb94456c6dcd69230118ffbc2b208152508160800151605d8151811061363357634e487b7160e01b600052603260045260246000fd5b602002602001018190525060405180604001604052807f2be965b417274bd723ce725863fb8fd1e66c21b72cac52ac12bd81db8664b36081526020017f2946b4a19c19acc3db87d17e19e38b3c5f4d823da9dc8ff1e52b516bd8af82508152508160800151605e815181106136b857634e487b7160e01b600052603260045260246000fd5b602002602001018190525060405180604001604052807f1e935da5351edd69c0c82640f10b9e44b53a237e5d77a5abb84360a0bab47d5581526020017f260c8e1a3189d2aeeeab9a31bf2df982c360131493a3ca2cfa71fbaf31f92a0f8152508160800151605f8151811061373d57634e487b7160e01b600052603260045260246000fd5b602002602001018190525060405180604001604052807f0f006146a63087249b47b1fb639cbe3d1b7bdba4575e8d8f0b597708d887b5e281526020017f13901698a1f4d81301e01c0f39e8e1911b61df3d5ad2db29919df6ae6e2a6e2d81525081608001516060815181106137c257634e487b7160e01b600052603260045260246000fd5b602002602001018190525060405180604001604052807f1ea05f2dd7d1b8f021b7ca6ccbdab6ab5921b75bb04108ed10928c7f120a6d6c81526020017f2227baab08b38fbf21bc39972539e0ba1dafc33d0df341a06cd9d2195d83d557815250816080015160618151811061384757634e487b7160e01b600052603260045260246000fd5b602002602001018190525060405180604001604052807f2bc5042045752f51c19f427f28c39cbca25173266dc0a6d6a72fce5b5045000c81526020017f15c47e12f15c2f4e6fd2ecf0edd6f81497a65342f353b482a45639a5115f841681525081608001516062815181106138cc57634e487b7160e01b600052603260045260246000fd5b602002602001018190525060405180604001604052807f023e160d2916fa89abbace45c56fdeb5de3811066f3b3825323fe13f4ecd0c8781526020017f2748cb4b0a624fe24e13646dd86027a325acd72ea245422816586fbee1b50fd1815250816080015160638151811061395157634e487b7160e01b600052603260045260246000fd5b602002602001018190525060405180604001604052807f0b788738c6d5cdbd6ac3f8f86efad6601ba6cea056fcc3801f34287f25b92ee781526020017f1297c5b32151ed88db39ad5fe649d37042174629ddccb6564d162fd12378cf4081525081608001516064815181106139d657634e487b7160e01b600052603260045260246000fd5b602002602001018190525060405180604001604052807f2d121d01993bd8ce9658b0c85bbc944e5c688a851a23f0259c9a6f3d35d3e67e81526020017f269c090a314bc244d13e2330878908472b791593d5e0d435d00ce618f8f896138152508160800151606581518110613a5b57634e487b7160e01b600052603260045260246000fd5b602002602001018190525060405180604001604052807f18c5a584ca3a66ed0ca40a3461070a673dc41e93ba1cba6288c18a076ed3d83b81526020017f2ef160b96ea9116de801a8335d42735236025c443ec58be379e1eaccfb49aee98152508160800151606681518110613ae057634e487b7160e01b600052603260045260246000fd5b602002602001018190525060405180604001604052807f273f10115108b31cabb3fce9acd216063e6b2863f2f29fe8cd844ec1c417bf6281526020017f0ed6be734a2c22bd74fb75004560f120298fecbf5f0a98012560f9dcf82f0f658152508160800151606781518110613b6557634e487b7160e01b600052603260045260246000fd5b602002602001018190525060405180604001604052807f1f64327e3b07692859a814fc32c69650f6b7ee43ea4d1f08132fd445f8c1d49c81526020017f2af5cfa958ea05e1d0be3d3a62c9bb376d48f1fa7bbce38aa87a496683af35128152508160800151606881518110613bea57634e487b7160e01b600052603260045260246000fd5b602002602001018190525060405180604001604052807f017589ee327c5c2cb27700b7ca9bcc8b3df0785fbbb896db06ce2e1535050f7781526020017f13c46f1ec06bcdba2fc02357cf17b24ce554d40346e24e349d868c9b9d4bb0dc8152508160800151606981518110613c6f57634e487b7160e01b600052603260045260246000fd5b602002602001018190525060405180604001604052807f280f4a9eb92e19a888b7ac4d9043f221f9e7babb76e8e6549f8de8af8e42438481526020017f2ef0b074b7599eae44ea44d16e3fea2068afe88e07fecc8f55b6a84859e79be08152508160800151606a81518110613cf457634e487b7160e01b600052603260045260246000fd5b602002602001018190525060405180604001604052807f1055ed7ced72e5a77bc82c8d853a2cce3dda0d77006aefd0226ffffbb2a9bb8881526020017f0b0729607ddcbb105f9d5a56901943383254835c93d2ec29396f55d5c607e0e98152508160800151606b81518110613d7957634e487b7160e01b600052603260045260246000fd5b602002602001018190525060405180604001604052807f20085451eb060bc20fb5923fde5963c215524fcbb562ee7f84d443f52101406381526020017f16cd030ec096571f6a2d14427b05cbbb322c465ced0f2a7f9beb130ff91734d58152508160800151606c81518110613dfe57634e487b7160e01b600052603260045260246000fd5b602002602001018190525060405180604001604052807f166a2bb94b418a627e7ac2ed5ccd1ce1b784e907581061e18a65ad09ed75a26c81526020017f188c60b4364a2d325f8377e203dfce25ae400f8bb7db1fd9d06a827ffa70b35c8152508160800151606d81518110613e8357634e487b7160e01b600052603260045260246000fd5b602002602001018190525060405180604001604052807f21e93b632c69a83deac100c87c63d057a9a87a1482f55aa36dc2d221c8fdedc481526020017f0bd992b5a7bf9765cedd1e395039c4d8ed98d0d0bd01a9d06b8ea944285a0c5d8152508160800151606e81518110613f0857634e487b7160e01b600052603260045260246000fd5b602002602001018190525060405180604001604052807f0da2981002bb2f3c616a9ee3e6f633ec490f11522e988682b35a8d8e477f531781526020017f1610fe8991b01437b0a7a37ef09cc46d672c9fded729e47ebae8d2c6fe1ba61d8152508160800151606f81518110613f8d57634e487b7160e01b600052603260045260246000fd5b602002602001018190525060405180604001604052807f25a82119243aab5de5e64c54e3c1f5ffe2a4c516ea467da85b14a03d159136bc81526020017f2ff51833f1cdc7ebf38239ff1ba021bab3c878b53db57c88cb2b23cc321ccab1815250816080015160708151811061401257634e487b7160e01b600052603260045260246000fd5b602002602001018190525060405180604001604052807f29875fd935f117099b560f6ed4c43e4975d44690617dc19ff1c3cdc86c62f62d81526020017f09a46967a67f41ec5758bb1f3135e4bf618cff663ee54192cad85daec3376d1b815250816080015160718151811061409757634e487b7160e01b600052603260045260246000fd5b602002602001018190525060405180604001604052807f23e1b8c75a75c8f589de378fd1f2377bfb59803b5c26c6032b5f470be5474db481526020017f0fbbb48f25949e82c66801d6b896a77d05d0f89e8fc84288ddacf4a42bea9a9a815250816080015160728151811061411c57634e487b7160e01b600052603260045260246000fd5b602002602001018190525060405180604001604052807f046e6f04f2c75920bb6a6bd7e65cc536dd31e3b9c92a73842e2185b47c54472f81526020017f07eff33cc4b2e885133f17c2fa40a391e60d9ab235b5f3ca6f6d3c0bc8d8f4f881525081608001516073815181106141a157634e487b7160e01b600052603260045260246000fd5b602002602001018190525060405180604001604052807f14ea314cecae8e90cf42c3546933539dc1bd8da51ce7f97ffd5c17717be4341c81526020017f012cede6cadf77bbc14e83476c3c26a7de242ae32868184fb077fce2c8c7c77a815250816080015160748151811061422657634e487b7160e01b600052603260045260246000fd5b602002602001018190525060405180604001604052807f2cd8b4e14dd84b44b30ef34f5d628cb4cf7eb54fd4eafbce0c1d5c87268e72a481526020017f11450cacd5a5e559e4734ea52c2e859e0371fc63e9c9eccc00d415a421145d9281525081608001516075815181106142ab57634e487b7160e01b600052603260045260246000fd5b602002602001018190525060405180604001604052807f11164e41f9d94cd7fb2a6db6c8b80ec2016a2707ee7a0b2c555dbd10eca5606181526020017f2a6ae0b52c4eb4b580ec5e99b04447a5c7cdf522fb1f8dc5fdfdeea00ab60886815250816080015160768151811061433057634e487b7160e01b600052603260045260246000fd5b602002602001018190525060405180604001604052807f12244c32ddd8ce3f22a037b966f39636fcd1a8736ef9a2fb937a374f1123201d81526020017f0bbecc5fde52c29758325a9bef867939533a916f8f669024bb27e77668bf674081525081608001516077815181106143b557634e487b7160e01b600052603260045260246000fd5b602002602001018190525060405180604001604052807f0d58fe254e59e155b22610ba4ff29fe5a038350bc730d9914c4c89325298963981526020017f2b3d4edd219d137f8cc3cf4699e1b56075724eeb808b33cbf12c9ab29bb46752815250816080015160788151811061443a57634e487b7160e01b600052603260045260246000fd5b602002602001018190525060405180604001604052807f149be4f7127ca4cef71cb35b4b34470024da34e25b4e0390a42e0451b466a26b81526020017f0a061079f16cc94e92037670f35179c20d905155574ace31ce0b38f42d47f98081525081608001516079815181106144bf57634e487b7160e01b600052603260045260246000fd5b602002602001018190525060405180604001604052807f0394ae261af251139aa0717dfb0eb48bedc30d118f8d63149af270c681d8a98f81526020017f2bd94e4368db128170b02b7a2b5f1286b12b4a4aa497ed6258deb05d48d413268152508160800151607a8151811061454457634e487b7160e01b600052603260045260246000fd5b602002602001018190525060405180604001604052807f1ac6d29f98be94adfb96c77e6aac242a735eb4dd8cef30cfc6c7a201d3c3480c81526020017f248bcbc3f84e934a62bfd92d2370d5bf2a50e82ffef56d9dd8c58cc46fff22398152508160800151607b815181106145c957634e487b7160e01b600052603260045260246000fd5b602002602001018190525060405180604001604052807f1f7c1e53b83496d22ae1716cc741d17b2beaf3b92e8f1b3a85d5a3defc66307a81526020017f08a60c600cef903d4f68049f9580c605d95dcba60d5fb2230da5c173ec0d1b5f8152508160800151607c8151811061464e57634e487b7160e01b600052603260045260246000fd5b602002602001018190525060405180604001604052807f29b4ea66c03af0ae0208fb142f164ae9b8ec3b930bfeda0f8391126a31f323f881526020017f2eaee77050ed61133a0351a6c1682b0ecf2cdb525ccfe7d28ecc6b233b16c1d68152508160800151607d815181106146d357634e487b7160e01b600052603260045260246000fd5b602002602001018190525060405180604001604052807f020c148cffe150768b2c7c5b11db2feaaebebdaa065088a393d78ea30d4d589d81526020017f1c15759b6cf675c6946d6699c4fe25e8c76b4c007e725b47772a1b1e39c0d37d8152508160800151607e8151811061475857634e487b7160e01b600052603260045260246000fd5b602002602001018190525060405180604001604052807f0d26840669655e96b2bfe3f28e47b9e1242db5647da557782144d57d361ba34a81526020017f2a934d1752f05f759d06ca795c133c80909ded404f70b4f64ee544d92a783e2d8152508160800151607f815181106147dd57634e487b7160e01b600052603260045260246000fd5b602002602001018190525060405180604001604052807f0a03fdb582a38c47087aa01cdc38284bf6d88840d55711c84f0b060d78098c7f81526020017f1a135e92655b7001f65f9425d55008fe4503aad22a8dd7fde2ab8ce9621b34ed815250816080015160808151811061486257634e487b7160e01b600052603260045260246000fd5b602002602001018190525060405180604001604052807f194715767863d1c49bafdc1052e72849eb92e1250899e1011cb8c999739debcf81526020017f19f16161f20a55efa858446e0be41474557a0111be6c0fb9f44043710a11d99981525081608001516081815181106148e757634e487b7160e01b600052603260045260246000fd5b602002602001018190525060405180604001604052807f10fc5bc85d5e7feba054c14a3c48b61bdc8ff1df03fa2eb7a473af1fa6165ff881526020017f1c2af59c3dceaf4d57d875d8cbf1eb70ade2ec317db1b12b93dd94fe2e2594f5815250816080015160828151811061496c57634e487b7160e01b600052603260045260246000fd5b602002602001018190525060405180604001604052807f17349013234ba8e5f077d7f5a62e150282f38f2e7a1648110a216bb6360ec4b881526020017f296540c89724212d8f15eb0196a6374ca5bf977d823e8f4e345b794d34e3c14181525081608001516083815181106149f157634e487b7160e01b600052603260045260246000fd5b602002602001018190525060405180604001604052807f17a0e9b618e23c94b76bfe6ee379a1285f8ebbb853dcd9a2619b4dcd4aa2e13381526020017f0d279c8f97085531e0f8854905d1dc0387a1571874b0ebadc45f98d87cf1ac558152508160800151608481518110614a7657634e487b7160e01b600052603260045260246000fd5b602002602001018190525060405180604001604052807f0625d344ccf30d4183130afe51a882006d495566aec42333be59e85f1ab61b3881526020017f21b3d9aceea1bb5e8370433645619bdb0fb0f6a5b115ebbbc3a0e95c5d636bde8152508160800151608581518110614afb57634e487b7160e01b600052603260045260246000fd5b602002602001018190525060405180604001604052807f2529d1c8a66e00acefa1ddc85ad156b1de65d4a20c26cf350de7d8f15909095681526020017f087286ad37b37f8ff6ed6788272ae5140b8fa976d17586f08c5c195cf48da61e8152508160800151608681518110614b8057634e487b7160e01b600052603260045260246000fd5b602002602001018190525060405180604001604052807f1a8985d33368c39133933d3e085c194a00216be4df2a8afb14d54d461dd2c1e481526020017f0caaf435efbf232982fcd9332c2bf0da6b9dcbb7c55a6aa949e31dd9961f021e8152508160800151608781518110614c0557634e487b7160e01b600052603260045260246000fd5b602002602001018190525060405180604001604052807f21133d5b89ab6422be283b6475b5674c5294ab3ffbbf4f1903a622eecf0afe7081526020017f0b35b13a7296a8ac0922efa212b1477d4ae63bdd703f4b4b8f9d683847fce6218152508160800151608881518110614c8a57634e487b7160e01b600052603260045260246000fd5b602002602001018190525060405180604001604052807f096852ebdc652f0c50c9d9e0c0d1d7dbd2225861010142b1326b01702d1b9ec781526020017f06a4bb21b01c88f027baa5f4c738df8b748d1387ef6c18d63cc6940ec0ba04318152508160800151608981518110614d0f57634e487b7160e01b600052603260045260246000fd5b602002602001018190525060405180604001604052807f110f4d04f1755621bb870641126c27822652fac7f3e293232e8d1eac3a2e47f781526020017f1b39bed3b2cb79b3e9c64cdb0ddaf37cd7d17aa2fb5a7b54a3c0b29db73922ef8152508160800151608a81518110614d9457634e487b7160e01b600052603260045260246000fd5b602002602001018190525060405180604001604052807f207c73c585ef0634f51ca263d31af4eac50aa27bf26ce65562a5f4f05886a52e81526020017f27f8892f853b9ace446c5ef84314b04a93d959b1953ad9070b851581f4a2fac28152508160800151608b81518110614e1957634e487b7160e01b600052603260045260246000fd5b602002602001018190525060405180604001604052807f2342575a5173ab3bee4ce65f9efc740bc9cf47569c6e231ba9d449f8a8be623381526020017f18cd9ff8ca9b3cd89a82dfa00e2a3acca738027366a842af528111736e842e038152508160800151608c81518110614e9e57634e487b7160e01b600052603260045260246000fd5b602002602001018190525060405180604001604052807f135401169637d7b278f16a5a3c9cc95d756fe13d904c703ad0db35bd8d601afb81526020017f09904bad508bcff0dd1b9fe14fcc917065f642fdc08a965d1e089f60b0ab13408152508160800151608d81518110614f2357634e487b7160e01b600052603260045260246000fd5b602002602001018190525060405180604001604052807f0ea3fc23c1496808ee46d916da71f29cbe4c721ba8b20485f973edd91567c05481526020017f14004f3229e77452989e83af7b1d1fc7c5cf613892967f283110d71df6ed78e98152508160800151608e81518110614fa857634e487b7160e01b600052603260045260246000fd5b602002602001018190525060405180604001604052807e6a5b07f61d0b2be7088c94078535783500ae46e1bfceb0a54d18f63b32e4cc81526020017f29b0fe4cb60d72755da3991db9e67eecf944b660b40c0e08e2f6e72b65c4c7178152508160800151608f8151811061502c57634e487b7160e01b600052603260045260246000fd5b602002602001018190525060405180604001604052807f1bb20cb8bdf3a2088f5fbc562a15e8b382a4dc1db4cad034c52ea27c3e65b06681526020017f2edd3153af66a47c5207604735bf0e71b0152eff711da5d9995084388985d9ff81525081608001516090815181106150b157634e487b7160e01b600052603260045260246000fd5b602002602001018190525060405180604001604052807f1b8cb62436b343b7e9529f27bb106743b7f961758c8eb7c5d3c3d153d8ba5a6781526020017f05c02248662dcd22748acc2f44852b7eafbbf6b0504d80e3f2d34306c8985223815250816080015160918151811061513657634e487b7160e01b600052603260045260246000fd5b602002602001018190525060405180604001604052807f1142135c7d6892fc2707786002ab61df23251213a2d4911953538c9c9761bda381526020017f0ff2d8550e4123642fd10f921c09ac125eb8df3b3f10854e6ff3f14ec74f4b1181525081608001516092815181106151bb57634e487b7160e01b600052603260045260246000fd5b602002602001018190525060405180604001604052807f106f6cd78efa1a1830bc804108470c8b1c9e10f1cee482ca13fd46aab4432f3a81526020017f28198f8ebfe53d87969d047bae88d2ee6aa66b75664fcc0b1461430884426432815250816080015160938151811061524057634e487b7160e01b600052603260045260246000fd5b602002602001018190525060405180604001604052807f27b49d8506aafaa89ad3e9c319ed781289880dabe2e8ade0aa722dfacf6efc7381526020017f042d553573afb81ec0e553168c1ce1311b1fedd47150ca0c884ce5820230250881525081608001516094815181106152c557634e487b7160e01b600052603260045260246000fd5b602002602001018190525060405180604001604052807f2fe94ff3a830fecd85bbda4bcb593095ed0e5a4a2c1f7cbe009070db5b649b9681526020017f2d4f3a920fd83a0dd138c51399db603ea2b8123d2279e0cd7021e38f126ad1cb815250816080015160958151811061534a57634e487b7160e01b600052603260045260246000fd5b602002602001018190525060405180604001604052807f1adeabbd10527368c3bb02899bba83ee1ef1bf8dd36599bab70c35baea8f700f81526020017f055ed0ffe336e4278cfa8e2e9cee4e7974ddabf5599127e8723daee6592f23ab81525081608001516096815181106153cf57634e487b7160e01b600052603260045260246000fd5b602002602001018190525060405180604001604052807f0b7ca939b21098a2c334b43546c631fea9283cf9897dbddfd92cab25a23b38c181526020017f04d3315a4656126b17bb9ddd76d3bcdb874a1c9507ccd12fa60b99d9dccd043d815250816080015160978151811061545457634e487b7160e01b600052603260045260246000fd5b602002602001018190525060405180604001604052807f223ff1bde419c6ffde40a39394d3cca0e0ccab4e851e4ed8def2cf6528dc4f5781526020017f1c8a86320aeaf632ac0856b628bd29b913ac8a46cfc042334dd18e09eed1acf081525081608001516098815181106154d957634e487b7160e01b600052603260045260246000fd5b602002602001018190525060405180604001604052807f140f1c4d44f9da5b4d684d763d8c8ba3edb5ab414c452fc3d3c8e58d2623ba2c81526020017f0892c9651cfef48868f121fe5de4d08825d4ad4d649956fdf2c409e175cc6b1b815250816080015160998151811061555e57634e487b7160e01b600052603260045260246000fd5b602002602001018190525060405180604001604052807f2f424ccb7dd27b0d978373956e1189b7c1b8b791e8319c1b610148fe18beefcd81526020017f06703e8f1de940cee02855c420e9d442a9b8b3fe0a847b9e27f390f64259991f8152508160800151609a815181106155e357634e487b7160e01b600052603260045260246000fd5b602002602001018190525060405180604001604052807f14bf3a0984b6150191393ec6b23ec4488ce07ebb0e4b04fd8cc79e6673e54ecf81526020017f1c32cda9d3eacde5eb2456bbd452b891c1a15e94df95f0ab295ce926fdded88f8152508160800151609b8151811061566857634e487b7160e01b600052603260045260246000fd5b602002602001018190525060405180604001604052807f129fda977ef939b62b3ace5eb63a6c6f535c49af2be06e243690ecbabdc70d5881526020017f0bfb94ae83f96796e17f7e3ea0cf781e2ed5067fe0fa594e7b21b41c7b27c1dc8152508160800151609c815181106156ed57634e487b7160e01b600052603260045260246000fd5b602002602001018190525060405180604001604052807f24b9fe9e7763609070d9eb41058c06e7425d9916033227b31187cfebfcb9d7cf81526020017f13659ce5db6d26883b61176e4a15866ca1a575bdb3baa9660b9cae0df1d35f7b8152508160800151609d8151811061577257634e487b7160e01b600052603260045260246000fd5b602002602001018190525060405180604001604052807f27f3682394ae62ade6930af00d76d0e4aa4774cc861f850c1882c649ff21a7c281526020017f06df680a71f2e8d63092b9c4ff10733eca8cd595acdd881ce6e3a3a89824f3dc8152508160800151609e815181106157f757634e487b7160e01b600052603260045260246000fd5b602002602001018190525060405180604001604052807f08f182a3f3394cfe258397fa00d5e4c688e25b7ee8668384ac46a3935de8a7ec81526020017f0bd1fc9db733c310a0a530e2ead8e1923f515729fea12345b89208423cf912b28152508160800151609f8151811061587c57634e487b7160e01b600052603260045260246000fd5b602002602001018190525060405180604001604052807f10b0089985ca6aacd8425924adca980e13b33115380daa3f64676a660feda0a481526020017f175a2a13a053dc6b52c4a983a0fcd1d8f3c936b7b3e706dca411dcd2eb4f86d4815250816080015160a08151811061590157634e487b7160e01b600052603260045260246000fd5b602002602001018190525060405180604001604052807f0e4d31d2213a3ef40783a80e2195a6dae096fc96f5ba544ce0eec65a9ce1107981526020017f0b49985deb7adc3ee9acdff088b0c118ae4e512ff4ef060d799bf3e9bac8eaf6815250816080015160a18151811061598657634e487b7160e01b600052603260045260246000fd5b602002602001018190525060405180604001604052807f21fd017f57fd5fd0ba090a8c83180a1ef825e8570df88b998dc92b25c1347f1c81526020017f0f3cb7d5a36545548af1a5519b3a4ef7fe5c3114b1ece6d9c70b3493594a58b7815250816080015160a281518110615a0b57634e487b7160e01b600052603260045260246000fd5b602002602001018190525060405180604001604052807f2e2aed1026870e322bd2a1083ef7b3ed9304646fd941bf00585ab164ff7a7a2b81526020017f1cf267369a54c21ec4848e832148683eed8b3fd885fca025449b485b7ee7641d815250816080015160a381518110615a9057634e487b7160e01b600052603260045260246000fd5b602002602001018190525060405180604001604052807f1572d40127e18b0b0864b05fc387508e889fecfdb584d26a23aaa3047b51ea2081526020017f18f170bf19c53a5177276ebef0a55edef948774ed023d6a4a0bb104195eaa614815250816080015160a481518110615b1557634e487b7160e01b600052603260045260246000fd5b602002602001018190525060405180604001604052807f2f05d3056108b3762220c325b74728cb0bf0a57d81fd99235ed180d960f2807581526020017f2da755bc51eebca96ffd0f30d3696c7d7931d37b8fe54c1b6245d83653fadeb6815250816080015160a581518110615b9a57634e487b7160e01b600052603260045260246000fd5b602002602001018190525060405180604001604052807f27017df7aad1f17b64c1846b5990fdb34da31260f5d6a6fac91f554704cc2c8f81526020017f09e8468868a48d5443c0f5b7418c46f6c6610cdfa5166bc3d9bbc41fc1aa3478815250816080015160a681518110615c1f57634e487b7160e01b600052603260045260246000fd5b602002602001018190525060405180604001604052807f2a92d2f886995122b8bdeb3e4d84f0d1b9f7a111d3b1f41969c32d7f8b1a878781526020017f020d119aa2cbcba0dc29ed1b9477bb51e135556e8c3b8dfcb08e194bef55763f815250816080015160a781518110615ca457634e487b7160e01b600052603260045260246000fd5b602002602001018190525060405180604001604052807f235cedc878d55fe9bd81c76f4fce46559f0fced462b27aa83e166d0b7e886c7b81526020017e5057b8cb73526d7c48ecf2dd5edb44c7d1df4986b0796a0ea0fb42b6e6e1c4815250816080015160a881518110615d2857634e487b7160e01b600052603260045260246000fd5b602002602001018190525060405180604001604052807f1d3aa54e099e979342cfc6726a26551e4bfabef8daa2e2d645f4d7bd47d202e681526020017f053b2879569eea21a8538db5dcc65ec18af5b9bcb1e4d0a685981ff4b781a667815250816080015160a981518110615dad57634e487b7160e01b600052603260045260246000fd5b602002602001018190525060405180604001604052807f037abd0406a5b0f21b300917c89a8838dbc8a6836338ead56f67439cdaf0475d81526020017f0e692c98439593c2008005dd49ed58496bd9489123b9e6299eefb49a52d3d6b0815250816080015160aa81518110615e3257634e487b7160e01b600052603260045260246000fd5b602002602001018190525060405180604001604052807f1d679a5b052e6353a34d7d71aa574c5571ab4a9f32d186312aad8b34524f695981526020017f2640265c18f6e9c6e88c53cfbe18887dcc70c55d106e124b3d9e663eb32deb80815250816080015160ab81518110615eb757634e487b7160e01b600052603260045260246000fd5b602002602001018190525060405180604001604052807f17c7ef2bc1d7c944e37b15f498cc556e89c498f5c22a3677a054ccedb8676a3281526020017f111832a80da69f2248d41debcf6b9450e4beb7f05a14308ee0676a334504dd75815250816080015160ac81518110615f3c57634e487b7160e01b600052603260045260246000fd5b602002602001018190525060405180604001604052807f01c3a390ad4103ac8f43988287ab88f52414f64d6b1a0f2c6930c42ae2913d7681526020017f25424f25a3ad6b10daf2d90b5f0d185b0ab1fa02f7fe82e3656adf59cfca2750815250816080015160ad81518110615fc157634e487b7160e01b600052603260045260246000fd5b602002602001018190525060405180604001604052807f17aec58670d0a1eda7eb767b0fd95ea5ac150196630bfaa6cf925e964ea2fcb881526020017f0aec8b15aa375b2058588038cf21d7a0c13522a61b4fedee1312c81fdf13e34d815250816080015160ae8151811061604657634e487b7160e01b600052603260045260246000fd5b602002602001018190525060405180604001604052807f264cb93110df78427eca3b894c31d8c87587bbff1487af71abaf0d488623625481526020017f1731486f6aa25d146a463bfe106289f8bee63c431a29a76ed9b2dcf61003a13c815250816080015160af815181106160cb57634e487b7160e01b600052603260045260246000fd5b602002602001018190525060405180604001604052807f058e9b093d9f9c1927f89bcb3b51324f687c69398211762de21ed9a8f2c4a2e481526020017f15080b961d66563d6b5a444e84d933d1495670ae9ef66356233b22ded4cca5e9815250816080015160b08151811061615057634e487b7160e01b600052603260045260246000fd5b602002602001018190525060405180604001604052807f2fc0fd85ef2d5b6ce3c5fd3f720743d652ad0f21b6794738cc6f9fe2c7f8327d81526020017f2a9177e227ea09b3f787f1f7551cce3b4e0ef151c2637c018fc3a280e952ce3f815250816080015160b1815181106161d557634e487b7160e01b600052603260045260246000fd5b602002602001018190525060405180604001604052807e97e705d6102b60193523ce97fac8480689defaeab7cadcbefc498e9af3ecd081526020017f213ad2e263e30993ffe5a633f11064a1cdc28cd34616ea9b0d36c7ab61d6aac6815250816080015160b28151811061625957634e487b7160e01b600052603260045260246000fd5b602002602001018190525060405180604001604052807f2363f885b4de0f2077a97ae9fd863a330da55f42ced7ab691db3eff67201b13781526020017f0c709fb837c308ada8c19b441f58678c84006088662b9fbef666153f6c474903815250816080015160b3815181106162de57634e487b7160e01b600052603260045260246000fd5b602002602001018190525060405180604001604052807f1a019c0df059b7fdcef85959ca0b271babd3d7f193442d2a9a80be2e6d76c5c981526020017f24564085b87888ac941e5a6520a287e60eb3c8f73d6c0f65287e0b09f47d838f815250816080015160b48151811061636357634e487b7160e01b600052603260045260246000fd5b602002602001018190525060405180604001604052807f1167c321225979405947a702de3d2a517816440c52cbab4ed3d7b2d69a22198a81526020017f2f2b3f61836b6f09e40f98be0d9d5844bb0752801b8f0207727894cb13462623815250816080015160b5815181106163e857634e487b7160e01b600052603260045260246000fd5b602002602001018190525060405180604001604052807f27220cb6bd182a70f21aa4ab326739f3044038576ea4528658419c436eaf8a7b81526020017f09edd0eb340290b08faf627cd36753d2e84866d76408c06b10ba6e2e27a75a0c815250816080015160b68151811061646d57634e487b7160e01b600052603260045260246000fd5b602002602001018190525060405180604001604052807f04c11d23e15c555b5b71f423746f009a7bced2a923c01af0ead7ca4c442b1b1181526020017f06ce77f2461eb1354c61580e303854f0ea726230a2a9817136dc039d1febda76815250816080015160b7815181106164f257634e487b7160e01b600052603260045260246000fd5b602002602001018190525060405180604001604052807f084de5e54344a819e65dfc03d63d9c4d23b998a85e23bacdea4e46285c55233081526020017f27f4ffd9d488d4caec3dd379f51c95ad43c08733a38acb6f25aa29bacb609102815250816080015160b88151811061657757634e487b7160e01b600052603260045260246000fd5b602002602001018190525060405180604001604052807f0de5eeaff753576e557b315a46e2cd30a06ec979311b298df35761b7403c400581526020017f27f3b6d94da68e490103af4a4beac58bab184222542e1553256a297ea8a7a113815250816080015160b9815181106165fc57634e487b7160e01b600052603260045260246000fd5b602002602001018190525060405180604001604052807f19bc8140a9aaaa8aeeba39616719e56f7677fbc26be33ca0250f96cce0a1800881526020017f0574f4828ab580364e378d5ef48d2507f91d085388d93c5bcb1918919b0fb391815250816080015160ba8151811061668157634e487b7160e01b600052603260045260246000fd5b602002602001018190525060405180604001604052807f0c0e55911a0e0d9fca018530f5ce478d9aee45648588749c82aaf8d85df2d59181526020017f0d7a171b176218344d8f0635aa9283731bae9a9692596d952e171d03f7290d2b815250816080015160bb8151811061670657634e487b7160e01b600052603260045260246000fd5b602002602001018190525060405180604001604052807f1383cf88c230f9ef2901441550f350fa186a2e67a00235b6d0bc45b55a7c6e0481526020017f211fa989c6e353a545d75fc94ac6db6881deccb1e345e2f6b4f06ed7e7c7f9b0815250816080015160bc8151811061678b57634e487b7160e01b600052603260045260246000fd5b602002602001018190525060405180604001604052807f1534aff53bee681ff708fe98f94fe922c180557d5c4c5fc663a0c3506759ce1c81526020017f0bf4ffdb457c40c1d81c20f1e67f87a6f45a256fec8a36e0c2119fb7723d3a85815250816080015160bd8151811061681057634e487b7160e01b600052603260045260246000fd5b602002602001018190525060405180604001604052807f1dfb2ae76bd054897314f48730e28f0e44233af8bcdd8bb53833fc94c8a67a0281526020017f08591150705911967092748d2347b0d493c0fb4af2b4b6b911fe456575b1a694815250816080015160be8151811061689557634e487b7160e01b600052603260045260246000fd5b602002602001018190525060405180604001604052807f14040415787eb614c07a3b681700592be2f04e42ec2d07bcd5b575617263565a81526020017f186ab7c463747c874659d9009c34d5726165859e882b50a29a0d2c61ee7afe29815250816080015160bf8151811061691a57634e487b7160e01b600052603260045260246000fd5b602002602001018190525060405180604001604052807f24b1903e56d127eb41e461bce73873c7872b337cc7a17c6c614d196a61e0cb6d81526020017f2dda1ed6af70181f20a517c4a7b9e8255174f9b28c74d1492a8c8193b7d4cf1d815250816080015160c08151811061699f57634e487b7160e01b600052603260045260246000fd5b602002602001018190525060405180604001604052807f1daabc11027d7282d15def2e526f3dfd84e2471602661ea77ae36cde2741268d81526020017f040b5f93ebc3ac8b048654fc4faa76bd456d3b25d62b917b7490b83547dc4733815250816080015160c181518110616a2457634e487b7160e01b600052603260045260246000fd5b602002602001018190525060405180604001604052807f1389451c5062f0b6838ba90e8aab0ece78146f33ae90f8796191512d5957518181526020017f1c69f5edc8bfcd102a8a8732cb720ec53bbf50552e5fb119221f507097680152815250816080015160c281518110616aa957634e487b7160e01b600052603260045260246000fd5b602002602001018190525060405180604001604052807f0c5f7d968f1af7b3a7a3a30eac1682b0da3e2fe8411be3a9f02782b37adb4d9b81526020017f0d0aa9a69dd432572d707cf894fb950f3d015d41aafee11f2e866c0780e4d9c9815250816080015160c381518110616b2e57634e487b7160e01b600052603260045260246000fd5b602002602001018190525060405180604001604052807f0f5d516d08088455c41bc324a994bb1314aee2f9b3a689667912c2cc3f023ce881526020017f06ef39b1c4933a2cdbd7d103a1f1b32eb597aa23bd9305e27877eefce422cd1d815250816080015160c481518110616bb357634e487b7160e01b600052603260045260246000fd5b602002602001018190525060405180604001604052807f1725f1b49755723024f650bf337dc4466031e3fb3f34d7786291de16a75cdc4981526020017f2f85ebd88d9fe17f67d347ebb97c536a59933a143326290a13d420ab6a2afadb815250816080015160c581518110616c3857634e487b7160e01b600052603260045260246000fd5b602002602001018190525060405180604001604052807f17453135a5117a2aecc4262835374416a36bdaa4c2ff54c2fd617ff81618096f81526020017e97a47ae12decf6b514693f6bcfb00716c1f3167603eda135f7df111025a94c815250816080015160c681518110616cbc57634e487b7160e01b600052603260045260246000fd5b602002602001018190525060405180604001604052807f146b5325ab1728195568037cfb46a16c3ad392f31d9257014663cbebefd6377b81526020017f022ff40950923c6d414128c46f29ab0464d0a76932056e2a0bb563efcf4630c5815250816080015160c781518110616d4157634e487b7160e01b600052603260045260246000fd5b602002602001018190525060405180604001604052807f07278b3cbe2a1110f51f8b5dbdfecd25d7f8fefe6d661926dea49bad8bae04ce81526020017f08fc8f9ad835875b459d3c0060a23df0eec0b184f68a3c80e584fee702502207815250816080015160c881518110616dc657634e487b7160e01b600052603260045260246000fd5b602002602001018190525060405180604001604052807f123b781452c9b99941fd3408a7c2108f8c5acc56f6ae271064d560168a10ec5d81526020017f301e3176f6a876a9d918a86548b58ad7b294e797bd91911bdca0d8ff9a37aeb5815250816080015160c981518110616e4b57634e487b7160e01b600052603260045260246000fd5b602002602001018190525090565b616e6161757c565b616e69617596565b835181526020808501519082015260408101839052600060608360808460076107d05a03fa9050808015616e9c57616e9e565bfe5b5080616ea957600080fd5b505092915050565b616eb961757c565b616ec16175b4565b8351815260208085015181830152835160408301528301516060808301919091526000908360c08460066107d05a03fa9050808015616e9c57616e9e565b616f0761757c565b81517f30644e72e131a029b85045b68181585d97816a916871ca8d3c208c16d87cfd4790158015616f3a57506020830151155b15616f5a5750506040805180820190915260008082526020820152616f8f565b604051806040016040528084600001518152602001828560200151616f7f91906178b1565b616f89908461787f565b90529150505b919050565b60408051600480825260a08201909252600091829190816020015b616fb761757c565b815260200190600190039081616faf57505060408051600480825260a0820190925291925060009190602082015b616fed6175d2565b815260200190600190039081616fe55790505090508a8260008151811061702457634e487b7160e01b600052603260045260246000fd5b6020026020010181905250888260018151811061705157634e487b7160e01b600052603260045260246000fd5b6020026020010181905250868260028151811061707e57634e487b7160e01b600052603260045260246000fd5b602002602001018190525084826003815181106170ab57634e487b7160e01b600052603260045260246000fd5b602002602001018190525089816000815181106170d857634e487b7160e01b600052603260045260246000fd5b6020026020010181905250878160018151811061710557634e487b7160e01b600052603260045260246000fd5b6020026020010181905250858160028151811061713257634e487b7160e01b600052603260045260246000fd5b6020026020010181905250838160038151811061715f57634e487b7160e01b600052603260045260246000fd5b60200260200101819052506171748282617183565b9b9a5050505050505050505050565b6000815183511461719357600080fd5b825160006171a2826006617860565b905060008167ffffffffffffffff8111156171cd57634e487b7160e01b600052604160045260246000fd5b6040519080825280602002602001820160405280156171f6578160200160208202803683370190505b50905060005b838110156174f55786818151811061722457634e487b7160e01b600052603260045260246000fd5b6020026020010151600001518282600661723e9190617860565b617249906000617848565b8151811061726757634e487b7160e01b600052603260045260246000fd5b60200260200101818152505086818151811061729357634e487b7160e01b600052603260045260246000fd5b602002602001015160200151828260066172ad9190617860565b6172b8906001617848565b815181106172d657634e487b7160e01b600052603260045260246000fd5b60200260200101818152505085818151811061730257634e487b7160e01b600052603260045260246000fd5b6020908102919091018101515101518261731d836006617860565b617328906002617848565b8151811061734657634e487b7160e01b600052603260045260246000fd5b60200260200101818152505085818151811061737257634e487b7160e01b600052603260045260246000fd5b602090810291909101015151518261738b836006617860565b617396906003617848565b815181106173b457634e487b7160e01b600052603260045260246000fd5b6020026020010181815250508581815181106173e057634e487b7160e01b600052603260045260246000fd5b60200260200101516020015160016002811061740c57634e487b7160e01b600052603260045260246000fd5b60200201518261741d836006617860565b617428906004617848565b8151811061744657634e487b7160e01b600052603260045260246000fd5b60200260200101818152505085818151811061747257634e487b7160e01b600052603260045260246000fd5b60200260200101516020015160006002811061749e57634e487b7160e01b600052603260045260246000fd5b6020020151826174af836006617860565b6174ba906005617848565b815181106174d857634e487b7160e01b600052603260045260246000fd5b6020908102919091010152806174ed81617896565b9150506171fc565b506174fe6175f7565b6000602082602086026020860160086107d05a03fa9050808015616e9c57508061752757600080fd5b505115159695505050505050565b6040518060a0016040528061754861757c565b81526020016175556175d2565b81526020016175626175d2565b815260200161756f6175d2565b8152602001606081525090565b604051806040016040528060008152602001600081525090565b60405180606001604052806003906020820280368337509192915050565b60405180608001604052806004906020820280368337509192915050565b60405180604001604052806175e5617615565b81526020016175f2617615565b905290565b60405180602001604052806001906020820280368337509192915050565b60405180604001604052806002906020820280368337509192915050565b600082601f830112617643578081fd5b60405161192080820182811067ffffffffffffffff82111715617668576176686178e7565b604052818482810187101561767b578485fd5b8492505b60c983101561769f5780358252600192909201916020918201910161767f565b509195945050505050565b600082601f8301126176ba578081fd5b6040516040810181811067ffffffffffffffff821117156176dd576176dd6178e7565b80604052508083856040860111156176f3578384fd5b835b600281101561769f5781358352602092830192909101906001016176f5565b600060408284031215617725578081fd5b6040516040810181811067ffffffffffffffff82111715617748576177486178e7565b604052823581526020928301359281019290925250919050565b600080828403611a20811215617776578283fd5b61010080821215617785578384fd5b604080516060810167ffffffffffffffff82821081831117156177aa576177aa6178e7565b8184526177b78a8a617714565b83526080603f19870112156177ca578788fd5b83519550838601915085821081831117156177e7576177e76178e7565b5082526177f6888884016176aa565b845261780588608089016176aa565b602085015283602082015261781d8860c08901617714565b82820152809550505061783286828701617633565b925050509250929050565b901515815260200190565b6000821982111561785b5761785b6178d1565b500190565b600081600019048311821515161561787a5761787a6178d1565b500290565b600082821015617891576178916178d1565b500390565b60006000198214156178aa576178aa6178d1565b5060010190565b6000826178cc57634e487b7160e01b81526012600452602481fd5b500690565b634e487b7160e01b600052601160045260246000fd5b634e487b7160e01b600052604160045260246000fdfea26469706673582212207f8e1195e404e28eaf7e7f5b88f68b1dffd923e9cd8ec8bb137cba626655ad2864736f6c63430008000033",
  "immutableReferences": {},
  "source": "// This file is MIT Licensed.\n//\n// Copyright 2017 Christian Reitwiessner\n// Permission is hereby granted, free of charge, to any person obtaining a copy of this software and associated documentation files (the \"Software\"), to deal in the Software without restriction, including without limitation the rights to use, copy, modify, merge, publish, distribute, sublicense, and/or sell copies of the Software, and to permit persons to whom the Software is furnished to do so, subject to the following conditions:\n// The above copyright notice and this permission notice shall be included in all copies or substantial portions of the Software.\n// THE SOFTWARE IS PROVIDED \"AS IS\", WITHOUT WARRANTY OF ANY KIND, EXPRESS OR IMPLIED, INCLUDING BUT NOT LIMITED TO THE WARRANTIES OF MERCHANTABILITY, FITNESS FOR A PARTICULAR PURPOSE AND NONINFRINGEMENT. IN NO EVENT SHALL THE AUTHORS OR COPYRIGHT HOLDERS BE LIABLE FOR ANY CLAIM, DAMAGES OR OTHER LIABILITY, WHETHER IN AN ACTION OF CONTRACT, TORT OR OTHERWISE, ARISING FROM, OUT OF OR IN CONNECTION WITH THE SOFTWARE OR THE USE OR OTHER DEALINGS IN THE SOFTWARE.\npragma solidity ^0.8.0;\nlibrary Pairing {\n    struct G1Point {\n        uint X;\n        uint Y;\n    }\n    // Encoding of field elements is: X[0] * z + X[1]\n    struct G2Point {\n        uint[2] X;\n        uint[2] Y;\n    }\n    /// @return the generator of G1\n    function P1() pure internal returns (G1Point memory) {\n        return G1Point(1, 2);\n    }\n    /// @return the generator of G2\n    function P2() pure internal returns (G2Point memory) {\n        return G2Point(\n            [10857046999023057135944570762232829481370756359578518086990519993285655852781,\n             11559732032986387107991004021392285783925812861821192530917403151452391805634],\n            [8495653923123431417604973247489272438418190587263600148770280649306958101930,\n             4082367875863433681332203403145435568316851327593401208105741076214120093531]\n        );\n    }\n    /// @return the negation of p, i.e. p.addition(p.negate()) should be zero.\n    function negate(G1Point memory p) pure internal returns (G1Point memory) {\n        // The prime q in the base field F_q for G1\n        uint q = 21888242871839275222246405745257275088696311157297823662689037894645226208583;\n        if (p.X == 0 && p.Y == 0)\n            return G1Point(0, 0);\n        return G1Point(p.X, q - (p.Y % q));\n    }\n    /// @return r the sum of two points of G1\n    function addition(G1Point memory p1, G1Point memory p2) internal view returns (G1Point memory r) {\n        uint[4] memory input;\n        input[0] = p1.X;\n        input[1] = p1.Y;\n        input[2] = p2.X;\n        input[3] = p2.Y;\n        bool success;\n        assembly {\n            success := staticcall(sub(gas(), 2000), 6, input, 0xc0, r, 0x60)\n            // Use \"invalid\" to make gas estimation work\n            switch success case 0 { invalid() }\n        }\n        require(success);\n    }\n\n\n    /// @return r the product of a point on G1 and a scalar, i.e.\n    /// p == p.scalar_mul(1) and p.addition(p) == p.scalar_mul(2) for all points p.\n    function scalar_mul(G1Point memory p, uint s) internal view returns (G1Point memory r) {\n        uint[3] memory input;\n        input[0] = p.X;\n        input[1] = p.Y;\n        input[2] = s;\n        bool success;\n        assembly {\n            success := staticcall(sub(gas(), 2000), 7, input, 0x80, r, 0x60)\n            // Use \"invalid\" to make gas estimation work\n            switch success case 0 { invalid() }\n        }\n        require (success);\n    }\n    /// @return the result of computing the pairing check\n    /// e(p1[0], p2[0]) *  .... * e(p1[n], p2[n]) == 1\n    /// For example pairing([P1(), P1().negate()], [P2(), P2()]) should\n    /// return true.\n    function pairing(G1Point[] memory p1, G2Point[] memory p2) internal view returns (bool) {\n        require(p1.length == p2.length);\n        uint elements = p1.length;\n        uint inputSize = elements * 6;\n        uint[] memory input = new uint[](inputSize);\n        for (uint i = 0; i < elements; i++)\n        {\n            input[i * 6 + 0] = p1[i].X;\n            input[i * 6 + 1] = p1[i].Y;\n            input[i * 6 + 2] = p2[i].X[1];\n            input[i * 6 + 3] = p2[i].X[0];\n            input[i * 6 + 4] = p2[i].Y[1];\n            input[i * 6 + 5] = p2[i].Y[0];\n        }\n        uint[1] memory out;\n        bool success;\n        assembly {\n            success := staticcall(sub(gas(), 2000), 8, add(input, 0x20), mul(inputSize, 0x20), out, 0x20)\n            // Use \"invalid\" to make gas estimation work\n            switch success case 0 { invalid() }\n        }\n        require(success);\n        return out[0] != 0;\n    }\n    /// Convenience method for a pairing check for two pairs.\n    function pairingProd2(G1Point memory a1, G2Point memory a2, G1Point memory b1, G2Point memory b2) internal view returns (bool) {\n        G1Point[] memory p1 = new G1Point[](2);\n        G2Point[] memory p2 = new G2Point[](2);\n        p1[0] = a1;\n        p1[1] = b1;\n        p2[0] = a2;\n        p2[1] = b2;\n        return pairing(p1, p2);\n    }\n    /// Convenience method for a pairing check for three pairs.\n    function pairingProd3(\n            G1Point memory a1, G2Point memory a2,\n            G1Point memory b1, G2Point memory b2,\n            G1Point memory c1, G2Point memory c2\n    ) internal view returns (bool) {\n        G1Point[] memory p1 = new G1Point[](3);\n        G2Point[] memory p2 = new G2Point[](3);\n        p1[0] = a1;\n        p1[1] = b1;\n        p1[2] = c1;\n        p2[0] = a2;\n        p2[1] = b2;\n        p2[2] = c2;\n        return pairing(p1, p2);\n    }\n    /// Convenience method for a pairing check for four pairs.\n    function pairingProd4(\n            G1Point memory a1, G2Point memory a2,\n            G1Point memory b1, G2Point memory b2,\n            G1Point memory c1, G2Point memory c2,\n            G1Point memory d1, G2Point memory d2\n    ) internal view returns (bool) {\n        G1Point[] memory p1 = new G1Point[](4);\n        G2Point[] memory p2 = new G2Point[](4);\n        p1[0] = a1;\n        p1[1] = b1;\n        p1[2] = c1;\n        p1[3] = d1;\n        p2[0] = a2;\n        p2[1] = b2;\n        p2[2] = c2;\n        p2[3] = d2;\n        return pairing(p1, p2);\n    }\n}\n\ncontract Verifier {\n    using Pairing for *;\n    struct VerifyingKey {\n        Pairing.G1Point alpha;\n        Pairing.G2Point beta;\n        Pairing.G2Point gamma;\n        Pairing.G2Point delta;\n        Pairing.G1Point[] gamma_abc;\n    }\n    struct Proof {\n        Pairing.G1Point a;\n        Pairing.G2Point b;\n        Pairing.G1Point c;\n    }\n    function verifyingKey() pure internal returns (VerifyingKey memory vk) {\n        vk.alpha = Pairing.G1Point(uint256(0x05743e7feefed4b25e38ca6e6edadf0a4c60aa9d34ce05ddd8a7754a3050ddce), uint256(0x1eec2db4babd68523b6077534b0c3e4606c00d4ac63f8b8add0ac47a58ac3c9d));\n        vk.beta = Pairing.G2Point([uint256(0x16d755f5b3a36fc214d934d48e8692b38ea5ff550c2ebf3ac492c36446aa2041), uint256(0x0285fe713fdd4fb00a18d60d34533e581ab7055762c66851221f5c2aa1e9e456)], [uint256(0x296e6735a027e6531a0f757af792f0704c751ce7cc9b2507dad65a58d33c12de), uint256(0x2d5d19ba396b481668b1b1b29712e9e9221d1177d80b638884377dad001591bc)]);\n        vk.gamma = Pairing.G2Point([uint256(0x12ba468dc330205bc15354719bc5a46257dde0e94a3b78c615125302e4783709), uint256(0x2efff7137b24a4924bee4e3e9aee8496b315cd1d03a1c0a1e74ad0db67c08158)], [uint256(0x004547c6026fe280a6f7afa168c2f2394a2eb38c792cc5008cd78d323b44dc4d), uint256(0x09084a5c08659e95ea9aefc3a1b27b847f60b1fd53749a0a13d0a19d2b0160a3)]);\n        vk.delta = Pairing.G2Point([uint256(0x026181a75ca7b6a235f5f87a1111ef254ac558259b9d2fc2a6c9146dca2ca002), uint256(0x2db77f3b4857982f6cc91245120bf651b28beba534d76f642fc99dede1ddf594)], [uint256(0x0109069e21cc56d7ccf046f8669a4c505763fb5b20f490152f7d0f41a201bfff), uint256(0x2f8b0173b0084a8e99f71562907e9f7273fae947a479aa49e1ca5e2fc6ad6df9)]);\n        vk.gamma_abc = new Pairing.G1Point[](202);\n        vk.gamma_abc[0] = Pairing.G1Point(uint256(0x1310a1b3b11cfc500b55bb6a5acf5f407c807ffbf8a49e19189e7d3e3aea30c1), uint256(0x17c80691f62fa92bca93f290335bf9bcedc2308b1de882b5e99c79ee15de2b09));\n        vk.gamma_abc[1] = Pairing.G1Point(uint256(0x1a395dff4f41788c2f254bd68cfa7ad9fcbd1d803d0a9e247ad53da81ffd27ec), uint256(0x1de9a2e5e9754a4cd839fa762781f2e21257133d82f70c332a7b3a498470c7ea));\n        vk.gamma_abc[2] = Pairing.G1Point(uint256(0x146d351845594a3701a04866fed9264405b4b1e4fb57874748605be03e032ded), uint256(0x271019131a87cd3ce84b63b9870fad9b2494709b7cb99c8a83becf15af218b4f));\n        vk.gamma_abc[3] = Pairing.G1Point(uint256(0x1e9bb68ad82a461b0d1ad37a453ff9516e50b73cf0e7b5b65e8555d691ff34eb), uint256(0x024a51edb9d5ae05a19f1108ee4f2d24fa1ce8af0179f349b7698cdbe1f07e7d));\n        vk.gamma_abc[4] = Pairing.G1Point(uint256(0x1a54890c81a76cdca884253be327e94a078d3eac6b30f9f55f9f0893acfdbf78), uint256(0x1df164efd74fdd3b80dcc613d973bf78c7acefe624da20a6e56138c2772797d1));\n        vk.gamma_abc[5] = Pairing.G1Point(uint256(0x0ebb009e930249252b43b01840bf0a0a1d56fd64801a9bf5b15c89f8b2e1c91f), uint256(0x2e32c71adf2fc8783507de973ba6946b8eddbab508bb0d06f5557876c72aae36));\n        vk.gamma_abc[6] = Pairing.G1Point(uint256(0x01c8551e99254c464f8a777c97317c383f992e7d62b8b94ab4a7e4698bc1bb55), uint256(0x1a820836fa2a71b6d9322390e8fdfe3dc892f6d375940f0bd21bd29ab3a6f938));\n        vk.gamma_abc[7] = Pairing.G1Point(uint256(0x0e4a0a87be73c535d491350d778075c203eea9cedacb2fe12379a2254bae854d), uint256(0x04fa543ad20d0640b5b0ba95fa53261962758d132e6dc5dcfa6a0a168388d146));\n        vk.gamma_abc[8] = Pairing.G1Point(uint256(0x007c6ce20a905dc50b9b04b373ff24a3c1e33a313863f8faa5b0ef256298c8b7), uint256(0x17f537830d2ea0e275bd85eb431424e27ab1abfd0d0aad401105e03e8595718d));\n        vk.gamma_abc[9] = Pairing.G1Point(uint256(0x1495ee2bb6cce793838822ff10ac5534139e04615965c4de79aa77f849bd29dc), uint256(0x16e13df086a6d2331f2c53c4a8d5dc653bf6e64158b28ca9a1fd52fc4cefb05f));\n        vk.gamma_abc[10] = Pairing.G1Point(uint256(0x2cd013deb0608035691b37be6ccce1bcbb0ba52decee0d2a90137b1ffbc00521), uint256(0x2c32dd2f5c1a1303d0385b2721b961ffde78bc901f5ca9cdc596babc87604feb));\n        vk.gamma_abc[11] = Pairing.G1Point(uint256(0x14866ef830985d8416f1adfb3aa1f4b16dc75cff0cfcb38768a70e82870749b5), uint256(0x26746d79a0bc01fa63a4b2a57fc60c8304d7fe3d8bfa5093cc7d6410212da221));\n        vk.gamma_abc[12] = Pairing.G1Point(uint256(0x0349d8f529587f594631ba6190205d9d28ef0a6b023dd86b303ff677b941e26f), uint256(0x01f620337f1c2a3e897e8af468f5a8c1586c5bc9ef887ad251005a38728a3a50));\n        vk.gamma_abc[13] = Pairing.G1Point(uint256(0x1dbd9f71bf696ef5d60f4b2d3ffac8e9e6d20b8dc27fd7a9501569ded1838ccb), uint256(0x11bead958b93665eb3fc1a6014c30fa082865ff53620641895f6ff78f80015cb));\n        vk.gamma_abc[14] = Pairing.G1Point(uint256(0x2a5ea74bec80e937a021f6b0a5661eb7f646b67ab7bc63214fef79b1a88411dc), uint256(0x19223bd4b225eb59a9fee6425d048407b486bdecf3ad7c0a34add4a5ff3cb794));\n        vk.gamma_abc[15] = Pairing.G1Point(uint256(0x1a75c7529c880e1565622befb74e4ab16fdc6d0278d458a5088aa59a26aefb4e), uint256(0x2485f68c6423bee248257e992fad5d7046fd9cb909130b89ff8bfc511703ae72));\n        vk.gamma_abc[16] = Pairing.G1Point(uint256(0x1a0e4f8dd7b02618fb60dc3ab20e97e69f1328c79917aef1b204384e8c088a4f), uint256(0x1b6e8156c33077d50d0890bd27ad94fb992dbce08bd44cb1334cece3889c12f0));\n        vk.gamma_abc[17] = Pairing.G1Point(uint256(0x0695b397a99b921fbbf28643231d65891983e51d5f58d6aa8ad6a8b645af53e6), uint256(0x18358722860e5e8f71d834975ff013f44dbf9904b04fe85c71a49b0899ede82d));\n        vk.gamma_abc[18] = Pairing.G1Point(uint256(0x038d7bc5a93c8a96a156eb8380a9a3a9dda120b314284597f447e15f85c7cdf6), uint256(0x2227b6d8237cbf324752babf286133c718b26dd5c1e05dcafe374453538ec3f7));\n        vk.gamma_abc[19] = Pairing.G1Point(uint256(0x27b0fc5937c30babcb6c8804bf15ec1916ff1d8d65f88646d162a7dff4db4358), uint256(0x2349afdc943715aa877535c869c5b4cf1fd5a1e2f1866ccfaf2ad13f8e5ea05b));\n        vk.gamma_abc[20] = Pairing.G1Point(uint256(0x13b499f0c333d70945d31aa83fa52899e9d18f1bfb4597d45bb00507cace88fd), uint256(0x14e7ac2d01cc77d516ba4f443d432dc059e46068531a73f6f32fa2cfc227ac24));\n        vk.gamma_abc[21] = Pairing.G1Point(uint256(0x224682330042249f1f2e838469415fe0ab55e829e5ff6fc0d3deea4ed2118d02), uint256(0x2ed3aeaab5d446b46a427ef45416dabde7c782fbee73d754aa1133d19fd378db));\n        vk.gamma_abc[22] = Pairing.G1Point(uint256(0x1aa532403ceb3fa3431c0697583338dc338dc7318db71e6356b2a6c639d80f5f), uint256(0x20d6adb41fda8acd2640baefbdd15f21b8600908f8d78e82344dfd6abdb6e7e2));\n        vk.gamma_abc[23] = Pairing.G1Point(uint256(0x04fca7981e1b82a696a4004cca8eeb9023e15bccb0a58e29309ec2f86ef4ff69), uint256(0x0a820416bb824655ecb92567d06eee832801a52f3f795f810340aea2df658dda));\n        vk.gamma_abc[24] = Pairing.G1Point(uint256(0x2bec61f0cee0c75f30eb94d26274c0bfd31a197467461460e8a89a455c01cfcb), uint256(0x234d749f829858d5936229549bbbec639bf38cf1d1866dd8d8949f3121140c44));\n        vk.gamma_abc[25] = Pairing.G1Point(uint256(0x01df53c4cc1ab4ee0864ae47926480591e198fbb026b9971a35b8b2cb7223e11), uint256(0x0d8fe30d99535fa164f1720aeaabed6375e392025ccd0dbbcdbffc724c41c01b));\n        vk.gamma_abc[26] = Pairing.G1Point(uint256(0x149a5eb0758984d921dd791895af0d9564bbc30ac893b568747d14810066d31c), uint256(0x01597b06ca092f26cdf607ba48e38872a77dfe8670d4e398bd86c469fd899b21));\n        vk.gamma_abc[27] = Pairing.G1Point(uint256(0x2bf05fa7c048fdf3f9fa291b27be46457ed1d39093344e7c61deb7b63dada1e8), uint256(0x20bffc01477f546eba1affe2e5c443b251655117fae9ad5dd75487cb15d5ec49));\n        vk.gamma_abc[28] = Pairing.G1Point(uint256(0x1aa4d4817586c1f7bfd54fe589b614598fc45b8048370702ddd7d62ff92347b0), uint256(0x10f67549409576fdfd48bcc430fbff01f7f27eb2b3db45b5896ad977794dd51d));\n        vk.gamma_abc[29] = Pairing.G1Point(uint256(0x1f8856d8d78853384d7e6670ed5aa8107ae4d442fa3add08cb9be0e18d648ad1), uint256(0x2119f213e699cc60b1058bc14c279bda297c3b0a531c22da2aef32c70e14f405));\n        vk.gamma_abc[30] = Pairing.G1Point(uint256(0x0f2001ce3247dd4442e4641e20539de2037d1d7c14a9fa5adaf4480ea667ce61), uint256(0x0dab389898ad92bb933cd345dd2190b549ab8ace726ca78ee36eddf6b35f01df));\n        vk.gamma_abc[31] = Pairing.G1Point(uint256(0x2967c20ad765180c072ddc86848653665ac4377ff2f6ba7bb57a98bc72e9d00a), uint256(0x2900251390ef1326f98512b9cb2ba4e0d861fa2f0e803c1f65710d9f9de7365e));\n        vk.gamma_abc[32] = Pairing.G1Point(uint256(0x12a88aeaa93b1be7e2d81ce726275526401f1b164eb55ef38ab5b17f0d2f290e), uint256(0x119639f32c1355e06c48a39d060a0908f885b40d2b31e4e530b9931803f76486));\n        vk.gamma_abc[33] = Pairing.G1Point(uint256(0x2a091d2efb540c662d548d56ebb5899b9ba94faa49cb4f7e55abec8507a21085), uint256(0x214323cf8a7ad998f6bc982df15480fab86ef86ddd17a4095e9a62d8619bb9f6));\n        vk.gamma_abc[34] = Pairing.G1Point(uint256(0x0046852954cc515ba73378bf2409edf5322e8e01d28c11211202b63227c526cc), uint256(0x27439287d7418393f316777925af12f9bdfc4ec122e9b16cf1e6ba470f87d3db));\n        vk.gamma_abc[35] = Pairing.G1Point(uint256(0x23674d2cec07f2afa284267b126905764508e4e7d16fa5d42aa40cd68722318b), uint256(0x0159dd53082875516527bfc04c6d24b3ebb445ba76f385891296a02101507839));\n        vk.gamma_abc[36] = Pairing.G1Point(uint256(0x28aab349ec928b0350f254b85514b41a74df40d0a86042cb806fb89a93d3c988), uint256(0x17a6c8ff0b1e59d52a667b79a280f407ae1fba573826c6c71adb6a267bb8df1d));\n        vk.gamma_abc[37] = Pairing.G1Point(uint256(0x0f367a4489fb6e8d27d23febd6da638379afae724ef0dea283071ea688a670b5), uint256(0x2054e6083dd13bf5a5c2cf300b49ba1bc9362e540bea79fe4426ab9e31440e14));\n        vk.gamma_abc[38] = Pairing.G1Point(uint256(0x02a28116e1f4560ede5d033152c9ad0fa06e58952fcd8387f7cea4abe103b149), uint256(0x213d365c02b7f8e5971969925fefa70f63a840b7f83ef8270e9be42fa7f99f85));\n        vk.gamma_abc[39] = Pairing.G1Point(uint256(0x13246a44248bcd70b8443f0afa1f93c10d1e31f4f7ab20940604eb4365858d9d), uint256(0x1e6a0fe68c2d96c5e7d2ea846ad493f4376c13dd610506910561cdbeedc10f38));\n        vk.gamma_abc[40] = Pairing.G1Point(uint256(0x2cc14f23cdd5a7847eeb78d29799d266b001f905138af41a6f9253621c606627), uint256(0x11774e3f4218b16b93f9cba214f94fcbd242890998f6a3ed3ec0bec467c79d0c));\n        vk.gamma_abc[41] = Pairing.G1Point(uint256(0x1c44b4e8526a42adf671154978c7c76f45f6047f6f2ecc8bcda5eedfd50ac3f5), uint256(0x14de6edf5cb3bfddf4495e062715b71c2d512b33503aea75f839b9165bfc8852));\n        vk.gamma_abc[42] = Pairing.G1Point(uint256(0x16428a066ec11f5057273faa8d9cf83f2ccdf64be82df16ffb8db10d9de7719c), uint256(0x1625b23782d77762be24d4c083f6bccbc412c3d0ed8cf6399df45cfdee8bd583));\n        vk.gamma_abc[43] = Pairing.G1Point(uint256(0x0232de7844e05dc3300db833d45cace2af594c06ba679648040043d38c5db58d), uint256(0x08d1a7542ab1058d270bec660d16bec6edace00892b81e3cd5f9ee769391b353));\n        vk.gamma_abc[44] = Pairing.G1Point(uint256(0x1776d0f6f439ab245e213ecca0521b5d22ddc1a740a64b37c445bace0b0d3394), uint256(0x215a172a02967c2b2b5c06617706c85fc72329c98d284dd39131c777f1e2c56f));\n        vk.gamma_abc[45] = Pairing.G1Point(uint256(0x11355d638b27a3605076da2a29d2f9be664d85f7db4df889a40b6cd7e6b50c78), uint256(0x14bb546daccc7575d7c8588bed15d4bc60d299788092eb123e30baa5c9884c9b));\n        vk.gamma_abc[46] = Pairing.G1Point(uint256(0x2a7cf6d04577ab16c4849535563f6682c0a0da0c88616b438e6dc9664b059ec7), uint256(0x30051aa46636fe4f7f7091232dc8ef7dad0155eb81d721a1d2b395b64e001f14));\n        vk.gamma_abc[47] = Pairing.G1Point(uint256(0x19d82a6baed268a624cb9b0eae10481783d3c07badb00295877764f5cd41d62b), uint256(0x0e1c22f61a878848216184eb20d2f5ed7682b1b837ada7819f2c62cb61946393));\n        vk.gamma_abc[48] = Pairing.G1Point(uint256(0x0ff6a6caec39fa1ebba2ec17d478f04e988da47e1e7e17aefab0d348e63558ec), uint256(0x1b3736f43f0c2170e5d156d519f9067f96927ed156fdca061b5ebf77b4e3412f));\n        vk.gamma_abc[49] = Pairing.G1Point(uint256(0x10df9c88ece30757b443e4bddc3d451eb8e909b6f770fc1c9454e3e97c72cbb7), uint256(0x1950437242bd7dcfd031ec22a22d674ca9a3405a7386d8ed9f83356334846064));\n        vk.gamma_abc[50] = Pairing.G1Point(uint256(0x204fb9c139cf5869174f130a13fabdf0fcc8b1c8c5b484093e09bdb7aaadbba0), uint256(0x0efc346b6abebd392d826eb94aba8e01916889bb2c62fe6e51a67ad8a47e0e8f));\n        vk.gamma_abc[51] = Pairing.G1Point(uint256(0x27d3d02e2844765d7a74f9b96c7edef77c0c56211fe933e6bab529e97f716555), uint256(0x20b17f989e0d2d7948fd20a2ed8b9da6c25bbdcdb98aa0d37a71c6a9b2e79ca4));\n        vk.gamma_abc[52] = Pairing.G1Point(uint256(0x137c86dfa242b62da0edf58f6a8893c82279b6d9a308e4304a990a1ddbde7e4d), uint256(0x0435e152599c73165eb698c2a704ec93e66108600a451d9a80a5f6cdbee17d47));\n        vk.gamma_abc[53] = Pairing.G1Point(uint256(0x2642f109806daa73ed7135f6860c62a23ca9c1c8011349aa94d8917ba4cd54a6), uint256(0x2e15fc535ce28aa824806006ff3ede4915c3625ef85f99d5dd4c414ff5bc2b84));\n        vk.gamma_abc[54] = Pairing.G1Point(uint256(0x00ef498b9a67463986f6c3344f69148bd42b7182a2e7c25ce5a0174c62d7cc65), uint256(0x2a991b4f5941eb8a1a8e6090266c439d2fa53279c2a42b7622e7a0102737ef4c));\n        vk.gamma_abc[55] = Pairing.G1Point(uint256(0x10d456720ae9e50d152fdb28c9bd488fb83cd99207602778caca5137d9211889), uint256(0x0cb7ee0cf0ed9ed151e1df796ba4093c33c3a0730c1ec7eb3e6d32edf139143d));\n        vk.gamma_abc[56] = Pairing.G1Point(uint256(0x2e40ed9747373af6e13a2e11d3a918234adc89dd5fff517698e628837523e3ff), uint256(0x256c742ea58154c39f0f6a5b44058c54020ad96713879c6ec1403393179ef8ad));\n        vk.gamma_abc[57] = Pairing.G1Point(uint256(0x2a3c6b5a9b575a6c4cdcc469e613b47daf20c14cbb473f26c775ab3c24320cab), uint256(0x2d5b4e96a7e6dd895c066136ad560649bd75343e77008f6e102b8a8701b9edd1));\n        vk.gamma_abc[58] = Pairing.G1Point(uint256(0x2d5e71adfb15d53bf6bd9e9b14f19196295ea80258116a2f90398a43953ac6e1), uint256(0x25add021d3f382d37ee376b3c759cb45d4d42f536ca69b4ebfbba95d6b439427));\n        vk.gamma_abc[59] = Pairing.G1Point(uint256(0x186fc9811d4f86e20aedf91e3d869026d049ed78375c720ee672b7427971aad3), uint256(0x045f0d5b0f6c9b4e395c4550400dfcd9e1f6db8e2b9e1f0969f9ee1fa42279d6));\n        vk.gamma_abc[60] = Pairing.G1Point(uint256(0x07c55c4d9d36c3f34c07faab448e1d52f670a6882e8ad22e3cc7d99d52a0cc21), uint256(0x29ee34bbcf51c1ae88266ad4dbbc7afed106c017eaa3a90f177ff6d4027d930b));\n        vk.gamma_abc[61] = Pairing.G1Point(uint256(0x09d64dbe49c1b521691780d4fb90da1769b50bef238d12886618623b31190694), uint256(0x1a968d51886917dbedee5df9c02f443142e38c2a1d670e0130df58cb5961bb84));\n        vk.gamma_abc[62] = Pairing.G1Point(uint256(0x043f67bb12bfe88821351fe8a46f7e23708cc115c09552990ed455b40ac2ceba), uint256(0x1c7a9895b2f34384040a29078b1a774c0a44b979ae590844833b0b9fc0b8563c));\n        vk.gamma_abc[63] = Pairing.G1Point(uint256(0x286b3d090d41cf3dd4e35871def18b6e56f24542801841f94bee29f983f82750), uint256(0x153e7a62f83c422cb9ab7a5d00381a41870ccaa71ed6986221b6da6d54abf25f));\n        vk.gamma_abc[64] = Pairing.G1Point(uint256(0x03488a14006070705ef5d2581e9a323cdcc6ee5ca3010b8b04cfb90751f5cf6e), uint256(0x2ff921391cc02e32653d058033c9435aab5b951327e9b757b06b76c24acb37d0));\n        vk.gamma_abc[65] = Pairing.G1Point(uint256(0x2e7b390bfcbbf8a15dd6167e0a8a89b01566a3b3aa8a4e0f58a9c17c7b075596), uint256(0x0aeda2caab99b27e29d119f2b7f0c29c2d159e905f605951315c81105a1db100));\n        vk.gamma_abc[66] = Pairing.G1Point(uint256(0x116e76d1a05045aa16ee79109c50cee2d5caf0fbfea61edd6bc167d7b39cb84f), uint256(0x20a32d87ad40d78febffc4c8d95e4b0814a1e16e39c110a2d40f87404ac8dcd4));\n        vk.gamma_abc[67] = Pairing.G1Point(uint256(0x00061f0704ffbc8a8c3e327b094e1bf0161da5d13286967556c94467eddd1f2b), uint256(0x1c09b1606ec03abcec84ada6445794496155d60c1f17259605bfef415bf1d027));\n        vk.gamma_abc[68] = Pairing.G1Point(uint256(0x0e5f23377a7947e08eb3928939af03ff55ca454cc6eeb008726e008c3138ddf3), uint256(0x1869b124c4048d80c359c6bd712c78efa5553aec5c5cf87faa415b39f6471183));\n        vk.gamma_abc[69] = Pairing.G1Point(uint256(0x1c4e978a21b865820a53360678c76f3fb428ed81e8e24b1fdd34aac737dd1d7f), uint256(0x14f1286677a6db4c73da7f733df2d08a3553ff0639ec301c1ec12d1634cfee62));\n        vk.gamma_abc[70] = Pairing.G1Point(uint256(0x03aecbc00ff412d083cb5b4e41acc45ae78080212abf95166fe94c4db0f5e689), uint256(0x058f6f026aadb4d2cd9fd9b48e9db07c3e9001bcff49923df4dd89733166c9e3));\n        vk.gamma_abc[71] = Pairing.G1Point(uint256(0x23d398a68892c2badc9bd96f611dca133fafd2ab61ca1e94ef957ea9b0632943), uint256(0x07d1e0ee95aacc666d9eb90822bf178fe4158ea24b320e9afe17028449c368b6));\n        vk.gamma_abc[72] = Pairing.G1Point(uint256(0x075c620e54d387ddb4bf6d7e4786701a1aefa0ae83f1a2aebb68864a34ef4fa9), uint256(0x268cda36ce5892f22ddd6e4ca913b5af052e50108330ae29f2902a32f666b707));\n        vk.gamma_abc[73] = Pairing.G1Point(uint256(0x07ef2e32e8051bf4ab1edc083d84107475545aae75ef71e0584574ca41d4c65d), uint256(0x108c8ea877ef9c1e218df701d3b4b031aaf64acc68e26c689a241d7f84850512));\n        vk.gamma_abc[74] = Pairing.G1Point(uint256(0x02f13fd1448ac9cee6e12f0427d99f4b5cbd73201ea87edaf1fc5a63dd5c2032), uint256(0x20af418826b58c81648d0e5366a3c2ede647f0c922643227c2f7b5e0b35f6560));\n        vk.gamma_abc[75] = Pairing.G1Point(uint256(0x1083d2a6a5dc3be52da5f751431ca2e1fcc78d1b2eb5753ca5570571d456720c), uint256(0x1a2911809340be7a652d51c8f211ddfa3d8de4bc91550e8ccaa415987ce34631));\n        vk.gamma_abc[76] = Pairing.G1Point(uint256(0x081f53260b9ceb0ee42d7f48c2d5ffd8146dc05b6c584595f26a3f4a68b8b5ae), uint256(0x28045c98115cd3b9a05b91025d5b7c78c2e8f847d770a23bce19c2ee055026b7));\n        vk.gamma_abc[77] = Pairing.G1Point(uint256(0x0cc171dec35fe0a7c484661df7eab2dd832e14bf663a002470c98ea1a718cc13), uint256(0x2b8c07b9e7c0e327d1a7c980e64ab5ec631af44c0921964ee45d6a00b9d71241));\n        vk.gamma_abc[78] = Pairing.G1Point(uint256(0x13a88c735d4f52054e8c874747aacc4feb634238959cb994bb328a02510d7e5b), uint256(0x0a46ea0b9eab91c037fba8aac86434283549a344f45444970ad4ee3cc4aabd2f));\n        vk.gamma_abc[79] = Pairing.G1Point(uint256(0x1e980033e322e6d2897a899b966b266c029c8f2d3524092f395cdc6da9777099), uint256(0x119cec536358e90f87474a1ed1154ec367cbf2001cd305e82832e398429224c6));\n        vk.gamma_abc[80] = Pairing.G1Point(uint256(0x1f7a45aff9c4018b07e5d5efa32196ed469bd491100e105df889c944814940e0), uint256(0x2b3dc5c2d8c52c67e6da05a66e2aaf2456e0197de65f3fd684307c3126f9754a));\n        vk.gamma_abc[81] = Pairing.G1Point(uint256(0x02dbf5573d5b1d7d9253e6a8803e2eb9d7b63e4213b96496f0d4047a4561c5ef), uint256(0x0c1595cb42e22f728afb7b664bb0aceab5630eb4842293e470546125efc805e2));\n        vk.gamma_abc[82] = Pairing.G1Point(uint256(0x18865790cf52daf989d1543ffb1b4f29bd8f4beab2465139dcc7c777634ea626), uint256(0x0df5fd0713dfdf4066e57039fe1cd3caf70fb509db5a0167c250b988a3a98f3b));\n        vk.gamma_abc[83] = Pairing.G1Point(uint256(0x01a20cd525b69da9369209840b10b00cd4b2f4bc34bae42d7f0ed3db432a5355), uint256(0x27ea22023b5f42d3fac1e70afa57e6d297c30af1d23f4998a7a8ec7420a7ad9f));\n        vk.gamma_abc[84] = Pairing.G1Point(uint256(0x10e5d3d894566722ddc709c6d5cf722a5e7a1a77a5984f01f32aa9aebd425750), uint256(0x1b54a10d81428d7a2bd897e9003a1d52ef23746bdbca22fed6a6c8ee6b152e7a));\n        vk.gamma_abc[85] = Pairing.G1Point(uint256(0x2a51b915be61b8f932c9c5524b85f94d8e239b5288141f13a3d346e59bc965e6), uint256(0x2379f66e7c10bf7f7dd00c93fa888eaba7905220538b9bae5d704d4d8e91a959));\n        vk.gamma_abc[86] = Pairing.G1Point(uint256(0x0e830b66ee86e5188b7e7198735ca0e0ef0b9fdb262a2d79d57ea0b2d892f80c), uint256(0x241f0688cbbceb5e1b858de502fd3102ea1bc3b9f46e49dd6c8dc709a7bbd0d7));\n        vk.gamma_abc[87] = Pairing.G1Point(uint256(0x22ac1f46aa7a96d6d4382e39a02f812adc350360b02579f43948d066c5d22b5d), uint256(0x15c0f34a83970229c47a4444df45b196cfea3f411251ba59ace83d08c7bc758c));\n        vk.gamma_abc[88] = Pairing.G1Point(uint256(0x1340eaa3f882631c8108a1b6620b8fb757b55b78e3c8ad2d8d0cdf5884d27a49), uint256(0x0843cc0513fc22d49bd256de1d0cb21593459571730804230f3a4454c28e08ac));\n        vk.gamma_abc[89] = Pairing.G1Point(uint256(0x002f4deeb0c8d695f57f1b3f830b304053524e00a29b22c3bde6f01b4b1a33ba), uint256(0x1f4ef96e37a00ffb6fec2670d76cdc7a5a4528f83382ebee924308f34a8c4dc0));\n        vk.gamma_abc[90] = Pairing.G1Point(uint256(0x1648a19bf3ca1eea1b92724540f9655c9b91ce6221fc18ca221b2062a14ce4c9), uint256(0x187b1a90c32944a1426b89071c3ba8561d0ecb6a0541efea200f13250792f29a));\n        vk.gamma_abc[91] = Pairing.G1Point(uint256(0x11b8cfae86e6127a68692ff8a189a9eeba6fcbfb36a09e0e8157adadaf8cfab0), uint256(0x05bb786b6dfb8f50f60317acf4c9f57ac5739ee68ad4a0733b00dd4af8d1b8ce));\n        vk.gamma_abc[92] = Pairing.G1Point(uint256(0x29d07f1137152760dc3b9d8bfa8ef0e57122e20f10d9e95d0a50e41435c40a5a), uint256(0x1d3fef05972727ad78176a2c6796fafff5ea4488179234919056b1622f31de1d));\n        vk.gamma_abc[93] = Pairing.G1Point(uint256(0x1d62934af8e9cdc3f7691d3681225f2c5ab67fcd44cb4fa51f40078620df1fc5), uint256(0x0fa26705012642d1a3871f3212e4d811468bdb94456c6dcd69230118ffbc2b20));\n        vk.gamma_abc[94] = Pairing.G1Point(uint256(0x2be965b417274bd723ce725863fb8fd1e66c21b72cac52ac12bd81db8664b360), uint256(0x2946b4a19c19acc3db87d17e19e38b3c5f4d823da9dc8ff1e52b516bd8af8250));\n        vk.gamma_abc[95] = Pairing.G1Point(uint256(0x1e935da5351edd69c0c82640f10b9e44b53a237e5d77a5abb84360a0bab47d55), uint256(0x260c8e1a3189d2aeeeab9a31bf2df982c360131493a3ca2cfa71fbaf31f92a0f));\n        vk.gamma_abc[96] = Pairing.G1Point(uint256(0x0f006146a63087249b47b1fb639cbe3d1b7bdba4575e8d8f0b597708d887b5e2), uint256(0x13901698a1f4d81301e01c0f39e8e1911b61df3d5ad2db29919df6ae6e2a6e2d));\n        vk.gamma_abc[97] = Pairing.G1Point(uint256(0x1ea05f2dd7d1b8f021b7ca6ccbdab6ab5921b75bb04108ed10928c7f120a6d6c), uint256(0x2227baab08b38fbf21bc39972539e0ba1dafc33d0df341a06cd9d2195d83d557));\n        vk.gamma_abc[98] = Pairing.G1Point(uint256(0x2bc5042045752f51c19f427f28c39cbca25173266dc0a6d6a72fce5b5045000c), uint256(0x15c47e12f15c2f4e6fd2ecf0edd6f81497a65342f353b482a45639a5115f8416));\n        vk.gamma_abc[99] = Pairing.G1Point(uint256(0x023e160d2916fa89abbace45c56fdeb5de3811066f3b3825323fe13f4ecd0c87), uint256(0x2748cb4b0a624fe24e13646dd86027a325acd72ea245422816586fbee1b50fd1));\n        vk.gamma_abc[100] = Pairing.G1Point(uint256(0x0b788738c6d5cdbd6ac3f8f86efad6601ba6cea056fcc3801f34287f25b92ee7), uint256(0x1297c5b32151ed88db39ad5fe649d37042174629ddccb6564d162fd12378cf40));\n        vk.gamma_abc[101] = Pairing.G1Point(uint256(0x2d121d01993bd8ce9658b0c85bbc944e5c688a851a23f0259c9a6f3d35d3e67e), uint256(0x269c090a314bc244d13e2330878908472b791593d5e0d435d00ce618f8f89613));\n        vk.gamma_abc[102] = Pairing.G1Point(uint256(0x18c5a584ca3a66ed0ca40a3461070a673dc41e93ba1cba6288c18a076ed3d83b), uint256(0x2ef160b96ea9116de801a8335d42735236025c443ec58be379e1eaccfb49aee9));\n        vk.gamma_abc[103] = Pairing.G1Point(uint256(0x273f10115108b31cabb3fce9acd216063e6b2863f2f29fe8cd844ec1c417bf62), uint256(0x0ed6be734a2c22bd74fb75004560f120298fecbf5f0a98012560f9dcf82f0f65));\n        vk.gamma_abc[104] = Pairing.G1Point(uint256(0x1f64327e3b07692859a814fc32c69650f6b7ee43ea4d1f08132fd445f8c1d49c), uint256(0x2af5cfa958ea05e1d0be3d3a62c9bb376d48f1fa7bbce38aa87a496683af3512));\n        vk.gamma_abc[105] = Pairing.G1Point(uint256(0x017589ee327c5c2cb27700b7ca9bcc8b3df0785fbbb896db06ce2e1535050f77), uint256(0x13c46f1ec06bcdba2fc02357cf17b24ce554d40346e24e349d868c9b9d4bb0dc));\n        vk.gamma_abc[106] = Pairing.G1Point(uint256(0x280f4a9eb92e19a888b7ac4d9043f221f9e7babb76e8e6549f8de8af8e424384), uint256(0x2ef0b074b7599eae44ea44d16e3fea2068afe88e07fecc8f55b6a84859e79be0));\n        vk.gamma_abc[107] = Pairing.G1Point(uint256(0x1055ed7ced72e5a77bc82c8d853a2cce3dda0d77006aefd0226ffffbb2a9bb88), uint256(0x0b0729607ddcbb105f9d5a56901943383254835c93d2ec29396f55d5c607e0e9));\n        vk.gamma_abc[108] = Pairing.G1Point(uint256(0x20085451eb060bc20fb5923fde5963c215524fcbb562ee7f84d443f521014063), uint256(0x16cd030ec096571f6a2d14427b05cbbb322c465ced0f2a7f9beb130ff91734d5));\n        vk.gamma_abc[109] = Pairing.G1Point(uint256(0x166a2bb94b418a627e7ac2ed5ccd1ce1b784e907581061e18a65ad09ed75a26c), uint256(0x188c60b4364a2d325f8377e203dfce25ae400f8bb7db1fd9d06a827ffa70b35c));\n        vk.gamma_abc[110] = Pairing.G1Point(uint256(0x21e93b632c69a83deac100c87c63d057a9a87a1482f55aa36dc2d221c8fdedc4), uint256(0x0bd992b5a7bf9765cedd1e395039c4d8ed98d0d0bd01a9d06b8ea944285a0c5d));\n        vk.gamma_abc[111] = Pairing.G1Point(uint256(0x0da2981002bb2f3c616a9ee3e6f633ec490f11522e988682b35a8d8e477f5317), uint256(0x1610fe8991b01437b0a7a37ef09cc46d672c9fded729e47ebae8d2c6fe1ba61d));\n        vk.gamma_abc[112] = Pairing.G1Point(uint256(0x25a82119243aab5de5e64c54e3c1f5ffe2a4c516ea467da85b14a03d159136bc), uint256(0x2ff51833f1cdc7ebf38239ff1ba021bab3c878b53db57c88cb2b23cc321ccab1));\n        vk.gamma_abc[113] = Pairing.G1Point(uint256(0x29875fd935f117099b560f6ed4c43e4975d44690617dc19ff1c3cdc86c62f62d), uint256(0x09a46967a67f41ec5758bb1f3135e4bf618cff663ee54192cad85daec3376d1b));\n        vk.gamma_abc[114] = Pairing.G1Point(uint256(0x23e1b8c75a75c8f589de378fd1f2377bfb59803b5c26c6032b5f470be5474db4), uint256(0x0fbbb48f25949e82c66801d6b896a77d05d0f89e8fc84288ddacf4a42bea9a9a));\n        vk.gamma_abc[115] = Pairing.G1Point(uint256(0x046e6f04f2c75920bb6a6bd7e65cc536dd31e3b9c92a73842e2185b47c54472f), uint256(0x07eff33cc4b2e885133f17c2fa40a391e60d9ab235b5f3ca6f6d3c0bc8d8f4f8));\n        vk.gamma_abc[116] = Pairing.G1Point(uint256(0x14ea314cecae8e90cf42c3546933539dc1bd8da51ce7f97ffd5c17717be4341c), uint256(0x012cede6cadf77bbc14e83476c3c26a7de242ae32868184fb077fce2c8c7c77a));\n        vk.gamma_abc[117] = Pairing.G1Point(uint256(0x2cd8b4e14dd84b44b30ef34f5d628cb4cf7eb54fd4eafbce0c1d5c87268e72a4), uint256(0x11450cacd5a5e559e4734ea52c2e859e0371fc63e9c9eccc00d415a421145d92));\n        vk.gamma_abc[118] = Pairing.G1Point(uint256(0x11164e41f9d94cd7fb2a6db6c8b80ec2016a2707ee7a0b2c555dbd10eca56061), uint256(0x2a6ae0b52c4eb4b580ec5e99b04447a5c7cdf522fb1f8dc5fdfdeea00ab60886));\n        vk.gamma_abc[119] = Pairing.G1Point(uint256(0x12244c32ddd8ce3f22a037b966f39636fcd1a8736ef9a2fb937a374f1123201d), uint256(0x0bbecc5fde52c29758325a9bef867939533a916f8f669024bb27e77668bf6740));\n        vk.gamma_abc[120] = Pairing.G1Point(uint256(0x0d58fe254e59e155b22610ba4ff29fe5a038350bc730d9914c4c893252989639), uint256(0x2b3d4edd219d137f8cc3cf4699e1b56075724eeb808b33cbf12c9ab29bb46752));\n        vk.gamma_abc[121] = Pairing.G1Point(uint256(0x149be4f7127ca4cef71cb35b4b34470024da34e25b4e0390a42e0451b466a26b), uint256(0x0a061079f16cc94e92037670f35179c20d905155574ace31ce0b38f42d47f980));\n        vk.gamma_abc[122] = Pairing.G1Point(uint256(0x0394ae261af251139aa0717dfb0eb48bedc30d118f8d63149af270c681d8a98f), uint256(0x2bd94e4368db128170b02b7a2b5f1286b12b4a4aa497ed6258deb05d48d41326));\n        vk.gamma_abc[123] = Pairing.G1Point(uint256(0x1ac6d29f98be94adfb96c77e6aac242a735eb4dd8cef30cfc6c7a201d3c3480c), uint256(0x248bcbc3f84e934a62bfd92d2370d5bf2a50e82ffef56d9dd8c58cc46fff2239));\n        vk.gamma_abc[124] = Pairing.G1Point(uint256(0x1f7c1e53b83496d22ae1716cc741d17b2beaf3b92e8f1b3a85d5a3defc66307a), uint256(0x08a60c600cef903d4f68049f9580c605d95dcba60d5fb2230da5c173ec0d1b5f));\n        vk.gamma_abc[125] = Pairing.G1Point(uint256(0x29b4ea66c03af0ae0208fb142f164ae9b8ec3b930bfeda0f8391126a31f323f8), uint256(0x2eaee77050ed61133a0351a6c1682b0ecf2cdb525ccfe7d28ecc6b233b16c1d6));\n        vk.gamma_abc[126] = Pairing.G1Point(uint256(0x020c148cffe150768b2c7c5b11db2feaaebebdaa065088a393d78ea30d4d589d), uint256(0x1c15759b6cf675c6946d6699c4fe25e8c76b4c007e725b47772a1b1e39c0d37d));\n        vk.gamma_abc[127] = Pairing.G1Point(uint256(0x0d26840669655e96b2bfe3f28e47b9e1242db5647da557782144d57d361ba34a), uint256(0x2a934d1752f05f759d06ca795c133c80909ded404f70b4f64ee544d92a783e2d));\n        vk.gamma_abc[128] = Pairing.G1Point(uint256(0x0a03fdb582a38c47087aa01cdc38284bf6d88840d55711c84f0b060d78098c7f), uint256(0x1a135e92655b7001f65f9425d55008fe4503aad22a8dd7fde2ab8ce9621b34ed));\n        vk.gamma_abc[129] = Pairing.G1Point(uint256(0x194715767863d1c49bafdc1052e72849eb92e1250899e1011cb8c999739debcf), uint256(0x19f16161f20a55efa858446e0be41474557a0111be6c0fb9f44043710a11d999));\n        vk.gamma_abc[130] = Pairing.G1Point(uint256(0x10fc5bc85d5e7feba054c14a3c48b61bdc8ff1df03fa2eb7a473af1fa6165ff8), uint256(0x1c2af59c3dceaf4d57d875d8cbf1eb70ade2ec317db1b12b93dd94fe2e2594f5));\n        vk.gamma_abc[131] = Pairing.G1Point(uint256(0x17349013234ba8e5f077d7f5a62e150282f38f2e7a1648110a216bb6360ec4b8), uint256(0x296540c89724212d8f15eb0196a6374ca5bf977d823e8f4e345b794d34e3c141));\n        vk.gamma_abc[132] = Pairing.G1Point(uint256(0x17a0e9b618e23c94b76bfe6ee379a1285f8ebbb853dcd9a2619b4dcd4aa2e133), uint256(0x0d279c8f97085531e0f8854905d1dc0387a1571874b0ebadc45f98d87cf1ac55));\n        vk.gamma_abc[133] = Pairing.G1Point(uint256(0x0625d344ccf30d4183130afe51a882006d495566aec42333be59e85f1ab61b38), uint256(0x21b3d9aceea1bb5e8370433645619bdb0fb0f6a5b115ebbbc3a0e95c5d636bde));\n        vk.gamma_abc[134] = Pairing.G1Point(uint256(0x2529d1c8a66e00acefa1ddc85ad156b1de65d4a20c26cf350de7d8f159090956), uint256(0x087286ad37b37f8ff6ed6788272ae5140b8fa976d17586f08c5c195cf48da61e));\n        vk.gamma_abc[135] = Pairing.G1Point(uint256(0x1a8985d33368c39133933d3e085c194a00216be4df2a8afb14d54d461dd2c1e4), uint256(0x0caaf435efbf232982fcd9332c2bf0da6b9dcbb7c55a6aa949e31dd9961f021e));\n        vk.gamma_abc[136] = Pairing.G1Point(uint256(0x21133d5b89ab6422be283b6475b5674c5294ab3ffbbf4f1903a622eecf0afe70), uint256(0x0b35b13a7296a8ac0922efa212b1477d4ae63bdd703f4b4b8f9d683847fce621));\n        vk.gamma_abc[137] = Pairing.G1Point(uint256(0x096852ebdc652f0c50c9d9e0c0d1d7dbd2225861010142b1326b01702d1b9ec7), uint256(0x06a4bb21b01c88f027baa5f4c738df8b748d1387ef6c18d63cc6940ec0ba0431));\n        vk.gamma_abc[138] = Pairing.G1Point(uint256(0x110f4d04f1755621bb870641126c27822652fac7f3e293232e8d1eac3a2e47f7), uint256(0x1b39bed3b2cb79b3e9c64cdb0ddaf37cd7d17aa2fb5a7b54a3c0b29db73922ef));\n        vk.gamma_abc[139] = Pairing.G1Point(uint256(0x207c73c585ef0634f51ca263d31af4eac50aa27bf26ce65562a5f4f05886a52e), uint256(0x27f8892f853b9ace446c5ef84314b04a93d959b1953ad9070b851581f4a2fac2));\n        vk.gamma_abc[140] = Pairing.G1Point(uint256(0x2342575a5173ab3bee4ce65f9efc740bc9cf47569c6e231ba9d449f8a8be6233), uint256(0x18cd9ff8ca9b3cd89a82dfa00e2a3acca738027366a842af528111736e842e03));\n        vk.gamma_abc[141] = Pairing.G1Point(uint256(0x135401169637d7b278f16a5a3c9cc95d756fe13d904c703ad0db35bd8d601afb), uint256(0x09904bad508bcff0dd1b9fe14fcc917065f642fdc08a965d1e089f60b0ab1340));\n        vk.gamma_abc[142] = Pairing.G1Point(uint256(0x0ea3fc23c1496808ee46d916da71f29cbe4c721ba8b20485f973edd91567c054), uint256(0x14004f3229e77452989e83af7b1d1fc7c5cf613892967f283110d71df6ed78e9));\n        vk.gamma_abc[143] = Pairing.G1Point(uint256(0x006a5b07f61d0b2be7088c94078535783500ae46e1bfceb0a54d18f63b32e4cc), uint256(0x29b0fe4cb60d72755da3991db9e67eecf944b660b40c0e08e2f6e72b65c4c717));\n        vk.gamma_abc[144] = Pairing.G1Point(uint256(0x1bb20cb8bdf3a2088f5fbc562a15e8b382a4dc1db4cad034c52ea27c3e65b066), uint256(0x2edd3153af66a47c5207604735bf0e71b0152eff711da5d9995084388985d9ff));\n        vk.gamma_abc[145] = Pairing.G1Point(uint256(0x1b8cb62436b343b7e9529f27bb106743b7f961758c8eb7c5d3c3d153d8ba5a67), uint256(0x05c02248662dcd22748acc2f44852b7eafbbf6b0504d80e3f2d34306c8985223));\n        vk.gamma_abc[146] = Pairing.G1Point(uint256(0x1142135c7d6892fc2707786002ab61df23251213a2d4911953538c9c9761bda3), uint256(0x0ff2d8550e4123642fd10f921c09ac125eb8df3b3f10854e6ff3f14ec74f4b11));\n        vk.gamma_abc[147] = Pairing.G1Point(uint256(0x106f6cd78efa1a1830bc804108470c8b1c9e10f1cee482ca13fd46aab4432f3a), uint256(0x28198f8ebfe53d87969d047bae88d2ee6aa66b75664fcc0b1461430884426432));\n        vk.gamma_abc[148] = Pairing.G1Point(uint256(0x27b49d8506aafaa89ad3e9c319ed781289880dabe2e8ade0aa722dfacf6efc73), uint256(0x042d553573afb81ec0e553168c1ce1311b1fedd47150ca0c884ce58202302508));\n        vk.gamma_abc[149] = Pairing.G1Point(uint256(0x2fe94ff3a830fecd85bbda4bcb593095ed0e5a4a2c1f7cbe009070db5b649b96), uint256(0x2d4f3a920fd83a0dd138c51399db603ea2b8123d2279e0cd7021e38f126ad1cb));\n        vk.gamma_abc[150] = Pairing.G1Point(uint256(0x1adeabbd10527368c3bb02899bba83ee1ef1bf8dd36599bab70c35baea8f700f), uint256(0x055ed0ffe336e4278cfa8e2e9cee4e7974ddabf5599127e8723daee6592f23ab));\n        vk.gamma_abc[151] = Pairing.G1Point(uint256(0x0b7ca939b21098a2c334b43546c631fea9283cf9897dbddfd92cab25a23b38c1), uint256(0x04d3315a4656126b17bb9ddd76d3bcdb874a1c9507ccd12fa60b99d9dccd043d));\n        vk.gamma_abc[152] = Pairing.G1Point(uint256(0x223ff1bde419c6ffde40a39394d3cca0e0ccab4e851e4ed8def2cf6528dc4f57), uint256(0x1c8a86320aeaf632ac0856b628bd29b913ac8a46cfc042334dd18e09eed1acf0));\n        vk.gamma_abc[153] = Pairing.G1Point(uint256(0x140f1c4d44f9da5b4d684d763d8c8ba3edb5ab414c452fc3d3c8e58d2623ba2c), uint256(0x0892c9651cfef48868f121fe5de4d08825d4ad4d649956fdf2c409e175cc6b1b));\n        vk.gamma_abc[154] = Pairing.G1Point(uint256(0x2f424ccb7dd27b0d978373956e1189b7c1b8b791e8319c1b610148fe18beefcd), uint256(0x06703e8f1de940cee02855c420e9d442a9b8b3fe0a847b9e27f390f64259991f));\n        vk.gamma_abc[155] = Pairing.G1Point(uint256(0x14bf3a0984b6150191393ec6b23ec4488ce07ebb0e4b04fd8cc79e6673e54ecf), uint256(0x1c32cda9d3eacde5eb2456bbd452b891c1a15e94df95f0ab295ce926fdded88f));\n        vk.gamma_abc[156] = Pairing.G1Point(uint256(0x129fda977ef939b62b3ace5eb63a6c6f535c49af2be06e243690ecbabdc70d58), uint256(0x0bfb94ae83f96796e17f7e3ea0cf781e2ed5067fe0fa594e7b21b41c7b27c1dc));\n        vk.gamma_abc[157] = Pairing.G1Point(uint256(0x24b9fe9e7763609070d9eb41058c06e7425d9916033227b31187cfebfcb9d7cf), uint256(0x13659ce5db6d26883b61176e4a15866ca1a575bdb3baa9660b9cae0df1d35f7b));\n        vk.gamma_abc[158] = Pairing.G1Point(uint256(0x27f3682394ae62ade6930af00d76d0e4aa4774cc861f850c1882c649ff21a7c2), uint256(0x06df680a71f2e8d63092b9c4ff10733eca8cd595acdd881ce6e3a3a89824f3dc));\n        vk.gamma_abc[159] = Pairing.G1Point(uint256(0x08f182a3f3394cfe258397fa00d5e4c688e25b7ee8668384ac46a3935de8a7ec), uint256(0x0bd1fc9db733c310a0a530e2ead8e1923f515729fea12345b89208423cf912b2));\n        vk.gamma_abc[160] = Pairing.G1Point(uint256(0x10b0089985ca6aacd8425924adca980e13b33115380daa3f64676a660feda0a4), uint256(0x175a2a13a053dc6b52c4a983a0fcd1d8f3c936b7b3e706dca411dcd2eb4f86d4));\n        vk.gamma_abc[161] = Pairing.G1Point(uint256(0x0e4d31d2213a3ef40783a80e2195a6dae096fc96f5ba544ce0eec65a9ce11079), uint256(0x0b49985deb7adc3ee9acdff088b0c118ae4e512ff4ef060d799bf3e9bac8eaf6));\n        vk.gamma_abc[162] = Pairing.G1Point(uint256(0x21fd017f57fd5fd0ba090a8c83180a1ef825e8570df88b998dc92b25c1347f1c), uint256(0x0f3cb7d5a36545548af1a5519b3a4ef7fe5c3114b1ece6d9c70b3493594a58b7));\n        vk.gamma_abc[163] = Pairing.G1Point(uint256(0x2e2aed1026870e322bd2a1083ef7b3ed9304646fd941bf00585ab164ff7a7a2b), uint256(0x1cf267369a54c21ec4848e832148683eed8b3fd885fca025449b485b7ee7641d));\n        vk.gamma_abc[164] = Pairing.G1Point(uint256(0x1572d40127e18b0b0864b05fc387508e889fecfdb584d26a23aaa3047b51ea20), uint256(0x18f170bf19c53a5177276ebef0a55edef948774ed023d6a4a0bb104195eaa614));\n        vk.gamma_abc[165] = Pairing.G1Point(uint256(0x2f05d3056108b3762220c325b74728cb0bf0a57d81fd99235ed180d960f28075), uint256(0x2da755bc51eebca96ffd0f30d3696c7d7931d37b8fe54c1b6245d83653fadeb6));\n        vk.gamma_abc[166] = Pairing.G1Point(uint256(0x27017df7aad1f17b64c1846b5990fdb34da31260f5d6a6fac91f554704cc2c8f), uint256(0x09e8468868a48d5443c0f5b7418c46f6c6610cdfa5166bc3d9bbc41fc1aa3478));\n        vk.gamma_abc[167] = Pairing.G1Point(uint256(0x2a92d2f886995122b8bdeb3e4d84f0d1b9f7a111d3b1f41969c32d7f8b1a8787), uint256(0x020d119aa2cbcba0dc29ed1b9477bb51e135556e8c3b8dfcb08e194bef55763f));\n        vk.gamma_abc[168] = Pairing.G1Point(uint256(0x235cedc878d55fe9bd81c76f4fce46559f0fced462b27aa83e166d0b7e886c7b), uint256(0x005057b8cb73526d7c48ecf2dd5edb44c7d1df4986b0796a0ea0fb42b6e6e1c4));\n        vk.gamma_abc[169] = Pairing.G1Point(uint256(0x1d3aa54e099e979342cfc6726a26551e4bfabef8daa2e2d645f4d7bd47d202e6), uint256(0x053b2879569eea21a8538db5dcc65ec18af5b9bcb1e4d0a685981ff4b781a667));\n        vk.gamma_abc[170] = Pairing.G1Point(uint256(0x037abd0406a5b0f21b300917c89a8838dbc8a6836338ead56f67439cdaf0475d), uint256(0x0e692c98439593c2008005dd49ed58496bd9489123b9e6299eefb49a52d3d6b0));\n        vk.gamma_abc[171] = Pairing.G1Point(uint256(0x1d679a5b052e6353a34d7d71aa574c5571ab4a9f32d186312aad8b34524f6959), uint256(0x2640265c18f6e9c6e88c53cfbe18887dcc70c55d106e124b3d9e663eb32deb80));\n        vk.gamma_abc[172] = Pairing.G1Point(uint256(0x17c7ef2bc1d7c944e37b15f498cc556e89c498f5c22a3677a054ccedb8676a32), uint256(0x111832a80da69f2248d41debcf6b9450e4beb7f05a14308ee0676a334504dd75));\n        vk.gamma_abc[173] = Pairing.G1Point(uint256(0x01c3a390ad4103ac8f43988287ab88f52414f64d6b1a0f2c6930c42ae2913d76), uint256(0x25424f25a3ad6b10daf2d90b5f0d185b0ab1fa02f7fe82e3656adf59cfca2750));\n        vk.gamma_abc[174] = Pairing.G1Point(uint256(0x17aec58670d0a1eda7eb767b0fd95ea5ac150196630bfaa6cf925e964ea2fcb8), uint256(0x0aec8b15aa375b2058588038cf21d7a0c13522a61b4fedee1312c81fdf13e34d));\n        vk.gamma_abc[175] = Pairing.G1Point(uint256(0x264cb93110df78427eca3b894c31d8c87587bbff1487af71abaf0d4886236254), uint256(0x1731486f6aa25d146a463bfe106289f8bee63c431a29a76ed9b2dcf61003a13c));\n        vk.gamma_abc[176] = Pairing.G1Point(uint256(0x058e9b093d9f9c1927f89bcb3b51324f687c69398211762de21ed9a8f2c4a2e4), uint256(0x15080b961d66563d6b5a444e84d933d1495670ae9ef66356233b22ded4cca5e9));\n        vk.gamma_abc[177] = Pairing.G1Point(uint256(0x2fc0fd85ef2d5b6ce3c5fd3f720743d652ad0f21b6794738cc6f9fe2c7f8327d), uint256(0x2a9177e227ea09b3f787f1f7551cce3b4e0ef151c2637c018fc3a280e952ce3f));\n        vk.gamma_abc[178] = Pairing.G1Point(uint256(0x0097e705d6102b60193523ce97fac8480689defaeab7cadcbefc498e9af3ecd0), uint256(0x213ad2e263e30993ffe5a633f11064a1cdc28cd34616ea9b0d36c7ab61d6aac6));\n        vk.gamma_abc[179] = Pairing.G1Point(uint256(0x2363f885b4de0f2077a97ae9fd863a330da55f42ced7ab691db3eff67201b137), uint256(0x0c709fb837c308ada8c19b441f58678c84006088662b9fbef666153f6c474903));\n        vk.gamma_abc[180] = Pairing.G1Point(uint256(0x1a019c0df059b7fdcef85959ca0b271babd3d7f193442d2a9a80be2e6d76c5c9), uint256(0x24564085b87888ac941e5a6520a287e60eb3c8f73d6c0f65287e0b09f47d838f));\n        vk.gamma_abc[181] = Pairing.G1Point(uint256(0x1167c321225979405947a702de3d2a517816440c52cbab4ed3d7b2d69a22198a), uint256(0x2f2b3f61836b6f09e40f98be0d9d5844bb0752801b8f0207727894cb13462623));\n        vk.gamma_abc[182] = Pairing.G1Point(uint256(0x27220cb6bd182a70f21aa4ab326739f3044038576ea4528658419c436eaf8a7b), uint256(0x09edd0eb340290b08faf627cd36753d2e84866d76408c06b10ba6e2e27a75a0c));\n        vk.gamma_abc[183] = Pairing.G1Point(uint256(0x04c11d23e15c555b5b71f423746f009a7bced2a923c01af0ead7ca4c442b1b11), uint256(0x06ce77f2461eb1354c61580e303854f0ea726230a2a9817136dc039d1febda76));\n        vk.gamma_abc[184] = Pairing.G1Point(uint256(0x084de5e54344a819e65dfc03d63d9c4d23b998a85e23bacdea4e46285c552330), uint256(0x27f4ffd9d488d4caec3dd379f51c95ad43c08733a38acb6f25aa29bacb609102));\n        vk.gamma_abc[185] = Pairing.G1Point(uint256(0x0de5eeaff753576e557b315a46e2cd30a06ec979311b298df35761b7403c4005), uint256(0x27f3b6d94da68e490103af4a4beac58bab184222542e1553256a297ea8a7a113));\n        vk.gamma_abc[186] = Pairing.G1Point(uint256(0x19bc8140a9aaaa8aeeba39616719e56f7677fbc26be33ca0250f96cce0a18008), uint256(0x0574f4828ab580364e378d5ef48d2507f91d085388d93c5bcb1918919b0fb391));\n        vk.gamma_abc[187] = Pairing.G1Point(uint256(0x0c0e55911a0e0d9fca018530f5ce478d9aee45648588749c82aaf8d85df2d591), uint256(0x0d7a171b176218344d8f0635aa9283731bae9a9692596d952e171d03f7290d2b));\n        vk.gamma_abc[188] = Pairing.G1Point(uint256(0x1383cf88c230f9ef2901441550f350fa186a2e67a00235b6d0bc45b55a7c6e04), uint256(0x211fa989c6e353a545d75fc94ac6db6881deccb1e345e2f6b4f06ed7e7c7f9b0));\n        vk.gamma_abc[189] = Pairing.G1Point(uint256(0x1534aff53bee681ff708fe98f94fe922c180557d5c4c5fc663a0c3506759ce1c), uint256(0x0bf4ffdb457c40c1d81c20f1e67f87a6f45a256fec8a36e0c2119fb7723d3a85));\n        vk.gamma_abc[190] = Pairing.G1Point(uint256(0x1dfb2ae76bd054897314f48730e28f0e44233af8bcdd8bb53833fc94c8a67a02), uint256(0x08591150705911967092748d2347b0d493c0fb4af2b4b6b911fe456575b1a694));\n        vk.gamma_abc[191] = Pairing.G1Point(uint256(0x14040415787eb614c07a3b681700592be2f04e42ec2d07bcd5b575617263565a), uint256(0x186ab7c463747c874659d9009c34d5726165859e882b50a29a0d2c61ee7afe29));\n        vk.gamma_abc[192] = Pairing.G1Point(uint256(0x24b1903e56d127eb41e461bce73873c7872b337cc7a17c6c614d196a61e0cb6d), uint256(0x2dda1ed6af70181f20a517c4a7b9e8255174f9b28c74d1492a8c8193b7d4cf1d));\n        vk.gamma_abc[193] = Pairing.G1Point(uint256(0x1daabc11027d7282d15def2e526f3dfd84e2471602661ea77ae36cde2741268d), uint256(0x040b5f93ebc3ac8b048654fc4faa76bd456d3b25d62b917b7490b83547dc4733));\n        vk.gamma_abc[194] = Pairing.G1Point(uint256(0x1389451c5062f0b6838ba90e8aab0ece78146f33ae90f8796191512d59575181), uint256(0x1c69f5edc8bfcd102a8a8732cb720ec53bbf50552e5fb119221f507097680152));\n        vk.gamma_abc[195] = Pairing.G1Point(uint256(0x0c5f7d968f1af7b3a7a3a30eac1682b0da3e2fe8411be3a9f02782b37adb4d9b), uint256(0x0d0aa9a69dd432572d707cf894fb950f3d015d41aafee11f2e866c0780e4d9c9));\n        vk.gamma_abc[196] = Pairing.G1Point(uint256(0x0f5d516d08088455c41bc324a994bb1314aee2f9b3a689667912c2cc3f023ce8), uint256(0x06ef39b1c4933a2cdbd7d103a1f1b32eb597aa23bd9305e27877eefce422cd1d));\n        vk.gamma_abc[197] = Pairing.G1Point(uint256(0x1725f1b49755723024f650bf337dc4466031e3fb3f34d7786291de16a75cdc49), uint256(0x2f85ebd88d9fe17f67d347ebb97c536a59933a143326290a13d420ab6a2afadb));\n        vk.gamma_abc[198] = Pairing.G1Point(uint256(0x17453135a5117a2aecc4262835374416a36bdaa4c2ff54c2fd617ff81618096f), uint256(0x0097a47ae12decf6b514693f6bcfb00716c1f3167603eda135f7df111025a94c));\n        vk.gamma_abc[199] = Pairing.G1Point(uint256(0x146b5325ab1728195568037cfb46a16c3ad392f31d9257014663cbebefd6377b), uint256(0x022ff40950923c6d414128c46f29ab0464d0a76932056e2a0bb563efcf4630c5));\n        vk.gamma_abc[200] = Pairing.G1Point(uint256(0x07278b3cbe2a1110f51f8b5dbdfecd25d7f8fefe6d661926dea49bad8bae04ce), uint256(0x08fc8f9ad835875b459d3c0060a23df0eec0b184f68a3c80e584fee702502207));\n        vk.gamma_abc[201] = Pairing.G1Point(uint256(0x123b781452c9b99941fd3408a7c2108f8c5acc56f6ae271064d560168a10ec5d), uint256(0x301e3176f6a876a9d918a86548b58ad7b294e797bd91911bdca0d8ff9a37aeb5));\n    }\n    function verify(uint[] memory input, Proof memory proof) internal view returns (uint) {\n        uint256 snark_scalar_field = 21888242871839275222246405745257275088548364400416034343698204186575808495617;\n        VerifyingKey memory vk = verifyingKey();\n        require(input.length + 1 == vk.gamma_abc.length);\n        // Compute the linear combination vk_x\n        Pairing.G1Point memory vk_x = Pairing.G1Point(0, 0);\n        for (uint i = 0; i < input.length; i++) {\n            require(input[i] < snark_scalar_field);\n            vk_x = Pairing.addition(vk_x, Pairing.scalar_mul(vk.gamma_abc[i + 1], input[i]));\n        }\n        vk_x = Pairing.addition(vk_x, vk.gamma_abc[0]);\n        if(!Pairing.pairingProd4(\n             proof.a, proof.b,\n             Pairing.negate(vk_x), vk.gamma,\n             Pairing.negate(proof.c), vk.delta,\n             Pairing.negate(vk.alpha), vk.beta)) return 1;\n        return 0;\n    }\n    function verifyTx(\n            Proof memory proof, uint[201] memory input\n        ) public view returns (bool r) {\n        uint[] memory inputValues = new uint[](201);\n        \n        for(uint i = 0; i < input.length; i++){\n            inputValues[i] = input[i];\n        }\n        if (verify(inputValues, proof) == 0) {\n            return true;\n        } else {\n            return false;\n        }\n    }\n}\n",
  "sourcePath": "/Users/chaehyeon/Documents/DPNM/2023/TUB/Advancing-Blockchain-Based-Federated-Learning-Through-Verifiable-Off-Chain-Computations/Blockchain/Truffle/contracts/verifier.sol",
  "compiler": {
    "name": "solc",
    "version": "0.8.0+commit.c7dfd78e.Emscripten.clang"
  },
  "schemaVersion": "3.4.16",
  "updatedAt": "2023-11-19T00:49:58.071Z",
  "networkType": "ethereum",
  "devdoc": {
    "kind": "dev",
    "methods": {},
    "version": 1
  },
  "userdoc": {
    "kind": "user",
    "methods": {},
    "version": 1
  }
}